:020000040000fa
:0418000000000000e4
:020000040000fa
:08000000060c040000000000e2
:020000040000fa
:10180c004fa9230080ff2700000188000000000082
:10181c00050007000c000700a81d020000000000d6
:10182c000040da000000fe004440a900c03c220049
:10183c000000e0000300320010002000a00188002e
:10184c004440a8000000060040662900010020006a
:10185c001600370062004000e080480091018800cb
:10186c009001ba0062004000e080480091018800bd
:10187c009002ba0062004000e08048000002eb00d9
:10188c006028e10005003a008301e90007003300fd
:10189c00038009000059eb00040037006128e100c7
:1018ac00010032000082eb00050007009101880066
:1018bc001001ba000200e000e6ff3a00000005004b
:1018cc00910188008002780062004000e0804800ae
:1018dc003559ba008301e900080032002559ba00d5
:1018ec008301e900050032000400e000f4ff32003f
:1018fc0015d9ba008301e900f1ff3a000000060097
:10190c00e621040000000000322204000000000068
:10191c00022004000000000042200400000000002f
:10192c008020040000000000c8200400000000001b
:10193c0032210400000000007021040000000000af
:10194c00a821040000000000d821040000000000c1
:10195c002225040000000000962604000000000070
:10196c005e250400000000001e270400000000009b
:10197c002e23040000000000682304000000000077
:10198c00a423040000000000fc230400000000005d
:10199c006024040000000000f82204000000000095
:1019ac002023040000000000c825040000000000f3
:1019bc000c260400000000005a2604000000000061
:1019cc00da26040000000000a82504000000000036
:1019dc00ba250400000000001429040000000000d7
:1019ec00c828040000000000b82704000000000014
:1019fc000428040000000000662804000000000019
:101a0c009027040000000000aa270400000000003a
:101a1c00442f040000000000a22c04000000000071
:101a2c00ee2c040000000000662d040000000000f5
:101a3c00ae2d040000000000022f04000000000086
:101a4c008a29040000000000ec2b040000000000b8
:101a5c00402c040000000000862c04000000000054
:101a6c00922c0400000000006e290400000000000d
:101a7c00822904000000000056330400000000001e
:101a8c0044340400000000001e3504000000000077
:101a9c0086470400000000005c41040000000000c8
:101aac00de43040000000000c04004000000000001
:101abc00781f0400000000009e410400000000009c
:101acc00d6410400000000001a420400000000008f
:101adc004042040000000000b2420400000000007c
:101aec00e4420400000000002c430400000000004d
:101afc008443040000000000c84004000000000003
:101b0c005041040000000000a04c04000000000044
:101b1c00e64c0400000000005e4c040000000000d5
:101b2c00204a040000000000c64a04000000000027
:101b3c00d64b040000000000124c04000000000012
:101b4c00fe49040000000000124a040000000000de
:101b5c00405a0400000000006e5904000000000010
:101b6c007a590400000000008459040000000000b1
:101b7c009059040000000000025a0400000000000c
:101b8c0078560400000000004257040000000000da
:101b9c007a570400000000001e58040000000000ea
:101bac002259040000000000ea5e0400000000005e
:101bbc009e5b040000000000545c04000000000068
:101bcc00c05c0400000000006c5d0400000000001c
:101bdc00925e040000000000965a04000000000011
:101bec00405f040000000000926004000000000050
:101bfc00e061040000000000f0610400000000003f
:101c0c000e620400000000001e6e040000000000c4
:101c1c009a71040000000000307304000000000002
:101c2c00e877040000000000347804000000000095
:101c3c00d078040000000000dc78040000000000f4
:101c4c00e678040000000000f078040000000000ba
:101c5c00727a040000000000367b040000000000d3
:101c6c00600e040000000000020f040000000000e1
:101c7c007c180400000000000000040000000000bc
:101c8c00a1a82000a40007000000e0000600350019
:101c9c00a1a82000a0002000e50007008000eb00b8
:101cac000000e00001003d008080eb0001007800a6
:101cbc0000000600889fbe008004780001007800b8
:101ccc00020478008901780011002000fe00070052
:101cdc00880f5000010032008004eb0009007800ee
:101cec004f04be00000006000000fa004fb9970038
:101cfc00e8815700a1a8200000e62000470107005a
:101d0c000080fa0000000600040037000204e00026
:101d1c000a0032000000e8008100e8001041780061
:101d2c00914f5100f9ff32000081eb001040780018
:101d3c00914f500004003900020037000001eb0005
:101d4c00010037001200200002007800000006009d
:101d5c008001780002003700815978000201e90007
:101d6c000200e000fcff3a00000006008000780052
:101d7c00010037000000e8001004e000fdff3a000d
:101d8c00010050000000060080017800000178007e
:101d9c0031407800005978000004e000fcff3a0064
:101dac000300780000000600889fbe0081047800c4
:101dbc00114478000804e00009003a000c003700d8
:101dcc008001780009017800d24078000104e0001d
:101ddc0007003200d3cf1000fbff32000000e800f8
:101dec008800fb00c60107000000e000f4ff3a0089
:101dfc004f04be0000000600881f78000204780023
:101e0c0014000700080040004f0478000000060092
:101e1c000000fa00881f7800000478003fb9970092
:101e2c00ea8157008000780020f02000fb000700ba
:101e3c00800078000000e000020035000040eb005c
:101e4c0000f47800010078004f0478000080fa005c
:101e5c00000006008001780002003700b1597800bc
:101e6c000201e9000200e000fcff3a00000006005d
:101e7c0002027800809fbe00110009008200d80089
:101e8c00000178004f00be0002a2b900848050000f
:101e9c0011009800020878000000060007003700c7
:101eac00834f52000b0032000201e800924178008f
:101ebc000304e000faff3a000000e800104278004a
:101ecc000404e0000200320001017800f7ff370043
:101edc000000eb00000006000b00370010427800f9
:101eec0091417800834f5200040032000081eb00d6
:101efc000700390012002000050037000000e80040
:101f0c008100e8000201e9000200e000f3ff3a0062
:101f1c000200780000000600889fbe008a9fbe0069
:101f2c0000057800810478002d003700c90090006e
:101f3c0069009000808f500004003900090078007f
:101f4c00780107000000e00035003500004020005b
:101f5c001900600009003200a10020000a0078007e
:101f6c00b3010700800578000000e0000300320098
:101f7c000a0050000004e800040037000a00780052
:101f8c007aff0700000478008005eb00c90190007f
:101f9c006900900003005000880f500002003100cf
:101fac00000478008005eb00080178008a007800b6
:101fbc0003007800a7ff07000805450049009000c2
:101fcc0000004400c00498000b00e0000400320044
:101fdc0009007800a10107000000e00010003a00a1
:101fec001a04e000d1ff3a000080200019006000c4
:101ffc000400320009007800980107000000e0009e
:10200c0007003a0000c020001900600005003200f3
:10201c0049009000e00498000000eb00010037003c
:10202c000080eb004f05be004f04be000000060010
:10203c00889fbe008a1f7800800478000104780015
:10204c0000457800c100900068009000808f50001f
:10205c000400390008007800320107000000e0009d
:10206c00150035004800900009587800400498008d
:10207c001800780000b8a30004003a0000a8a300e0
:10208c0006003200ea4f550004003a0008007800c0
:10209c00720107000000e00007003a0000c02000b9
:1020ac0018006000020032004800900060049800a4
:1020bc000a80fb00010037000080eb004f05780020
:1020cc004f04be0000000600889fbe008a9fbe0021
:1020dc008c9fbe008e1f78008106780083047800e8
:1020ec00000678000288b900000778000000e000c4
:1020fc0002003a0000017800420037000d00e000b9
:10210c004000320000057800c90090006900900082
:10211c00808f50000400390009007800010107008d
:10212c000000e0002900350000402000190060008c
:10213c0003003a000a047800800578000b00370091
:10214c000a017800a10020000c0078008001070033
:10215c00800578000000e00002003a000a047800d4
:10216c00020037000c0050000004e800c901900088
:10217c006900900003005000880f500002003100ed
:10218c00000478008005eb00080178008c007800d2
:10219c00030078002fff07000806460008055500cd
:1021ac004900900000004400c00498000b00e000bf
:1021bc000400320009007800280107000000e0004c
:1021cc0002003a000a00e000cfff3a000080200035
:1021dc001900600002003200090078001f0107009e
:1021ec0000c020001900600002003200490090007d
:1021fc00e00498000a005700110009000d80d80077
:10220c0000017800020078004f0778004f06be00ee
:10221c004f05be004f04be00000006006200fa002d
:10222c00889fbe008a9fbe000004be000205780095
:10223c008300780060f92f000f0040004f01070069
:10224c0088979f0099979f000000eb00a09f9f002c
:10225c009a4578000b80fb000000ea00cf04de00fa
:10226c0050c2b30080cf5500020032000904780040
:10227c00010037000904e9000800e0000b003400fd
:10228c001f909700080178008a0078008f919700c2
:10229c000300010090979f000000e00093003200c3
:1022ac002f98970000004400a09f9f00090545004f
:1022bc0050c2b30080cf5500040032000b04e00084
:1022cc00e3ff3a002f989700890037000000eb00dd
:1022dc00809f9f00f0979f00e0979f00d0979f00f2
:1022ec00c0979f00b0979f00c09f9f0009003700c8
:1022fc0020b52000008050000000400061b4200098
:10230c00e08078004f98970001007000c09f9f00fc
:10231c000a05e8001a4478008800fb0020b520006c
:10232c0077000700800078000000e000f0ff3a0022
:10233c00a0c2b300804f54000e003a00bf88970033
:10234c000180e900b08f9f0010007800b09f9f00c3
:10235c000000e00005003d000000ea00b09f9f0077
:10236c004f9897000020a000c09f9f000a05e8002e
:10237c0010003700b19f9f0009003700bf989700ed
:10238c00f0ff2700808f5000040032006a08b9006b
:10239c000000410003004000b09f9f000a05e800c8
:1023ac001a01fb0003fd2f0003004100e90f500050
:1023bc00f2ff3600e0c2b3009a4f10000400320066
:1023cc000080eb00909f9f008a0478001c0037006f
:1023dc008a04e800a0c2b300994f100007003a002d
:1023ec00bf8897000180e900b08f9f001000780033
:1023fc00909f9f008a84e800110037000000eb00da
:10240c00909f9f00090037009f989700f0ff2700ce
:10241c00808f5000040032006a08b90000004100af
:10242c0003004000909f9f008904e8001901fb0005
:10243c0003fd2f0003004100e90f5000f2ff3600ae
:10244c00194478008800fb00c02b23002c000700e7
:10245c000000e00002003a00004478000100370060
:10246c008904e800a87f9f0080c6b300804f540009
:10247c0004003a00994f14000a003a0066405000dc
:10248c0006003700c0c6b300804f540005003a0068
:10249c00994f140003003a0065404000a07f9f0054
:1024ac008904e8000905e800cbfb2f008f85450067
:1024bc001901fb0060f92f000f0040000084e800b8
:1024cc008b0178008000780008007800b0000700cd
:1024dc000000e00005003a008b007800080078004e
:1024ec00ef0107000000e00059ff3d000080eb0009
:1024fc004f05be004f04be000080fa00000006002d
:10250c00040037000204e00001003a00000005005e
:10251c000000e80010417800814f5100f9ff3a00ab
:10252c0000000600889fbe0000047800c0019000e7
:10253c00600090008000eb00808f51003900390062
:10254c00180178002000290000006100e20f500003
:10255c0007003200002020000200e00001003500de
:10256c0000202400000c71008080eb002d0037004f
:10257c000100260001006100810f500008003a00a4
:10258c0038009000808f5100050039000800780059
:10259c00320007008080eb000000e00021003a00d0
:1025ac0000c020001800600017003a00a80490003a
:1025bc006002200008004000808f540012003a0096
:1025cc0000202000d512070080007800200498001d
:1025dc000000e00005003a00290498004904980026
:1025ec000900e80030049800060037001860a000cd
:1025fc00400498000020b00030049800410c980072
:10260c00510c9800720207002800900050049800aa
:10261c00380090006004980000002600180c700030
:10262c008000eb00010078004f04be0000000600a3
:10263c008001eb0010417800814f510001003a00fd
:10264c00800178000204e000020032000000e80083
:10265c00f8ff37000300780000000600889fbe00da
:10266c00000478000000e0000e003a0080047800be
:10267c008980440020a52000610078000000e00063
:10268c0004003200f5ff07000000e00001003d00ef
:10269c000084eb008904e800e78f540029003c001b
:1026ac00f3ff370000002200180060002400320005
:1026bc00a804900008003700090150003840900031
:1026cc000000fb00890078005a0307000000e000be
:1026dc00130034008084440048009000808f540024
:1026ec00f5ff39002800900040049800180178008c
:1026fc0000c020000000610002003200a800900021
:10270c0001003700b80090000000240000006100b8
:10271c000a003200610498000004eb000900370045
:10272c00280090004004980060049800500c980019
:10273c001890a0000084eb0002003700510c9800a8
:10274c0000047800080078004f04be00000006006a
:10275c000600370090cf100002003a00000178000c
:10276c00040037000000e8000201e9000200e0006c
:10277c00f8ff3a0002007800000006000200fa00a0
:10278c00f1bf9f00010878000080fa0000000600ed
:10279c00889fbe008a1f7800000478000102780030
:1027ac008244780003057800e0c6b300804f5100e6
:1027bc00d300320015003c006b405000804f51009c
:1027cc00240032000a003c0070405000804f510041
:1027dc001001320065404000804f510074003200ff
:1027ec0050c2b300804f510021013a001d01370047
:1027fc0040c6b300804f51001b00320065404000c2
:10280c00804f51001a013a001700370030c7b3004f
:10281c00804f5100ff00320007003c006440500024
:10282c00804f5100620032000040e800804f5100a0
:10283c000f013a00e800370050c7b300804f510039
:10284c005b00320063404000804f510008013a00a9
:10285c00570037009180e900010a78007800900059
:10286c009171780008013700a8609000c0c6b300d1
:10287c0080cf50000a003a00940078006480500029
:10288c00000a78001000be004f89de00cf91de00f8
:10289c000002be00020378008203780013003700a8
:1028ac0010c7b30080cf500003003200a0c6b300a5
:1028bc0080cf500006003a009400780068805000e9
:1028cc00000a78003002be002003be00070037006b
:1028dc001480e900000a78001000780000027800eb
:1028ec00cfa2de000503780086037800049cbe00ae
:1028fc000694be00a860900080c6b30080cf500044
:10290c000e00320020c6b30080cf500005003a0004
:10291c000400fb00cf80de0001017800820178000a
:10292c000a00370040c7b30080cf500003003200cc
:10293c006640400080cf500006003a00040078004a
:10294c00cf80de000101780082017800009cbe007f
:10295c000294be003800be002801be00e00f5000fb
:10296c00e08f5800e00f5900e08f590003003d0044
:10297c0078009000d1c2b3000a0037000810900014
:10298c000018a3000300320078009000b1c2b3001d
:10299c00040037000008a3005400320078009000b7
:1029ac0001c2b300017578000000e8004e0037004a
:1029bc00a8609000c0c6b30080cf500007003a005a
:1029cc009400780064805000000a78001002be0069
:1029dc000003eb00860378001300370010c7b30028
:1029ec0080cf500003003200a0c6b30080cf50004f
:1029fc0006003a009400780068805000000a7800c5
:102a0c003002be002003be00070037001480e9002e
:102a1c00000a780010007800000278000500200001
:102a2c000600200007002000049cbe000694be0097
:102a3c00a860900080c6b30080cf50000e0032001a
:102a4c0020c6b30080cf500005003a000480fb0084
:102a5c000100200002002000030020000a003700c3
:102a6c0040c7b30080cf50000300320066404000e6
:102a7c0080cf500006003a000400780001002000ce
:102a8c000200200003002000009cbe000294be0047
:102a9c00081090000038a300140032003800be006b
:102aac002801be00e00f5000e08f5800e00f5900e5
:102abc00e08f59000d00320080c7b30080cf540066
:102acc000300320080c5b30080cf540007003a00e9
:102adc007800900001c3b300017578008000e80015
:102aec0009f578000080e8007004980078009000e8
:102afc0000004500600498008940780042003700cf
:102b0c00a8609000c0c6b30080cf500025003200f2
:102b1c000a003c006440500080cf50002800320076
:102b2c0000c0e80080cf5000140032006840500014
:102b3c0080cf500022003a000a00370040c7b30093
:102b4c0080cf50001e0032006640400080cf500005
:102b5c001b0032006940500080cf500018003a0032
:102b6c00060037001480e900000a78001000780095
:102b7c00485c900008487800450037001480e90054
:102b8c00000a78001002780068089000cf80de0000
:102b9c000101780082017800009abe000292be000a
:102bac003b0037001480e900000a7800100178001f
:102bbc0068089000cf80de000089be00340037002a
:102bcc001480e900000a780010007800680c90006e
:102bdc00080878002e0037001180e9008008780082
:102bec0010007800cf80de000101780082017800af
:102bfc00009cbe000294be007800900000004500ce
:102c0c006004980081c7b3000800780043010700f6
:102c1c001f0037001480e900000a780010007800cb
:102c2c0060049800580990000200e00002003d008a
:102c3c004efc0700090037008000eb00c4fe0700c3
:102c4c00800078000000e000030032006800900073
:102c5c00008050000100370058089000100c9800bc
:102c6c000b003700780090000275780006003700e2
:102c7c0078009000800045000904e00001003a0053
:102c8c0059c2b300894878000000e800700498002d
:102c9c000000eb004f0578004f04be00000006005a
:102cac000400fa00889fbe008a9fbe008c1f78002b
:102cbc00000478000106780070089000f80090007d
:102ccc000100500088089000010050009808900006
:102cdc0001005000a808900001005000b8089000b6
:102cec0001005000c808900081055000000222002d
:102cfc0090bf9f0000032300a0bf9f00081090000e
:102d0c000028a30018003a000b00e0001600340065
:102d1c008b04780009057800e28f5400020036001d
:102d2c002a002000020037000900e0000b003400ec
:102d3c0058009000c80190000a017800ee805700fe
:102d4c0003000100500498000000e00096003200df
:102d5c006808900000004500600c98008a845400bc
:102d6c004240a900ebff3c00780190000200e0001b
:102d7c000b00340058009000c80190008c007800c3
:102d8c0003000100500498000000e00086003200af
:102d9c0068089000f800900001004000600c98005a
:102dac00880c90000900e00015003400090578003b
:102dbc00e28f5400020036002a0020000200370087
:102dcc000900e0000b00340058009000c80190008e
:102ddc000a017800ec8057000300010050049800b1
:102dec000000e00070003200680890000000450010
:102dfc00600c98008a8454004240a900ebff3c0010
:102e0c00180990000200e0000b003400e80090006c
:102e1c0058009000c8019000030001005004980075
:102e2c000000e000600032006808900098089000f4
:102e3c0001004000600c9800a80c90000900e00014
:102e4c001500340009057800e28f540002003600aa
:102e5c002a002000020037000900e0000b003400bb
:102e6c0058009000c80190000a017800ec805700cf
:102e7c0003000100500498000000e0004a003200fa
:102e8c006808900000004500600c98008a8454008b
:102e9c004240a900ebff3c00380990000200e00022
:102eac000d003400e800900018089000808040006d
:102ebc0058009000c80190000300010050049800d5
:102ecc000000e0003800320068089000b80890005c
:102edc0001004000600c9800c80c90000900e00054
:102eec001500340009057800e28f5400020036000a
:102efc002a002000020037000900e0000b0034001b
:102f0c0058009000c80190000a017800ec8057002e
:102f1c0003000100500498000000e0002200320081
:102f2c006808900000004500600c98008a845400ea
:102f3c004240a900ebff3c00081090000028a300c1
:102f4c001b0032000b00e000190034008b047800e9
:102f5c0009057800e28f5400020036002a00200098
:102f6c00020037000900e0000b003400580090000c
:102f7c00c80190000a017800ee80570003000100a0
:102f8c00500498000000e000070032006808900030
:102f9c0000004500600c98008a8454004240a9004f
:102fac0003003400eaff37000080eb00010037001b
:102fbc000000eb004f0678004f05be004f04be002a
:102fcc000080fa0000000600c08721000a013700cb
:102fdc00a84be20003003a00fbff070020c0b3003f
:102fec00a8ebb70000000600889fbe000004780024
:102ffc009afd07008004780000042000180060008f
:10300c0002003200280090004c1007000000eb007a
:10301c0020049800384090000004e00005003500c2
:10302c000000fb003c0107000000e0000100320042
:10303c008084eb00181090000000e00008003200c3
:10304c00400107000000e000010032008084eb002a
:10305c0018109000391007000000eb0010149800b5
:10306c0000082000180060000f0032008000eb0008
:10307c000181400023a5200062807900880f500058
:10308c00060032008100e800e78f5000f8ff3600a0
:10309c0008007800291007001100370003004100d8
:1030ac000008eb00faff3700000c780000c0eb00c2
:1030bc003044980060022000080040002004980072
:1030cc004004980050049800400c9800600498004c
:1030dc00500c98007004980076004400000c980086
:1030ec00090078004f04be0000000600881f78001d
:1030fc00780020008800440020a5200061007800a2
:10310c000000e00001003200b7ff07000804e900ee
:10311c00f8ff3b004f04780000000600ef02b000ff
:10312c00889fbe008a9fbe008c9fbe008e1f7800b9
:10313c008006780000012000b0b79f0052b3200039
:10314c00c2b79f0080c5b30080cf50000e00320084
:10315c0083002000b3b79f0044b22000c4b79f0087
:10316c007740400080cf5000070032000001200063
:10317c00b0b79f0080c7b30080cf50000200320070
:10318c00a2002000b2b79f003d04be002d05be007a
:10319c0040c6b30080cf50000300320065404000b1
:1031ac0080cf50000b003a00e00f5400e08f5c0021
:1031bc00e00f5d00e08f5d0006003d006000b80090
:1031cc006011b80008045000898458000a055900a1
:1031dc008b855900e00f5400e08f5c00e00f5d0020
:1031ec00e08f5d0004003a005d0890008e01200025
:1031fc000000e0000c003200bfb197000302780021
:10320c00cfa2de0005037800860378000800be001c
:10321c000a01be00c10107004fb29700644078005c
:10322c00d0df9f007e0120003fb0970000027800a5
:10323c00cfa2de0005037800860378000800be00ec
:10324c000a01be00ae01070023003700bfb0970093
:10325c0001047800cfc4de00090578008a057800e7
:10326c000802be000a03be007fa897008fb097002b
:10327c001fb19700afb19700ac010700d0b79f000a
:10328c00e1b79f00f2b79f0083bf9f000e07e900d4
:10329c0062fc2f000f0141000e0641000802be0027
:1032ac000a03be005fb09700efb097007fb19700a4
:1032bc008fb99700ad0007007faa9700000052005d
:1032cc00cfb09700614e78005fb09700efb09700d9
:1032dc007fb197008fb99700809ebe008296be008a
:1032ec003d00be002d01be00f0af9f0081b79f00d6
:1032fc0092b79f00a3b79f00e00f5000e08f5800db
:10330c00e00f5900e08f5900020034000e00e0007d
:10331c00ceff3c00bfb09700e88f500010003a0081
:10332c000d1090000038a3000d003200f70f57006d
:10333c0006003e0062fc2f000f0141008e00410090
:10334c0000c3b300914f1000050032000e07e900d6
:10335c0000c3b30063fc2f008f81410080717f009c
:10336c0078011700920e98006d00900063fc2f00fe
:10337c008f8141008e804100b6fa07001d09900034
:10338c005d089000800f510006003d0002005000c7
:10339c00800e98000d1090000040a100801698003f
:1033ac000f0037000000e0000d003d000d109000f4
:1033bc0074006000f00f500009003a007d08900086
:1033cc00fd009000010050008d089000010050009d
:1033dc00020050004240a90001003400800e980009
:1033ec004f0778004f06be004f05be004f04be00cd
:1033fc00ef02b10000000600000178000000200080
:10340c000000e00008003200000080000000e00036
:10341c00050032000000e9000000880000004000b8
:10342c000100800002b078000000060000c0da0045
:10343c00000006000a00fa00800178008102780082
:10344c00e20f500027003e00505d8000e10f50005d
:10345c0008003200802320000000e000050032004c
:10346c000323200024232000462320008000780022
:10347c0004003700032220002422200046222000d2
:10348c0081222000134090000004e000040035006d
:10349c008008eb00134090000070a0009041980051
:1034ac00144090000028a30003003a001440900040
:1034bc000020a0001042980082007800060037001f
:1034cc00144090000008a300fdff32003500fb0003
:1034dc00000b78008100e9000100e000f8ff3a00e1
:1034ec00080037006a80570031002000b1bf9f00f0
:1034fc00c3bf9f00d5bf9f00e2bf9f00cbff07005b
:10350c006fb99700020078000080fa0000000600f6
:10351c0000c0da00000006000a00fa0011002000ca
:10352c00b1bf9f00c0bf9f006a805700f8ff070023
:10353c004fb897000080fa000000060000c0da00c7
:10354c00000006000a00fa00800078006a8057002c
:10355c0052002000b2bf9f00c1bf9f00f7ff0700c1
:10356c005fb897000080fa0000000600889fbe003c
:10357c008a9fbe008c1f78000205be000004be00ae
:10358c000006eb00e00f5000e08f5800e00f5900f0
:10359c00e08f590007003d006000b8006011b800d2
:1035ac0008045000898458000a0559008b8559007d
:1035bc001c002000e00f5200e08f5a00e00f5b006f
:1035cc00e08f5b0002003d000f0007000c00a20022
:1035dc000800be000a01be00250007000203be0061
:1035ec000002be000c00e0000100320006000700e3
:1035fc000400be000601be004f0678004f05be0059
:10360c004f04be00000006006000b8006011b80056
:10361c000402500085825800060359008783590024
:10362c00000006006022b800060220000000d00056
:10363c008180d2000482d2008582d2000000a000da
:10364c000202520083825a0003003100020242003f
:10365c0083824a000000a1000603e900f3ff3a0050
:10366c0000000600efff07000400be00000006008b
:10367c00889fbe008a9fbe008c9fbe000404b800c9
:10368c000506b8008904460060854e000606b800a1
:10369c000a054600e0854e000706b8008b0546007b
:1036ac00040eb800890446000a854e00e0854d00e2
:1036bc00050eb8000a0546008b854e00060eb800b4
:1036cc008b0546000416b8000a0546008b854e0093
:1036dc000516b8008b054600041eb8008b05460085
:1036ec000800be000a01be004f06be004f05be001a
:1036fc004f04be0000000600881f7800000478000c
:10370c005001be004000be0004004000858048000f
:10371c000601490087814900009cbe000294be004e
:10372c000400e1000588e1000690e1000798e10043
:10373c0002003100680044001008e8004f047800d3
:10374c00000006001000fa00889fbe008a9fbe0091
:10375c003004be002005be00c8b79f00d9b79f003b
:10376c00eab79f00fbb79f000404540085845c00fb
:10377c0006055d0087855d0088bf9f0099bf9f008f
:10378c00aabf9f00bbbf9f000898be000a98be004e
:10379c008000eb004fb49700dfb497006fb5970033
:1037ac00ffb597000440e10005c8e10006d0e10038
:1037bc0007d8e10001003100110020001088100032
:1037cc004f05be004f04be000080fa00000006004a
:1037dc001200fa00889fbe008a9fbe008c1f7800e2
:1037ec000205be000004be00f4b79f0085bf9f0019
:1037fc0096bf9f00a7bf9f000000eb00e0b79f00a3
:10380c00d0b79f00c0b79f00b0b79f00a0b79f0074
:10381c0000067800dfb097006fb097000001400001
:10382c000000e0000a003d008c00070001003d0094
:10383c00120020009200070001003d001200200041
:10384c00970007007c805700abff0700090037008a
:10385c008200070001003d001200200088000700d4
:10386c0001003d00120020008d0007007c805700f5
:10387c00b4ff07006fb297000400e00007003500aa
:10388c0010002000010020006011b8000804700036
:10389c00898470000a0571008b8571000c06e800a4
:1038ac00f0032000800f5600daff34000400e00023
:1038bc0006003d007fb297008fba97001fbb9700a0
:1038cc00afbb97007c8057008bff07006fa8970059
:1038dc000000e00004003a002fb49700bfb497003a
:1038ec004fb59700dfb59700890007004f067800a9
:1038fc004f05be004f04be000080fa000000060019
:10390c00881f780018002000881f7800b0ff07007f
:10391c008f87e9004f04780000000600801feb0041
:10392c00abff07008f87e90000000600889fbe00f0
:10393c008a9fbe008c1f78006e00070005003d00ba
:10394c002f00070007003d003d0007000006eb00bc
:10395c00040037003f00070002003d003000070064
:10396c001c0020006a000700e5ff07000203be00f0
:10397c000002be000c00e00001003200280007002d
:10398c000400be000601be004f0678004f05be00c5
:10399c004f04be0000000600889fbe008a9fbe0038
:1039ac008c1f78005300070003003d001400070033
:1039bc0006003d00040037002600070003003d0010
:1039cc006000b8006011b8001d000700500007002f
:1039dc00d2ff07000203be000002be000c00e00094
:1039ec00010032000e0007000400be000601be00fc
:1039fc004f0678004f05be004f04be0000000600c5
:103a0c006000b8006011b8000804500089845800a8
:103a1c000a0559008b8559001c0020000300370053
:103a2c006000b8006011b80005003700e00f5200cc
:103a3c00e08f5a00e00f5b00e08f5b000000060097
:103a4c0004025000858258000603590087835900f0
:103a5c00000006000006eb00f4ff37004f08de0004
:103a6c0000007100c0b79f0001804000b0b79f00fc
:103a7c000001eb00afb097000100e0000000060071
:103a8c0002007000b0b79f0001804000a0b79f00fb
:103a9c000001eb009fb097000100e0000000060061
:103aac0002007000a0b79f00018040000fb2970089
:103abc00cf20de000100700090b79f00040242008e
:103acc00130007004f18de000002720084b79f003d
:103adc000804440089844c000a054d008b854d0078
:103aec005fb29700efb297007fb397008fbb970040
:103afc00000006000205be000004be00e00f5000ee
:103b0c00e08f5800e00f5900e08f590000000600cc
:103b1c000800be000a01be00000006004211880029
:103b2c0000118800111188000000060022c2bf009d
:103b3c00610060000000060032c2bf00610060003e
:103b4c00000006000000fa00f50007000080fa00f3
:103b5c00000006000000fa0064020700d904070008
:103b6c00d1050700bd0a0700b90b07003f2207006b
:103b7c00f12707000080fa00000006000000fa00a0
:103b8c000080fa00000006001000fa00002020005f
:103b9c00620d0700000f78001e00e00003003a00e1
:103bac00e047280036f8070067003700e4004700bc
:103bbc00f0492800ab0e0700100798001e0090007b
:103bcc000000e00060003a006c0147002e009000fd
:103bdc00a1002000dd0d0700100798001e009000ca
:103bec000000e00058003a00e6004700b04a280008
:103bfc009c0e0700100798001e0090000000e000cb
:103c0c00070032001e009000801f7800e04a280058
:103c1c00801f780034f80700e48757004a0037000b
:103c2c00004d280016f807006a0147003e0090007e
:103c3c0091002000c50d0700100798001e00900091
:103c4c000000e000070032001e009000801f78008a
:103c5c00e04e2800801f780023f80700e487570007
:103c6c00390037002051280005f807005e0090004d
:103c7c00100278003e00900023532800a253280025
:103c8c008000eb0004000100100798001e0090005b
:103c9c000000e000070032001e009000801f78003a
:103cac00e0532800801f78000ff80700e4875700c6
:103cbc0025003700b0552800f1f707003e009000b2
:103ccc00480f0700e800470040572800650e070022
:103cdc00100798001e0090000000e0000700320062
:103cec001e009000801f780050582800801f78001c
:103cfc00fdf70700e4875700130037006e014700fb
:103d0c004e009000a1002000900d070010079800b5
:103d1c001e0090000000e000070032001e00900022
:103d2c00801f7800705a2800801f7800eef707007b
:103d3c00e4875700040037004e009000290f07005d
:103d4c002e009000270f07000080fa0000000600ec
:103d5c001800fa0000202000f00c07002007980043
:103d6c00ea004700f04928003e0e07003007980093
:103d7c003e0090000000e00058003a006e01470041
:103d8c005e009000a1002000700d07003007980025
:103d9c003e0090000000e00050003a00e8004700b0
:103dac00b04a28002f0e0700300798003e00900004
:103dbc00801f7800b05c2800801f7800caf70700cd
:103dcc00e48757006c0147004e009000a1002000d2
:103ddc005e0d070030079800be009000811f780030
:103dec00905e2800801f7800bff70700e48757001b
:103dfc006e009000100190004e009000f000470003
:103e0c0002000100300798003e0090000000e00026
:103e1c00070032003e009000801f78009060280060
:103e2c00801f7800b0f70700e48757000a003700be
:103e3c000e0890009e0890002e099000be0990007c
:103e4c00809fbe00829fbe00e0622800801f780029
:103e5c00a5f70700ea8757006000b800008fbe0086
:103e6c00150037008065280085f707006e0090006c
:103e7c00900178004e00900002202000ae009000cf
:103e8c000300010030079800be009000811f7800ed
:103e9c00d0662800801f780093f70700e48757004e
:103eac00c068280076f707001000200001002000f1
:103ebc001e0f40005e9748004000200001002000cb
:103ecc00be0f1000ae8f1800e6ff34005e009000ad
:103edc00c40e07004e009000c20e07000080fa00ce
:103eec00000006000000fa00606b280064f7070071
:103efc0025ff07004070280061f70700b05b8000c9
:103f0c00801f7800a0752800801f780076f70700c6
:103f1c00e4875700ffff3700010007000000060090
:103f2c000200fa000080eb00601b8800601b800020
:103f3c006019880060198000501988008220a80040
:103f4c00aec0bf007040b300aee0b7008680a900e1
:103f5c009680a800420120000140200000002800ab
:103f6c00eefe07004077280045f70700105d800043
:103f7c00800078000000e800105d8800811f780048
:103f8c0060792800801f780057f70700e4875700f6
:103f9c00f0fe070053130700f0bf9f007fb8970097
:103fac00801f7800907a2800801f78004ef7070059
:103fbc00e4875700ffff37004c010700c1030700df
:103fcc00b9040700a5090700a10a070000000600b4
:103fdc00c8160700000006000000200090018800b1
:103fec0000c02000f1ff2f000108bb000188bb00be
:103ffc000000fe00004006000c00fa00c0bf9f004d
:10400c00d2bf9f00e3bf9f000000eb00a0bf9f004a
:10401c00ea8057004fb89700a50e0700a0bf9f007d
:10402c002fb897000000e000030032002fb9970072
:10403c00f2bf9f000d0037003fb897000000e00072
:10404c00080032003fb89700600090005fb99700fd
:10405c00efb997000288be008001eb00f3bf9f0010
:10406c000200370010102000f0bf9f007fb89700af
:10407c000080fa00000006000a00fa00d0bf9f0082
:10408c000000eb00b0bf9f00e88057005fb89700be
:10409c00870e0700b0bf9f003fb897000000e000fc
:1040ac00040032006011b800e2bf9f00f3bf9f0014
:1040bc000c0037004fb897000000e00006003200fb
:1040cc004fb89700600090001001be00e2bf9f0047
:1040dc00f3bf9f00030037006000b800e0bf9f00f3
:1040ec00f1bf9f006fb89700ffb897000080fa00ef
:1040fc00000006000800fa00e0bf9f000000eb0083
:10410c00c0bf9f00e68057006fb89700680e07008d
:10411c00c0bf9f004fb897000000e00003003200c2
:10412c004fb89700f0bf9f00130037005fb897009f
:10413c000000e0000e003200a71307005fb89700e4
:10414c00e000900020b92000071707005fb8970027
:10415c00600090008000780010c0b3008048980088
:10416c00a51307000000eb00f0bf9f000200370012
:10417c0010102000f0bf9f007fb897000080fa005d
:10418c00000006000a00fa00e0bf9f000000eb00f0
:10419c00c0bf9f00e68057006fb89700440e070021
:1041ac00c0bf9f004fb897000000e0000300320032
:1041bc004fb89700f0bf9f00240037005fb89700fe
:1041cc000000e0001f003200831307000000eb002a
:1041dc00b0bf9f000e003700bfb8970020b9200079
:1041ec0091160700800078005fb89700600090007f
:1041fc00808f500003003a00bfb8970020b9200010
:10420c001c1707003fb897000000e800b0bf9f00e4
:10421c00bfb89700905c8000808f5000eeff390093
:10422c005fb8970060009000800078000040eb00c1
:10423c0080489800701307000000eb00f0bf9f004f
:10424c000200370010102000f0bf9f007fb89700cd
:10425c000080fa00000006000800fa00e0bf9f0092
:10426c000000eb00c0bf9f00e68057006fb89700be
:10427c000f0e0700c0bf9f004fb897000000e00072
:10428c00030032004fb89700f0bf9f000e003700bc
:10429c005fb897000000e000090032005fb897009b
:1042ac0060009000000178006000b80020019800c8
:1042bc00310198000000eb00f0bf9f0002003700b6
:1042cc0010102000f0bf9f007fb897000080fa000c
:1042dc00000006000800fa00e0bf9f000000eb00a1
:1042ec00c0bf9f00e68057006fb89700f00d070025
:1042fc00c0bf9f004fb897000000e00003003200e1
:10430c004fb89700f0bf9f000b0037005fb89700c5
:10431c000000e000060032005fb8970060009000db
:10432c00004890000080fb00f0bf9f0002003700a7
:10433c000000eb00f0bf9f007fb897000080fa00f0
:10434c00000006000400fa00f0bf9f00e00020000f
:10435c00720b0700e0bf9f006fb897000000e000f1
:10436c000e0032007fb89700efb8970061009800fc
:10437c006fb9970000242400f10020000089be00d2
:10438c006fb997006000b8002001980031019800c7
:10439c00efb897000040eb00804898000080fa00ce
:1043ac00000006000200fa00f0bf9f007fb89700e3
:1043bc0060009000610b07000080fa00000006000e
:1043cc000800fa00e0bf9f000000eb00c0bf9f0098
:1043dc00e68057006fb89700b50d0700c0bf9f006f
:1043ec004fb897000000e000030032004fb8970070
:1043fc00f0bf9f00150037005fb897000000e00089
:10440c00100032005fb897006000900000489000e8
:10441c000004e00003003a0010202000f0bf9f00d1
:10442c000a003700d15c80005fb8970060009000f4
:10443c006a0040004c1607000000eb00f0bf9f0024
:10444c000200370010102000f0bf9f007fb89700cb
:10445c000080fa00000006000a00fa00c0bf9f00ae
:10446c00d1bf9f004fb89700f0bf9f00ffb89700d7
:10447c00e28f50000f0032007fb89700e40f50001d
:10448c0008003200ffb897000100e0000100320084
:10449c000e003700dfb89700e07f28008008780016
:1044ac000d003700dfb89700207f280080087800c7
:1044bc0009003700601e2200b0bf9f005fb8970054
:1044cc00ea80570001087800030037002010200014
:1044dc00e0bf9f00020037008000eb00e1bf9f00af
:1044ec006fb897000080fa00000006000400fa0084
:1044fc006000b800e0bf9f00f1bf9f0010002000db
:10450c00e0bf9f0020232200f0bf9f006fb89700f0
:10451c00ffb89700a00b07000080fa00000006000f
:10452c000400fa000000eb00f0bf9f0027003700ea
:10453c00ffb8970020b92000bb150700e0bf9f0013
:10454c006fb89700b0009000200090006100400010
:10455c00e08048006fb99700200198003101980065
:10456c006fb8970020019000b00190006fb89700d1
:10457c001000be00800f5100818f590010003900cf
:10458c00ffb897007fb897000000e900f0bf9f00cc
:10459c0020b9200037160700efb897000040eb0059
:1045ac00804898006fb997006000b800200198000f
:1045bc00310198008000eb006fb897002a110700ba
:1045cc007fb897000000e800f0bf9f00ffb897008d
:1045dc00905c8000808f5000d5ff39000080fa007d
:1045ec00000006000200fa00f0bf9f007a120700dc
:1045fc00a0002000c90a0700800078007fb897004f
:10460c00610098007fb89700600090000000e00007
:10461c00050032007fb897006000900080007800a1
:10462c001000200080087800731207000080fa0048
:10463c00000006000200fa00f0bf9f007fb8970050
:10464c0060009000bd0a07000080fa000000060020
:10465c000800fa00e0bf9f00e68057006fb8970093
:10466c00130d0700c0bf9f004fb897000000e0007b
:10467c00030032004fb89700f0bf9f000e003700c8
:10468c005fb897000000e0000900320052120700ea
:10469c005fb897006000900010007800c0bf9f00ca
:1046ac00551207004fb89700f0bf9f00020037006b
:1046bc0010102000f0bf9f007fb897000080fa0018
:1046cc00000006000a00fa00d0bf9f00e1bf9f0067
:1046dc00e88057005fb89700f50c0700b0bf9f004b
:1046ec003fb897000000e00003003200bfb897000d
:1046fc00f1bf9f000e0037004fb897000000e0009c
:10470c0009003200341207004fb897006000900087
:10471c00efb8970001087800371207000000eb0093
:10472c00f0bf9f000200370011102000f1bf9f0066
:10473c007fb897000080fa00000006000800fa001d
:10474c00e0bf9f00e68057006fb89700d80c0700b9
:10475c00c0bf9f004fb897000000e000030032007c
:10476c004fb89700f0bf9f001d0037005fb897004f
:10477c000000e00018003200171207005fb8970025
:10478c0060009000900090005fb89700600090006f
:10479c0010007800808f500006003100d15c800042
:1047ac005fb89700600090000080e8006e1507006d
:1047bc0005003700d15c80005fb897006000900066
:1047cc0066004000681507000b1207000000eb00a4
:1047dc00f0bf9f000200370010102000f0bf9f00b8
:1047ec007fb897000080fa00000006000a00fa006b
:1047fc00e0bf9f00e68057006fb89700ac0c070035
:10480c00c0bf9f004fb897000000e00003003200cb
:10481c004fb89700f0bf9f00230037005fb8970098
:10482c000000e0001e003200eb1107000000eb005e
:10483c00b0bf9f0010003700bfb897005fb897005b
:10484c00600090000080e800f714070080007800fa
:10485c00d05c8000808f500004003a00e611070005
:10486c0010002000f0bf9f000f0037003fb89700ea
:10487c000000e800b0bf9f00bfb897005fb897007a
:10488c006000900010009000808f5000eaff39000b
:10489c00d91107000000eb00f0bf9f0002003700a9
:1048ac000000eb00f0bf9f007fb897000080fa007b
:1048bc00000006000e00fa00e0bf9f00e6805700e3
:1048cc006fb897007a0c0700c0bf9f004fb89700d5
:1048dc000000e000030032004fb89700f0bf9f00cb
:1048ec00520037005fb897000000e0004d00320026
:1048fc000000eb00a0bf9f00b71107000000eb0009
:10490c00b0bf9f0014003700bfb897005fb8970086
:10491c00600090000080e800c3140700800078005d
:10492c00d05c8000808f500008003a00bfb8970020
:10493c005fb89700600090000080e8004d150700fc
:10494c0010002000a0bf9f00090037003fb897005f
:10495c000000e800b0bf9f00bfb897005fb8970099
:10496c006000900010009000808f5000e6ff39002e
:10497c002fb897000000e00004003a009e110700d9
:10498c000000eb00f0bf9f00280037005fb89700d5
:10499c0060009000900090005fb89700600090005d
:1049ac0010007800808f5000190031005fb897001c
:1049bc0060009000300090000000e0001400320015
:1049cc005fb8970060009000660040008000eb002c
:1049dc009514070090bf9f005fb89700600090008f
:1049ec000080e8009fb89700df1407005fb89700bd
:1049fc00600090009fb897001b1007005fb89700ed
:104a0c0060009000660040008000eb001915070064
:104a1c00b3110700781107000000eb00f0bf9f00f6
:104a2c000200370010102000f0bf9f007fb89700e5
:104a3c000080fa00000006000800fa00e0bf9f00aa
:104a4c006fb8970069ff07000000e0000300320018
:104a5c0010202000f0bf9f0012003700e6805700a6
:104a6c006fb89700120c0700c0bf9f004fb897009b
:104a7c000000e000030032004fb89700f0bf9f0029
:104a8c00080037005fb897000000e0000300320018
:104a9c000000eb00f0bf9f00020037001010200058
:104aac00f0bf9f007fb897000080fa00000006005e
:104abc000a00fa00c0bf9f00d1bf9f004fb89700fb
:104acc00f0bf9f00ffb89700e28f50000f0032003c
:104adc007fb89700e50f500008003200ffb8970030
:104aec000100e000010032000e003700dfb8970033
:104afc00c0802800800878000d003700dfb89700d0
:104b0c0020802800800878000900370020522200fd
:104b1c00b0bf9f005fb89700ea805700010878008b
:104b2c000300370020102000e0bf9f000200370078
:104b3c008000eb00e1bf9f006fb897000080fa0087
:104b4c00000006000200fa00f0bf9f0010002000d9
:104b5c0072090700800078007fb897006100980008
:104b6c000080fa00000006000200fa00f0bf9f006f
:104b7c007fb8970060009000700907000080fa0071
:104b8c00000006000800fa00e0bf9f00e680570016
:104b9c006fb89700c60b0700c0bf9f004fb89700b7
:104bac000000e000030032004fb89700f0bf9f00f8
:104bbc00130037005fb897000000e0000e003200d1
:104bcc00051107005fb89700600090008000780026
:104bdc0010c0b300804878005fb897006000900068
:104bec008000eb00a00f0700031107000000eb0092
:104bfc00f0bf9f000200370010102000f0bf9f0094
:104c0c007fb897000080fa00000006000800fa0048
:104c1c00e0bf9f00e68057006fb89700a40b070019
:104c2c00c0bf9f004fb897000000e00003003200a7
:104c3c004fb89700f0bf9f00180037005fb897007f
:104c4c000000e00013003200e31007005fb897008b
:104c5c0060009000104078000004e00009003a0069
:104c6c005fb8970060009000800078000040eb0077
:104c7c00804878005fb89700600090008000eb00df
:104c8c00790f0700dc1007000000eb00f0bf9f005d
:104c9c000200370010102000f0bf9f007fb8970073
:104cac000080fa00000006000800fa00e0bf9f0038
:104cbc00e68057006fb897007d0b0700c0bf9f00c0
:104ccc004fb897000000e000030032004fb8970087
:104cdc00f0bf9f000f0037005fb897000000e000a6
:104cec000a003200bc1007005fb89700600090000b
:104cfc00800078000040eb0080487800be10070070
:104d0c000000eb00f0bf9f000200370010102000e5
:104d1c00f0bf9f007fb897000080fa0000000600eb
:104d2c000800fa00e0bf9f00e68057006fb89700bc
:104d3c005f0b0700c0bf9f004fb897000000e0005a
:104d4c00030032004fb89700f0bf9f0013003700ec
:104d5c005fb897000000e0000e0032009e100700c4
:104d6c005fb8970060009000104078000004e000ed
:104d7c0004003200a010070010202000f0bf9f009c
:104d8c00060037009c1007000000eb00f0bf9f00ee
:104d9c000200370010102000f0bf9f007fb8970072
:104dac000080fa00000006000800fa00e0bf9f0037
:104dbc00e68057006fb897003d0b0700c0bf9f00ff
:104dcc004fb897000000e000030032004fb8970086
:104ddc00f0bf9f00130037005fb897000000e000a1
:104dec000e0032007c1007005fb897006000900046
:104dfc00104078000004e000040032007e10070030
:104e0c0010002000f0bf9f00060037007a1007004a
:104e1c000000eb00f0bf9f000200370010102000d4
:104e2c00f0bf9f007fb897000080fa0000000600da
:104e3c000a00fa00c0bf9f00d1bf9f004fb8970077
:104e4c00f0bf9f00ffb89700e28f50000f003200b8
:104e5c007fb89700e60f500008003200ffb89700ab
:104e6c000100e000010032000e003700dfb89700af
:104e7c0080812800800878000d003700dfb897008b
:104e8c000081280080087800090037006069220042
:104e9c00b0bf9f005fb89700ea8057000108780008
:104eac000300370020102000e0bf9f0002003700f5
:104ebc008000eb00e1bf9f006fb897000080fa0004
:104ecc00000006000800fa0020002000c0bf9f0070
:104edc00e48057003000200080087800e055220064
:104eec00d0bf9f00e4805700e07122009000980032
:104efc004fb89700dfb8970027090700e4805700e8
:104f0c001100780091009000230907000080fa003e
:104f1c00000006000400fa00f0bf9f0040002000d3
:104f2c007e080700e0bf9f006fb897000000e0000c
:104f3c00030032007fb89700efb89700610098002b
:104f4c000080fa00000006000200fa00f0bf9f008b
:104f5c007fb8970060009000780807000080fa0086
:104f6c00000006000a00fa00d0bf9f00e1bf9f00be
:104f7c00e88057005fb89700cd0a0700b0bf9f00cc
:104f8c003fb897000000e000030032003fb89700e4
:104f9c00f0bf9f00160037004fb897000000e000ec
:104fac00110032004fb89700600090000000e00044
:104fbc000d003200081007004fb8970060009000f9
:104fcc00efb89700681307004fb897006000900087
:104fdc008000eb00a40e0700071007000000eb0098
:104fec00f0bf9f000200370010102000f0bf9f00a0
:104ffc007fb897000080fa00000006000a00fa0053
:10500c00d0bf9f00e1bf9f00e88057005fb89700ba
:10501c00a70a0700b0bf9f003fb897000000e00050
:10502c00030032003fb89700f0bf9f00210037000b
:10503c004fb897000000e0001c0032004fb89700fa
:10504c00600090000000e00018003200e20f070042
:10505c004fb8970060009000100078000000e0004e
:10506c0007003a00efb897000000eb0080087800ca
:10507c00e10f070060002000f0bf9f000d0037001b
:10508c004fb89700600090008000eb00e61207001c
:10509c00800078006fb8970001087800d60f0700e1
:1050ac000000eb00f0bf9f00020037001010200042
:1050bc00f0bf9f007fb897000080fa000000060048
:1050cc000a00fa00d0bf9f00e1bf9f00e8805700a4
:1050dc005fb89700760a0700b0bf9f003fb89700f3
:1050ec000000e000030032003fb89700f0bf9f00c3
:1050fc00210037004fb897000000e0001c00320080
:10510c004fb89700600090000000e00018003200db
:10511c00b10f07004fb897006000900010007800a6
:10512c000000e00007003a00efb897000000eb0029
:10513c0080087800b00f070060002000f0bf9f00cf
:10514c000d0037004fb89700600090008000eb0016
:10515c0048130700800078006fb8970001087800aa
:10516c00a50f07000000eb00f0bf9f000200370006
:10517c0010102000f0bf9f007fb897000080fa004d
:10518c00000006000800fa00e0bf9f00e680570010
:10519c006fb89700460a0700c0bf9f004fb8970032
:1051ac000000e000030032004fb89700f0bf9f00f2
:1051bc00170037005fb897000000e00012003200c3
:1051cc005fb89700600090000000e0000e00320015
:1051dc00810f07005fb89700600090001000780006
:1051ec000000e00004003200830f070010202000b4
:1051fc00f0bf9f00060037007f0f07000000eb0098
:10520c00f0bf9f000200370010102000f0bf9f007d
:10521c007fb897000080fa00000006000800fa0032
:10522c00c0bf9f00d1bf9f004fb89700f0bf9f0039
:10523c007fb89700e20f50000f0032007fb8970044
:10524c00e70f5000080032007fb897000000e00024
:10525c00010032000c003700dfb8970040822800b4
:10526c00800878000b003700dfb89700e081280039
:10527c008008780007003700dfb89700c08128004d
:10528c00800878000300370020102000e0bf9f004a
:10529c00020037000000eb00e0bf9f006fb89700e2
:1052ac000080fa00000006000400fa004000200014
:1052bc00e0bf9f0040912200f0bf9f006fb89700a5
:1052cc00ffb89700340807000080fa0000000600c1
:1052dc000200fa00f0bf9f007fb8970020009000fa
:1052ec00800078000100a0007fb897002100980092
:1052fc000080fa00000006000200fa00f0bf9f00d8
:10530c000080fa00000006001e00fa00b0bf9f00eb
:10531c00c1bf9f00d2bf9f00e3bf9f00f08057002a
:10532c003fb89700e2090700f0b79f007fb09700e5
:10533c000000e000030032007fb09700f0bf9f0038
:10534c001f0137000fb897000000e0001a0132006f
:10535c000fb89700600090000000e00016013200ca
:10536c000fb8970060009000b0b79f001a0f0700ad
:10537c00805c8000ee8057006fb997001f08070013
:10538c00f0b79f007fb097000000e00004003200ef
:10539c00190f0700ffb09700f1bf9f0008013700fd
:1053ac008082280036f20700600220005b070700ad
:1053bc00e0b79f006fb097000000e00008003a00d3
:1053cc001fb89700870907000b0f070010852800ee
:1053dc002bf2070020002000f0bf9f00f8003700e0
:1053ec00efb0970010002000a00898006fb0970055
:1053fc00bfb09700010878001fb89700ec805700e9
:10540c00ab090700f0b79f007fb097000000e000e9
:10541c000a0032001fb89700720907006fb097009e
:10542c0046070700f40e07000087280014f2070057
:10543c007fb09700f0bf9f00e10037002fb89700b6
:10544c00efb0970061009800afb897002fb89700a5
:10545c00200090000000a000a00098001fb897004a
:10546c0060090700002020002c070700c0b79f0030
:10547c004fb097000000e00006003a00de0e070077
:10548c00d0892800fef1070020002000f0bf9f000b
:10549c00cb003700cfb097003fb09700c315070083
:1054ac000000e00052003a004fb8970080407800ae
:1054bc004fb0970049150700a0b79f00008c28003b
:1054cc00eff107004fb09700ab1507008000780094
:1054dc004fb89700808f5000400036002fb09700d7
:1054ec000000e0003d003200afb09700614090003a
:1054fc000081fb00714090000080fb004800dd0043
:10550c000200700000027800014890000081fb004e
:10551c00114890000080fb004800dd000200700084
:10552c00800278000400be000001eb008001eb005b
:10553c003fb29700040a90000500200006002000ee
:10554c000700200009f807006fb2970020029800ae
:10555c00310298004202980053029800afb09700b5
:10556c00214890000081fb00314890000080fb0036
:10557c004800dd00020070000002780041489000f5
:10558c000081fb00514890000080fb004800dd00ca
:10559c0002007000800278000400be000001eb00e5
:1055ac008001eb003fb29700040a90000500200038
:1055bc000600200007002000ecf707006fb29700f0
:1055cc006002980071029800020a9800130a980071
:1055dc004fb09700d90607001d0037004fb0970059
:1055ec00d606070081002000f1bf9f007400370031
:1055fc004fb09700d10607006fb297006000b8005b
:10560c006011b80020029800310298004202980004
:10561c00530298003fb09700400990006fb097007c
:10562c00ec0040003fb09700100078000200010031
:10563c00f0b79f007fb097000000e000040032003c
:10564c006d0e07007fb09700f0bf9f005c00370025
:10565c005fb897000000e00009003200dfb8970047
:10566c00908d2800a8f107000000e00004003a002b
:10567c00610e07008000eb00f1bf9f005000370067
:10568c000000eb00d0b79f0043003700dfb097005d
:10569c00c0b520006411070090b79f001fb09700a1
:1056ac000000e000390032005fb897000000e00015
:1056bc00050032001fb09700dfb8970092f1070089
:1056cc000000e000030032005fb897000000e0002b
:1056dc002e003a00d08d280069f107001fb097000a
:1056ec00e00090006fb09700010001000000e000a6
:1056fc001f0032001fb09700801f7800308f2800e9
:10570c00801f780078f10700e48757001fb09700de
:10571c00f00090006fb0970001000100f0b79f00ff
:10572c007fb097000000e00004003200320e07004a
:10573c00ffb09700f1bf9f0021003700bfb097006a
:10574c0010002000e00898006fb097009fb0970001
:10575c0011009800efb0970010002000a0089800ee
:10576c00250e07000000eb00f0bf9f00140037006f
:10577c005fb897000000e000040032000000eb006e
:10578c00d0bf9f000000eb00d0b79f005fb0970028
:10579c000000e800d0b79f00dfb09700e05a80000f
:1057ac00808f5000b9ff3900130e0700e130200044
:1057bc00f1bf9f000200370010102000f0bf9f00c7
:1057cc007fb897000080fa00000006000a00fa007b
:1057dc00d0bf9f00e1bf9f00e88057005fb89700e3
:1057ec00b3080700b0bf9f003fb897000000e0006f
:1057fc00030032003fb89700f0bf9f001a0037003b
:10580c004fb897000000e00015003200f20d0700c1
:10581c004fb8970060009000600890000000e00016
:10582c000c0032003fb897000000e00005003a0081
:10583c004fb8970060009000800078000000eb00eb
:10584c00e0089800ec0d07003fb89700f0bf9f00f0
:10585c000500370010302000f0bf9f000200370019
:10586c0010102000f0bf9f007fb897000080fa0056
:10587c00000006000800fa00e0bf9f00e680570019
:10588c006fb897008a080700c0bf9f004fb89700f9
:10589c000000e000030032004fb89700f0bf9f00fb
:1058ac00140037005fb897000000e0000f003200d2
:1058bc00c90d07005fb89700600090006008900069
:1058cc000000e0000300320010002000c0bf9f0069
:1058dc00020037000000eb00c0bf9f00c60d0700a0
:1058ec004fb89700f0bf9f00020037000000eb009c
:1058fc00f0bf9f007fb897000080fa000000060000
:10590c000400fa00e0bf9f00f1bf9f000000eb0015
:10591c000080fa00000006000800fa00c0bf9f00db
:10592c00d1bf9f00e2bf9f00f3bf9f000000eb00c0
:10593c000080fa00000006000c00fa00c0bf9f00b7
:10594c00d1bf9f00e2bf9f00b0902800ccf00700b1
:10595c00ea8057004fb8970055080700a0bf9f007a
:10596c002fb897000000e000030032002fb897001a
:10597c00f0bf9f00130037003fb897000000e00015
:10598c000e003200940d07003fb8970060009000a5
:10599c00130020006fb99700dfb897006022b800a1
:1059ac006033b800c8010700a0bf9f00920d07002c
:1059bc002fb89700f0bf9f00020037001010200096
:1059cc00f0bf9f007fb897000080fa00000006002f
:1059dc000a00fa00d0bf9f00e1bf9f00e88057008b
:1059ec005fb8970032080700b0bf9f003fb8970020
:1059fc000000e000030032003fb89700f0bf9f00aa
:105a0c002c0037004fb897000000e0002700320050
:105a1c00710d07004fb89700600090004000900097
:105a2c000000e0001d0032004fb8970060009000ad
:105a3c00400990004fb8970060009000100078006b
:105a4c00efb8970002000100b0bf9f006fb897003d
:105a5c003002be002003be004fb8970060009000db
:105a6c008010900010119000a01190007008900010
:105a7c000000520081805a0002015b0083815b00b0
:105a8c006fba9700009abe000292be005a0d070032
:105a9c000000eb00f0bf9f0006003700560d07001a
:105aac0000312000f0bf9f000200370010102000d2
:105abc00f0bf9f007fb897000080fa00000006003e
:105acc000c00fa00c0bf9f00d1bf9f00e2bf9f0037
:105adc00ea8057004fb89700f5070700a0bf9f005a
:105aec002fb897000000e000030032002fb8970099
:105afc00f0bf9f00130037003fb897000000e00094
:105b0c000e003200340d07003fb897006000900083
:105b1c00130020006fb99700dfb897006022b8001f
:105b2c006033b800d5010700a0bf9f00320d0700fd
:105b3c002fb89700f0bf9f00020037001010200014
:105b4c00f0bf9f007fb897000080fa0000000600ad
:105b5c001e00fa00889fbe008a9fbe00c0b79f003f
:105b6c00d4b79f00e5b79f00f6b79f0087bf9f0093
:105b7c0091bf9f00a0fd2f000f004000e4004000eb
:105b8c004fb09700ca070700e0af9f006fa89700bf
:105b9c000000e00003003200efa99700a3bf9f00b4
:105bac00900037007fa897000000e0008b003200c7
:105bbc00090d07007fa8970060009000d0af9f00f0
:105bcc005fa89700400090000000e00004003a003d
:105bdc00090d070000312000a0bf9f008100370095
:105bec009fb99700b3bf9f003fb89700e10f5000db
:105bfc0011003200bfb99700e18f51000400390049
:105c0c003fb89700e20f50001e0032006f003700c3
:105c1c005fb09700efb097007fb197008fb99700f6
:105c2c005faa9700700a980001129800121298004f
:105c3c0023129800650037005fa89700700a900047
:105c4c008012900010139000a01390005fb097008a
:105c5c00efb097007fb197008fb997000400400018
:105c6c008580480006014900878149005faa97009a
:105c7c00700a9800011298001212980023129800d2
:105c8c00520037005fa89700400990005fa897006a
:105c9c0010007800a3fd2f008f814100e6804100a9
:105cac0002000100e0af9f006fa897000000e00029
:105cbc0004003200d00c07006fa89700a0bf9f0013
:105ccc00480037005fb29700efb297007fb39700a0
:105cdc008fbb97000fb097009fb097002fb1970024
:105cec00bfb197000020e10001a8e10002b0e10083
:105cfc0003b8e1001b0039005fa89700700c9000fe
:105d0c008014900010159000a01590000fb2970011
:105d1c009fb297002fb39700bfb397005fb0970067
:105d2c00efb097007fb197008fb997000000520039
:105d3c0081805a0002015b0083815b0008004000f7
:105d4c00898048000a0149008b8149005faa9700ad
:105d5c00700a9800011298001212980023129800f1
:105d6c001a0037005fa89700700c90008014900008
:105d7c0010159000a01590005fb29700efb297003d
:105d8c007fb397008fbb97000fb097009fb0970021
:105d9c002fb19700bfb197000000520081805a00cc
:105dac0002015b0083815b000000540081805c0079
:105dbc0002015d0083815d005faa9700700a980064
:105dcc000112980012129800231298008a0c0700f6
:105ddc008001eb00a3bf9f000200370010102000d1
:105dec00a0bf9f002fb897004f05be004f04be0008
:105dfc000080fa00000006000800fa00e0bf9f00d7
:105e0c00e68057006fb8970029070700c0bf9f00b6
:105e1c004fb897000000e000030032004fb8970025
:105e2c00f0bf9f00120037005fb897000000e00041
:105e3c000d003200680c07005fb8970060009000fe
:105e4c00d00890005fb897006000900010007800b8
:105e5c0001000100c0bf9f00670c07004fb89700fe
:105e6c00f0bf9f000200370010102000f0bf9f0011
:105e7c007fb897000080fa00000006000800fa00c6
:105e8c00c0bf9f00d1bf9f004fb89700f0bf9f00cd
:105e9c007fb89700e90f50000b0032007fb89700d5
:105eac00ea0f50000c0032007fb897000000e000b1
:105ebc00010032000c003700dfb897006093280017
:105ecc00800878000b003700dfb89700c0922800dc
:105edc008008780007003700dfb897002092280070
:105eec00800878000300370020102000e0bf9f00de
:105efc00020037000000eb00e0bf9f006fb8970076
:105f0c000080fa00000006001a00fa00f0b79f00ab
:105f1c007080570001087800120098002300980048
:105f2c0034009800450098005600980067009800cf
:105f3c006002200079040700c0b79f004fb09700a3
:105f4c000000e00003003a0020002000f0bf9f009a
:105f5c00330037004fb09700e400400070805700ca
:105f6c0006000900b0187800e100b100e000b100b3
:105f7c004fb0970072014000fa80570070805000bb
:105f8c0080007800020078001101be000288be007b
:105f9c0064004000e48040001101be000288be0095
:105fac0064004000e4804000110878000a0c0700ef
:105fbc00cfb0970080b520006b0f07000e0c0700c8
:105fcc00505c8000f48057007fb197000b050700f0
:105fdc00b0b79f006fb09700f6805700b40607006b
:105fec005fb09700cfb19700630098006fb0970037
:105ffc007c060700225b80004fb0970002087800f7
:10600c004fb09700900078002fa8970001087800f7
:10601c000200e800205b88000000eb00f0bf9f004e
:10602c007fb897000080fa00000006000a00fa0012
:10603c00d0bf9f00e1bf9f00e70b07000000eb0003
:10604c00c0bf9f0016003700cfb8970080b5200066
:10605c00f50e0700b0bf9f003fb897000000e000ae
:10606c000c0032003fb89700900078005fb89700a2
:10607c00808f500007003a006fb89700bfb89700a8
:10608c0001087800dc0b07000000eb00f0bf9f005c
:10609c000a0037004fb897000000e800c0bf9f000f
:1060ac00cfb89700c05a8000808f5000e6ff3900af
:1060bc00d10b070031002000f1bf9f007fb8970083
:1060cc000080fa00000006001e00fa00a0b79f0036
:1060dc00b4b79f00c5b79f00d6b79f00e7b79f0026
:1060ec00f1b79f0082bf9f0093bf9f002fb0970016
:1060fc000000e00003003a0070002000f0bf9f0099
:10610c005b0037002fb09700200090000000e000eb
:10611c00430032002fb09700100890000000e00000
:10612c003c0032002fb0970010089000e0bf9f0099
:10613c001fb897000000e0000a0032002fb0970053
:10614c00700a90008012900010139000a013900021
:10615c00a4bf9f00b5bf9f00c6bf9f00d7bf9f00c5
:10616c00080037003fb09700cfb097005fb19700a1
:10617c00efb19700a0bf9f00b1bf9f00c2bf9f00af
:10618c00d3bf9f002fb09700100078000fb9970075
:10619c00ffb097002fba9700bfba97004fbb97007c
:1061ac00dfbb9700efb997000300010090b79f0089
:1061bc001fb297000400e0002b003a001fb89700b4
:1061cc000000e000280032002fb09700700a900009
:1061dc008012900010139000a01390000fb897003d
:1061ec0001002000020020000300200004004000f9
:1061fc008580480006014900878149002fb297002d
:10620c00700a98000112980012129800231298003c
:10621c00150037005000200090b79f001200370087
:10622c002fb09700300090000000e0000300320017
:10623c005030200090b79f000b0037002fb0970014
:10624c00500090000000e00003003200703020008d
:10625c0090b79f0004003700a093280088ee070039
:10626c008030200090b79f009fb29700f5bf9f0031
:10627c007fb897000080fa00000006001e00fa00ac
:10628c00a0b79f00b4b79f00c5b79f00d6b79f00bb
:10629c00e7b79f00f1b79f0082bf9f0093bf9f009d
:1062ac002fb097000000e00003003a0070002000bf
:1062bc00f0bf9f00590037002fb0970030009000be
:1062cc000000e000430032002fb09700100890004f
:1062dc000000e0003c0032002fb097002008900036
:1062ec00e0bf9f001fb897000000e0000a003200da
:1062fc002fb09700700a900080129000101390003d
:10630c00a0139000a4bf9f00b5bf9f00c6bf9f0005
:10631c00d7bf9f00080037003fb09700cfb0970061
:10632c005fb19700efb19700a0bf9f00b1bf9f0076
:10633c00c2bf9f00d3bf9f002fb097001000780002
:10634c000fb99700ffb097002fba9700bfba97000c
:10635c004fbb9700dfbb9700efb99700030001001c
:10636c0090b79f001fb297000400e00029003a008c
:10637c001fb897000000e000260032002fb09700f5
:10638c00700a90008012900010139000a0139000df
:10639c000fb897000100200002002000030020002d
:1063ac0004004000858048000601490087814900af
:1063bc002fb29700700a98000112980012129800e0
:1063cc0023129800130037005000200090b79f0054
:1063dc00100037002fb09700200090000000e00064
:1063ec00030032004030200090b79f0009003700b6
:1063fc002fb09700500090000000e0000300320026
:10640c007030200090b79f000200370080302000d1
:10641c0090b79f009fb29700f5bf9f007fb8970081
:10642c000080fa00000006001000fa0080bf9f00f8
:10643c0094bf9f00a5bf9f00b6bf9f00c7bf9f0022
:10644c00d1bf9f00e2bf9f000fb897000000e00093
:10645c00040032000fb89700100078000000e00034
:10646c0003003a0070002000f0bf9f0014003700ba
:10647c000fb8970020029000b002900040039000eb
:10648c00d00390001fb89700afb897003fb99700a2
:10649c00cfb99700040240008582480006034900ea
:1064ac00878349000fb89700100078008001eb003b
:1064bc006fb99700dfb8970070ff0700f0bf9f001f
:1064cc007fb897000080fa00000006001000fa0068
:1064dc0080bf9f0094bf9f00a5bf9f00b6bf9f00c9
:1064ec00c7bf9f00d1bf9f00e2bf9f000fb89700ae
:1064fc000000e000040032000fb897001000780094
:10650c000000e00003003a0071002000f1bf9f0082
:10651c00200037001fb89700afb897003fb997001d
:10652c00cfb99700809fbe00829fbe00afb8970086
:10653c00811f780090962800801f7800eaed0700f4
:10654c00ec8757000fb8970020029000b002900023
:10655c0040039000d00390001fb89700afb897008d
:10656c003fb99700cfb997000402400085824800dc
:10657c0006034900878349000fb897001000780084
:10658c008001eb006fb99700dfb89700cefe0700d3
:10659c00f0bf9f007fb897000080fa000000060053
:1065ac001000fa006e835700000b7800110398005e
:1065bc002203980033039800440398005503980075
:1065cc0040022000d502070080bf9f000fb8970043
:1065dc000000e00003003a0022002000f2bf9f0000
:1065ec001b0037000fb997006e80570080007800b1
:1065fc00020078001101be000288be006400400059
:10660c00e48040001101be000288be00640040001e
:10661c00e48040001101be000288be000fb8970054
:10662c00ec004000f08157007e8051000b00090007
:10663c00b01878008101b1008001b1008fb89700cb
:10664c00c0b52000c80d07000000eb00f0bf9f0094
:10665c007fb897000080fa00000006000400fa00e2
:10666c006000b800e0bf9f00f1bf9f00fa05070073
:10667c00505c8800505c8000e0bf9f0040f422001a
:10668c00f0bf9f006fb89700ffb897004203070058
:10669c0094130700e81507000080fa0000000600bc
:1066ac001800fa0080bf9f0094bf9f00a5bf9f00f9
:1066bc00b6bf9f00c7bf9f00d1bf9f00e2bf9f0026
:1066cc00b15c80000fb89700810f500031003a0088
:1066dc000000eb00f0b79f005fb89700e0b79f0099
:1066ec0026003700215d80007fb09700810f50009d
:1066fc0004003d007fb097000000e800f0b79f0059
:10670c000300370060302000f0bf9f0058003700b6
:10671c0006f507000004e000f2ff32000000eb0079
:10672c00f0b79f0020c2bf0066406000e64f5000eb
:10673c0008003a0030118000800078006fb097009c
:10674c00010878006fb097000080e800e0b79f0068
:10675c000700370030118000804078005fb8970048
:10676c00014878005fb897000000e800d0bf9f0098
:10677c006fb897000000e900e0bf9f006fb897006a
:10678c000000e000e2ff3a000000eb00f0bf9f00c9
:10679c0037003700c15c80000fb89700810f5000a4
:1067ac0031003a000000eb00d0b79f005fb89700b3
:1067bc00c0b79f0026003700215d80005fb09700b6
:1067cc00810f500004003d005fb097000000e8000e
:1067dc00d0b79f000300370060302000f0bf9f004f
:1067ec0023003700d4f407000004e000f2ff32006d
:1067fc000000eb00d0b79f0030c2bf0066406000c5
:10680c00e64f500008003a00b0118000800078007c
:10681c004fb09700010878004fb097000080e80057
:10682c00c0b79f0007003700b0118000804078008f
:10683c005fb89700014878005fb897000000e80047
:10684c00d0bf9f006fb897000000e900e0bf9f0029
:10685c006fb897000000e000e2ff3a000000eb0088
:10686c00f0bf9f000200370050002000f0bf9f00d7
:10687c007fb897000080fa00000006001400fa00b0
:10688c0080bf9f0094bf9f00a5bf9f00b6bf9f0015
:10689c00c7bf9f00d1bf9f00e2bf9f00b15c8000cb
:1068ac000fb89700810f50002c003a005fb897008a
:1068bc00f0b79f0020c2bf0066406000e64f50005a
:1068cc0020003a000d00370023c2bf006240600078
:1068dc000004e000fcff3a007fb097001000780045
:1068ec00201188007fb097000080e800f0b79f006f
:1068fc006fb897000000e900e0bf9f006fb89700e9
:10690c000000e000f0ff3a001100370023c2bf0086
:10691c00624060000004e000fcff3a005fb89700a2
:10692c00104078000080fb00201188005fb89700b1
:10693c000000e800d0bf9f006fb897000000e9008e
:10694c00e0bf9f006fb897000000e000efff3a0037
:10695c000000eb00f0bf9f0032003700c15c8000ec
:10696c000fb89700810f50002c003a005fb89700c9
:10697c00e0b79f0030c2bf0066406000e64f500099
:10698c0020003a000d00370033c2bf0062406000a7
:10699c000004e000fcff3a006fb097001000780094
:1069ac00a01188006fb097000080e800e0b79f004e
:1069bc006fb897000000e900e0bf9f006fb8970028
:1069cc000000e000f0ff3a001100370033c2bf00b6
:1069dc00624060000004e000fcff3a005fb89700e2
:1069ec00104078000080fb00a01188005fb8970071
:1069fc000000e800d0bf9f006fb897000000e900ce
:106a0c00e0bf9f006fb897000000e000efff3a0076
:106a1c000000eb00f0bf9f00020037005000200088
:106a2c00f0bf9f007fb897000080fa0000000600be
:106a3c000800fa00c0bf9f00d1bf9f00e2bf9f00bb
:106a4c00f3bf9f000000eb000080fa00000006007e
:106a5c001800fa0040982800f8805700060009003a
:106a6c00b0187800e100b100e000b1006a80570076
:106a7c00000178006000b8000089be00640141008c
:106a8c006000b8000089be00640141000000eb000a
:106a9c00000978000000eb00f0b79f001000200008
:106aac00c0b79f000000eb00e0b79f001000200073
:106abc00d0b79f000000eb0080bf9f00ea8057001a
:106acc006035230080087800ea805700404423009a
:106adc0090009800ea805700e0512300a000980035
:106aec0060b92000801f78006c8057001001be0038
:106afc00829fbe00640040001001be00829fbe0059
:106b0c006400400090017800831f7800efa8970084
:106b1c007fa997008fb197001fb29700afb2970073
:106b2c003fb39700cfb3970020992800f6fc0700dd
:106b3c00ec87570080b92000801f78006c805700cc
:106b4c001001be00829fbe00640040001001be0018
:106b5c00829fbe006400400090017800831f780083
:106b6c00efa897007fa997008fb197001fb29700ed
:106b7c00afb297003fb39700cfb39700e0992800ce
:106b8c00e1fc0700ec8757000080fa0000000600cb
:106b9c000400fa00e0bf9f00f1bf9f00c0ba2000c4
:106bac007fb997008000eb0069ec07000080fa00c9
:106bbc00000006001600fa00b0bf9f00c1bf9f0086
:106bcc00d2bf9f003fb89700a0bf9f000080eb0092
:106bdc0080bf9f000000eb00f0b79f005fb89700ec
:106bec000000e00003003a008000eb00f1bf9f00c2
:106bfc00980037005fb89700610060000004e00067
:106c0c00040032005fb897000000a0000000e8000c
:106c1c00d0bf9f005fb897000000d1000080e80053
:106c2c0090bf9f00ec080700f15b80001fb8970035
:106c3c00810f500004003600ef0807000000eb0045
:106c4c00f0bf9f00830037007fb09700000040002a
:106c5c00800078002fb8970001004000a0bf9f0073
:106c6c002fb89700100078000000e0006d003a008b
:106c7c002fb897000080e800100078000000e000ba
:106c8c00050032002fb897000080e8001000780053
:106c9c00e0bf9f0008003700afb897003fb89700df
:106cac00008050000080d100800078004fb8970021
:106cbc0001005000e0bf9f00efb89700e1b79f00c4
:106ccc00efb097001fb89700808f50005500390027
:106cdc002fb897008fb8970001087800efb0970095
:106cec001fb8970000805000e20f500029003600ba
:106cfc001fb8970000004000800078002fb8970064
:106d0c0080804000d1b79f00dfb097000000eb00ff
:106d1c00800878002fb897000080e80010007800f9
:106d2c000000e0000e0032005fb097008081e800a8
:106d3c006fb0970000004000800078002fb89700db
:106d4c0000814000efb097001fb897000080500002
:106d5c0000097800120078008009780004003700e0
:106d6c005fb097008080e8000000eb00800878009e
:106d7c002fb897000080e8009fb8970001087800b2
:106d8c00f15b80001fb8970000805000f05b88001a
:106d9c0004003700f05b8000efb09700010050005a
:106dac00f05b88001fb8970000004000e400500022
:106dbc002fb8970064004000010178008000eb00c0
:106dcc00e3eb0700a05b80000000e800a05b8800fc
:106ddc001fb897000000400000027800050020005a
:106dec00060020000700200060b720005001be0004
:106dfc004000be00040040008580480006014900a8
:106e0c008781490064b72000009abe000292be0040
:106e1c00790807002fb8970064004000f0bf9f006e
:106e2c000c0037002fb897000080e8009000780025
:106e3c00f1b79f007fb0970080bf9f007fb0970095
:106e4c000000e00080ff3a006b0807008000eb00b8
:106e5c00f1bf9f007fb897000080fa000000060089
:106e6c000e00fa00c0bf9f00d1bf9f00e2bf9f0081
:106e7c006fb89700b0bf9f003fb8970064005000f8
:106e8c00b0bf9f00540807003fb897000080e8008f
:106e9c00100078000000e000050032003fb89700b9
:106eac000080e80010007800f0bf9f000800370059
:106ebc00bfb897004fb89700008050000080d100f9
:106ecc00800078005fb8970001005000f0bf9f0071
:106edc00f05b8000ffb8970000804000f05b8800fa
:106eec00f15b80005fb8970001005000000040008b
:106efc0001002000020020000300200064b72000e5
:106f0c00009abe000292be003fb897000080e800d5
:106f1c00100078000000e0003a0032003fb8970003
:106f2c000080e8001000780000004000800078002d
:106f3c003fb8970000804000100078000000e0008f
:106f4c0030003a003fb897000080e800100078004d
:106f5c0000004000800078003fb89700008040009f
:106f6c00a0bf9f002fb897000080e80010007800a9
:106f7c000000e0001f0032002fb897000080e800ee
:106f8c001000780000004000800078002fb89700b7
:106f9c00008140002fb897000080e80010007800b6
:106fac0000004000800078002fb89700008040005f
:106fbc00900078003fb897000080e800100078003f
:106fcc0000804000000978003fb897000081e8007d
:106fdc003fb897000080e800900078002fb8970029
:106fec000080e80010007800008040000009780064
:106ffc00040037003fb897008080e8000000eb00e9
:10700c00800878003fb8970010007800e10f40002e
:10701c00390032003fb897001000780000004000a3
:10702c00800078003fb897000100500010007800f5
:10703c000000e00030003a003fb8970010007800e4
:10704c0000004000800078003fb89700010050001d
:10705c0090bf9f003fb897000080e80010007800b8
:10706c000000e0001f0032003fb897000080e800ed
:10707c001000780000004000800078003fb89700b6
:10708c00008140003fb897000080e80010007800b5
:10709c0000004000800078003fb89700008040005e
:1070ac00900078009fb997000380e80010007800ea
:1070bc0000804000000978001fb897000081e800ac
:1070cc009fb897000180e800900078003fb89700c7
:1070dc000080e80010007800008040000009780073
:1070ec00080037009fb997008380e8000000eb0090
:1070fc008008780003003700bfb897000000eb0051
:10710c0080087800a05b80000000e900a05b88008c
:10711c00b90707000080fa00000006000200fa0020
:10712c00f0bf9f007fb9970001712200c0ba200008
:10713c00a0fe07000080fa00000006000200fa0022
:10714c00f0bf9f007fb9970001712200c0ba2000e8
:10715c0043ff07000080fa00000006000400fa005c
:10716c00f0bf9f007fb89700610060000004e00052
:10717c00030032007fb897000000e800f0bf9f00ca
:10718c007fb8970064004000e4ff0700e0bf9f0059
:10719c006fb89700800078006fb8970001087800ee
:1071ac007fb897000000d10000004000efb89700b6
:1071bc00010040008080e8006fb897000080ea0072
:1071cc0080087800efb897000180e8000080fa0092
:1071dc00000006000200fa00f0bf9f007fb8970085
:1071ec000080e900d5ff07000080fa0000000600cf
:1071fc000800fa00d0bf9f00e1bf9f005fb8970066
:10720c00c0bf9f00cfb897000180e90090007800c4
:10721c004fb997000280e900808f50000a003a00b5
:10722c006fb8970000004000cfb8970001004000f5
:10723c00900078004fb997000280e9000080ea00c6
:10724c00808f5000030032000000eb00f0bf9f0065
:10725c000200370011002000f1bf9f007fb897009b
:10726c000080fa00000006001000fa00c0bf9f006a
:10727c00d1bf9f00e2bf9f000000eb00b0bf9f009a
:10728c000000eb0080bf9f0053070700cfb89700aa
:10729c0060b62000640a0700a0bf9f0056070700d5
:1072ac002fb897000000e00003003a0010102000f7
:1072bc00f0bf9f0022003700470707000000eb00db
