:020000040000fa
:0418000000000000e4
:020000040000fa
:08000000060c040000000000e2
:020000040000fa
:10180c008fac230000ff27000001880000000000bf
:10181c000a00070011000700000020000000e00093
:10182c00020032000000020000000000242202002e
:10183c00000000000040da000000fe004440a90057
:10184c0000fc20000000e0000300320050002000eb
:10185c00a00188004440a80000000600e0b1270069
:10186c00010020001500370062004000e0804800b5
:10187c00910188009001ba0062004000e0804800ad
:10188c00910188009002ba0062004000e08048009c
:10189c000002eb006028e10004003a000059eb0064
:1018ac008301e900fdff3e00040037006128e100e0
:1018bc00010032000082eb00050007009101880056
:1018cc001001ba000200e000e7ff3a00000005003a
:1018dc00910188008002780062004000e08048009e
:1018ec003559ba008301e900080032002559ba00c5
:1018fc008301e900050032000400e000f4ff32002f
:10190c0015d9ba008301e900f1ff3a000000060086
:10191c006826040000000000b4260400000000004b
:10192c008424040000000000c42404000000000013
:10193c0002250400000000004a25040000000000fd
:10194c00b425040000000000f22504000000000093
:10195c002a260400000000005a26040000000000a3
:10196c00a429040000000000182b04000000000053
:10197c00e029040000000000a02b0400000000007f
:10198c00b027040000000000ea270400000000005b
:10199c0026280400000000007e280400000000003f
:1019ac00e2280400000000007a2704000000000078
:1019bc00a2270400000000004a2a040000000000d6
:1019cc008e2a040000000000dc2a04000000000045
:1019dc005c2b0400000000002a2a04000000000018
:1019ec003c2a040000000000902d040000000000c0
:1019fc00442d040000000000342c04000000000002
:101a0c00802c040000000000e22c04000000000008
:101a1c000c2c040000000000262c04000000000028
:101a2c00bc330400000000001a3104000000000068
:101a3c006631040000000000de31040000000000ec
:101a4c0026320400000000007a330400000000007d
:101a5c00062e0400000000005a30040000000000b4
:101a6c00b830040000000000fe300400000000004c
:101a7c000a31040000000000ea2d04000000000000
:101a8c00fe2d040000000000d2370400000000000e
:101a9c00c0380400000000009a3904000000000067
:101aac004a3a040000000000983a040000000000cc
:101abc00e63a040000000000f63a040000000000c2
:101acc003a3b0400000000007e4b040000000000c4
:101adc00b646040000000000a6450400000000000b
:101aec00f623040000000000824704000000000000
:101afc00b247040000000000f6470400000000009c
:101b0c001c480400000000008e4804000000000087
:101b1c00c048040000000000084904000000000058
:101b2c005249040000000000ee46040000000000d2
:101b3c007647040000000000a850040000000000dc
:101b4c00ee5004000000000066500400000000008d
:101b5c00284e040000000000ce4e040000000000df
:101b6c00de4f0400000000001a50040000000000ca
:101b7c00064e0400000000001a4e04000000000095
:101b8c00545d040000000000845a040000000000b2
:101b9c00285b040000000000605b040000000000f3
:101bac00045c0400000000001e5d04000000000046
:101bbc00ba610400000000006a5e0400000000002e
:101bcc00245f040000000000905f0400000000008f
:101bdc003c60040000000000626104000000000092
:101bec00965d0400000000009062040000000000fc
:101bfc001266040000000000e8660400000000000b
:101c0c00f4660400000000000067040000000000ff
:101c1c000c670400000000001867040000000000be
:101c2c0022670400000000002c6704000000000084
:101c3c0038670400000000004e670400000000003c
:101c4c00126d040000000000646e0400000000002f
:101c5c00ae6f040000000000be6f04000000000026
:101c6c00dc6f040000000000640e040000000000a3
:101c7c000c11040000000000ac1104000000000076
:101c8c00000004000000000041232300d8010700dd
:101c9c000000e0000600350041232300a0002000d6
:101cac00190207008000eb000000e00001003d007d
:101cbc008080eb000100780000000600889fbe00c9
:101ccc008004780001007800020478008901780013
:101cdc00110020006b000700880f5000010032003b
:101cec008004eb00090078004f04be0000000600e1
:101cfc000000fa004fb99700e881570041232300f8
:101d0c0040e62000260207000080fa0000000600d2
:101d1c00040037000204e0000a0032000000e80072
:101d2c008100e80010417800914f5100f9ff32001a
:101d3c000081eb0010407800914f500004003900f6
:101d4c00020037000001eb000100370012002000f8
:101d5c000200780000000600010278008000eb0011
:101d6c00c8023700889fbe008a9fbe008c9fbe00b1
:101d7c000002780001067800830478000289b9001b
:101d8c00820678000200e00002003a00820078002f
:101d9c0037003700000024001900600031003200c9
:101dac00020578008405780006003700b15d7800e4
:101dbc00f10498000a05e9000d004200808f5500df
:101dcc0023003200f900900060022000090040005e
:101ddc00808f5000f5ff3900390890000000e000ba
:101dec0003003200d00498000000eb00b00c980007
:101dfc00c900900059009000808f500004003900f9
:101e0c0009007800080307000000e000100034000f
:101e1c00c90090005900900001045000880f550033
:101e2c00010031000a047800080178000b007800ea
:101e3c006801070088854500080555004900900099
:101e4c0000004400c00498000a00e000e2ff3a00e1
:101e5c000a805600110009000c80d8008000fd009b
:101e6c00030037000205780084057800daff37009c
:101e7c00010078004f06be004f05be004f04be00a7
:101e8c0000000600889fbe008a9fbe008c9fbe008b
:101e9c008e1f780081067800830478000006780095
:101eac000288b900000778000000e00002003a0048
:101ebc0000017800420037000d00e00040003200c5
:101ecc0000057800c900900069009000808f5000d8
:101edc000400390009007800200307000000e0002e
:101eec0029003500004020001900600003003a0072
:101efc000a047800800578000b0037000a0178008e
:101f0c00a10020000c007800570307008005780022
:101f1c000000e00002003a000a04780002003700da
:101f2c000c0050000004e800c9019000690090000a
:101f3c0003005000880f50000200310000047800ac
:101f4c008005eb00080178008c0078000300780015
:101f5c0020010700080646000805550049009000be
:101f6c0000004400c00498000b00e00004003200a4
:101f7c00090078001c0007000000e00002003a0095
:101f8c000a00e000cfff3a0000802000190060003a
:101f9c0002003200090078001300070000c0200086
:101fac00190060000200320049009000e004980023
:101fbc000a005700110009000d80d80000017800bc
:101fcc00020078004f0778004f06be004f05be0098
:101fdc004f04be00000006008000eb003103070038
:101fec00cf80de0000000600889fbe000004780051
:101ffc000000e0000e003a0080047800c81f2300a7
:10200c00180078000000e00004003200f6ff070022
:10201c000000e00001003d008084eb000884e80033
:10202c00c0202300800f540029003200f4ff370039
:10203c00000022001800600024003200a804900068
:10204c000800370009015000384090000000fb00e8
:10205c0089007800e00607000000e000130034005f
:10206c008084440048009000808f5400f5ff3900b4
:10207c0028009000400498001801780000c020004f
:10208c000000610002003200a8009000010037003f
:10209c00b800900000002400000061000a0032002b
:1020ac00610498008004eb000900370028009000c0
:1020bc004004980060049800500c98001890a00000
:1020cc008084eb0002003700510c980080047800eb
:1020dc00090078004f04be0000000600881f78003d
:1020ec00482f23001804e00004003a00c01021001f
:1020fc003303070020c0b300004c78004f04780075
:10210c0000000600889fbe0000047800b6ff0700a0
:10211c0080047800000420001800600002003200e7
:10212c0028009000711607000000eb0020049800b6
:10213c00384090000004e000050035000000fb0072
:10214c00d90607000000e000010032008084eb009b
:10215c00181090000000e00008003200db060700b9
:10216c000000e000010032008084eb0018109000a9
:10217c005e1607000000eb00101498000008200009
:10218c0018006000100032000000eb00c11f23009b
:10219c00910f1400070032000000e8008180e80075
:1021ac00e80f5000faff3a00080078004f160700bd
:1021bc001300370000004000c11f23000100400045
:1021cc000008eb00f8ff3700000c780000c0eb00b3
:1021dc003044980060022000080040002004980061
:1021ec004004980050049800400c9800600498003b
:1021fc00500c98007004980076004400000c980075
:10220c00090078004f04be0000000600881f78000b
:10221c00a8202300180078000000e0000100320024
:10222c00b8ff07000884e900a01f2300800f5400aa
:10223c00f8ff3a004f04780000000600889fbe00ab
:10224c008004780001047800ea020700000178009d
:10225c0080c1eb00880078000900780004030700b7
:10226c004f04be0000000600881f78008a9fbe0045
:10227c000185b9000a007800891507000004780070
:10228c000000e000030032000a0178008000eb003f
:10229c0004000700080078004f05be004f047800ca
:1022ac00000006008001eb0002003700817178000d
:1022bc008301e800828f5100fcff3a000000060009
:1022cc0080007800010037000000e8001004e000f6
:1022dc00fdff3a000100500000000600800178006c
:1022ec000001780031407800005978000004e000cb
:1022fc00fcff3a000300780000000600889fbe0037
:10230c0081047800114478000804e00009003a00c8
:10231c000c0037008001780009017800d240780069
:10232c000104e00007003200d3cf1000fbff3200a5
:10233c000000e8008800fb00290307000000e00013
:10234c00f4ff3a004f04be0000000600881f78001e
:10235c00020478001f000700080040004f047800ba
:10236c00000006000000fa00881f780000047800c6
:10237c003fb99700ea81570080007800c01a21000d
:10238c0087000700800078000000e00002003500a4
:10239c000040eb0000f47800010078004f04780056
:1023ac000080fa000000060002027800809fbe0048
:1023bc00110009008200d800000178004f00be0017
:1023cc0002a2b90084805000110098000208780025
:1023dc00000006008001eb000200370061f079007c
:1023ec008301e800828f5100fcff3a0000000600d8
:1023fc00889fbe008a9fbe0000057800810478008b
:10240c002d003700c900900069009000808f5000ab
:10241c000400390009007800d00107000000e0003a
:10242c003500350000402000190060000900320022
:10243c00a10020000a007800f20207008005780055
:10244c000000e000040032000a0050000004e80024
:10245c0004003700800578000a00780098ff070018
:10246c0000047800c901900069009000030050003e
:10247c00880f500002003100000478008005eb004a
:10248c00080178008a00780003007800d1ff07006b
:10249c00080545004900900000004400c004980065
:1024ac000b00e0000400320009007800cefe0700ab
:1024bc000000e00010003a001a04e000d1ff3a00de
:1024cc000080200019006000040032000900780030
:1024dc00c5fe07000000e00007003a0000c0200025
:1024ec00190060000500320049009000e0049800db
:1024fc000000eb00010037000080eb004f05be0030
:10250c004f04be0000000600889fbe008a1f7800a2
:10251c00800478000104780000457800c100900028
:10252c0068009000808f500004003900080078008b
:10253c008a0107000000e0001500350048009000fb
:10254c0009587800400498001800780000b8a300df
:10255c0004003a0000a8a30006003200ea4f550020
:10256c0004003a00080078009ffe07000000e0001d
:10257c0007003a0000c02000180060000200320082
:10258c0048009000600498000a80fb0001003700ae
:10259c000080eb004f0578004f04be0000000600e1
:1025ac006200fa00889fbe008a9fbe000004be0035
:1025bc00020578008300780060f92f000f004000be
:1025cc009b02070088979f0099979f000000eb00e3
:1025dc00a09f9f009a4578000b80fb000000ea004a
:1025ec00cf04de0050c2b30080cf55000200320091
:1025fc0009047800010037000904e9000800e00034
:10260c000b0034001f909700080178008a007800b6
:10261c008f9197000300010090979f000000e0004d
:10262c00930032002f98970000004400a09f9f0059
:10263c000905450050c2b30080cf5500040032009c
:10264c000b04e000e3ff3a002f9897008900370055
:10265c000000eb00809f9f00f0979f00e0979f0089
:10266c00d0979f00c0979f00b0979f00c09f9f007e
:10267c0009003700a02d230000805000000040000e
:10268c00e12c2300e10078004f98970001007000c6
:10269c00c09f9f000a05e8001a4478008800fb00e0
:1026ac00a02d23004e020700800078000000e000ff
:1026bc00f0ff3a00a0c2b300804f54000e003a0065
:1026cc00bf8897000180e900b08f9f001000780050
:1026dc00b09f9f000000e00005003d000000ea00f4
:1026ec00b09f9f004f9897000020a000c09f9f00b4
:1026fc000a05e80010003700b19f9f000900370061
:10270c00bf989700f0ff2700808f50000400320024
:10271c006a08b9000000410003004000b09f9f0010
:10272c000a05e8001a01fb0003fd2f00030041001d
:10273c00e90f5000f2ff3600e0c2b3009a4f1000d0
:10274c00040032000080eb00909f9f008a04780008
:10275c001c0037008a04e800a0c2b300994f100097
:10276c0007003a00bf8897000180e900b08f9f00f6
:10277c0010007800909f9f008a84e80011003700b9
:10278c000000eb00909f9f00090037009f98970076
:10279c00f0ff2700808f5000040032006a08b90057
:1027ac000000410003004000909f9f008904e80056
:1027bc001901fb0003fd2f0003004100e90f50003d
:1027cc00f2ff3600194478008800fb00002e23002d
:1027dc00030207000000e00002003a000044780009
:1027ec00010037008904e800a87f9f0080c6b30071
:1027fc00804f540004003a00994f14000a003a002c
:10280c006640500006003700c0c6b300804f54002d
:10281c0005003a00994f140003003a00654040004f
:10282c00a07f9f008904e8000905e800cbfb2f007e
:10283c008f8545001901fb0060f92f000f00400047
:10284c000084e8008b017800800078000800780094
:10285c00fc0107000000e00005003a008b00780046
:10286c00080078003a0307000000e00059ff3d0023
:10287c000080eb004f05be004f04be000080fa0044
:10288c0000000600889fbe008a9fbe008c9fbe0081
:10289c008e1f780000047800810678000205be00c7
:1028ac0004067800900078006380600036003200e7
:1028bc0008007800ccfd07000000e00032003a0070
:1028cc000d00e000030032003d014500ad814d00dc
:1028dc000205be00e10f56001b003a00000021006b
:1028ec00180060004700320062022000080141001d
:1028fc00f800900008007800e50007000007780059
:10290c00380990000200e00001003a0058019000e4
:10291c00c800900008007800dd00070080047800f3
:10292c0048099000c800900008007800d800070003
:10293c008900470000804000cf80de000005550074
:10294c0081855d002f003700e20f56000500320034
:10295c000c00e00009003a00e10f4500e08f4d004b
:10296c0009003200384090000000fb008c00780019
:10297c000a01be00de0407000005be00e10f4500a1
:10298c00e08f4d0004003a0030022000909789003f
:10299c000080eb001f0037000000230018006000cf
:1029ac000c003200a80190004304980053049800d6
:1029bc00430c980063049800530c980060022000ac
:1029cc00080040007004980076004400000c980049
:1029dc000008eb000d00e0000600320064804600a9
:1029ec001001be00620c9800730c9800200090003f
:1029fc0000149800f0ef2c00180c60000000eb00a5
:102a0c0004003700e00f5500e08f5d00d5ff3a0061
:102a1c00e1ff37004f0778004f06be004f05be00a0
:102a2c004f04be0000000600889fbe000004780022
:102a3c00c00090005000900012002000808f5000c9
:102a4c0043003900980078000001eb000188a300d6
:102a5c003f003a0010002a0000806000e10f500097
:102a6c0006003200002020000100e00001003500cb
:102a7c0000202400008c70002600370000c02000cd
:102a8c000080600014003a00a8049000600220004e
:102a9c0008004000808f54000f003a0000202000f6
:102aac007f13070080007800200498000000e000ed
:102abc0004003a00290498000900e800300498004a
:102acc00050037001860a0000020b000300498000a
:102adc00410c9800510c980028009000400498007c
:102aec005004980060049800800078003801900031
:102afc0000015100384090000000fb0089040700e1
:102b0c00000178000000e00004003d0000202400db
:102b1c00180c70000081eb000d0037000000e00085
:102b2c0005003a009800780001c0a10000102400b4
:102b3c00008c70000600370000002500180c700097
:102b4c005800900000004100500498001200200032
:102b5c00020078004f04be0000000600889fbe00f3
:102b6c0000047800c0019000600090008000eb0031
:102b7c00808f51003900390018017800200029009d
:102b8c0000006100e20f500007003200002020001e
:102b9c000200e0000100350000202400000c710050
:102bac008080eb002d003700010026000100610041
:102bbc00810f500008003a0038009000808f5100bf
:102bcc00050039000800780007fd07008080eb0045
:102bdc000000e00021003a0000c020001800600056
:102bec0017003a00a8049000600220000800400082
:102bfc00808f540012003a00002020002813070098
:102c0c0080007800200498000000e00005003a00e5
:102c1c0029049800490498000900e8003004980041
:102c2c00060037001860a000400498000020b00097
:102c3c0030049800410c9800510c980027fd0700b7
:102c4c002800900050049800380090006004980010
:102c5c0000002600180c70008000eb0001007800ca
:102c6c004f04be00000006008001eb00040037009a
:102c7c008301e80090cf1000040032000000e8004f
:102c8c00828f5100faff3a000000eb0000000600b2
:102c9c000000eb00828f5000010031000100510058
:102cac0000000600889fbe008a9fbe008c9fbe005d
:102cbc008004780081067800304090000000fb0012
:102ccc00110020006011b800090407000005be00c7
:102cdc00990078006380600003003200e10f45002a
:102cec00e08f4d0005003a003002200090978900db
:102cfc000085eb008085eb002c00370001d8a30089
:102d0c000800320049019000a900900009007800e9
:102d1c00dfff0700cf80de000a0540008b854800ee
:102d2c001900370001c8a30017003200620220000e
:102d3c0009014100f900900009007800d4ff070058
:102d4c0000067800390990000200e00001003a000a
:102d5c00590190004904900088007800090078001f
:102d6c00cbff070000064600490990008800780058
:102d7c0009007800c6ff070000004600cf80de0087
:102d8c000005550081855d000d00e0000700320054
:102d9c008a9ebe0069099000f9099000828ebe00df
:102dac0089149000a90698006055b8000a00be006e
:102dbc004f06be004f05be004f04be0000000600cb
:102dcc0000017800000020000000e0000800320044
:102ddc00000080000000e000050032000000e90067
:102dec0000008800000040000100800002b0780064
:102dfc0000000600889fbe008004eb00c01f23006b
:102e0c0000047800900078000100e0000a003a000d
:102e1c0080022000a2120700800078000000e00071
:102e2c0010003200000c78000008200080087800a8
:102e3c00a94098000b0037001100e00003003a0095
:102e4c00f0f72f0080087800060037008904e800ae
:102e5c000884e8000080e800e88f5400e9ff3a009d
:102e6c008000eb00010078004f04be00000006005b
:102e7c00889fbe008a1f7800000578000102780048
:102e8c00020478000200e00051003200000820002b
:102e9c0092026000a2409000402823001300090019
:102eac00301978008202b1008002b10021419800f3
:102ebc0060022000020040002001980040019800b0
:102ecc005001980040099800600198005009980042
:102edc007001980076004100000998009440780039
:102eec001200200020c7b30080cf50000900320030
:102efc00a20120006540400080cf50000500320048
:102f0c00620120007640500080cf5000010032005a
:102f1c000001eb0002807200000c7800e3046000fa
:102f2c000f003a000800780076fc070009047800ce
:102f3c0027003700180078000058a3000f003a0053
:102f4c000050a000000c78000500370098007800b5
:102f5c0063806000e30f500008003200638c700047
:102f6c00d440780020c6b30080cf5000f1ff32006f
:102f7c00b0c2b30080cf5000f4ff32000a00e00072
:102f8c000b00320004017800980078000a007800e9
:102f9c003f020700304498000004e0000b003d00a5
:102fac000800780057fc07000004eb00080037000d
:102fbc000304e00004003d000800780051fc070009
:102fcc000a047800020037003344980043fc0700e1
:102fdc00080078004f0578004f04be000000060082
:102fec00040037000204e00001003a000000050074
:102ffc000000e80010417800814f5100f9ff3a00c1
:10300c00000006008001eb0010417800814f510058
:10301c0001003a00800178000204e0000200320056
:10302c000000e800f8ff37000300780000000600fd
:10303c000200fa00f1bf9f00010878000080fa003e
:10304c0000000600889fbe008a1f780000047800ec
:10305c00010278008244780003057800e0c6b300d2
:10306c00804f5100d200320015003c006b405000e4
:10307c00804f5100240032000a003c007040500088
:10308c00804f51000f01320065404000804f5100cd
:10309c007400320050c2b300804f510020013a003e
:1030ac001c01370040c6b300804f51001b0032009a
:1030bc0065404000804f510019013a00170037005d
:1030cc0030c7b300804f5100fe00320007003c00b7
:1030dc0064405000804f5100620032000040e80014
:1030ec00804f51000e013a00e700370050c7b30083
:1030fc00804f51005b00320063404000804f510014
:10310c0007013a00570037009180e900010a780066
:10311c00780090009171780007013700a86090004a
:10312c00c0c6b30080cf50000a003a00940078006b
:10313c0064805000000a78001000be004f89de0049
:10314c00cf91de000002be000203780082037800fb
:10315c001300370010c7b30080cf500003003200bb
:10316c00a0c6b30080cf500006003a00940078004f
:10317c0068805000000a78003002be002003be00b8
:10318c00070037001480e900000a7800100078006e
:10319c0000027800cfa2de000503780086037800d9
:1031ac00049cbe000694be00a860900080c6b300cc
:1031bc0080cf50000e00320020c6b30080cf5000ec
:1031cc0005003a000400fb00cf80de00010178000e
:1031dc00820178000a00370040c7b30080cf50004e
:1031ec00030032006640400080cf500006003a00d9
:1031fc0004007800cf80de000101780082017800a5
:10320c00009cbe000294be003800be002801be0027
:10321c00e00f5000e08f5800e00f5900e08f59008c
:10322c0003003d0078009000d1c2b3000a003700c3
:10323c00081090000018a3000300320078009000e2
:10324c00b1c2b300040037000008a30053003200e1
:10325c007800900001c2b300017578000000e8000e
:10326c004d003700a8609000c0c6b30080cf50005e
:10327c0006003a009400780064805000000a780040
:10328c001002be006033b8001300370010c7b30043
:10329c0080cf500003003200a0c6b30080cf500096
:1032ac0006003a009400780068805000000a78000c
:1032bc003002be002003be00070037001480e90076
:1032cc00000a780010007800000278000500200049
:1032dc000600200007002000049cbe000694be00df
:1032ec00a860900080c6b30080cf50000e00320062
:1032fc0020c6b30080cf500005003a000480fb00cc
:10330c000100200002002000030020000a0037000a
:10331c0040c7b30080cf500003003200664040002d
:10332c0080cf500006003a00040078000100200015
:10333c000200200003002000009cbe000294be008e
:10334c00081090000038a300140032003800be00b2
:10335c002801be00e00f5000e08f5800e00f59002c
:10336c00e08f59000d00320080c7b30080cf5400ad
:10337c000300320080c5b30080cf540007003a0030
:10338c007800900001c3b300017578008000e8005c
:10339c0009f578000080e80070049800780090002f
:1033ac000000450060049800894078004200370016
:1033bc00a8609000c0c6b30080cf5000250032003a
:1033cc000a003c006440500080cf500028003200be
:1033dc0000c0e80080cf500014003200684050005c
:1033ec0080cf500022003a000a00370040c7b300db
:1033fc0080cf50001e0032006640400080cf50004d
:10340c001b0032006940500080cf500018003a0079
:10341c00060037001480e900000a780010007800dc
:10342c00485c900008487800450037001480e9009b
:10343c00000a78001002780068089000cf80de0047
:10344c000101780082017800009abe000292be0051
:10345c003b0037001480e900000a78001001780066
:10346c0068089000cf80de000089be003400370071
:10347c001480e900000a780010007800680c9000b5
:10348c00080878002e0037001180e90080087800c9
:10349c0010007800cf80de000101780082017800f6
:1034ac00009cbe000294be00780090000000450015
:1034bc006004980081c7b300080078000e01070073
:1034cc001f0037001480e900000a78001000780013
:1034dc0060049800580990000200e00002003d00d2
:1034ec0077fb0700090037008000eb00defd0700ca
:1034fc00800078000000e0000300320068009000bb
:10350c00008050000100370058089000100c980003
:10351c000b00370078009000027578000600370029
:10352c0078009000800045000904e00001003a009a
:10353c0059c2b300894878000000e8007004980074
:10354c000000eb004f0578004f04be0000000600a1
:10355c000400fa00889fbe008a9fbe008c1f780072
:10356c00000478000106780070089000f8009000c4
:10357c00010050008808900001005000980890004d
:10358c0001005000a808900001005000b8089000fd
:10359c0001005000c8089000810550000002220074
:1035ac0090bf9f0000032300a0bf9f000810900055
:1035bc000028a30018003a000b00e00016003400ad
:1035cc008b04780009057800e28f54000200360065
:1035dc002a002000020037000900e0000b00340034
:1035ec0058009000c80190000a017800ee80570046
:1035fc0003000100500498000000e0009600320027
:10360c006808900000004500600c98008a84540003
:10361c004240a900ebff3c00780190000200e00062
:10362c000b00340058009000c80190008c0078000a
:10363c0003000100500498000000e00086003200f6
:10364c0068089000f800900001004000600c9800a1
:10365c00880c90000900e000150034000905780082
:10366c00e28f5400020036002a00200002003700ce
:10367c000900e0000b00340058009000c8019000d5
:10368c000a017800ec8057000300010050049800f8
:10369c000000e00070003200680890000000450057
:1036ac00600c98008a8454004240a900ebff3c0057
:1036bc00180990000200e0000b003400e8009000b4
:1036cc0058009000c80190000300010050049800bd
:1036dc000000e0006000320068089000980890003c
:1036ec0001004000600c9800a80c90000900e0005c
:1036fc001500340009057800e28f540002003600f2
:10370c002a002000020037000900e0000b00340002
:10371c0058009000c80190000a017800ec80570016
:10372c0003000100500498000000e0004a00320041
:10373c006808900000004500600c98008a845400d2
:10374c004240a900ebff3c00380990000200e00069
:10375c000d003400e80090001808900080804000b4
:10376c0058009000c801900003000100500498001c
:10377c000000e0003800320068089000b8089000a3
:10378c0001004000600c9800c80c90000900e0009b
:10379c001500340009057800e28f54000200360051
:1037ac002a002000020037000900e0000b00340062
:1037bc0058009000c80190000a017800ec80570076
:1037cc0003000100500498000000e00022003200c9
:1037dc006808900000004500600c98008a84540032
:1037ec004240a900ebff3c00081090000028a30009
:1037fc001b0032000b00e000190034008b04780031
:10380c0009057800e28f5400020036002a002000df
:10381c00020037000900e0000b0034005800900053
:10382c00c80190000a017800ee80570003000100e7
:10383c00500498000000e000070032006808900077
:10384c0000004500600c98008a8454004240a90096
:10385c0003003400eaff37000080eb000100370062
:10386c000000eb004f0678004f05be004f04be0071
:10387c000080fa0000000600809781000000e00044
:10388c000100320000000100202f23000000060080
:10389c008001780001017800638060000000400026
:1038ac00812e2300e10078000228a30001003200e1
:1038bc000130a0000238a300010032000190a000ea
:1038cc000248a300010032000180a0000258a300ae
:1038dc0003003200000028008080700001003700d7
:1038ec0001e0a00002182000030078004901070045
:1038fc000000fb0000000600ef02b000889fbe0035
:10390c008a9fbe008c9fbe008e1f78000006780038
:10391c00d02b2300c0b79f0080c5b30080cf5000d0
:10392c0008003200c22a2300c2b79f007740400033
:10393c0080cf500003003a0083002000b3b79f00f3
:10394c000a00370080c7b30080cf5000050032005a
:10395c00a4002000b4b79f0080c5b30080cf5000f6
:10396c0002003a0000012000b0b79f003c04be00ea
:10397c002c05be0040c6b30080cf500003003200bf
:10398c006540400080cf50000b003a00e00f54001f
:10399c00e08f5c00e00f5d00e08f5d0006003d00f5
:1039ac006000b8006011b800080450008984580009
:1039bc000a0559008b855900e00f5400e08f5c001c
:1039cc00e00f5d00e08f5d0004003a005c089000a1
:1039dc008d0120000000e0000c003200bfb0970009
:1039ec0001027800cfa2de00050378008603780080
:1039fc000800be000a01be00fc0107004fb2970090
:103a0c0064407800d0df9f007d0120003fb097001c
:103a1c0000027800cfa2de00050378008603780050
:103a2c000800be000a01be00e9010700009ebe00ae
:103a3c000296be000d00e90061fc2f008f80400053
:103a4c00008740001e0037003fb197000204780049
:103a5c00cfc4de00090578008a0578000802be0094
:103a6c000a03be007fa897008fb097001fb1970084
:103a7c00afb19700e1010700d0b79f00e1b79f00fd
:103a8c00f2b79f0083bf9f008d06e9000802be00bd
:103a9c000a03be00f10007007faa97000000520045
:103aac00cfb09700615778005fb09700efb09700e8
:103abc007fb197008fb99700009ebe000296be00a2
:103acc003c00be002c01be00f0af9f0081b79f00f0
:103adc0092b79f00a3b79f00e00f5000e08f5800f3
:103aec00e00f5900e08f5900020034000d00e00097
:103afc00d5ff3c00bfb09700e88f500010003a0093
:103b0c000c1090000038a3000d003200f78f560007
:103b1c0006003e0062fc2f000f0141008d004100a9
:103b2c0000c3b300914f1000050032008d06e90070
:103b3c0000c3b30063fc2f008f81410080f17e0035
:103b4c0078811600120e98006c00900063fc2f0018
:103b5c008f8141008d8041001efa07001c099000e6
:103b6c005c089000800f510006003d0002005000e0
:103b7c00000e98000c1090000040a1000016980058
:103b8c000f0037000000e0000d003d000c1090000d
:103b9c0074006000f00f500009003a007c0890009f
:103bac00fc009000010050008c08900001005000b7
:103bbc00020050004240a90001003400000e9800a1
:103bcc004f0778004f06be004f05be004f04be00e5
:103bdc00ef02b100000006000a00fa008001780034
:103bec00e20f500025003e0050578000e10f5000be
:103bfc0008003200802320000000e00005003200a5
:103c0c000423200025232000462320008001780077
:103c1c000400370004222000252220004622200028
:103c2c0083222000144090000004e00003003500c3
:103c3c008009eb0000002800140a70001540900069
:103c4c000028a30001003a0015a0a0008001eb00a1
:103c5c0007003700154090000008a300fdff32005c
:103c6c0063c078000000fb00000b78008301e800c3
:103c7c00828f5100f7ff3a00080037003000200017
:103c8c00b0bf9f00c3bf9f00d1bf9f00e2bf9f008a
:103c9c006a80570000c0da006fb997000200780004
:103cac000080fa00000006000a00fa001100200053
:103cbc00b1bf9f00c0bf9f006a80570000c0da00f0
:103ccc004fb897000080fa00000006000a00fa00c6
:103cdc0051002000b1bf9f00c0bf9f006a805700f9
:103cec0000c0da005fb897000080fa000000060000
:103cfc000a00fa0044002000b4bf9f00c0bf9f0020
:103d0c00d2bf9f00e3bf9f00f1bf9f006a805700a6
:103d1c0000c0da005fb89700efb897000080fa0097
:103d2c00000006000a00fa00881f78008001780065
:103d3c000000e0002c003a00e08f81002040900051
:103d4c000004e00028003a0050578000e10f5000ba
:103d5c0008003200802320000000e0000500320043
:103d6c0004232000252320006723200080017800f5
:103d7c0004003700042220002522200067222000a6
:103d8c0083222000144090000004e0000300350062
:103d9c008009eb0000002800140a70000002eb0000
:103dac000c003700130a20001544780061406400b1
:103dbc0002003a008301e900fbff3a000402e8002c
:103dcc009541780061c06100050032001700780051
:103ddc008058780004035100820f5200f1ff3a0022
:103dec00060051000800370020002000a0bf9f00f3
:103dfc00b3bf9f00c1bf9f00d2bf9f006c80570014
:103e0c0000c0da005fb897004f0478000080fa0019
:103e1c00000006000a00fa008001eb00b3bf9f000f
:103e2c00c0bf9f00d1bf9f00e2bf9f000080eb008e
:103e3c00f0bf9f006a80570000c0da00ffb89700ff
:103e4c00e18f400002003a00500220009097890058
:103e5c00010078000080fa0000000600889fbe0078
:103e6c008a9fbe008c1f78000205be000004be00b5
:103e7c000006eb00e00f5000e08f5800e00f5900f7
:103e8c00e08f590007003d006000b8006011b800d9
:103e9c0008045000898458000a0559008b85590084
:103eac001c002000e00f5200e08f5a00e00f5b0076
:103ebc00e08f5b0002003d000f0007000c00a20029
:103ecc000800be000a01be00250007000203be0068
:103edc000002be000c00e0000100320006000700ea
:103eec000400be000601be004f0678004f05be0060
:103efc004f04be00000006006000b8006011b8005e
:103f0c00040250008582580006035900878359002b
:103f1c00000006006022b800060220000000d0005d
:103f2c008180d2000482d2008582d2000000a000e1
:103f3c000202520083825a00030031000202420046
:103f4c0083824a000000a1000603e900f3ff3a0057
:103f5c0000000600efff07000400be000000060092
:103f6c00889fbe008a9fbe008c9fbe000404b800d0
:103f7c000506b8008904460060854e000606b800a8
:103f8c000a054600e0854e000706b8008b05460082
:103f9c00040eb800890446000a854e00e0854d00e9
:103fac00050eb8000a0546008b854e00060eb800bb
:103fbc008b0546000416b8000a0546008b854e009a
:103fcc000516b8008b054600041eb8008b0546008c
:103fdc000800be000a01be004f06be004f05be0021
:103fec004f04be0000000600881f78000004780013
:103ffc005001be004000be00040040008580480017
:10400c000601490087814900009cbe000294be0055
:10401c000400e1000588e1000690e1000798e1004a
:10402c0002003100680044001008e8004f047800da
:10403c0000000600f4874700889fbe008a9fbe00e0
:10404c008c9fbe008e1f78000205be000004be00cf
:10405c00d4b79f00e5b79f00f6b79f0087bf9f00be
:10406c000000eb00c0b79f00b0b79f00a0b79f0047
:10407c0090b79f0080b79f000d042000bfb0970041
:10408c004fb09700000140000000e0000f003d0021
:10409c004f08de0000007100c0b79f009e000700b3
:1040ac0001003d0012002000a100070001003d00ae
:1040bc0012002000a6000700b1000700b6000700a0
:1040cc000f004000c8ff0700220037004f08de0039
:1040dc0000067100ccb79f008f00070001003d0067
:1040ec00120020009200070001003d001200200089
:1040fc0097000700a20007000fb297009fb297002d
:10410c002fb39700bfb39700a9000700000052001f
:10411c0081805a0002015b0083815b0080b79f00a5
:10412c0091b79f00a2b79f00b3b79f000007eb00a9
:10413c009f0007000020e10001a8e10002b0e100af
:10414c0003b8e100010031001e0020000e005600f3
:10415c00c0b79f004fb297000400e0000700350085
:10416c0010002000010020006011b800080470004d
:10417c00898470000a0571008b8571008d06e90039
:10418c00beff3a000400e00003003d00820007007f
:10419c000f00400094ff07004fa897000000e000bc
:1041ac0004003a000fb497009fb497002fb5970006
:1041bc00bfb59700940007004f0778004f06be006c
:1041cc004f05be004f04be004f01b10000000600b9
:1041dc00881f780018002000881f780095ff0700c2
:1041ec008f87e9004f04780000000600801feb0069
:1041fc0090ff07008f87e90000000600889fbe0033
:10420c008a9fbe008c1f78006e00070007003d00df
:10421c0073000700e00f5b00e08f5b0007003d00c0
:10422c00320007000006eb000400370034000700e2
:10423c0002003d002a0007001c002000720007004d
:10424c00e3ff07000203be000002be000c00e0000a
:10425c0001003200220007000400be000601be006f
:10426c004f0678004f05be004f04be00000006004c
:10427c00889fbe008a9fbe008c1f780051000700eb
:10428c0005003d0056000700e00f5b00e08f5b006f
:10429c0006003d00040037001900070003003d0034
:1042ac006000b8006011b80010000700560007004d
:1042bc00ceff07000203be000002be000c00e000af
:1042cc0001003200060007000400be000601be001b
:1042dc004f0678004f05be004f04be0000000600dc
:1042ec006000b8006011b8000000370004025000f4
:1042fc008582580006035900878359000000060088
:10430c000006eb00e00f5200e08f5a00e00f5b005c
:10431c00e08f5b00000006000180400090b79f001a
:10432c000001eb008fb097000100e00000000600d8
:10433c000200700090b79f000180400080b79f0082
:10434c000001eb00ffa897000100e0000000060050
:10435c000200700080b79f00018040006faa970098
:10436c00cf20de0001007000f0af9f00040242007d
:10437c00250007004f18de00000272000000060046
:10438c00e4af9f000804440089844c000a054d00ea
:10439c008b854d00000006003fb29700cfb297000e
:1043ac005fb39700efb3970000fe2f0000000600ec
:1043bc003fb09700cfb097005fb19700efb1970077
:1043cc00000006000205be000004be00e00f500015
:1043dc00e08f5800e00f5900e08f590000000600f4
:1043ec006000b8006011b8000804500089845800bf
:1043fc000a0559008b8559001c002000e00f520063
:10440c00e08f5a00000006000800be000a01be0042
:10441c00000006004211880000118800111188006c
:10442c000000060022c2bf00610060000000060010
:10443c0032c2bf0061006000000006000000fa00fc
:10444c00f70007000080fa00000006000000fa00e8
:10445c0067020700dc040700d1050700bd0a07004e
:10446c00b90b0700e8260700ec1f0700910c0700aa
:10447c000080fa00000006000000fa000080fa003c
:10448c00000006001000fa0000202000040d0700b8
:10449c00000f78001e00e00003003a0060942a0030
:1044ac00f9f5070061003700e400470070962a0018
:1044bc00e20e0700100798001e0090000000e000bc
:1044cc005a003a006c0147002e009000a100200019
:1044dc00150e0700100798001e0090000000e00069
:1044ec0052003a00e600470030972a00d30e07002e
:1044fc00100798001e0090000000e000070032003a
:10450c001e009000801f7800f0972a00801f780012
:10451c00f7f50700e4875700440037006a014700ad
:10452c003e00900091002000ff0d0700100798003e
:10453c001e0090000000e000070032001e009000fa
:10454c00801f7800109a2a00801f7800e8f5070079
:10455c00e4875700350037005e00900010027800a9
:10456c003e009000539c2a00d29c2a008000eb0055
:10457c0004000100100798001e0090000000e000ed
:10458c00070032001e009000801f7800109d2a004a
:10459c00801f7800d6f50700e4875700230037000a
:1045ac003e009000680f0700e8004700e09e2a00dc
:1045bc00a20e0700100798001e0090000000e000fb
:1045cc00070032001e009000801f780010a02a0007
:1045dc00801f7800c6f50700e487570013003700ea
:1045ec006e0147004e009000a1002000ce0d070088
:1045fc00100798001e0090000000e0000700320039
:10460c001e009000801f780030a22a00801f7800c6
:10461c00b7f50700e4875700040037004e00900000
:10462c00490f07002e009000470f07000080fa008a
:10463c00000006001800fa0000202000980c07006b
:10464c0020079800ea00470070962a007b0e0700ae
:10465c00300798003e0090000000e0005e003a0039
:10466c006e0147005e009000a1002000ae0d070017
:10467c00300798003e0090000000e00056003a0021
:10468c00e800470030972a006c0e070030079800ae
:10469c003e009000801f780070a42a00801f7800d4
:1046ac0093f50700e48757006c0147004e0090001b
:1046bc00a10020009c0d070030079800be00900060
:1046cc00811f780050a62a00801f780088f507000b
:1046dc00e48757006e009000100190004e0090008f
:1046ec00f000470002000100300798003e009000e7
:1046fc000000e000070032003e009000801f7800b0
:10470c0050a82a00801f780079f50700e48757002d
:10471c000a0037000e0890009e0890002e099000a9
:10472c00be099000809fbe00829fbe00a0aa2a00f6
:10473c00801f78006ef50700ea8757006000b8000c
:10474c00008fbe001b00370040ad2a004ef507005d
:10475c006e009000900178004e0090000220200026
:10476c00ae0090000300010030079800be009000de
:10477c00811f780090ae2a00801f78005cf507003e
:10478c00e48757007e009000a00190005e0090002e
:10479c0002202000ae0090000300010080b02a002f
:1047ac0039f5070010002000010020001e0f40000a
:1047bc005e9748004000200001002000be0f100052
:1047cc00ae8f1800e0ff34005e009000de0e070094
:1047dc004e009000dc0e07000080fa00000006007e
:1047ec000000fa0020b32a0027f5070025ff070078
:1047fc00ad0b070000b82a0023f50700c055800058
:10480c00801f780060bd2a00801f780038f50700f3
:10481c00e4875700ffff3700010007000000060087
:10482c000200fa000080eb00601b8800601b800017
:10483c006019880060198000501988008220a80037
:10484c00aec0bf007040b300aee0b7008680a900d8
:10485c009680a800420120000140200000002800a2
:10486c00ecfe070000312b0007f507001057800005
:10487c00800078000000e80010578800811f780045
:10488c00e0322b00801f780019f50700e4875700f1
:10489c00eefe0700ae100700f0bf9f007fb8970038
:1048ac00801f780010342b00801f780010f5070053
:1048bc00e4875700ffff37004d010700c2030700d4
:1048cc00b7040700a30907009f0a0700790b07002c
:1048dc00000006008b1607000000060000002000f8
:1048ec009001880000c02000f1ff2f000108bb00e0
:1048fc000188bb000000fe00004006000c00fa001e
:10490c00c0bf9f00d2bf9f00e3bf9f000000eb0021
:10491c00a0bf9f00ea8057004fb89700bd0e07005c
:10492c00a0bf9f002fb897000000e00003003200ea
:10493c002fb99700f2bf9f000d0037003fb89700ca
:10494c000000e000080032003fb8970060009000c3
:10495c005fb99700efb997000288be008001eb00a9
:10496c00f3bf9f000200370010102000f0bf9f0023
:10497c007fb897000080fa00000006000a00fa00d9
:10498c00d0bf9f000000eb00b0bf9f00e880570035
:10499c005fb897009f0e0700b0bf9f003fb897000d
:1049ac000000e000040032006011b800e2bf9f007c
:1049bc00f3bf9f000c0037004fb897000000e000d9
:1049cc00060032004fb89700600090001001be0046
:1049dc00e2bf9f00f3bf9f00030037006000b800e8
:1049ec00e0bf9f00f1bf9f006fb89700ffb8970022
:1049fc000080fa00000006000800fa00e0bf9f00eb
:104a0c000000eb00c0bf9f00e68057006fb8970016
:104a1c00800e0700c0bf9f004fb897000000e00059
:104a2c00030032004fb89700f0bf9f00130037000f
:104a3c005fb897000000e0000e0032005113070031
:104a4c005fb89700e000900020ad2000c71607006b
:104a5c005fb89700600090008000780010c0b30031
:104a6c00804898004f1307000000eb00f0bf9f0038
:104a7c000200370010102000f0bf9f007fb8970095
:104a8c000080fa00000006000a00fa00e0bf9f0058
:104a9c000000eb00c0bf9f00e68057006fb8970086
:104aac005c0e0700c0bf9f004fb897000000e000ed
:104abc00030032004fb89700f0bf9f00240037006e
:104acc005fb897000000e0001f0032002d130700b4
:104adc000000eb00b0bf9f000e003700bfb897007e
:104aec0020ad200051160700800078005fb89700b9
:104afc0060009000808f500003003a00bfb8970010
:104b0c0020ad2000dc1607003fb897000000e8003d
:104b1c00b0bf9f00bfb8970090568000808f5000a8
:104b2c00eeff39005fb897006000900080007800bd
:104b3c000040eb00804898001a1307000000eb00bf
:104b4c00f0bf9f000200370010102000f0bf9f0044
:104b5c007fb897000080fa00000006000800fa00f9
:104b6c00e0bf9f000000eb00c0bf9f00e680570035
:104b7c006fb89700270e0700c0bf9f004fb8970073
:104b8c000000e000030032004fb89700f0bf9f0018
:104b9c000e0037005fb897000000e00009003200fb
:104bac005fb8970060009000000178006000b800ca
:104bbc0020019800310198000000eb00f0bf9f002d
:104bcc000200370010102000f0bf9f007fb8970044
:104bdc000080fa00000006000800fa00e0bf9f0009
:104bec000000eb00c0bf9f00e68057006fb8970035
:104bfc00080e0700c0bf9f004fb897000000e000f0
:104c0c00030032004fb89700f0bf9f000b00370035
:104c1c005fb897000000e000060032005fb8970014
:104c2c0060009000004890000080fb00f0bf9f00e7
:104c3c00020037000000eb00f0bf9f007fb8970028
:104c4c000080fa00000006000400fa00f0bf9f008c
:104c5c00e0002000120b0700e0bf9f006fb8970028
:104c6c000000e0000e0032007fb89700efb897000c
:104c7c00610098006fb9970000242400f100200017
:104c8c000089be006fb997006000b8002001980041
:104c9c0031019800efb897000040eb008048980075
:104cac000080fa00000006000200fa00f0bf9f002e
:104cbc007fb89700600090008c0b07000080fa0012
:104ccc00000006000800fa00e0bf9f000000eb00a7
:104cdc00c0bf9f00e68057006fb89700cd0d07004e
:104cec00c0bf9f004fb897000000e00003003200e7
:104cfc004fb89700f0bf9f00150037005fb89700c2
:104d0c000000e000100032005fb8970060009000d7
:104d1c00004890000004e00003003a00102020003e
:104d2c00f0bf9f000a003700d15680005fb8970093
:104d3c00600090006a0040000c1607000000eb00b9
:104d4c00f0bf9f000200370010102000f0bf9f0042
:104d5c007fb897000080fa00000006000a00fa00f5
:104d6c00c0bf9f00d1bf9f004fb89700f0bf9f00fe
:104d7c00ffb89700e28f50000f0032007fb8970009
:104d8c00e40f500008003200ffb897000100e0006b
:104d9c00010032000e003700dfb89700c05e2b0018
:104dac00800878000d003700dfb89700005e2b00fc
:104dbc00800878000900370080662200b0bf9f0091
:104dcc005fb89700ea8057000108780003003700ad
:104ddc0020102000e0bf9f00020037008000eb0095
:104dec00e1bf9f006fb897000080fa00000006003a
:104dfc000400fa006000b800e0bf9f00f1bf9f0004
:104e0c0010002000e0bf9f00406b2200f0bf9f000d
:104e1c006fb89700ffb89700d60b07000080fa0018
:104e2c00000006000400fa000000eb00f0bf9f0039
:104e3c0027003700ffb8970020ad20007b15070036
:104e4c00e0bf9f006fb89700b0009000200090006a
:104e5c0061004000e08048006fb997002001980085
:104e6c00310198006fb8970020019000b0019000bc
:104e7c006fb897001000be00800f5100818f590051
:104e8c0010003900ffb897007fb897000000e900c8
:104e9c00f0bf9f0020ad2000f7150700efb897007a
:104eac000040eb00804898006fb997006000b80094
:104ebc0020019800310198008000eb006fb897003a
:104ecc00771107007fb897000000e800f0bf9f0043
:104edc00ffb8970090568000808f5000d5ff3900a6
:104eec000080fa00000006000200fa00f0bf9f00ec
:104efc0024120700a0002000690a07008000780037
:104f0c007fb89700610098007fb897006000900010
:104f1c000000e000050032007fb8970060009000b0
:104f2c008000780010002000800878001d12070017
:104f3c000080fa00000006000200fa00f0bf9f009b
:104f4c007fb8970060009000e80a07000080fa0024
:104f5c00000006000800fa00e0bf9f00e680570042
:104f6c006fb897002b0d0700c0bf9f004fb897007c
:104f7c000000e000030032004fb89700f0bf9f0024
:104f8c000e0037005fb897000000e0000900320007
:104f9c00fc1107005fb897006000900010007800cb
:104fac00c0bf9f00ff1107004fb89700f0bf9f00d4
:104fbc000200370010102000f0bf9f007fb8970050
:104fcc000080fa00000006000a00fa00d0bf9f0023
:104fdc00e1bf9f00e88057005fb897000d0d0700f8
:104fec00b0bf9f003fb897000000e0000300320004
:104ffc00bfb89700f1bf9f000e0037004fb8970065
:10500c000000e00009003200de1107004fb89700e5
:10501c0060009000efb8970001087800e1110700dc
:10502c000000eb00f0bf9f000200370011102000c1
:10503c00f1bf9f007fb897000080fa0000000600c7
:10504c000800fa00e0bf9f00e68057006fb8970099
:10505c00f00c0700c0bf9f004fb897000000e000a5
:10506c00030032004fb89700f0bf9f001d003700bf
:10507c005fb897000000e00018003200c111070073
:10508c005fb8970060009000900090005fb89700a8
:10509c006000900010007800808f500006003100f6
:1050ac00d15680005fb89700600090000080e80047
:1050bc002e15070005003700d15680005fb8970009
:1050cc00600090006600400028150700b51107002d
:1050dc000000eb00f0bf9f00020037001010200012
:1050ec00f0bf9f007fb897000080fa000000060018
:1050fc000a00fa00e0bf9f00e68057006fb89700e7
:10510c00c40c0700c0bf9f004fb897000000e00020
:10511c00030032004fb89700f0bf9f002300370008
:10512c005fb897000000e0001e00320095110700e8
:10513c000000eb00b0bf9f0010003700bfb8970015
:10514c005fb89700600090000080e800b71407007b
:10515c0080007800d0568000808f500004003a0008
:10516c009011070010002000f0bf9f000f003700c7
:10517c003fb897000000e800b0bf9f00bfb8970091
:10518c005fb897006000900010009000808f500076
:10519c00eaff3900831107000000eb00f0bf9f000d
:1051ac00020037000000eb00f0bf9f007fb89700b3
:1051bc000080fa00000006000e00fa00e0bf9f001d
:1051cc00e68057006fb89700920c0700c0bf9f0095
:1051dc004fb897000000e000030032004fb8970072
:1051ec00f0bf9f00520037005fb897000000e0004e
:1051fc004d0032000000eb00a0bf9f0061110700c2
:10520c000000eb00b0bf9f0014003700bfb8970040
:10521c005fb89700600090000080e80083140700de
:10522c0080007800d0568000808f500008003a0033
:10523c00bfb897005fb89700600090000080e8004e
:10524c000d15070010002000a0bf9f0009003700bb
:10525c003fb897000000e800b0bf9f00bfb89700b0
:10526c005fb897006000900010009000808f500095
:10527c00e6ff39002fb897000000e00004003a0068
:10528c00481107000000eb00f0bf9f00280037001a
:10529c005fb8970060009000900090005fb8970096
:1052ac006000900010007800808f500019003100d1
:1052bc005fb8970060009000300090000000e000a4
:1052cc00140032005fb89700600090006600400048
:1052dc008000eb005514070090bf9f005fb897004b
:1052ec00600090000080e8009fb897009f140700b2
:1052fc005fb89700600090009fb897006810070097
:10530c005fb8970060009000660040008000eb00e2
:10531c00d91407005d110700221107000000eb00f3
:10532c00f0bf9f000200370010102000f0bf9f005c
:10533c007fb897000080fa00000006000800fa0011
:10534c00e0bf9f006fb8970069ff07000000e00006
:10535c000300320010202000f0bf9f001200370025
:10536c00e68057006fb897002a0c0700c0bf9f005b
:10537c004fb897000000e000030032004fb89700d0
:10538c00f0bf9f00080037005fb897000000e000f6
:10539c00030032000000eb00f0bf9f00020037005a
:1053ac0010102000f0bf9f007fb897000080fa001b
:1053bc00000006000a00fa00c0bf9f00d1bf9f008a
:1053cc004fb89700f0bf9f00ffb89700e28f5000d6
:1053dc000f0032007fb89700e50f50000800320034
:1053ec00ffb897000100e000010032000e0037000a
:1053fc00dfb89700005d2b00800878000d003700a7
:10540c00dfb89700605c2b0080087800090037003b
:10541c00409a2200b0bf9f005fb89700ea80570007
:10542c00010878000300370020102000e0bf9f0027
:10543c00020037008000eb00e1bf9f006fb89700bf
:10544c000080fa00000006000200fa00f0bf9f0086
:10545c001000200012090700800078007fb8970028
:10546c00610098000080fa00000006000200fa00bb
:10547c00f0bf9f007fb89700600090009b09070069
:10548c000080fa00000006000800fa00e0bf9f0050
:10549c00e68057006fb89700de0b0700c0bf9f0077
:1054ac004fb897000000e000030032004fb897009f
:1054bc00f0bf9f00130037005fb897000000e000ba
:1054cc000e003200af1007005fb89700600090002c
:1054dc008000780010c0b300804878005fb8970057
:1054ec00600090008000eb00ed0f0700ad1007008e
:1054fc000000eb00f0bf9f000200370010102000ee
:10550c00f0bf9f007fb897000080fa0000000600f3
:10551c000800fa00e0bf9f00e68057006fb89700c4
:10552c00bc0b0700c0bf9f004fb897000000e00005
:10553c00030032004fb89700f0bf9f0018003700ef
:10554c005fb897000000e000130032008d100700d8
:10555c005fb8970060009000104078000004e000f5
:10556c0009003a005fb89700600090008000780056
:10557c000040eb00804878005fb897006000900016
:10558c008000eb00c60f0700861007000000eb0040
:10559c00f0bf9f000200370010102000f0bf9f00ea
:1055ac007fb897000080fa00000006000800fa009f
:1055bc00e0bf9f00e68057006fb89700950b07007f
:1055cc00c0bf9f004fb897000000e00003003200fe
:1055dc004fb89700f0bf9f000f0037005fb89700df
:1055ec000000e0000a003200661007005fb8970068
:1055fc0060009000800078000040eb00804878004c
:10560c00681007000000eb00f0bf9f00020037009d
:10561c0010102000f0bf9f007fb897000080fa00a8
:10562c00000006000800fa00e0bf9f00e68057006b
:10563c006fb89700770b0700c0bf9f004fb897005b
:10564c000000e000030032004fb89700f0bf9f004d
:10565c00130037005fb897000000e0000e00320026
:10566c00481007005fb89700600090001040780069
:10567c000004e000040032004a1007001020200053
:10568c00f0bf9f0006003700461007000000eb003b
:10569c00f0bf9f000200370010102000f0bf9f00e9
:1056ac007fb897000080fa00000006000800fa009e
:1056bc00e0bf9f00e68057006fb89700550b0700be
:1056cc00c0bf9f004fb897000000e00003003200fd
:1056dc004fb89700f0bf9f00130037005fb89700da
:1056ec000000e0000e003200261007005fb89700a3
:1056fc0060009000104078000004e00004003200cc
:10570c002810070010002000f0bf9f000600370093
:10571c00241007000000eb00f0bf9f0002003700d0
:10572c0010102000f0bf9f007fb897000080fa0097
:10573c00000006000a00fa00c0bf9f00d1bf9f0006
:10574c004fb89700f0bf9f00ffb89700e28f500052
:10575c000f0032007fb89700e60f500008003200af
:10576c00ffb897000100e000010032000e00370086
:10577c00dfb89700c05d2b00800878000d00370063
:10578c00dfb89700405d2b008008780009003700d7
:10579c0080b12200b0bf9f005fb89700ea8057002d
:1057ac00010878000300370020102000e0bf9f00a4
:1057bc00020037008000eb00e1bf9f006fb897003c
:1057cc000080fa00000006000800fa00200020000b
:1057dc00c0bf9f0030002000e0bf9f00009e220051
:1057ec00d0bf9f0000ba2200f0bf9f004fb89700b7
:1057fc00dfb897005f0907006fb89700ffb89700f4
:10580c005c0907000080fa00000006000400fa00a2
:10581c00f0bf9f004000200021080700e0bf9f0060
:10582c006fb897000000e000030032007fb89700cb
:10583c00efb89700610098000080fa0000000600a5
:10584c000200fa00f0bf9f007fb897006000900044
:10585c00a60807000080fa00000006000a00fa0003
:10586c00d0bf9f00e1bf9f00e88057005fb8970052
:10587c00e80a0700b0bf9f003fb897000000e000a7
:10588c00030032003fb89700f0bf9f0016003700ae
:10589c004fb897000000e000110032004fb897009d
:1058ac00600090000000e0000d003200b50f070012
:1058bc004fb8970060009000efb897002b130700cb
:1058cc004fb89700600090008000eb00f40e0700ca
:1058dc00b40f07000000eb00f0bf9f000200370080
:1058ec0010102000f0bf9f007fb897000080fa00d6
:1058fc00000006000a00fa00d0bf9f00e1bf9f0025
:10590c00e88057005fb89700c20a0700b0bf9f003d
:10591c003fb897000000e000030032003fb897004a
:10592c00f0bf9f00210037004fb897000000e00047
:10593c001c0032004fb89700600090000000e0009f
:10594c00180032008f0f07004fb8970060009000ce
:10595c00100078000000e00007003a00efb8970054
:10596c000000eb00800878008e0f0700600020001c
:10597c00f0bf9f000d0037004fb8970060009000fb
:10598c008000eb00a9120700800078006fb8970028
:10599c0001087800830f07000000eb00f0bf9f00a8
:1059ac000200370010102000f0bf9f007fb8970056
:1059bc000080fa00000006000a00fa00d0bf9f0029
:1059cc00e1bf9f00e88057005fb89700910a07007d
:1059dc00b0bf9f003fb897000000e000030032000a
:1059ec003fb89700f0bf9f00210037004fb89700d9
:1059fc000000e0001c0032004fb8970060009000df
:105a0c000000e000180032005e0f07004fb897004e
:105a1c0060009000100078000000e00007003a00e1
:105a2c00efb897000000eb00800878005d0f0700ce
:105a3c0060002000f0bf9f000d0037004fb89700aa
:105a4c00600090008000eb000b13070080007800d2
:105a5c006fb8970001087800520f07000000eb00a8
:105a6c00f0bf9f000200370010102000f0bf9f0015
:105a7c007fb897000080fa00000006000800fa00ca
:105a8c00e0bf9f00e68057006fb89700610a0700df
:105a9c00c0bf9f004fb897000000e0000300320029
:105aac004fb89700f0bf9f00170037005fb8970002
:105abc000000e000120032005fb897006000900018
:105acc000000e0000e0032002e0f07005fb89700b8
:105adc0060009000100078000000e000040032002c
:105aec00300f070010202000f0bf9f000600370089
:105afc002c0f07000000eb00f0bf9f0002003700e6
:105b0c0010102000f0bf9f007fb897000080fa00b3
:105b1c00000006000800fa00c0bf9f00d1bf9f0024
:105b2c004fb89700f0bf9f007fb89700e20f50006e
:105b3c000f0032007fb89700e70f500008003200ca
:105b4c007fb897000000e000010032000c00370025
:105b5c00dfb89700805f2b00800878000b003700bf
:105b6c00dfb89700205f2b00800878000700370013
:105b7c00dfb89700005f2b00800878000300370027
:105b8c0020102000e0bf9f00020037000000eb0057
:105b9c00e0bf9f006fb897000080fa00000006007d
:105bac000400fa0040002000e0bf9f0000d9220052
:105bbc00f0bf9f006fb89700ffb897006d08070003
:105bcc000080fa00000006000200fa00f0bf9f00ff
:105bdc007fb8970020009000800078000100a000a2
:105bec007fb89700210098000080fa0000000600a2
:105bfc000200fa00f0bf9f000080fa0000000600cf
:105c0c001a00fa00b0bf9f00c1bf9f00d2bf9f0017
:105c1c00e3bf9f00f08057003fb89700fd090700d5
:105c2c00f0b79f007fb097000000e0000300320047
:105c3c007fb09700f0bf9f00180137000fb8970096
:105c4c000000e00013013200ce0e070080568000e9
:105c5c00ee8057006fb997005e080700f0b79f0001
:105c6c007fb097000000e00004003200cd0e07006a
:105c7c00ffb09700f1bf9f000801370020ff2a00fa
:105c8c0001f00700e001200005070700e0b79f00c6
:105c9c006fb097000000e00008003a001fb89700b2
:105cac00a9090700bf0e0700b0012b00f6ef070093
:105cbc0020002000f0bf9f00f8003700efb09700e5
:105ccc0010002000a00898000fb89700600090000a
:105cdc00800078006fb09700010878001fb897001b
:105cec00ec805700cb090700f0b79f007fb09700fe
:105cfc000000e0000a0032001fb89700920907006c
:105d0c006fb0970079070700a60e0700a0032b00c1
:105d1c00ddef0700ffb09700f1bf9f00df003700f9
:105d2c002fb89700efb0970061009800afb89700bc
:105d3c002fb89700200090000000a000a000980051
:105d4c001fb897008009070000202000d406070028
:105d5c00c0b79f004fb097000000e00006003a006b
:105d6c00900e070070062b00c7ef070020002000e4
:105d7c00f0bf9f00c9003700a0082b00c2ef07003e
:105d8c000fb8970060009000cfb097008515070002
:105d9c000000e0004c003a00b00a2b00baef0700fc
:105dac004fb0970072150700800078004fb897002d
:105dbc00808f50003f003600cfb0970041c8930051
:105dcc000081fb0051c893000080fb004800dd00ff
:105ddc00020070000002780061c893000081fb0093
:105dec0071c893000080fb004800dd0002007000c9
:105dfc00800278000400be000001eb008001eb0083
:105e0c000fba970064029000040a9000050020006d
:105e1c00060020000700200010f807006fb2970062
:105e2c002002980031029800420298005302980018
:105e3c00cfb0970001d093000081fb0011d09300ec
:105e4c000080fb004800dd000200700000027800ba
:105e5c0021d093000081fb0031d093000080fb0027
:105e6c004800dd0002007000800278000400be00d3
:105e7c000001eb008001eb000fba97006402900068
:105e8c00040a9000050020000600200007002000f6
:105e9c00f2f707006fb29700600298007102980049
:105eac00020a9800130a98004fb097000f070700da
:105ebc001f0037004fb097000c070700810020002f
:105ecc00f1bf9f00750037004fb097000707070020
:105edc006fb297006000b8006011b8002002980003
:105eec003102980042029800530298000fb89700b4
:105efc0060009000400990006fb09700ec004000eb
:105f0c000fb89700600090001000780002000100ac
:105f1c00f0b79f007fb097000000e0000400320053
:105f2c00200e07007fb09700f0bf9f005b0037008a
:105f3c005fb897000000e00009003200dfb897005e
:105f4c00400c2b0072ef07000000e00004003a0048
:105f5c00140e07008000eb00f1bf9f004f003700cc
:105f6c000000eb00d0b79f0042003700dfb0970075
:105f7c00e0a920002d110700b0b79f003fb097009b
:105f8c000000e000380032005fb897000000e0002d
:105f9c00050032003fb09700dfb897005cef0700b8
:105fac000000e000030032005fb897000000e00042
:105fbc002d003a00800c2b0033ef07003fb0970008
:105fcc00e00090006fb09700010001000000e000bd
:105fdc001e003200e00d2b002bef07003fb09700a6
:105fec00f00090006fb0970001000100f0b79f0027
:105ffc007fb097000000e00004003200e90d0700bc
:10600c00ffb09700f1bf9f00240037000fb8970036
:10601c00600090008000780010002000e0089800dc
:10602c000fb8970060009000bfb0970071089800ff
:10603c00efb0970010002000a0089800d90d0700c1
:10604c000000eb00f0bf9f00140037005fb8970012
:10605c000000e000040032000000eb00d0bf9f0005
:10606c000000eb00d0b79f005fb097000000e80085
:10607c00d0b79f00dfb09700f0548000808f5000a5
:10608c00baff3900c70d0700e1302000f1bf9f00b7
:10609c000200370010102000f0bf9f007fb897005f
:1060ac000080fa00000006000a00fa00d0bf9f0032
:1060bc00e1bf9f00e88057005fb89700d508070044
:1060cc00b0bf9f003fb897000000e0000300320013
:1060dc003fb89700f0bf9f001f0037004fb89700e4
:1060ec000000e0001a003200a60d07004fb8970020
:1060fc0060009000600890000000e0001100320089
:10610c003fb897000000e0000a003a004fb8970033
:10611c0060009000800078000000eb00e008980020
:10612c004fb8970060009000800078000000eb00f2
:10613c00f00898009b0d07003fb89700f0bf9f0038
:10614c000500370010302000f0bf9f000200370020
:10615c0010102000f0bf9f007fb897000080fa005d
:10616c00000006000800fa00e0bf9f00e680570020
:10617c006fb89700a7080700c0bf9f004fb89700e3
:10618c000000e000030032004fb89700f0bf9f0002
:10619c00140037005fb897000000e0000f003200d9
:1061ac00780d07005fb897006000900060089000c1
:1061bc000000e0000300320010002000c0bf9f0070
:1061cc00020037000000eb00c0bf9f00750d0700f8
:1061dc004fb89700f0bf9f00020037000000eb00a3
:1061ec00f0bf9f007fb897000080fa000000060007
:1061fc000400fa00e0bf9f00f1bf9f000000eb001d
:10620c000080fa00000006000800fa00c0bf9f00e2
:10621c00d1bf9f00e2bf9f00f3bf9f000000eb00c7
:10622c000080fa00000006000c00fa00c0bf9f00be
:10623c00d1bf9f00e2bf9f00300f2b0092ee0700f2
:10624c00ea8057004fb8970072080700a0bf9f0064
:10625c002fb897000000e000030032002fb8970021
:10626c00f0bf9f00130037003fb897000000e0001c
:10627c000e003200430d07003fb8970060009000fd
:10628c00130020006fb99700dfb897006022b800a8
:10629c006033b800c8010700a0bf9f00410d070084
:1062ac002fb89700f0bf9f0002003700101020009d
:1062bc00f0bf9f007fb897000080fa000000060036
:1062cc000a00fa00d0bf9f00e1bf9f00e880570092
:1062dc005fb897004f080700b0bf9f003fb897000a
:1062ec000000e000030032003fb89700f0bf9f00b1
:1062fc002c0037004fb897000000e0002700320058
:10630c00200d07004fb897006000900040009000ef
:10631c000000e0001d0032004fb8970060009000b4
:10632c00400990004fb89700600090001000780072
:10633c00efb8970002000100b0bf9f006fb8970044
:10634c003002be002003be004fb8970060009000e2
:10635c009010900020119000b0119000001090004f
:10636c000000520081805a0002015b0083815b00b7
:10637c006fba9700009abe000292be00090d07008a
:10638c000000eb00f0bf9f0006003700050d070072
:10639c0000312000f0bf9f000200370010102000d9
:1063ac00f0bf9f007fb897000080fa000000060045
:1063bc000c00fa00c0bf9f00d1bf9f00e2bf9f003e
:1063cc00ea8057004fb8970012080700a0bf9f0043
:1063dc002fb897000000e000030032002fb89700a0
:1063ec00f0bf9f00130037003fb897000000e0009b
:1063fc000e003200e30c07003fb8970060009000dd
:10640c00130020006fb99700dfb897006022b80026
:10641c006033b800d7010700a0bf9f00e10c070054
:10642c002fb89700f0bf9f0002003700101020001b
:10643c00f0bf9f007fb897000080fa0000000600b4
:10644c001e00fa00889fbe008a9fbe00c0b79f0046
:10645c00d4b79f00e5b79f00f6b79f0087bf9f009a
:10646c0091bf9f00a0fd2f000f004000e4004000f2
:10647c004fb09700e7070700e0af9f006fa89700a9
:10648c000000e00003003200efa99700a3bf9f00bb
:10649c00900037007fa897000000e0008b003200ce
:1064ac00b80c07007fa8970060009000d0af9f0049
:1064bc005fa89700400090000000e00004003a0044
:1064cc00b80c070000312000a0bf9f0081003700ee
:1064dc009fb99700b3bf9f003fb89700e10f5000e2
:1064ec0011003200bfb99700e18f51000400390050
:1064fc003fb89700e20f50001e0032006f003700cb
:10650c005fb09700efb097007fb197008fb99700fd
:10651c005faa97000012980011129800221298009e
:10652c0033129800650037005fa8970000129000a6
:10653c009012900020139000b01390005fb0970061
:10654c00efb097007fb197008fb99700040040001f
:10655c008580480006014900878149005faa9700a1
:10656c000012980011129800221298003312980011
:10657c00520037005fa89700400990005fa8970071
:10658c0010007800a3fd2f008f814100e6804100b0
:10659c0002000100e0af9f006fa897000000e00030
:1065ac00040032007f0c07006fa89700a0bf9f006b
:1065bc00480037005fb29700efb297007fb39700a7
:1065cc008fbb97000fb097009fb097002fb197002b
:1065dc00bfb197000020e10001a8e10002b0e1008a
:1065ec0003b8e1001b0039005fa89700001490006d
:1065fc009014900020159000b01590000fb29700e9
:10660c009fb297002fb39700bfb397005fb097006e
:10661c00efb097007fb197008fb997000000520040
:10662c0081805a0002015b0083815b0008004000fe
:10663c00898048000a0149008b8149005faa9700b4
:10664c000012980011129800221298003312980030
:10665c001a0037005fa89700001490009014900067
:10666c0020159000b01590005fb29700efb2970024
:10667c007fb397008fbb97000fb097009fb0970028
:10668c002fb19700bfb197000000520081805a00d3
:10669c0002015b0083815b000000540081805c0080
:1066ac0002015d0083815d005faa970000129800d3
:1066bc00111298002212980033129800390c07001e
:1066cc008001eb00a3bf9f000200370010102000d8
:1066dc00a0bf9f002fb897004f05be004f04be000f
:1066ec000080fa00000006000800fa00e0bf9f00de
:1066fc00e68057006fb8970046070700c0bf9f00a1
:10670c004fb897000000e000030032004fb897002c
:10671c00f0bf9f00120037005fb897000000e00048
:10672c000d003200170c07005fb897006000900056
:10673c00d00890005fb897006000900010007800bf
:10674c0001000100c0bf9f00160c07004fb8970056
:10675c00f0bf9f000200370010102000f0bf9f0018
:10676c007fb897000080fa00000006000800fa00cd
:10677c00c0bf9f00d1bf9f004fb89700f0bf9f00d4
:10678c007fb89700e90f50000b0032007fb89700dc
:10679c00ea0f50000c0032007fb897000000e000b8
:1067ac00010032000c003700dfb89700e0112b001d
:1067bc00800878000b003700dfb8970040112b00e1
:1067cc008008780007003700dfb89700a0102b0076
:1067dc00800878000300370020102000e0bf9f00e5
:1067ec00020037000000eb00e0bf9f006fb897007d
:1067fc000080fa00000006001a00fa00f0b79f00b3
:10680c00708057000108780012009800230098004f
:10681c0034009800450098005600980067009800d6
:10682c00000320001e040700c0b79f004fb0970064
:10683c000000e00003003a0020002000f0bf9f00a1
:10684c00330037004fb09700e400400070805700d1
:10685c0006000900b0187800e100b100e000b100ba
:10686c004fb0970072014000fa80570070805000c2
:10687c0080007800020078001101be000288be0082
:10688c0064004000e48040001101be000288be009c
:10689c0064004000e480400011087800b90b070048
:1068ac00cfb09700a0a92000300f0700bd0b070048
:1068bc0050568000f48057007fb1970045050700c3
:1068cc00b0b79f006fb09700f6805700d106070055
:1068dc005fb09700cfb19700630098006fb097003e
:1068ec0099060700325580004fb0970002087800d7
:1068fc004fb09700900078002fa8970001087800ff
:10690c000200e800305588000000eb00f0bf9f004b
:10691c007fb897000080fa00000006000a00fa0019
:10692c00d0bf9f00e1bf9f00960b07000000eb005b
:10693c00c0bf9f0016003700cfb89700a0a9200059
:10694c00ba0e0700b0bf9f003fb897000000e000f0
:10695c000c0032003fb89700900078005fb89700a9
:10696c00808f500007003a006fb89700bfb89700af
:10697c00010878008b0b07000000eb00f0bf9f00b4
:10698c000a0037004fb897000000e800c0bf9f0016
:10699c00cfb89700d0548000808f5000e6ff3900ac
:1069ac00800b070031002000f1bf9f007fb89700db
:1069bc000080fa00000006001e00fa00a0b79f003d
:1069cc00b4b79f00c5b79f00d6b79f00e7b79f002d
:1069dc00f1b79f0082bf9f0093bf9f002fb097001d
:1069ec000000e00003003a0070002000f0bf9f00a0
:1069fc005d00370020122b00a3ec07002fb097008e
:106a0c00200090000000e000430032002fb09700ff
:106a1c00100890000000e0003c0032002fb09700fe
:106a2c0010089000e0bf9f001fb897000000e00026
:106a3c000a0032002fb097000012900090129000c4
:106a4c0020139000b0139000a4bf9f00b5bf9f000f
:106a5c00c6bf9f00d7bf9f00080037003fb097000c
:106a6c00cfb097005fb19700efb19700a0bf9f0028
:106a7c00b1bf9f00c2bf9f00d3bf9f002fb0970034
:106a8c00100078000fb99700ffb097002fba97004d
:106a9c00bfba97004fbb9700dfbb9700efb99700c9
:106aac000300010090b79f001fb297000400e000a4
:106abc002b003a001fb897000000e00028003200bd
:106acc002fb09700001290009012900020139000ad
:106adc00b01390000fb897000100200002002000b6
:106aec000300200004004000858048000601490096
:106afc00878149002fb2970000129800111298005c
:106b0c002212980033129800150037005000200014
:106b1c0090b79f00120037002fb097003000900004
:106b2c000000e000030032005030200090b79f00be
:106b3c000b0037002fb09700500090000000e000d1
:106b4c00030032007030200090b79f000400370023
:106b5c0010142b004cec07008030200090b79f00e5
:106b6c009fb29700f5bf9f007fb897000080fa0096
:106b7c00000006001e00fa00a0b79f00b4b79f00eb
:106b8c00c5b79f00d6b79f00e7b79f00f1b79f002e
:106b9c0082bf9f0093bf9f002fb097000000e000c2
:106bac0003003a0070002000f0bf9f00590037002e
:106bbc002fb09700300090000000e000430032003e
:106bcc002fb09700100890000000e0003c0032004d
:106bdc002fb0970020089000e0bf9f001fb89700cf
:106bec000000e0000a0032002fb097000012900065
:106bfc009012900020139000b0139000a4bf9f003f
:106c0c00b5bf9f00c6bf9f00d7bf9f0008003700cd
:106c1c003fb09700cfb097005fb19700efb19700ee
:106c2c00a0bf9f00b1bf9f00c2bf9f00d3bf9f00fa
:106c3c002fb09700100078000fb99700ffb09700a5
:106c4c002fba9700bfba97004fbb9700dfbb9700d6
:106c5c00efb997000300010090b79f001fb2970097
:106c6c000400e00029003a001fb897000000e00083
:106c7c00260032002fb09700001290009012900066
:106c8c0020139000b01390000fb897000100200063
:106c9c000200200003002000040040008580480012
:106cac0006014900878149002fb297000012980015
:106cbc00111298002212980033129800130037001a
:106ccc005000200090b79f00100037002fb09700a5
:106cdc00200090000000e000030032004030200053
:106cec0090b79f00090037002fb09700500090001c
:106cfc000000e000030032007030200090b79f00cd
:106d0c00020037008030200090b79f009fb29700a0
:106d1c00f5bf9f007fb897000080fa0000000600c6
:106d2c001000fa0080bf9f0094bf9f00a5bf9f007a
:106d3c00b6bf9f00c7bf9f00d1bf9f00e2bf9f009f
:106d4c000fb897000000e000040032000fb8970065
:106d5c00100078000000e00003003a0070002000f2
:106d6c00f0bf9f00140037000fb89700200290006e
:106d7c00b002900040039000d00390001fb8970021
:106d8c00afb897003fb99700cfb997000402400005
:106d9c008582480006034900878349000fb8970095
:106dac00100078008001eb006fb99700dfb89700f6
:106dbc0070ff0700f0bf9f007fb897000080fa00bb
:106dcc00000006001000fa0080bf9f0094bf9f00d7
:106ddc00a5bf9f00b6bf9f00c7bf9f00d1bf9f003c
:106dec00e2bf9f0000172b00a7eb07000fb897001e
:106dfc00b000900040019000d00190002000900065
:106e0c00801f7800d0182b00801f7800b8eb07008b
:106e1c00e48757000fb897000000e0000400320030
:106e2c000fb89700100078000000e00003003a0053
:106e3c0070002000f0bf9f00140037000fb89700bf
:106e4c0020029000b002900040039000d00390000c
:106e5c001fb89700afb897003fb99700cfb997000c
:106e6c0004024000858248000603490087834900dc
:106e7c000fb89700100078008001eb006fb99700f5
:106e8c00dfb89700ccfe0700f0bf9f007fb89700db
:106e9c000080fa00000006001000fa006e83570014
:106eac00000b78001103980022039800330398001c
:106ebc004403980055039800200220007802070034
:106ecc0080bf9f000fb897000000e00003003a005d
:106edc0022002000f2bf9f001b0037000fb9970063
:106eec006e80570080007800020078001101be000f
:106efc000288be0064004000e48040001101be0026
:106f0c000288be0064004000e48040001101be0015
:106f1c000288be000fb89700ec004000f0815700cb
:106f2c007c8051000a000900b01878006101b100a2
:106f3c006001b1008fb89700e0a920008b0d07000d
:106f4c000000eb00f0bf9f007fb897000080fa00b4
:106f5c00000006000400fa006000b800e0bf9f00cb
:106f6c00f1bf9f002f060700505688005056800036
:106f7c00e0bf9f00c03b2300f0bf9f006fb897009d
:106f8c00ffb897007b030700d61207001215070005
:106f9c000080fa00000006001800fa0080bf9f0075
:106fac0094bf9f00a5bf9f00b6bf9f00c7bf9f00a7
:106fbc00d1bf9f00e2bf9f00b15680000fb8970071
:106fcc00810f500031003a000000eb00f0b79f0039
:106fdc005fb89700e0b79f0026003700215780006c
:106fec007fb09700810f500004003d007fb09700e8
:106ffc000000e800f0b79f0003003700603020006d
:10700c00f0bf9f005800370006f507000004e000b1
:10701c00f2ff32000000eb00f0b79f0020c2bf006f
:10702c0066406000e64f500008003a0030118000c6
:10703c00800078006fb09700010878006fb097005f
:10704c000080e800e0b79f00070037003011800097
:10705c00804078005fb89700014878005fb89700cf
:10706c000000e800d0bf9f006fb897000000e90057
:10707c00e0bf9f006fb897000000e000e2ff3a000d
:10708c000000eb00f0bf9f0037003700c1568000b6
:10709c000fb89700810f500031003a000000eb0050
:1070ac00d0b79f005fb89700c0b79f00260037008d
:1070bc00215780005fb09700810f500004003d0005
:1070cc005fb097000000e800d0b79f0003003700c6
:1070dc0060302000f0bf9f0023003700d4f407007d
:1070ec000004e000f2ff32000000eb00d0b79f007c
:1070fc0030c2bf0066406000e64f500008003a0006
:10710c00b0118000800078004fb097000108780023
:10711c004fb097000080e800c0b79f000700370011
:10712c00b0118000804078005fb89700014878006b
:10713c005fb897000000e800d0bf9f006fb89700c1
:10714c000000e900e0bf9f006fb897000000e0006e
:10715c00e2ff3a000000eb00f0bf9f000200370096
:10716c0050002000f0bf9f007fb897000080fa000d
:10717c00000006001400fa0080bf9f0094bf9f001f
:10718c00a5bf9f00b6bf9f00c7bf9f00d1bf9f0088
:10719c00e2bf9f00b15680000fb89700810f5000de
:1071ac002c003a005fb89700f0b79f0020c2bf00d8
:1071bc0066406000e64f500020003a000d0037009a
:1071cc0023c2bf00624060000004e000fcff3a00f4
:1071dc007fb0970010007800201188007fb09700d6
:1071ec000080e800f0b79f006fb897000000e9003e
:1071fc00e0bf9f006fb897000000e000f0ff3a007e
:10720c001100370023c2bf00624060000004e000a0
:10721c00fcff3a005fb89700104078000080fb003c
:10722c00201188005fb897000000e800d0bf9f00d5
:10723c006fb897000000e900e0bf9f006fb897009f
:10724c000000e000efff3a000000eb00f0bf9f00f1
:10725c0032003700c15680000fb89700810f5000e4
:10726c002c003a005fb89700e0b79f0030c2bf0017
:10727c0066406000e64f500020003a000d003700d9
:10728c0033c2bf00624060000004e000fcff3a0023
:10729c006fb0970010007800a01188006fb09700b5
:1072ac000080e800e0b79f006fb897000000e9008d
:1072bc00e0bf9f006fb897000000e000f0ff3a00bd
