:020000040000fa
:0418000000000000e4
:020000040000fa
:08180400060c040000000000c6
:020000040000fa
:10180c006f15240000ff2700000188000000000075
:10181c000a00070011000700000020000000e00093
:10182c000200320000000200000000008c1d0200cb
:10183c00000000000040da000000fe004440a90057
:10184c0020b320000000e000030032001000200054
:10185c00a00188004440a80000000600e0602900b8
:10186c00010020001500370062004000e0804800b5
:10187c00910188009001ba0062004000e0804800ad
:10188c00910188009002ba0062004000e08048009c
:10189c000002eb006028e10004003a000059eb0064
:1018ac008301e900fdff3e00040037006128e100e0
:1018bc00010032000082eb00050007009101880056
:1018cc001001ba000200e000e7ff3a00000005003a
:1018dc00910188008002780062004000e08048009e
:1018ec003559ba008301e900080032002559ba00c5
:1018fc008301e900050032000400e000f4ff32002f
:10190c0015d9ba008301e900f1ff3a000000060086
:10191c007422040000000000c42204000000000037
:10192c007220040000000000b4200400000000003d
:10193c00f42004000000000044210400000000001a
:10194c00b821040000000000f82104000000000091
:10195c003222040000000000642204000000000099
:10196c00fa250400000000008a2704000000000093
:10197c0038260400000000002228040000000000ab
:10198c00d02304000000000010240400000000001c
:10199c005224040000000000b424040000000000e5
:1019ac002225040000000000922304000000000027
:1019bc00c023040000000000a62604000000000064
:1019cc00f22604000000000048270400000000007c
:1019dc00d62704000000000082260400000000004e
:1019ec009626040000000000402a040000000000bd
:1019fc00ec29040000000000be28040000000000d8
:101a0c0014290400000000008029040000000000dc
:101a1c009228040000000000ae2804000000000022
:101a2c00ee30040000000000262e04000000000030
:101a3c007a2e040000000000fa2e040000000000c2
:101a4c00482f040000000000a63004000000000035
:101a5c00b82a040000000000642d040000000000ff
:101a6c00be2d0400000000000a2e0400000000003f
:101a7c00162e0400000000009c2a04000000000048
:101a8c00b02a04000000000026350400000000000d
:101a9c001836040000000000f236040000000000bc
:101aac00da49040000000000fa43040000000000c2
:101abc00cc42040000000000cc1f04000000000019
:101acc00de44040000000000224504000000000079
:101adc005c45040000000000a2450400000000006a
:101aec00ca450400000000003e460400000000004f
:101afc007246040000000000bc4604000000000018
:101b0c0016470400000000004244040000000000de
:101b1c00d244040000000000504f040000000000fc
:101b2c00964f040000000000084f04000000000065
:101b3c00924c040000000000464d04000000000020
:101b4c006e4e040000000000b24e040000000000c5
:101b5c006c4c040000000000824c040000000000eb
:101b6c00525c0400000000006c59040000000000ee
:101b7c00185a040000000000525a04000000000033
:101b8c00fe5a0400000000001a5c04000000000073
:101b9c003e61040000000000c65d0400000000006f
:101bac00865e040000000000fa5e040000000000e5
:101bbc00b05f040000000000de60040000000000c4
:101bcc00985c040000000000986104000000000014
:101bdc00206304000000000070640400000000009a
:101bec008064040000000000a064040000000000f9
:101bfc00f271040000000000a67504000000000053
:101c0c005a77040000000000487d0400000000002a
:101c1c00987d040000000000547e040000000000c9
:101c2c00747e0400000000007e7e040000000000b2
:101c3c00887e040000000000a48004000000000066
:101c4c006a81040000000000540e04000000000033
:101c5c00f60e0400000000006e18040000000000e6
:101c6c000000040000000000217d2300a2000700fa
:101c7c000000e00006003500217d2300a0002000bc
:101c8c00e30007008000eb000000e00001003d00d5
:101c9c008080eb000100780000000600889fbe00e9
:101cac008004780001007800020478008901780033
:101cbc0011002000fc000700880f500001003200ca
:101ccc008004eb00090078004f04be000000060001
:101cdc000000fa004fb99700e8815700217d2300de
:101cec0040e52000450107000080fa0000000600d6
:101cfc00040037000204e0000a0032000000e80093
:101d0c008100e80010417800914f5100f9ff32003a
:101d1c000081eb0010407800914f50000400390016
:101d2c00020037000001eb00010037001200200018
:101d3c0002007800000006008001eb000200370072
:101d4c00817178008301e800828f5100fcff3a001a
:101d5c000000060080007800010037000000e80059
:101d6c001004e000fdff3a000100500000000600e6
:101d7c00800178000001780031407800005978002b
:101d8c000004e000fcff3a000300780000000600ad
:101d9c00889fbe0081047800114478000804e0009c
:101dac0009003a000c003700800178000901780026
:101dbc00d24078000104e00007003200d3cf1000bd
:101dcc00fbff32000000e8008800fb00c4010700a4
:101ddc000000e000f4ff3a004f04be0000000600d3
:101dec00881f7800020478001400070008004000e7
:101dfc004f047800000006000000fa00881f7800ed
:101e0c00000478003fb99700ea8157008000780001
:101e1c0060ef2000f9000700800078000000e0006f
:101e2c00020035000040eb0000f47800010078005f
:101e3c004f0478000080fa00000006008001eb00df
:101e4c000200370061f079008301e800828f5100b5
:101e5c00fcff3a000000060002027800809fbe00e2
:101e6c00110009008200d800000178004f00be006c
:101e7c0002a2b9008480500011009800020878007a
:101e8c000000060007003700834f52000b003200a1
:101e9c000201e800924178000304e000faff3a00e6
:101eac000000e800104278000404e0000200320058
:101ebc0001017800f7ff37000000eb00000006007e
:101ecc008001eb0008003700e342780063c2780021
:101edc008301e80084cf5200030032000080eb0045
:101eec000400390010000500828f5100f6ff3a0003
:101efc000000eb0000000600889fbe008a9fbe0019
:101f0c0000057800810478002d003700c90090008e
:101f1c0069009000808f500004003900090078009f
:101f2c00780107000000e00035003500004020007b
:101f3c001900600009003200a10020000a0078009e
:101f4c00b3010700800578000000e00004003200b7
:101f5c000a0050000004e8000400370080057800f7
:101f6c000a0078007bff070000047800c90190008c
:101f7c006900900003005000880f500002003100ef
:101f8c00000478008005eb00080178008a007800d6
:101f9c0003007800a9ff07000805450049009000e0
:101fac0000004400c00498000b00e0000400320064
:101fbc0009007800a10107000000e00010003a00c1
:101fcc001a04e000d1ff3a000080200019006000e4
:101fdc000400320009007800980107000000e000be
:101fec0007003a0000c02000190060000500320014
:101ffc0049009000e00498000000eb00010037005d
:10200c000080eb004f05be004f04be000000060030
:10201c00889fbe008a1f7800800478000104780035
:10202c0000457800c100900068009000808f50003f
:10203c000400390008007800320107000000e000bd
:10204c0015003500480090000958780040049800ad
:10205c001800780000b8a30004003a0000a8a30000
:10206c0006003200ea4f550004003a0008007800e0
:10207c00720107000000e00007003a0000c02000d9
:10208c0018006000020032004800900060049800c4
:10209c000a80fb00010037000080eb004f05780040
:1020ac004f04be0000000600889fbe008a9fbe0041
:1020bc008c9fbe008e1f7800810678008304780008
:1020cc00000678000288b900000778000000e000e4
:1020dc0002003a0000017800420037000d00e000d9
:1020ec004000320000057800c900900069009000a3
:1020fc00808f5000040039000900780001010700ae
:10210c000000e000290035000040200019006000ac
:10211c0003003a000a047800800578000b003700b1
:10212c000a017800a10020000c0078008001070053
:10213c00800578000000e00002003a000a047800f4
:10214c00020037000c0050000004e800c9019000a8
:10215c006900900003005000880f5000020031000d
:10216c00000478008005eb00080178008c007800f2
:10217c000300780031ff07000806460008055500eb
:10218c004900900000004400c00498000b00e000df
:10219c000400320009007800280107000000e0006c
:1021ac0002003a000a00e000cfff3a000080200055
:1021bc001900600002003200090078001f010700be
:1021cc0000c020001900600002003200490090009d
:1021dc00e00498000a005700110009000d80d80097
:1021ec0000017800020078004f0778004f06be000f
:1021fc004f05be004f04be00000006006200fa004e
:10220c00889fbe008a9fbe000004be0002057800b5
:10221c008300780060f92f000f0040004e0107008a
:10222c0088979f0099979f000000eb00a09f9f004c
:10223c009a4578000b80fb000000ea00cf04de001a
:10224c0050c2b30080cf5500020032000904780060
:10225c00010037000904e9000800e0000b0034001d
:10226c001f909700080178008a0078008f919700e2
:10227c000300010090979f000000e00093003200e3
:10228c002f98970000004400a09f9f00090545006f
:10229c0050c2b30080cf5500040032000b04e000a4
:1022ac00e3ff3a002f989700890037000000eb00fd
:1022bc00809f9f00f0979f00e0979f00d0979f0012
:1022cc00c0979f00b0979f00c09f9f0009003700e8
:1022dc00c0932300008050000000400001932300b5
:1022ec00e10078004f98970001007000c09f9f009c
:1022fc000a05e8001a4478008800fb00c09323000c
:10230c0077000700800078000000e000f0ff3a0042
:10231c00a0c2b300804f54000e003a00bf88970053
:10232c000180e900b08f9f0010007800b09f9f00e3
:10233c000000e00005003d000000ea00b09f9f0097
:10234c004f9897000020a000c09f9f000a05e8004e
:10235c0010003700b19f9f0009003700bf9897000d
:10236c00f0ff2700808f5000040032006a08b9008b
:10237c000000410003004000b09f9f000a05e800e8
:10238c001a01fb0003fd2f0003004100e90f500070
:10239c00f2ff3600e0c2b3009a4f10000400320086
:1023ac000080eb00909f9f008a0478001c0037008f
:1023bc008a04e800a0c2b300994f100007003a004d
:1023cc00bf8897000180e900b08f9f001000780053
:1023dc00909f9f008a84e800110037000000eb00fa
:1023ec00909f9f00090037009f989700f0ff2700ef
:1023fc00808f5000040032006a08b90000004100d0
:10240c0003004000909f9f008904e8001901fb0025
:10241c0003fd2f0003004100e90f5000f2ff3600ce
:10242c00194478008800fb00609623002c000700fc
:10243c000000e00002003a00004478000100370080
:10244c008904e800a87f9f0080c6b300804f540029
:10245c0004003a00994f14000a003a0066405000fc
:10246c0006003700c0c6b300804f540005003a0088
:10247c00994f140003003a0065404000a07f9f0074
:10248c008904e8000905e800cbfb2f008f85450087
:10249c001901fb0060f92f000f0040000084e800d8
:1024ac008b0178008000780008007800af000700ee
:1024bc000000e00005003a008b007800080078006e
:1024cc00ed0107000000e00059ff3d000080eb002b
:1024dc004f05be004f04be000080fa00000006004d
:1024ec00040037000204e00001003a00000005007f
:1024fc000000e80010417800814f5100f9ff3a00cc
:10250c0000000600889fbe0000047800c001900007
:10251c00600090008000eb00808f51003900390082
:10252c00180178002000290000006100e20f500023
:10253c0007003200002020000200e00001003500fe
:10254c0000202400000c71008080eb002d0037006f
:10255c000100260001006100810f500008003a00c4
:10256c0038009000808f5100050039000800780079
:10257c00320007008080eb000000e00021003a00f0
:10258c0000c020001800600017003a00a80490005a
:10259c006002200008004000808f540012003a00b6
:1025ac00002020006c1207008000780020049800a6
:1025bc000000e00005003a00290498004904980046
:1025cc000900e80030049800060037001860a000ed
:1025dc00400498000020b00030049800410c980092
:1025ec00510c98006e0207002800900050049800cf
:1025fc00380090006004980000002600180c700051
:10260c008000eb00010078004f04be0000000600c3
:10261c008001eb0010417800814f510001003a001d
:10262c00800178000204e000020032000000e800a3
:10263c00f8ff37000300780000000600889fbe00fa
:10264c00000478000000e0000e003a0080047800de
:10265c00a8792300180078000000e0000400320084
:10266c00f6ff07000000e00001003d008084eb0055
:10267c000884e800a07a2300800f5400290032005f
:10268c00f4ff370000002200180060002400320024
:10269c00a804900008003700090150003840900051
:1026ac000000fb00890078005a0307000000e000de
:1026bc00130034008084440048009000808f540044
:1026cc00f5ff3900280090004004980018017800ac
:1026dc0000c020000000610002003200a800900041
:1026ec0001003700b80090000000240000006100d9
:1026fc000a003200610498008004eb0009003700e6
:10270c00280090004004980060049800500c980039
:10271c001890a0008084eb0002003700510c980048
:10272c0080047800090078004f04be000000060009
:10273c008001eb00040037008301e80090cf10000b
:10274c00040032000000e800828f5100faff3a00ca
:10275c000000eb00000006000200fa00f1bf9f0031
:10276c00010878000080fa0000000600889fbe0077
:10277c008a1f7800000478000102780082447800f7
:10278c0003057800e0c6b300804f5100d200320040
:10279c0015003c006b405000804f5100240032006b
:1027ac000a003c0070405000804f51000f01320075
:1027bc0065404000804f51007400320050c2b3009d
:1027cc00804f510020013a001c01370040c6b30075
:1027dc00804f51001b00320065404000804f51007b
:1027ec0019013a001700370030c7b300804f510071
:1027fc00fe00320007003c0064405000804f510046
:10280c00620032000040e800804f51000e013a0097
:10281c00e700370050c7b300804f51005b00320017
:10282c0063404000804f510007013a0057003700c9
:10283c009180e900010a780078009000917178008d
:10284c0007013700a8609000c0c6b30080cf5000cd
:10285c000a003a009400780064805000000a780066
:10286c001000be004f89de00cf91de000002be00da
:10287c0002037800820378001300370010c7b300fe
:10288c0080cf500003003200a0c6b30080cf5000b0
:10289c0006003a009400780068805000000a780026
:1028ac003002be002003be00070037001480e90090
:1028bc00000a78001000780000027800cfa2de0039
:1028cc000503780086037800049cbe000694be00c5
:1028dc00a860900080c6b30080cf50000e0032007c
:1028ec0020c6b30080cf500005003a000400fb0066
:1028fc00cf80de0001017800820178000a003700e9
:10290c0040c7b30080cf5000030032006640400047
:10291c0080cf500006003a0004007800cf80de0023
:10292c000101780082017800009cbe000294be0078
:10293c003800be002801be00e00f5000e08f5800a8
:10294c00e00f5900e08f590003003d007800900023
:10295c00d1c2b3000a003700081090000018a30081
:10296c000300320078009000b1c2b30004003700bd
:10297c000008a300530032007800900001c2b3009d
:10298c00017578000000e8004d003700a860900049
:10299c00c0c6b30080cf500006003a009400780007
:1029ac0064805000000a78001002be006033b8004a
:1029bc001300370010c7b30080cf50000300320063
:1029cc00a0c6b30080cf500006003a0094007800f7
:1029dc0068805000000a78003002be002003be0060
:1029ec00070037001480e900000a78001000780016
:1029fc0000027800050020000600200007002000df
:102a0c00049cbe000694be00a860900080c6b30073
:102a1c0080cf50000e00320020c6b30080cf500093
:102a2c0005003a000480fb00010020000200200099
:102a3c00030020000a00370040c7b30080cf5000cd
:102a4c00030032006640400080cf500006003a0080
:102a5c000400780001002000020020000300200088
:102a6c00009cbe000294be00081090000038a30029
:102a7c00140032003800be002801be00e00f5000e8
:102a8c00e08f5800e00f5900e08f59000d00320024
:102a9c0080c7b30080cf54000300320080c5b30060
:102aac0080cf540007003a007800900001c3b300b7
:102abc00017578008000e80009f578000080e800d6
:102acc0070049800780090000000450060049800a5
:102adc008940780042003700a8609000c0c6b3005f
:102aec0080cf5000250032000a003c0064405000aa
:102afc0080cf50002800320000c0e80080cf50008a
:102b0c00140032006840500080cf500022003a0080
:102b1c000a00370040c7b30080cf50001e003200bf
:102b2c006640400080cf50001b00320069405000ce
:102b3c0080cf500018003a00060037001480e900de
:102b4c00000a780010007800485c90000848780073
:102b5c00450037001480e900000a78001002780064
:102b6c0068089000cf80de000101780082017800b7
:102b7c00009abe000292be003b0037001480e900b0
:102b8c00000a78001001780068089000cf80de0001
:102b9c000089be00340037001480e900000a780078
:102bac0010007800680c9000080878002e003700a0
:102bbc001180e9008008780010007800cf80de00da
:102bcc000101780082017800009cbe000294be00d6
:102bdc0078009000000045006004980081c7b300a5
:102bec0008007800460107001f0037001480e90038
:102bfc00000a7800100078006004980058099000d2
:102c0c000200e00002003d0052fc07000900370002
:102c1c008000eb00c6fe0700800078000000e0009a
:102c2c000300320068009000008050000100370063
:102c3c0058089000100c98000b003700780090009a
:102c4c00027578000600370078009000800045007f
:102c5c000904e00001003a0059c2b3008948780029
:102c6c000000e800700498000000eb004f057800ad
:102c7c004f04be00000006000400fa00889fbe004e
:102c8c008a9fbe008c1f7800000478000106780033
:102c9c0070089000f8009000010050008808900027
:102cac00010050009808900001005000a808900006
:102cbc0001005000b808900001005000c8089000b6
:102ccc00810550000002220090bf9f0000032300ea
:102cdc00a0bf9f00081090000028a30018003a0025
:102cec000b00e000160034008b0478000905780016
:102cfc00e28f5400020036002a0020000200370048
:102d0c000900e0000b00340058009000c80190004e
:102d1c000a017800ee80570003000100500498006f
:102d2c000000e000960032006808900000004500aa
:102d3c00600c98008a8454004240a900ebff3c00d0
:102d4c00780190000200e0000b0034005800900065
:102d5c00c80190008c00780003000100500498001a
:102d6c000000e0008600320068089000f800900037
:102d7c0001004000600c9800880c90000900e000f5
:102d8c001500340009057800e28f5400020036006b
:102d9c002a002000020037000900e0000b0034007c
:102dac0058009000c80190000a017800ec80570090
:102dbc0003000100500498000000e0007000320095
:102dcc006808900000004500600c98008a8454004c
:102ddc004240a900ebff3c00180990000200e00003
:102dec000b003400e800900058009000c8019000df
:102dfc0003000100500498000000e0006000320065
:102e0c00680890009808900001004000600c980041
:102e1c00a80c90000900e0001500340009057800aa
:102e2c00e28f5400020036002a0020000200370016
:102e3c000900e0000b00340058009000c80190001d
:102e4c000a017800ec805700030001005004980040
:102e5c000000e0004a0032006808900000004500c5
:102e6c00600c98008a8454004240a900ebff3c009f
:102e7c00380990000200e0000d003400e8009000da
:102e8c00180890008080400058009000c801900005
:102e9c0003000100500498000000e00038003200ec
:102eac0068089000b808900001004000600c980081
:102ebc00c80c90000900e0001500340009057800ea
:102ecc00e28f5400020036002a0020000200370076
:102edc000900e0000b00340058009000c80190007d
:102eec000a017800ec8057000300010050049800a0
:102efc000000e0002200320068089000000045004d
:102f0c00600c98008a8454004240a900ebff3c00fe
:102f1c00081090000028a3001b0032000b00e000fa
:102f2c00190034008b04780009057800e28f5400f6
:102f3c00020036002a002000020037000900e000e1
:102f4c000b00340058009000c80190000a01780072
:102f5c00ee80570003000100500498000000e000d0
:102f6c00070032006808900000004500600c9800d3
:102f7c008a8454004240a90003003400eaff370061
:102f8c000080eb00010037000000eb004f067800da
:102f9c004f05be004f04be000080fa000000060082
:102fac00881f7800489823001804e00004003a00b9
:102fbc00e08621000a01070020c0b300004c780015
:102fcc004f04780000000600889fbe0000047800c3
:102fdc009afd0700800478000004200018006000af
:102fec000200320028009000891007000000eb005e
:102ffc0020049800384090000004e00005003500e3
:10300c000000fb00370107000000e0000100320067
:10301c008084eb00181090000000e00008003200e3
:10302c00390107000000e000010032008084eb0051
:10303c0018109000761007000000eb001014980098
:10304c000008200018006000100032000000eb00a7
:10305c00a1792300910f1400070032000000e80052
:10306c008180e800e80f5000faff3a000800780071
:10307c00671007001300370000004000a1792300ff
:10308c00010040000008eb00f8ff3700000c78004e
:10309c0000c0eb00304498006002200008004000a3
:1030ac00200498004004980050049800400c9800ac
:1030bc0060049800500c980070049800760044004e
:1030cc00000c9800090078004f04be0000000600b8
:1030dc00881f7800887a2300180078000000e00030
:1030ec0001003200b8ff07000884e9008079230052
:1030fc00800f5400f8ff3a004f04780000000600df
:10310c00ef02b000889fbe008a9fbe008c9fbe005d
:10311c008e1f780000067800d08e2300c0b79f0069
:10312c0080c5b30080cf500008003200c28d230050
:10313c00c2b79f007740400080cf500003003a0098
:10314c0083002000b3b79f000a00370080c7b3008c
:10315c0080cf500005003200a4002000b4b79f00bf
:10316c0080c5b30080cf500002003a00000120005f
:10317c00b0b79f003c04be002c05be0040c6b30097
:10318c0080cf5000030032006540400080cf5000db
:10319c000b003a00e00f5400e08f5c00e00f5d0084
:1031ac00e08f5d0006003d006000b8006011b800c3
:1031bc0008045000898458000a0559008b85590071
:1031cc00e00f5400e08f5c00e00f5d00e08f5d00cd
:1031dc0004003a005c0890008d0120000000e00023
:1031ec000c003200bfb0970001027800cfa2de00c5
:1031fc0005037800860378000800be000a01be00b3
:10320c00ae0107004fb2970064407800d0df9f00fa
:10321c007d0120003fb0970000027800cfa2de00b5
:10322c0005037800860378000800be000a01be0082
:10323c009b010700009ebe000296be000d00e90037
:10324c0061fc2f008f804000008740001e0037007b
:10325c003fb1970002047800cfc4de000905780066
:10326c008a0578000802be000a03be007fa89700fa
:10327c008fb097001fb19700afb197009301070073
:10328c00d0b79f00e1b79f00f2b79f0083bf9f00ac
:10329c008d06e9000802be000a03be00a300070069
:1032ac007faa970000005200cfb0970061577800ba
:1032bc005fb09700efb097007fb197008fb9970080
:1032cc00009ebe000296be003c00be002c01be005b
:1032dc00f0af9f0081b79f0092b79f00a3b79f00ec
:1032ec00e00f5000e08f5800e00f5900e08f5900bc
:1032fc00020034000d00e000d5ff3c00bfb0970089
:10330c00e88f500010003a000c1090000038a30019
:10331c000d003200f78f560006003e0062fc2f00b5
:10332c000f0141008d00410000c3b300914f10000c
:10333c00050032008d06e90000c3b30063fc2f00ca
:10334c008f81410080f17e0078811600120e98006a
:10335c006c00900063fc2f008f8141008d80410038
:10336c00b6fa07001c0990005c089000800f510011
:10337c0006003d0002005000000e98000c1090005a
:10338c000040a100001698000f0037000000e0007c
:10339c000d003d000c10900074006000f00f500008
:1033ac0009003a007c089000fc00900001005000dd
:1033bc008c08900001005000020050004240a9000f
:1033cc0001003400000e98004f0778004f06be0035
:1033dc004f05be004f04be00ef02b1000000060016
:1033ec0000017800000020000000e000080032001e
:1033fc00000080000000e000050032000000e90041
:10340c0000008800000040000100800002b078003d
:10341c00000006000a00fa0080017800e20f50005c
:10342c0025003e0080428000e10f50000800320071
:10343c00802320000000e00005003200042320005f
:10344c00252320004623200080017800040037004b
:10345c000422200025222000462220008322200066
:10346c00144090000004e000030035008009eb00dc
:10347c0000002800140a7000154090000028a300da
:10348c0001003a0015a0a0008001eb0007003700f6
:10349c00154090000008a300fdff320063c07800c7
:1034ac000000fb00000b78008301e800828f5100c4
:1034bc00f7ff3a000800370030002000b0bf9f0033
:1034cc00c3bf9f00d1bf9f00e2bf9f006a8057001f
:1034dc0000c0da006fb99700020078000080fa0093
:1034ec00000006000a00fa0011002000b1bf9f0086
:1034fc00c0bf9f006a80570000c0da004fb8970029
:10350c000080fa00000006000a00fa0051002000ba
:10351c00b1bf9f00c0bf9f006a80570000c0da0097
:10352c005fb897000080fa0000000600889fbe007c
:10353c008a9fbe008c1f78000205be000004be00ee
:10354c000006eb00e00f5000e08f5800e00f590030
:10355c00e08f590007003d006000b8006011b80012
:10356c0008045000898458000a0559008b855900bd
:10357c001c002000e00f5200e08f5a00e00f5b00af
:10358c00e08f5b0002003d000f0007000c00a20062
:10359c000800be000a01be00250007000203be00a1
:1035ac000002be000c00e000010032000600070023
:1035bc000400be000601be004f0678004f05be0099
:1035cc004f04be00000006006000b8006011b80097
:1035dc000402500085825800060359008783590065
:1035ec00000006006022b800060220000000d00097
:1035fc008180d2000482d2008582d2000000a0001b
:10360c000202520083825a0003003100020242007f
:10361c0083824a000000a1000603e900f3ff3a0090
:10362c0000000600efff07000400be0000000600cb
:10363c00889fbe008a9fbe008c9fbe000404b80009
:10364c000506b8008904460060854e000606b800e1
:10365c000a054600e0854e000706b8008b054600bb
:10366c00040eb800890446000a854e00e0854d0022
:10367c00050eb8000a0546008b854e00060eb800f4
:10368c008b0546000416b8000a0546008b854e00d3
:10369c000516b8008b054600041eb8008b054600c5
:1036ac000800be000a01be004f06be004f05be005a
:1036bc004f04be0000000600881f7800000478004c
:1036cc005001be004000be00040040008580480050
:1036dc000601490087814900009cbe000294be008f
:1036ec000400e1000588e1000690e1000798e10084
:1036fc0002003100680044001008e8004f04780014
:10370c0000000600f4874700889fbe008a9fbe0019
:10371c008c9fbe008e1f78000205be000004be0008
:10372c00d4b79f00e5b79f00f6b79f0087bf9f00f7
:10373c000000eb00c0b79f00b0b79f00a0b79f0080
:10374c0090b79f0080b79f000d042000bfb097007a
:10375c004fb09700000140000000e0000f003d005a
:10376c004f08de0000007100c0b79f009e000700ec
:10377c0001003d0012002000a100070001003d00e7
:10378c0012002000a6000700b1000700b6000700d9
:10379c000f004000c8ff0700220037004f08de0072
:1037ac0000067100ccb79f008f00070001003d00a0
:1037bc00120020009200070001003d0012002000c2
:1037cc0097000700a20007000fb297009fb2970066
:1037dc002fb39700bfb39700a90007000000520059
:1037ec0081805a0002015b0083815b0080b79f00df
:1037fc0091b79f00a2b79f00b3b79f000007eb00e3
:10380c009f0007000020e10001a8e10002b0e100e8
:10381c0003b8e100010031001e0020000e0056002c
:10382c00c0b79f004fb297000400e00007003500be
:10383c0010002000010020006011b8000804700086
:10384c00898470000a0571008b8571008d06e90072
:10385c00beff3a000400e00003003d0082000700b8
:10386c000f00400094ff07004fa897000000e000f5
:10387c0004003a000fb497009fb497002fb597003f
:10388c00bfb59700940007004f0778004f06be00a5
:10389c004f05be004f04be004f01b10000000600f2
:1038ac00881f780018002000881f780095ff0700fb
:1038bc008f87e9004f04780000000600801feb00a2
:1038cc0090ff07008f87e90000000600889fbe006c
:1038dc008a9fbe008c1f78006e00070007003d0019
:1038ec0073000700e00f5b00e08f5b0007003d00fa
:1038fc00320007000006eb0004003700340007001c
:10390c0002003d002a0007001c0020007200070086
:10391c00e3ff07000203be000002be000c00e00043
:10392c0001003200220007000400be000601be00a8
:10393c004f0678004f05be004f04be000000060085
:10394c00889fbe008a9fbe008c1f78005100070024
:10395c0005003d0056000700e00f5b00e08f5b00a8
:10396c0006003d00040037001900070003003d006d
:10397c006000b8006011b800100007005600070086
:10398c00ceff07000203be000002be000c00e000e8
:10399c0001003200060007000400be000601be0054
:1039ac004f0678004f05be004f04be000000060015
:1039bc006000b8006011b80000003700040250002d
:1039cc0085825800060359008783590000000600c1
:1039dc000006eb00e00f5200e08f5a00e00f5b0096
:1039ec00e08f5b00000006000180400090b79f0054
:1039fc000001eb008fb097000100e0000000060012
:103a0c000200700090b79f000180400080b79f00bb
:103a1c000001eb00ffa897000100e0000000060089
:103a2c000200700080b79f00018040006faa9700d1
:103a3c00cf20de0001007000f0af9f0004024200b6
:103a4c00250007004f18de0000027200000006007f
:103a5c00e4af9f000804440089844c000a054d0023
:103a6c008b854d00000006003fb29700cfb2970047
:103a7c005fb39700efb3970000fe2f000000060025
:103a8c003fb09700cfb097005fb19700efb19700b0
:103a9c00000006000205be000004be00e00f50004e
:103aac00e08f5800e00f5900e08f5900000006002d
:103abc006000b8006011b8000804500089845800f8
:103acc000a0559008b8559001c002000e00f52009c
:103adc00e08f5a00000006000800be000a01be007c
:103aec0000000600421188000011880011118800a6
:103afc000000060022c2bf0061006000000006004a
:103b0c0032c2bf0061006000000006000000fa0035
:103b1c000080eb00601b8800601b8000601988002f
:103b2c0060198000501988008220a800aec0bf0028
:103b3c007040b300aee0b7008680a9009680a80064
:103b4c00f01f0200000000000080fa0000000600d8
:103b5c000000fa000e230200000000006c28020096
:103b6c0000000000862a020000000000fc34020065
:103b7c00000000000237020000000000d0640200c8
:103b8c000000000072710200000000000080fa00ca
:103b9c00000006000000fa000080fa000000060099
:103bac001000fa0000202000b237020000000000d4
:103bbc00000f78001e00e00004003a00e0f622003e
:103bcc003a0e0200000000007b003700e4004700c2
:103bdc00f0f822009e3c0200000000001007980044
:103bec001e0090000000e00073003a006c014700da
:103bfc002e009000a1002000ec3a02000000000012
:103c0c00100798001e0090000000e0006a003a00c7
:103c1c00e6004700b0f922009e3c020000000000c4
:103c2c00100798001e0090000000e0000800320011
:103c3c001e009000801f7800e0f92200801f7800a1
:103c4c006e0e020000000000e48757005a00370097
:103c5c0000fc22003a0e0200000000006a0147003e
:103c6c003e00900091002000ec3a020000000000a1
:103c7c00100798001e0090000000e00008003200c1
:103c8c001e009000801f7800e0fd2200801f78004d
:103c9c006e0e020000000000e4875700460037005b
:103cac00200023003a0e0200000000005e0090008d
:103cbc00100278003e00900023022300a202230091
:103ccc008000eb0004000100100798001e0090001b
:103cdc000000e000080032001e009000801f7800f9
:103cec00e0022300801f78006e0e0200000000002e
:103cfc00e487570030003700b00423003a0e02006e
:103d0c00000000003e0090009a3e020000000000ff
:103d1c00e8004700400623009e3c02000000000023
:103d2c00100798001e0090000000e0000800320010
:103d3c001e009000801f7800f0082300801f780080
:103d4c006e0e020000000000e48757001a003700d6
:103d5c006e0147004e009000a1002000ec3a0200da
:103d6c0000000000100798001e0090000000e0000a
:103d7c00080032001e009000801f7800100b2300fa
:103d8c00801f78006e0e020000000000e4875700d0
:103d9c0009003700500d23003a0e0200000000000d
:103dac004e0090009a3e0200000000002e00900091
:103dbc009a3e0200000000000080fa00000006009d
:103dcc001800fa0000202000b237020000000000aa
:103ddc0020079800ea004700f0f822009e3c020001
:103dec0000000000300798003e0090000000e0004a
:103dfc0064003a006e0147005e009000a1002000b4
:103e0c00ec3a020000000000300798003e009000e1
:103e1c000000e0005b003a00e8004700b0f9220027
:103e2c009e3c020000000000300798003e0090000d
:103e3c00801f7800000f2300801f78006e0e020098
:103e4c0000000000e48757006c0147004e00900012
:103e5c00a1002000ec3a020000000000300798009e
:103e6c00be009000811f7800e0102300801f7800b6
:103e7c006e0e020000000000e48757006e009000f8
:103e8c00100190004e009000f0004700020001006d
:103e9c00300798003e0090000000e000080032005f
:103eac003e009000801f7800e0122300801f7800f5
:103ebc006e0e020000000000e48757000b00370074
:103ecc000e0890009e0890002e099000be099000ec
:103edc00809fbe00829fbe0030152300801f78009b
:103eec006e0e020000000000ea8757006000b80068
:103efc00008fbe0018003700d01723003a0e0200c6
:103f0c00000000006e009000900178004e009000c0
:103f1c0002202000ae009000030001003007980042
:103f2c00be009000811f780020192300801f7800ac
:103f3c006e0e020000000000e4875700101b2300e7
:103f4c003a0e0200000000001000200001002000ca
:103f5c001e0f40005e97480040002000010020002a
:103f6c00be0f1000ae8f1800e3ff34005e0090000f
:103f7c009a3e0200000000004e0090009a3e0200a3
:103f8c00000000000080fa00000006000000fa00ab
:103f9c00b01d23003a0e02000000000000ff0700d5
:103fac00902223003a0e020000000000a042800084
:103fbc00801f7800f0272300801f78006e0e02000f
:103fcc0000000000e4875700ffff370001000700e6
:103fdc00000006000200fa000080eb00601b880065
:103fec00601b8000601988006019800050198800df
:103ffc008220a800aec0bf007040b300aee0b70096
:10400c008680a9009680a800420120000140200073
:10401c0000002800781d0200000000000048290064
:10402c003a0e020000000000f0cb81008000780006
:10403c000000e800f0cb8900811f7800204a29009d
:10404c00801f78006e0e020000000000e48757000d
:10405c00bffe0700d642020000000000f0bf9f0028
:10406c007fb89700801f7800504b2900801f780084
:10407c006e0e020000000000e4875700ffff3700bf
:10408c000e230200000000006c280200000000005b
:10409c00862a020000000000fc3402000000000030
:1040ac000237020000000000000006004c50020025
:1040bc0000000000000006000000200090018800b5
:1040cc0000c02000f1ff2f000108bb000188bb00dd
:1040dc000000fe00004006000c00fa00c0bf9f006c
:1040ec00d2bf9f00e3bf9f000000eb00a0bf9f006a
:1040fc00ea8057004fb897000e3f02000000000006
:10410c00a0bf9f002fb897000000e0000300320012
:10411c002fb99700f2bf9f000d0037003fb89700f2
:10412c000000e000080032003fb8970060009000eb
:10413c005fb99700efb997000288be008001eb00d1
:10414c00f3bf9f000200370010102000f0bf9f004b
:10415c007fb897000080fa00000006000a00fa0001
:10416c00d0bf9f000000eb00b0bf9f00e88057005d
:10417c005fb897000e3f020000000000b0bf9f0028
:10418c003fb897000000e000040032006011b80056
:10419c00e2bf9f00f3bf9f000c0037004fb89700a1
:1041ac000000e000060032004fb89700600090005d
:1041bc001001be00e2bf9f00f3bf9f000300370059
:1041cc006000b800e0bf9f00f1bf9f006fb8970080
:1041dc00ffb897000080fa00000006000800fa0003
:1041ec00e0bf9f000000eb00c0bf9f00e6805700bf
:1041fc006fb897000e3f020000000000c0bf9f0088
:10420c004fb897000000e000030032004fb8970051
:10421c00f0bf9f00160037005fb897000000e00069
:10422c00110032004e4a0200000000005fb89700f7
:10423c00e0009000e0962300925102000000000084
:10424c005fb89700600090008000780010c0b30049
:10425c00804898005e4a0200000000000000eb005d
:10426c00f0bf9f000200370010102000f0bf9f002d
:10427c007fb897000080fa00000006000a00fa00e0
:10428c00e0bf9f000000eb00c0bf9f00e68057001e
:10429c006fb897000e3f020000000000c0bf9f00e7
:1042ac004fb897000000e000030032004fb89700b1
:1042bc00f0bf9f00280037005fb897000000e000b7
:1042cc00230032004e4a0200000000000000eb0008
:1042dc00b0bf9f0010003700bfb89700e0962300d6
:1042ec00f250020000000000800078005fb89700d8
:1042fc0060009000808f500004003a00bfb8970017
:10430c00e09623001c520200000000003fb897000a
:10431c000000e800b0bf9f00bfb8970070cb8100d1
:10432c00808f5000ecff39005fb897006000900060
:10433c00800078000040eb00804898005e4a020044
:10434c00000000000000eb00f0bf9f0002003700ef
:10435c0010102000f0bf9f007fb897000080fa007b
:10436c00000006000800fa00e0bf9f000000eb0010
:10437c00c0bf9f00e68057006fb897000e3f020049
:10438c0000000000c0bf9f004fb897000000e00085
:10439c00030032004fb89700f0bf9f000e003700ab
:1043ac005fb897000000e000090032005fb897008a
:1043bc0060009000000178006000b80020019800b7
:1043cc00310198000000eb00f0bf9f0002003700a5
:1043dc0010102000f0bf9f007fb897000080fa00fb
:1043ec00000006000800fa00e0bf9f000000eb0090
:1043fc00c0bf9f00e68057006fb897000e3f0200c9
:10440c0000000000c0bf9f004fb897000000e00004
:10441c00030032004fb89700f0bf9f000b0037002d
:10442c005fb897000000e000060032005fb897000c
:10443c0060009000004890000080fb00f0bf9f00df
:10444c00020037000000eb00f0bf9f007fb8970020
:10445c000080fa00000006000400fa00f0bf9f0084
:10446c00e0002000b237020000000000e0bf9f0017
:10447c006fb897000000e0000e0032007fb8970084
:10448c00efb89700610098006fb9970000242400e2
:10449c00f10020000089be006fb997006000b800e1
:1044ac002001980031019800efb897000040eb0014
:1044bc00804898000080fa00000006000200fa0014
:1044cc00f0bf9f007fb89700600090000e3902008b
:1044dc00000000000080fa00000006000800fa004e
:1044ec00e0bf9f000000eb00c0bf9f00e6805700bc
:1044fc006fb897000e3f020000000000c0bf9f0085
:10450c004fb897000000e000030032004fb897004e
:10451c00f0bf9f00160037005fb897000000e00066
:10452c00110032005fb897006000900000489000c6
:10453c000004e00003003a0010202000f0bf9f00b0
:10454c000b003700b1cb81005fb897006000900082
:10455c006a00400092510200000000000000eb00d5
:10456c00f0bf9f000200370010102000f0bf9f002a
:10457c007fb897000080fa00000006000a00fa00dd
:10458c00c0bf9f00d1bf9f004fb89700f0bf9f00e6
:10459c00ffb89700e28f50000f0032007fb89700f1
:1045ac00e40f500008003200ffb897000100e00053
:1045bc00010032000e003700dfb89700405f290081
:1045cc00800878000d003700dfb89700805e290066
:1045dc00800878000900370040272200b0bf9f00f8
:1045ec005fb89700ea805700010878000300370095
:1045fc0020102000e0bf9f00020037008000eb007d
:10460c00e1bf9f006fb897000080fa000000060021
:10461c000400fa006000b800e0bf9f00f1bf9f00eb
:10462c0010002000e0bf9f00402c2200f0bf9f0034
:10463c006fb89700ffb89700183b0200000000000d
:10464c000080fa00000006000400fa000000eb00f5
:10465c00f0bf9f002a003700ffb89700e0962300b8
:10466c00f250020000000000e0bf9f006fb89700fe
:10467c00b00090002000900061004000e0804800f5
:10468c006fb9970020019800310198006fb897001e
:10469c0020019000b00190006fb897001000be0090
:1046ac00800f5100818f590012003900ffb897001c
:1046bc007fb897000000e900f0bf9f00e096230050
:1046cc001c52020000000000efb897000040eb0005
:1046dc00804898006fb997006000b80020019800de
:1046ec00310198008000eb006fb897008e480200f3
:1046fc00000000007fb897000000e800f0bf9f00aa
:10470c00ffb8970070cb8100808f5000d2ff39002a
:10471c000080fa00000006000200fa00f0bf9f00c3
:10472c004e4a020000000000a0002000b237020038
:10473c0000000000800078007fb8970061009800ae
:10474c007fb89700600090000000e0000500320088
:10475c007fb8970060009000800078001000200067
:10476c00800878005e4a0200000000000080fa0019
:10477c00000006000200fa00f0bf9f007fb897000f
:10478c00600090000e390200000000000080fa006a
:10479c00000006000800fa00e0bf9f00e68057000a
:1047ac006fb897000e3f020000000000c0bf9f00d2
:1047bc004fb897000000e000030032004fb897009c
:1047cc00f0bf9f00100037005fb897000000e000ba
:1047dc000b0032004e4a0200000000005fb8970048
:1047ec006000900010007800c0bf9f005e4a02007d
:1047fc00000000004fb89700f0bf9f000200370088
:10480c0010102000f0bf9f007fb897000080fa00c6
:10481c00000006000a00fa00d0bf9f00e1bf9f0015
:10482c00e88057005fb897000e3f020000000000c0
:10483c00b0bf9f003fb897000000e00003003200bb
:10484c00bfb89700f1bf9f00100037004fb897001a
:10485c000000e0000b0032004e4a02000000000095
:10486c004fb8970060009000efb8970001087800ef
:10487c005e4a0200000000000000eb00f0bf9f0049
:10488c000200370011102000f1bf9f007fb8970085
:10489c000080fa00000006000800fa00e0bf9f004c
:1048ac00e68057006fb897000e3f02000000000032
:1048bc00c0bf9f004fb897000000e000030032001b
:1048cc004fb89700f0bf9f00210037005fb89700ea
:1048dc000000e0001c0032004e4a02000000000004
:1048ec005fb8970060009000900090005fb8970050
:1048fc006000900010007800808f5000070031009d
:10490c00b1cb81005fb89700600090000080e80098
:10491c00925102000000000006003700b1cb81006c
:10492c005fb8970060009000660040009251020052
:10493c00000000005e4a0200000000000000eb00d6
:10494c00f0bf9f000200370010102000f0bf9f0046
:10495c007fb897000080fa00000006000a00fa00f9
:10496c00e0bf9f00e68057006fb897000e3f020033
:10497c0000000000c0bf9f004fb897000000e0008f
:10498c00030032004fb89700f0bf9f00270037009c
:10499c005fb897000000e000220032004e4a02008f
:1049ac00000000000000eb00b0bf9f0012003700b9
:1049bc00bfb897005fb89700600090000080e800d7
:1049cc00f25002000000000080007800b0cb8100a3
:1049dc00808f500005003a005e4a02000000000083
:1049ec0010002000f0bf9f00100037003fb8970068
:1049fc000000e800b0bf9f00bfb897005fb89700f9
:104a0c006000900010009000808f5000e8ff39008b
:104a1c005e4a0200000000000000eb00f0bf9f00a7
:104a2c00020037000000eb00f0bf9f007fb897003a
:104a3c000080fa00000006000e00fa00e0bf9f00a4
:104a4c00e68057006fb897000e3f02000000000090
:104a5c00c0bf9f004fb897000000e0000300320079
:104a6c004fb89700f0bf9f005c0037005fb897000d
:104a7c000000e000570032000000eb00a0bf9f00d8
:104a8c004e4a0200000000000000eb00b0bf9f0087
:104a9c0016003700bfb897005fb897006000900011
:104aac000080e800f2500200000000008000780056
:104abc00b0cb8100808f500009003a00bfb897003e
:104acc005fb89700600090000080e8001c52020064
:104adc000000000010002000a0bf9f00090037005c
:104aec003fb897000000e800b0bf9f00bfb8970028
:104afc005fb897006000900010009000808f50000d
:104b0c00e4ff39002fb897000000e00005003a00e0
:104b1c005e4a0200000000000000eb00f0bf9f00a6
:104b2c002e0037005fb89700600090009000900056
:104b3c005fb897006000900010007800808f5000e4
:104b4c001d0031005fb897006000900030009000ad
:104b5c000000e000180032005fb897006000900081
:104b6c00660040008000eb00f250020000000000e4
:104b7c0090bf9f005fb89700600090000080e80035
:104b8c009fb8970092510200000000005fb8970098
:104b9c00600090009fb897008e4802000000000053
:104bac005fb8970060009000660040008000eb004a
:104bbc001c52020000000000d44a02000000000059
:104bcc005e4a0200000000000000eb00f0bf9f00f6
:104bdc000200370010102000f0bf9f007fb8970034
:104bec000080fa00000006000800fa00e0bf9f00f9
:104bfc006fb8970059ff07000000e0000300320077
:104c0c0010202000f0bf9f0013003700e6805700f3
:104c1c006fb897000e3f020000000000c0bf9f005d
:104c2c004fb897000000e000030032004fb8970027
:104c3c00f0bf9f00080037005fb897000000e0004d
:104c4c00030032000000eb00f0bf9f0002003700b1
:104c5c0010102000f0bf9f007fb897000080fa0072
:104c6c00000006000a00fa00c0bf9f00d1bf9f00e1
:104c7c004fb89700f0bf9f00ffb89700e28f50002d
:104c8c000f0032007fb89700e50f5000080032008b
:104c9c00ffb897000100e000010032000e00370061
:104cac00dfb89700605c2900800878000d003700a1
:104cbc00dfb89700c05b2900800878000900370036
:104ccc00a05f2200b0bf9f005fb89700ea8057003a
:104cdc00010878000300370020102000e0bf9f007f
:104cec00020037008000eb00e1bf9f006fb8970017
:104cfc000080fa00000006000200fa00f0bf9f00de
:104d0c0010002000b2370200000000008000780084
:104d1c007fb89700610098000080fa000000060040
:104d2c000200fa00f0bf9f007fb89700600090006f
:104d3c000e390200000000000080fa00000006009e
:104d4c000800fa00e0bf9f00e68057006fb897009c
:104d5c000e3f020000000000c0bf9f004fb897003c
:104d6c000000e000030032004fb89700f0bf9f0036
:104d7c00160037005fb897000000e0001100320009
:104d8c004e4a0200000000005fb8970060009000df
:104d9c008000780010c0b300804878005fb897009e
:104dac00600090008000eb008e48020000000000c4
:104dbc005e4a0200000000000000eb00f0bf9f0004
:104dcc000200370010102000f0bf9f007fb8970042
:104ddc000080fa00000006000800fa00e0bf9f0007
:104dec00e68057006fb897000e3f020000000000ed
:104dfc00c0bf9f004fb897000000e00003003200d6
:104e0c004fb89700f0bf9f001b0037005fb89700aa
:104e1c000000e000160032004e4a020000000000c4
:104e2c005fb8970060009000104078000004e0002c
:104e3c000a003a005fb8970060009000800078008c
:104e4c000040eb00804878005fb89700600090004d
:104e5c008000eb008e480200000000005e4a020059
:104e6c00000000000000eb00f0bf9f0002003700c4
:104e7c0010102000f0bf9f007fb897000080fa0050
:104e8c00000006000800fa00e0bf9f00e680570013
:104e9c006fb897000e3f020000000000c0bf9f00db
:104eac004fb897000000e000030032004fb89700a5
:104ebc00f0bf9f00110037005fb897000000e000c2
:104ecc000c0032004e4a0200000000005fb8970050
:104edc0060009000800078000040eb008048780073
:104eec005e4a0200000000000000eb00f0bf9f00d3
:104efc000200370010102000f0bf9f007fb8970011
:104f0c000080fa00000006000800fa00e0bf9f00d5
:104f1c00e68057006fb897000e3f020000000000bb
:104f2c00c0bf9f004fb897000000e00003003200a4
:104f3c004fb89700f0bf9f00160037005fb897007e
:104f4c000000e000110032004e4a02000000000098
:104f5c005fb8970060009000104078000004e000fb
:104f6c00050032005e4a0200000000001020200004
:104f7c00f0bf9f00070037005e4a020000000000ef
:104f8c000000eb00f0bf9f00020037001010200063
:104f9c00f0bf9f007fb897000080fa000000060069
:104fac000800fa00e0bf9f00e68057006fb897003a
:104fbc000e3f020000000000c0bf9f004fb89700da
:104fcc000000e000030032004fb89700f0bf9f00d4
:104fdc00160037005fb897000000e00011003200a7
:104fec004e4a0200000000005fb89700600090007d
:104ffc00104078000004e000050032005e4a020018
:10500c000000000010002000f0bf9f0007003700d8
:10501c005e4a0200000000000000eb00f0bf9f00a1
:10502c000200370010102000f0bf9f007fb89700df
:10503c000080fa00000006000a00fa00c0bf9f00c2
:10504c00d1bf9f004fb89700f0bf9f00ffb89700eb
:10505c00e28f50000f0032007fb89700e60f50002f
:10506c0008003200ffb897000100e0000100320098
:10507c000e003700dfb89700205d2900800878000b
:10508c000d003700dfb89700a05c2900800878007d
:10509c0009003700a0782200b0bf9f005fb89700ce
:1050ac00ea80570001087800030037002010200028
:1050bc00e0bf9f00020037008000eb00e1bf9f00c3
:1050cc006fb897000080fa00000006000800fa0094
:1050dc0020002000c0bf9f0030002000e0bf9f00d8
:1050ec0080632200d0bf9f0020822200f0bf9f006f
:1050fc004fb89700dfb89700183b02000000000083
:10510c006fb89700ffb89700183b02000000000032
:10511c000080fa00000006000400fa00f0bf9f00b7
:10512c0040002000b237020000000000e0bf9f00ea
:10513c006fb897000000e000030032007fb89700c2
:10514c00efb89700610098000080fa00000006009c
:10515c000200fa00f0bf9f007fb89700600090003b
:10516c000e390200000000000080fa00000006006a
:10517c000a00fa00d0bf9f00e1bf9f00e8805700f3
:10518c005fb897000e3f020000000000b0bf9f0008
:10519c003fb897000000e000030032003fb89700d2
:1051ac00f0bf9f001a0037004fb897000000e000d6
:1051bc00150032004fb89700600090000000e0002e
:1051cc00110032004e4a0200000000004fb8970058
:1051dc0060009000efb897009251020000000000b0
:1051ec004fb89700600090008000eb008e480200e2
:1051fc00000000005e4a0200000000000000eb000e
:10520c00f0bf9f000200370010102000f0bf9f007d
:10521c007fb897000080fa00000006000a00fa0030
:10522c00d0bf9f00e1bf9f00e88057005fb8970098
:10523c000e3f020000000000b0bf9f003fb8970077
:10524c000000e000030032003fb89700f0bf9f0061
:10525c00250037004fb897000000e0002000320016
:10526c004fb89700600090000000e0001c00320076
:10527c004e4a0200000000004fb8970060009000fa
:10528c00100078000000e00008003a00efb897002a
:10529c000000eb00800878005e4a0200000000006d
:1052ac0060002000f0bf9f000f0037004fb8970040
:1052bc00600090008000eb00f25002000000000043
:1052cc00800078006fb89700010878005e4a0200f1
:1052dc00000000000000eb00f0bf9f000200370050
:1052ec0010102000f0bf9f007fb897000080fa00dc
:1052fc00000006000a00fa00d0bf9f00e1bf9f002b
:10530c00e88057005fb897000e3f020000000000d5
:10531c00b0bf9f003fb897000000e00003003200d0
:10532c003fb89700f0bf9f00250037004fb897009b
:10533c000000e000200032004fb8970060009000a1
:10534c000000e0001c0032004e4a02000000000089
:10535c004fb8970060009000100078000000e0004b
:10536c0008003a00efb897000000eb0080087800c6
:10537c005e4a02000000000060002000f0bf9f00a9
:10538c000f0037004fb89700600090008000eb00d2
:10539c001c52020000000000800078006fb89700db
:1053ac00010878005e4a0200000000000000eb00db
:1053bc00f0bf9f000200370010102000f0bf9f00cc
:1053cc007fb897000080fa00000006000800fa0081
:1053dc00e0bf9f00e68057006fb897000e3f0200b9
:1053ec0000000000c0bf9f004fb897000000e00015
:1053fc00030032004fb89700f0bf9f001a0037002f
:10540c005fb897000000e000150032005fb897000d
:10541c00600090000000e000110032004e4a0200d3
:10542c00000000005fb8970060009000100078004a
:10543c000000e000050032005e4a0200000000009f
:10544c0010202000f0bf9f00070037005e4a0200ca
:10545c00000000000000eb00f0bf9f0002003700ce
:10546c0010102000f0bf9f007fb897000080fa005a
:10547c00000006000800fa00c0bf9f00d1bf9f00cb
:10548c004fb89700f0bf9f007fb89700e20f500015
:10549c000f0032007fb89700e70f50000800320071
:1054ac007fb897000000e000010032000c003700cc
:1054bc00dfb8970000602900800878000b003700e7
:1054cc00dfb89700a05f290080087800070037003c
:1054dc00dfb89700805f2900800878000300370050
:1054ec0020102000e0bf9f00020037000000eb00fe
:1054fc00e0bf9f006fb897000080fa000000060024
:10550c000400fa0040002000e0bf9f0000a422002d
:10551c00f0bf9f006fb89700ffb89700183b0200d0
:10552c00000000000080fa00000006000200fa00f3
:10553c00f0bf9f007fb8970020009000800078009b
:10554c000100a0007fb89700210098000080fa00ad
:10555c00000006000200fa00f0bf9f000080fa0075
:10556c00000006001e00fa00b0bf9f00c1bf9f00e4
:10557c00d2bf9f00e3bf9f00f08057003fb8970059
:10558c000e3f020000000000f0b79f007fb09700b4
:10559c000000e000030032007fb09700f0bf9f00d6
:1055ac00430137000fb897000000e0003e013200c5
:1055bc000fb89700600090000000e0003a01320044
:1055cc000fb8970060009000b0b79f004e4a0200e1
:1055dc000000000020cb8100ee8057006fb99700cf
:1055ec004c3b020000000000f0b79f007fb097001a
:1055fc000000e000050032005e4a020000000000de
:10560c00ffb09700f1bf9f0029013700c01c290093
:10561c003a0e02000000000060022000b2370200c7
:10562c0000000000e0b79f006fb097000000e000a2
:10563c000b003a001fb897009a3e020000000000d1
:10564c005e4a020000000000501f29003a0e0200c2
:10565c000000000020002000f0bf9f001401370064
:10566c00efb0970010002000a00898006fb09700d2
:10567c00bfb09700010878001fb89700ec80570066
:10568c000e3f020000000000f0b79f007fb09700b3
:10569c000000e0000e0032001fb897009a3e020096
:1056ac00000000006fb097000e39020000000000ef
:1056bc005e4a020000000000402129003a0e020060
:1056cc00000000007fb09700f0bf9f00f80037008b
:1056dc002fb89700efb0970061009800afb8970013
:1056ec002fb89700200090000000a000a0009800a8
:1056fc001fb897009a3e0200000000000020200016
:10570c00b237020000000000c0b79f004fb09700f6
:10571c000000e00008003a005e4a020000000000b1
:10572c00102429003a0e0200000000002000200086
:10573c00f0bf9f00de003700cfb097003fb097005e
:10574c00be580200000000000000e00059003a00c2
:10575c004fb89700804078004fb09700d0570200a8
:10576c0000000000a0b79f00402629003a0e02005e
:10577c00000000004fb09700a45802000000000089
:10578c00800078004fb89700808f5000430036009f
:10579c002fb097000000e00040003200afb097003f
:1057ac00614090000081fb00714090000080fb0084
:1057bc004800dd00020070000002780001489000f3
:1057cc000081fb00114890000080fb004800dd00c8
:1057dc0002007000800278000400be000001eb00a3
:1057ec008001eb003fb29700040a900005002000f6
:1057fc0006002000070020009c1a02000000000098
:10580c006fb2970020029800310298004202980073
:10581c0053029800afb09700214890000081fb0024
:10582c00314890000080fb004800dd000200700051
:10583c0000027800414890000081fb005148900024
:10584c000080fb004800dd00020070008002780040
:10585c000400be000001eb008001eb003fb297009a
:10586c00040a90000500200006002000070020001c
:10587c009c1a0200000000006fb2970060029800b2
:10588c0071029800020a9800130a98004fb0970012
:10589c000e39020000000000200037004fb09700c6
:1058ac000e3902000000000081002000f1bf9f00b3
:1058bc007f0037004fb097000e3902000000000047
:1058cc006fb297006000b8006011b8002002980019
:1058dc003102980042029800530298003fb09700a2
:1058ec00400990006fb09700ec0040003fb097006b
:1058fc001000780002000100f0b79f007fb0970005
:10590c000000e000050032005e4a020000000000ca
:10591c007fb09700f0bf9f00650037005fb897001d
:10592c000000e0000b003200dfb89700d027290000
:10593c007e0e0200000000000000e00005003a00ae
:10594c005e4a0200000000008000eb00f1bf9f00e7
:10595c00570037000000eb00d0b79f00490037001c
:10596c00dfb0970060942300f250020000000000aa
:10597c0090b79f001fb097000000e0003e0032007f
:10598c005fb897000000e000060032001fb09700df
:10599c00dfb897007e0e0200000000000000e0005f
:1059ac00030032005fb897000000e00032003a00bc
:1059bc00102829003a0e0200000000001fb09700ca
:1059cc00e00090006fb09700010001000000e000c3
:1059dc00220032001fb09700801f78007029290028
:1059ec00801f78006e0e020000000000e487570054
:1059fc001fb09700f00090006fb0970001000100fd
:105a0c00f0b79f007fb097000000e0000500320067
:105a1c005e4a020000000000ffb09700f1bf9f003b
:105a2c0023003700bfb0970010002000e00898005a
:105a3c006fb097009fb0970011009800efb09700df
:105a4c0010002000a00898005e4a02000000000030
:105a5c000000eb00f0bf9f00150037005fb8970007
:105a6c000000e000040032000000eb00d0bf9f00fb
:105a7c000000eb00d0b79f005fb097000000e8007b
:105a8c00d0b79f00dfb0970030ca8100808f5000e4
:105a9c00b3ff39005e4a020000000000e130200034
:105aac00f1bf9f000200370010102000f0bf9f00d4
:105abc007fb897000080fa00000006000a00fa0088
:105acc00d0bf9f00e1bf9f00e88057005fb89700f0
:105adc000e3f020000000000b0bf9f003fb89700cf
:105aec000000e000030032003fb89700f0bf9f00b9
:105afc001c0037004fb897000000e0001700320080
:105b0c004e4a0200000000004fb897006000900061
:105b1c00600890000000e0000d0032003fb89700d4
:105b2c000000e00005003a004fb8970060009000bc
:105b3c00800078000000eb00e00898005e4a02004c
:105b4c00000000003fb89700f0bf9f000500370031
:105b5c0010302000f0bf9f00020037001010200012
:105b6c00f0bf9f007fb897000080fa00000006008d
:105b7c000800fa00e0bf9f00e68057006fb897005e
:105b8c000e3f020000000000c0bf9f004fb89700fe
:105b9c000000e000030032004fb89700f0bf9f00f8
:105bac00160037005fb897000000e00011003200cb
:105bbc004e4a0200000000005fb8970060009000a1
:105bcc00600890000000e00003003200100020008c
:105bdc00c0bf9f00020037000000eb00c0bf9f0059
:105bec005e4a0200000000004fb89700f0bf9f0013
:105bfc00020037000000eb00f0bf9f007fb8970059
:105c0c000080fa00000006000400fa00e0bf9f00cc
:105c1c00f1bf9f000000eb000080fa0000000600be
:105c2c000800fa00c0bf9f00d1bf9f00e2bf9f00d9
:105c3c00f3bf9f000000eb000080fa00000006009c
:105c4c000c00fa00c0bf9f00d1bf9f00e2bf9f00b5
:105c5c00f02a29003a0e020000000000ea805700ea
:105c6c004fb897000e3f020000000000a0bf9f003d
:105c7c002fb897000000e000030032002fb8970007
:105c8c00f0bf9f00150037003fb897000000e00000
:105c9c00100032004e4a0200000000003fb897008e
:105cac0060009000130020006fb99700dfb89700d8
:105cbc006022b8006033b800e3010700a0bf9f006a
:105ccc005e4a0200000000002fb89700f0bf9f0052
:105cdc000200370010102000f0bf9f007fb8970023
:105cec000080fa00000006000a00fa00d0bf9f00f6
:105cfc00e1bf9f00e88057005fb897000e3f02009d
:105d0c0000000000b0bf9f003fb897000000e0000b
:105d1c00030032003fb89700f0bf9f002f00370000
:105d2c004fb897000000e0002a0032004e4a0200f3
:105d3c00000000004fb897006000900040009000f9
:105d4c000000e0001e0032004fb897006000900089
:105d5c00400990004fb89700600090001000780048
:105d6c00efb8970002000100b0bf9f006fb897001a
:105d7c003002be002003be004fb8970060009000b8
:105d8c008010900010119000a011900070089000ed
:105d9c000000520081805a0002015b0083815b008d
:105dac006fba9700009abe000292be005e4a0200d3
:105dbc00000000000000eb00f0bf9f000700370060
:105dcc005e4a02000000000000312000f0bf9f007e
:105ddc000200370010102000f0bf9f007fb8970022
:105dec000080fa00000006000c00fa00c0bf9f0003
:105dfc00d1bf9f00e2bf9f00ea8057004fb89700c9
:105e0c000e3f020000000000a0bf9f002fb89700bb
:105e1c000000e000030032002fb89700f0bf9f0095
:105e2c00150037003fb897000000e000100032006a
:105e3c004e4a0200000000003fb89700600090003e
:105e4c00130020006fb99700dfb897006022b800ec
:105e5c006033b800ea010700a0bf9f005e4a020051
:105e6c00000000002fb89700f0bf9f000200370021
:105e7c0010102000f0bf9f007fb897000080fa0040
:105e8c00000006001e00fa00889fbe008a9fbe001c
:105e9c00c0b79f00d4b79f00e5b79f00f6b79f002f
:105eac0087bf9f0091bf9f00a0fd2f000f004000f7
:105ebc00e40040004fb097000e3f020000000000cd
:105ecc00e0af9f006fa897000000e00003003200d5
:105edc00efa99700a3bf9f00940037007fa89700fd
:105eec000000e0008f0032004e4a0200000000006b
:105efc007fa8970060009000d0af9f005fa897002c
:105f0c00400090000000e00005003a005e4a0200ec
:105f1c000000000000312000a0bf9f00830037006c
:105f2c009fb99700b3bf9f003fb89700e10f500097
:105f3c0011003200bfb99700e18f51000400390005
:105f4c003fb89700e20f50001e003200700037007f
:105f5c005fb09700efb097007fb197008fb99700b3
:105f6c005faa9700700a980001129800121298000c
:105f7c0023129800660037005fa89700700a900003
:105f8c008012900010139000a01390005fb0970047
:105f9c00efb097007fb197008fb9970004004000d5
:105fac008580480006014900878149005faa970057
:105fbc00700a98000112980012129800231298008f
:105fcc00530037005fa89700400990005fa8970026
:105fdc0010007800a3fd2f008f814100e680410066
:105fec0002000100e0af9f006fa897000000e000e6
:105ffc00050032005e4a0200000000006fa8970006
:10600c00a0bf9f00490037005fb29700efb2970026
:10601c007fb397008fbb97000fb097009fb097008e
:10602c002fb19700bfb197000020e10001a8e1005b
:10603c0002b0e10003b8e1001b0039005fa8970033
:10604c00700c90008014900010159000a01590001a
:10605c000fb297009fb297002fb39700bfb3970072
:10606c005fb09700efb097007fb197008fb99700a2
:10607c000000520081805a0002015b0083815b00aa
:10608c0008004000898048000a0149008b814900c2
:10609c005faa9700700a98000112980012129800db
:1060ac00231298001a0037005fa89700700c90001c
:1060bc008014900010159000a01590005fb297000e
:1060cc00efb297007fb397008fbb97000fb097008c
:1060dc009fb097002fb19700bfb1970000005200fe
:1060ec0081805a0002015b0083815b000000540038
:1060fc0081805c0002015d0083815d005faa9700d6
:10610c00700a98000112980012129800231298003d
:10611c005e4a0200000000008001eb00a3bf9f005c
:10612c000200370010102000a0bf9f002fb897006e
:10613c004f05be004f04be000080fa0000000600b0
:10614c000800fa00e0bf9f00e68057006fb8970088
:10615c000e3f020000000000c0bf9f004fb8970028
:10616c000000e000030032004fb89700f0bf9f0022
:10617c00140037005fb897000000e0000f003200f9
:10618c004e4a0200000000005fb8970060009000cb
:10619c00d00890005fb89700600090001000780065
:1061ac0001000100c0bf9f005e4a02000000000019
:1061bc004fb89700f0bf9f0002003700101020006e
:1061cc00f0bf9f007fb897000080fa000000060027
:1061dc000800fa00c0bf9f00d1bf9f004fb89700c6
:1061ec00f0bf9f007fb89700e90f50000b00320002
:1061fc007fb89700ea0f50000c0032007fb8970070
:10620c000000e000010032000c003700dfb89700fe
:10621c00a02d2900800878000b003700dfb897000c
:10622c00002d29008008780007003700dfb89700a0
:10623c00602c290080087800030037002010200013
:10624c00e0bf9f00020037000000eb00e0bf9f00a2
:10625c006fb897000080fa00000006001a00fa00e0
:10626c00f0b79f007080570001087800120098006a
:10627c0023009800340098004500980056009800c0
:10628c006700980060022000b23702000000000096
:10629c00c0b79f004fb097000000e00003003a0029
:1062ac0020002000f0bf9f00390037004fb097004e
:1062bc00e40040007080570006000900b018780018
:1062cc00e100b100e000b1004fb097007201400056
:1062dc00fa8057007080500080007800020078002f
:1062ec001101be000288be0064004000e480400042
:1062fc001101be000288be0064004000e480400032
:10630c00110878004e4a020000000000cfb0970040
:10631c002094230092510200000000005e4a02000b
:10632c0000000000f0ca8100f48057007fb1970094
:10633c004c3b020000000000b0b79f006fb097000c
:10634c00f68057000e3f0200000000005fb097007f
:10635c00cfb19700630098006fb097009a3e02008f
:10636c000000000072ca81004fb09700020878004c
:10637c004fb09700900078002fa897000108780084
:10638c000200e80070ca89000000eb00f0bf9f001b
:10639c007fb897000080fa00000006000a00fa009f
:1063ac00d0bf9f00e1bf9f004e4a020000000000da
:1063bc000000eb00c0bf9f0018003700cfb897005b
:1063cc0020942300f250020000000000b0bf9f0098
:1063dc003fb897000000e0000d0032003fb8970076
:1063ec00900078005fb89700808f500008003a004a
:1063fc006fb89700bfb89700010878005e4a02009a
:10640c00000000000000eb00f0bf9f000b00370005
:10641c004fb897000000e800c0bf9f00cfb89700ae
:10642c0010ca8100808f5000e4ff39005e4a0200e0
:10643c000000000031002000f1bf9f007fb89700e2
:10644c000080fa00000006001e00fa00a0b79f00b2
:10645c00b4b79f00c5b79f00d6b79f00e7b79f00a2
:10646c00f1b79f0082bf9f0093bf9f002fb0970092
:10647c000000e00003003a0070002000f0bf9f0015
:10648c005c0037002fb09700200090000000e00067
:10649c00430032002fb09700100890000000e0007d
:1064ac003c0032002fb0970010089000e0bf9f0016
:1064bc001fb897000000e0000a0032002fb09700d0
:1064cc00700a90008012900010139000a01390009e
:1064dc00a4bf9f00b5bf9f00c6bf9f00d7bf9f0042
:1064ec00080037003fb09700cfb097005fb197001e
:1064fc00efb19700a0bf9f00b1bf9f00c2bf9f002c
:10650c00d3bf9f002fb09700100078000fb99700f1
:10651c00ffb097002fba9700bfba97004fbb9700f8
:10652c00dfbb9700efb997000300010090b79f0005
:10653c001fb297000400e0002c003a001fb897002f
:10654c000000e000290032002fb09700700a900084
:10655c008012900010139000a01390000fb89700b9
:10656c000100200002002000030020000400400075
:10657c008580480006014900878149002fb29700a9
:10658c00700a9800011298001212980023129800b9
:10659c00160037005000200090b79f001300370002
:1065ac002fb09700300090000000e0000300320094
:1065bc005030200090b79f000c0037002fb0970090
:1065cc00500090000000e00003003200703020000a
:1065dc0090b79f0005003700e02d29003a0e02000d
:1065ec00000000008030200090b79f009fb2970001
:1065fc00f5bf9f007fb897000080fa0000000600ee
:10660c001e00fa00a0b79f00b4b79f00c5b79f004b
:10661c00d6b79f00e7b79f00f1b79f0082bf9f00de
:10662c0093bf9f002fb097000000e00003003a00da
:10663c0070002000f0bf9f00590037002fb097006a
:10664c00300090000000e000430032002fb09700b3
:10665c00100890000000e0003c0032002fb09700c2
:10666c0020089000e0bf9f001fb897000000e000da
:10667c000a0032002fb09700700a90008012900030
:10668c0010139000a0139000a4bf9f00b5bf9f00f3
:10669c00c6bf9f00d7bf9f00080037003fb09700d0
:1066ac00cfb097005fb19700efb19700a0bf9f00ec
:1066bc00b1bf9f00c2bf9f00d3bf9f002fb09700f8
:1066cc00100078000fb99700ffb097002fba970011
:1066dc00bfba97004fbb9700dfbb9700efb997008d
:1066ec000300010090b79f001fb297000400e00068
:1066fc0029003a001fb897000000e0002600320085
:10670c002fb09700700a9000801290001013900028
:10671c00a01390000fb89700010020000200200089
:10672c000300200004004000858048000601490059
:10673c00878149002fb29700700a980001129800c7
:10674c0012129800231298001300370050002000fa
:10675c0090b79f00100037002fb0970020009000da
:10676c000000e000030032004030200090b79f0092
:10677c00090037002fb09700500090000000e00097
:10678c00030032007030200090b79f0002003700e9
:10679c008030200090b79f009fb29700f5bf9f00fc
:1067ac007fb897000080fa00000006001000fa0085
:1067bc0080bf9f0094bf9f00a5bf9f00b6bf9f00e6
:1067cc00c7bf9f00d1bf9f00e2bf9f000fb89700cb
:1067dc000000e000040032000fb8970010007800b1
:1067ec000000e00003003a0070002000f0bf9f00a2
:1067fc00140037000fb8970020029000b0029000f0
:10680c0040039000d00390001fb89700afb89700da
:10681c003fb99700cfb99700040240008582480029
:10682c0006034900878349000fb8970010007800d1
:10683c008001eb006fb99700dfb8970070ff07007d
:10684c00f0bf9f007fb897000080fa0000000600a0
:10685c001000fa0080bf9f0094bf9f00a5bf9f004f
:10686c00b6bf9f00c7bf9f00d1bf9f00e2bf9f0074
:10687c000fb897000000e000040032000fb897003a
:10688c00100078000000e00003003a0071002000c6
:10689c00f1bf9f00210037001fb89700afb89700d9
:1068ac003fb99700cfb99700809fbe00829fbe0072
:1068bc00afb89700811f7800d0302900801f780076
:1068cc006e0e020000000000ec8757000fb8970016
:1068dc0020029000b002900040039000d003900082
:1068ec001fb89700afb897003fb99700cfb9970082
:1068fc000402400085824800060349008783490052
:10690c000fb89700100078008001eb006fb997006a
:10691c00dfb89700ccfe0700f0bf9f007fb8970050
:10692c000080fa00000006001000fa006e83570089
:10693c00000b780011039800220398003303980091
:10694c00440398005503980020022000b23702003f
:10695c000000000080bf9f000fb897000000e0000f
:10696c0003003a0022002000f2bf9f001c003700f9
:10697c000fb997006e8057008000780002007800f5
:10698c001101be000288be0064004000e48040009b
:10699c001101be000288be0064004000e48040008b
:1069ac001101be000288be000fb89700ec00400039
:1069bc00f08157007c8051000a000900b018780063
:1069cc006101b1006001b1008fb8970060942300a1
:1069dc0092510200000000000000eb00f0bf9f008d
:1069ec007fb897000080fa00000006000400fa004f
:1069fc006000b800e0bf9f00f1bf9f004a41020059
:106a0c0000000000f0ca8900f0ca8100e0bf9f00be
:106a1c00e00e2300f0bf9f006fb89700ffb89700ff
:106a2c00183b020000000000765c02000000000031
:106a3c0076610200000000000080fa0000000600f1
:106a4c001800fa0080bf9f0094bf9f00a5bf9f0055
:106a5c00b6bf9f00c7bf9f00d1bf9f00e2bf9f0082
:106a6c0091cb81000fb89700810f500032003a0093
:106a7c000000eb00f0b79f005fb89700e0b79f00f5
:106a8c002700370001cc81007fb09700810f5000a8
:106a9c0004003d007fb097000000e800f0b79f00b5
:106aac000300370060302000f0bf9f005a00370011
:106abc00801d0200000000000004e000f1ff320025
:106acc000000eb00f0b79f0020c2bf0066406000e2
:106adc00e64f500008003a0030118000800078002a
:106aec006fb09700010878006fb097000080e80045
:106afc00e0b79f000700370030118000804078001d
:106b0c005fb89700014878005fb897000000e80074
:106b1c00d0bf9f006fb897000000e900e0bf9f0056
:106b2c006fb897000000e000e1ff3a000000eb00b6
:106b3c00f0bf9f0038003700a1cb81000fb8970041
:106b4c00810f500032003a000000eb00d0b79f00dc
:106b5c005fb89700c0b79f002700370001cc8100b9
:106b6c005fb09700810f500004003d005fb09700ac
:106b7c000000e800d0b79f00030037006030200011
:106b8c00f0bf9f0024003700861d020000000000ab
:106b9c000004e000f1ff32000000eb00d0b79f00d2
:106bac0030c2bf0066406000e64f500008003a005b
:106bbc00b0118000800078004fb097000108780079
:106bcc004fb097000080e800c0b79f000700370067
:106bdc00b0118000804078005fb8970001487800c1
:106bec005fb897000000e800d0bf9f006fb8970017
:106bfc000000e900e0bf9f006fb897000000e000c4
:106c0c00e1ff3a000000eb00f0bf9f0002003700ec
:106c1c0050002000f0bf9f007fb897000080fa0062
:106c2c00000006001400fa0080bf9f0094bf9f0074
:106c3c00a5bf9f00b6bf9f00c7bf9f00d1bf9f00dd
:106c4c00e2bf9f0091cb81000fb89700810f5000dd
:106c5c002c003a005fb89700f0b79f0020c2bf002d
:106c6c0066406000e64f500020003a000d003700ef
:106c7c0023c2bf00624060000004e000fcff3a0049
:106c8c007fb0970010007800201188007fb097002b
:106c9c000080e800f0b79f006fb897000000e90093
:106cac00e0bf9f006fb897000000e000f0ff3a00d3
:106cbc001100370023c2bf00624060000004e000f6
:106ccc00fcff3a005fb89700104078000080fb0092
:106cdc00201188005fb897000000e800d0bf9f002b
:106cec006fb897000000e900e0bf9f006fb89700f5
:106cfc000000e000efff3a000000eb00f0bf9f0047
:106d0c0032003700a1cb81000fb89700810f5000e3
:106d1c002c003a005fb89700e0b79f0030c2bf006c
:106d2c0066406000e64f500020003a000d0037002e
:106d3c0033c2bf00624060000004e000fcff3a0078
:106d4c006fb0970010007800a01188006fb097000a
:106d5c000080e800e0b79f006fb897000000e900e2
:106d6c00e0bf9f006fb897000000e000f0ff3a0012
:106d7c001100370033c2bf00624060000004e00025
:106d8c00fcff3a005fb89700104078000080fb00d1
:106d9c00a01188005fb897000000e800d0bf9f00ea
:106dac006fb897000000e900e0bf9f006fb8970034
:106dbc000000e000efff3a000000eb00f0bf9f0086
:106dcc000200370050002000f0bf9f007fb89700f2
:106ddc000080fa00000006000800fa00c0bf9f0007
:106dec00d1bf9f00e2bf9f00f3bf9f000000eb00ec
:106dfc000080fa00000006001800fa002055290057
:106e0c00f880570006000900b0187800e100b100c6
:106e1c00e000b1006a805700000178006000b80003
:106e2c000089be00640141006000b8000089be000a
:106e3c00640141000000eb00000978000000eb0049
:106e4c00f0b79f0010002000c0b79f000000eb00bf
:106e5c00e0b79f0010002000d0b79f000000eb00af
:106e6c0080bf9f00ea8057006052230080087800a2
:106e7c00ea8057008061230090009800ea80570058
:106e8c00206f2300a000980020972300801f78001b
:106e9c006c8057001001be00829fbe006400400051
:106eac001001be00829fbe0064004000900178007b
:106ebc00831f7800efa897007fa997008fb19700e8
:106ecc001fb29700afb297003fb39700cfb39700b4
:106edc00005629003431020000000000ec875700f6
:106eec0040972300801f78006c8057001001be0073
:106efc00829fbe00640040001001be00829fbe0055
:106f0c006400400090017800831f7800efa8970080
:106f1c007fa997008fb197001fb29700afb297006f
:106f2c003fb39700cfb39700c0562900343102000d
:106f3c0000000000ec8757000080fa0000000600fb
:106f4c00c0852000027122008000eb00a20e02001e
:106f5c0000000000000006001200fa00d0bf9f00e5
:106f6c00c0852000c0bf9f000080eb00a0bf9f0029
:106f7c000000eb0090bf9f005fb897000000e0009e
:106f8c0003003a000000eb00f0bf9f009d003700ab
:106f9c005fb89700610060000004e000040032005c
:106fac005fb897000000a0000000e800d0bf9f0071
:106fbc005fb897000000d1000080e800b0bf9f00d0
:106fcc004e4a020000000000617b81003fb8970030
:106fdc00810f5000050036005e4a020000000000e0
:106fec008000eb00f1bf9f00860037001fb89700b0
:106ffc0000004000800078004fb89700010040006e
:10700c00c0bf9f004fb89700100078000000e00050
:10701c006f003a004fb897000080e800100078002d
:10702c000000e000050032004fb897000080e80037
:10703c0010007800e0bf9f0008003700cfb8970021
:10704c00c0852000008050000080d10080007800b6
:10705c008038210001005000e0bf9f006fb89700fe
:10706c0080bf9f008fb897003fb89700808f50006b
:10707c00570039004fb89700afb897000108780057
:10708c008fb897003fb8970000805000e20f500077
:10709c00290036003fb897000000400080007800bf
:1070ac004fb8970080804000f1b79f00ffb0970069
:1070bc000000eb00800878004fb897000080e800d3
:1070cc00100078000000e0000e0032007fb0970046
:1070dc008081e8000fb89700000040008000780025
:1070ec004fb89700008140008fb897003fb89700c9
:1070fc0000805000000978001200780080097800a8
:10710c00040037007fb097008080e8000000eb009f
:10711c00800878004fb897000080e800bfb897004f
:10712c0001087800617b81003fb897000080500017
:10713c00607b890004003700607b81008fb897006a
:10714c0001005000607b89003fb8970000004000b0
:10715c00e40050004fb89700640040000101780033
:10716c008000eb00a20e02000000000090428000a4
:10717c000000e800904288003fb8970000004000f3
:10718c000002780005002000060020000700200007
:10719c00408520005001be004000be0004004000ad
:1071ac0085804800060149008781490044852000fc
:1071bc00009abe000292be005e4a0200000000006f
:1071cc004fb8970064004000f0bf9f000d003700df
:1071dc004fb897000080e8009000780091bf9f00a6
:1071ec001fb89700a0bf9f001fb897000000e000d9
:1071fc007eff3a005e4a0200000000008000eb00b7
:10720c00f1bf9f007fb897000080fa0000000600d5
:10721c000a00fa00e0bf9f006fb89700d0bf9f0034
:10722c005fb8970064005000d0bf9f004e4a020028
:10723c00000000005fb897000080e80010007800a4
:10724c000000e000050032005fb897000080e80005
:10725c0010007800f0bf9f0008003700dfb89700df
:10726c00c0852000008050000080d1008000780094
:10727c008038210001005000f0bf9f00607b81002e
:10728c00ffb8970000804000607b8900617b810023
:10729c008038210001005000000040000100200057
:1072ac00020020000300200044852000009abe004c
:1072bc000292be005fb897000080e80010007800d2
