:020000040000fa
:0418000000000000e4
:020000040000fa
:08180400060c040000000000c6
:020000040000fa
:10180c002f91230000ff270000018800000000003a
:10181c000a00070011000700000020000000e00093
:10182c00020032000000020000000000c41d020093
:10183c00000000000040da000000fe004440a90057
:10184c00e08120000000e0000300320000002000d6
:10185c00a00188004440a80000000600006b260090
:10186c00010020001500370062004000e0804800b5
:10187c00910188009001ba0062004000e0804800ad
:10188c00910188009002ba0062004000e08048009c
:10189c000002eb006028e10004003a000059eb0064
:1018ac008301e900fdff3e00040037006128e100e0
:1018bc00010032000082eb00050007009101880056
:1018cc001001ba000200e000e7ff3a00000005003a
:1018dc00910188008002780062004000e08048009e
:1018ec003559ba008301e900080032002559ba00c5
:1018fc008301e900050032000400e000f4ff32002f
:10190c0015d9ba008301e900f1ff3a000000060086
:10191c005c20040000000000a8200400000000006f
:10192c00781e040000000000b81e04000000000037
:10193c00f61e0400000000003e1f04000000000022
:10194c00a81f040000000000e61f040000000000b7
:10195c001e200400000000004e20040000000000c7
:10196c0098230400000000000c2504000000000077
:10197c00d4230400000000009425040000000000a3
:10198c00a421040000000000de210400000000007f
:10199c001a22040000000000722204000000000063
:1019ac00d6220400000000006e210400000000009c
:1019bc0096210400000000003e24040000000000fa
:1019cc008224040000000000d02404000000000069
:1019dc0050250400000000001e240400000000003c
:1019ec0030240400000000008427040000000000e4
:1019fc003827040000000000282604000000000026
:101a0c007426040000000000d6260400000000002c
:101a1c0000260400000000001a260400000000004c
:101a2c00b02d0400000000000e2b0400000000008c
:101a3c005a2b040000000000d22b04000000000010
:101a4c001a2c0400000000006e2d040000000000a1
:101a5c00fa270400000000004e2a040000000000d9
:101a6c00ac2a040000000000f22a04000000000070
:101a7c00fe2a040000000000de2704000000000025
:101a8c00f227040000000000c63104000000000032
:101a9c00b4320400000000008e330400000000008b
:101aac00e434040000000000dc3d040000000000f1
:101abc001439040000000000043804000000000089
:101acc00565e040000000000e03904000000000035
:101adc00103a040000000000543a0400000000001a
:101aec007a3a040000000000ec3a04000000000008
:101afc001e3b040000000000663b040000000000d8
:101b0c00b03b0400000000004c3904000000000051
:101b1c00d43904000000000006430400000000005b
:101b2c004c43040000000000c4420400000000000c
:101b3c0086400400000000002c410400000000005e
:101b4c003c42040000000000784204000000000049
:101b5c006440040000000000784004000000000015
:101b6c008e58040000000000be5504000000000068
:101b7c0062560400000000009a56040000000000a9
:101b8c003e570400000000005858040000000000fc
:101b9c00f45c040000000000a459040000000000e4
:101bac005e5a040000000000ca5a04000000000045
:101bbc00765b0400000000009c5c04000000000048
:101bcc00d058040000000000b85d040000000000c4
:101bdc00b65d0400000000001c0e040000000000b4
:101bec006a0e040000000000ae18040000000000a3
:101bfc000000040000000000a10a2300d700070029
:101c0c000000e00006003500a10a2300a00020001f
:101c1c00180107008000eb000000e00001003d000f
:101c2c008080eb000100780000000600889fbe0059
:101c3c0080047800010078000204780089017800a3
:101c4c001100200031010700880f50000100320004
:101c5c008004eb00090078004f04be000000060071
:101c6c000000fa004fb99700e8815700a10a230041
:101c7c00c0e120007a0107000080fa000000060095
:101c8c00040037000204e0000a0032000000e80003
:101c9c008100e80010417800914f5100f9ff3200ab
:101cac000081eb0010407800914f50000400390087
:101cbc00020037000001eb00010037001200200089
:101ccc000200780000000600881f780002047800eb
:101cdc001c020700080040004f04780000000600ba
:101cec000000fa00881f7800000478003fb99700c4
:101cfc00ea81570080007800a0e620005801070018
:101d0c00800078000000e000020035000040eb008d
:101d1c0000f47800010078004f0478000080fa008d
:101d2c000000060080007800010037000000e80089
:101d3c001004e000fdff3a00010050000000060016
:101d4c00800178000001780031407800005978005b
:101d5c000004e000fcff3a000300780000000600dd
:101d6c00889fbe0081047800114478000804e000cc
:101d7c0009003a000c003700800178000901780056
:101d8c00d24078000104e00007003200d3cf1000ed
:101d9c00fbff32000000e8008800fb00f0010700a8
:101dac000000e000f4ff3a004f04be000000060003
:101dbc00881f78008a9fbe000185b9000a00780050
:101dcc006b210700000478000000e00003003200e3
:101ddc000a0178008000eb0004000700080078007e
:101dec004f05be004f047800000006008001eb0098
:101dfc0002003700817178008301e800828f510066
:101e0c00fcff3a0000000600881f7800a0898100c2
:101e1c000000e00001003200000001007089810028
:101e2c000000e0000100320000000100807f810012
:101e3c000000e0000100320000000100507f810032
:101e4c000000e000010032000000010060132300dc
:101e5c001004e00026003a008089810091898100fd
:101e6c000004eb00d2602600930120001f0607003f
:101e7c00f2352f00e3c623000000410081804900a9
:101e8c000804e800e80f5400f6ff3a008089890046
:101e9c009189890028ff2200d2602600930120003e
:101eac00808981009189810010060700f2352f008e
:101ebc00e3c623000000410081804900808989002d
:101ecc0091898900009cbe0020072300800f5400dc
:101edc00f1ff3a007083810081838100607f89006b
:101eec00717f890011c0b300601323000148780092
:101efc00d2602600930120008089810091898100a5
:101f0c00fa050700f2352f00e3c62300000041005c
:101f1c00818049008089890091898900c2fe220054
:101f2c00120178007f0161004211dd0023ff2200c5
:101f3c00030141001202be00647f8900757f890095
:101f4c000089be00607f8100717f81004008de0047
:101f5c0000f0a1004f04780000000600889fbe002e
:101f6c008a9fbe0000057800810478002d003700a0
:101f7c00c900900069009000808f50000400390067
:101f8c00090078007f0107000000e00035003500f3
:101f9c00004020001900600009003200a100200060
:101fac000a007800ba010700800578000000e00004
:101fbc00040032000a0050000004e800040037005e
:101fcc00800578000a00780056ff070000047800ae
:101fdc00c90190006900900003005000880f500068
:101fec0002003100000478008005eb000801780045
:101ffc008a007800030078005201070008054500ac
:10200c004900900000004400c00498000b00e00060
:10201c000400320009007800a80107000000e0006d
:10202c0010003a001a04e000d1ff3a0000802000b2
:10203c001900600004003200090078009f010700bd
:10204c000000e00007003a0000c02000190060000a
:10205c000500320049009000e00498000000eb00fd
:10206c00010037000080eb004f05be004f04be009e
:10207c0000000600889fbe008a1f7800800478004c
:10208c000104780000457800c100900068009000c1
:10209c00808f5000040039000800780039010700d7
:1020ac000000e00015003500480090000958780049
:1020bc00400498001800780000b8a30004003a000f
:1020cc0000a8a30006003200ea4f550004003a00b5
:1020dc0008007800790107000000e00007003a00d2
:1020ec0000c0200018006000020032004800900080
:1020fc00600498000a80fb00010037000080eb00b0
:10210c004f0578004f04be0000000600889fbe00fb
:10211c008a9fbe008c9fbe008e1f780081067800bf
:10212c0083047800000678000288b9000007780064
:10213c000000e00002003a00000178004200370085
:10214c000d00e0004000320000057800c90090004e
:10215c0069009000808f500004003900090078005d
:10216c00080107000000e0002900350000402000b5
:10217c001900600003003a000a047800800578001a
:10218c000b0037000a017800a10020000c00780039
:10219c0087010700800578000000e00002003a008b
:1021ac000a047800020037000c0050000004e8001c
:1021bc00c90190006900900003005000880f500086
:1021cc0002003100000478008005eb000801780063
:1021dc008c00780003007800da000700080646003f
:1021ec00080555004900900000004400c004980008
:1021fc000b00e00004003200090078002f010700fa
:10220c000000e00002003a000a00e000cfff3a00b4
:10221c0000802000190060000200320009007800e4
:10222c002601070000c020001900600002003200e7
:10223c0049009000e00498000a00570011000900c2
:10224c000d80d80000017800020078004f0778005c
:10225c004f06be004f05be004f04be000000060036
:10226c006200fa00889fbe008a9fbe000004be0078
:10227c00020578008300780060f92f000f00400001
:10228c005501070088979f0099979f000000eb006d
:10229c00a09f9f009a4578000b80fb000000ea008d
:1022ac00cf04de0050c2b30080cf550002003200d4
:1022bc0009047800010037000904e9000800e00077
:1022cc000b0034001f909700080178008a007800fa
:1022dc008f9197000300010090979f000000e00091
:1022ec00930032002f98970000004400a09f9f009d
:1022fc000905450050c2b30080cf550004003200e0
:10230c000b04e000e3ff3a002f9897008900370098
:10231c000000eb00809f9f00f0979f00e0979f00cc
:10232c00d0979f00c0979f00b0979f00c09f9f00c1
:10233c00090037008012230000805000000040008c
:10234c00c1112300e10078004f9897000100700044
:10235c00c09f9f000a05e8001a4478008800fb0023
:10236c00801223007e000700800078000000e0004f
:10237c00f0ff3a00a0c2b300804f54000e003a00a8
:10238c00bf8897000180e900b08f9f001000780093
:10239c00b09f9f000000e00005003d000000ea0037
:1023ac00b09f9f004f9897000020a000c09f9f00f7
:1023bc000a05e80010003700b19f9f0009003700a4
:1023cc00bf989700f0ff2700808f50000400320068
:1023dc006a08b9000000410003004000b09f9f0054
:1023ec000a05e8001a01fb0003fd2f000300410061
:1023fc00e90f5000f2ff3600e0c2b3009a4f100014
:10240c00040032000080eb00909f9f008a0478004b
:10241c001c0037008a04e800a0c2b300994f1000da
:10242c0007003a00bf8897000180e900b08f9f0039
:10243c0010007800909f9f008a84e80011003700fc
:10244c000000eb00909f9f00090037009f989700b9
:10245c00f0ff2700808f5000040032006a08b9009a
:10246c000000410003004000909f9f008904e80099
:10247c001901fb0003fd2f0003004100e90f500080
:10248c00f2ff3600194478008800fb00801323000b
:10249c00330007000000e00002003a00004478001e
:1024ac00010037008904e800a87f9f0080c6b300b4
:1024bc00804f540004003a00994f14000a003a006f
:1024cc006640500006003700c0c6b300804f540071
:1024dc0005003a00994f140003003a006540400093
:1024ec00a07f9f008904e8000905e800cbfb2f00c2
:1024fc008f8545001901fb0060f92f000f0040008b
:10250c000084e8008b0178008000780008007800d7
:10251c00b60007000000e00005003a008b007800d0
:10252c0008007800f40107000000e00059ff3d00ae
:10253c000080eb004f05be004f04be000080fa0087
:10254c00000006008001eb000200370061f079000a
:10255c008301e800828f5100fcff3a000000060066
:10256c00040037000204e00001003a0000000500fe
:10257c000000e80010417800814f5100f9ff3a004b
:10258c0000000600889fbe0000047800c001900087
:10259c00600090008000eb00808f51003900390002
:1025ac00180178002000290000006100e20f5000a3
:1025bc0007003200002020000200e000010035007e
:1025cc0000202400000c71008080eb002d003700ef
:1025dc000100260001006100810f500008003a0044
:1025ec0038009000808f51000500390008007800f9
:1025fc00320007008080eb000000e00021003a0070
:10260c0000c020001800600017003a00a8049000d9
:10261c006002200008004000808f540012003a0035
:10262c0000202000521f0700800078002004980032
:10263c000000e00005003a002904980049049800c5
:10264c000900e80030049800060037001860a0006c
:10265c00400498000020b00030049800410c980011
:10266c00510c98006e02070028009000500498004e
:10267c00380090006004980000002600180c7000d0
:10268c008000eb00010078004f04be000000060043
:10269c008001eb0010417800814f510001003a009d
:1026ac00800178000204e000020032000000e80023
:1026bc00f8ff37000300780000000600889fbe007a
:1026cc00000478000000e0000e003a00800478005e
:1026dc0028072300180078000000e00004003200f6
:1026ec00f6ff07000000e00001003d008084eb00d5
:1026fc000884e80020082300800f540029003200d1
:10270c00f4ff3700000022001800600024003200a3
:10271c00a8049000080037000901500038409000d0
:10272c000000fb00890078005a0307000000e0005d
:10273c00130034008084440048009000808f5400c3
:10274c00f5ff39002800900040049800180178002b
:10275c0000c020000000610002003200a8009000c0
:10276c0001003700b8009000000024000000610058
:10277c000a003200610498008004eb000900370065
:10278c00280090004004980060049800500c9800b9
:10279c001890a0008084eb0002003700510c9800c8
:1027ac0080047800090078004f04be000000060089
:1027bc008001eb00040037008301e80090cf10008b
:1027cc00040032000000e800828f5100faff3a004a
:1027dc000000eb00000006000200fa00f1bf9f00b1
:1027ec00010878000080fa0000000600889fbe00f7
:1027fc008a1f780000047800010278008244780077
:10280c0003057800e0c6b300804f5100d2003200bf
:10281c0015003c006b405000804f510024003200ea
:10282c000a003c0070405000804f51000f013200f4
:10283c0065404000804f51007400320050c2b3001c
:10284c00804f510020013a001c01370040c6b300f4
:10285c00804f51001b00320065404000804f5100fa
:10286c0019013a001700370030c7b300804f5100f0
:10287c00fe00320007003c0064405000804f5100c5
:10288c00620032000040e800804f51000e013a0017
:10289c00e700370050c7b300804f51005b00320097
:1028ac0063404000804f510007013a005700370049
:1028bc009180e900010a780078009000917178000d
:1028cc0007013700a8609000c0c6b30080cf50004d
:1028dc000a003a009400780064805000000a7800e6
:1028ec001000be004f89de00cf91de000002be005a
:1028fc0002037800820378001300370010c7b3007e
:10290c0080cf500003003200a0c6b30080cf50002f
:10291c0006003a009400780068805000000a7800a5
:10292c003002be002003be00070037001480e9000f
:10293c00000a78001000780000027800cfa2de00b8
:10294c000503780086037800049cbe000694be0044
:10295c00a860900080c6b30080cf50000e003200fb
:10296c0020c6b30080cf500005003a000400fb00e5
:10297c00cf80de0001017800820178000a00370068
:10298c0040c7b30080cf50000300320066404000c7
:10299c0080cf500006003a0004007800cf80de00a3
:1029ac000101780082017800009cbe000294be00f8
:1029bc003800be002801be00e00f5000e08f580028
:1029cc00e00f5900e08f590003003d0078009000a3
:1029dc00d1c2b3000a003700081090000018a30001
:1029ec000300320078009000b1c2b300040037003d
:1029fc000008a300530032007800900001c2b3001d
:102a0c00017578000000e8004d003700a8609000c8
:102a1c00c0c6b30080cf500006003a009400780086
:102a2c0064805000000a78001002be006033b800c9
:102a3c001300370010c7b30080cf500003003200e2
:102a4c00a0c6b30080cf500006003a009400780076
:102a5c0068805000000a78003002be002003be00df
:102a6c00070037001480e900000a78001000780095
:102a7c00000278000500200006002000070020005e
:102a8c00049cbe000694be00a860900080c6b300f3
:102a9c0080cf50000e00320020c6b30080cf500013
:102aac0005003a000480fb00010020000200200019
:102abc00030020000a00370040c7b30080cf50004d
:102acc00030032006640400080cf500006003a0000
:102adc000400780001002000020020000300200008
:102aec00009cbe000294be00081090000038a300a9
:102afc00140032003800be002801be00e00f500068
:102b0c00e08f5800e00f5900e08f59000d003200a3
:102b1c0080c7b30080cf54000300320080c5b300df
:102b2c0080cf540007003a007800900001c3b30036
:102b3c00017578008000e80009f578000080e80055
:102b4c007004980078009000000045006004980024
:102b5c008940780042003700a8609000c0c6b300de
:102b6c0080cf5000250032000a003c006440500029
:102b7c0080cf50002800320000c0e80080cf500009
:102b8c00140032006840500080cf500022003a0000
:102b9c000a00370040c7b30080cf50001e0032003f
:102bac006640400080cf50001b003200694050004e
:102bbc0080cf500018003a00060037001480e9005e
:102bcc00000a780010007800485c900008487800f3
:102bdc00450037001480e900000a780010027800e4
:102bec0068089000cf80de00010178008201780037
:102bfc00009abe000292be003b0037001480e90030
:102c0c00000a78001001780068089000cf80de0080
:102c1c000089be00340037001480e900000a7800f7
:102c2c0010007800680c9000080878002e0037001f
:102c3c001180e9008008780010007800cf80de0059
:102c4c000101780082017800009cbe000294be0055
:102c5c0078009000000045006004980081c7b30024
:102c6c0008007800460107001f0037001480e900b7
:102c7c00000a780010007800600498005809900051
:102c8c000200e00002003d0026fc070009003700ae
:102c9c008000eb00c6fe0700800078000000e0001a
:102cac0003003200680090000080500001003700e3
:102cbc0058089000100c98000b003700780090001a
:102ccc0002757800060037007800900080004500ff
:102cdc000904e00001003a0059c2b30089487800a9
:102cec000000e800700498000000eb004f0578002d
:102cfc004f04be00000006000400fa00889fbe00ce
:102d0c008a9fbe008c1f78000004780001067800b2
:102d1c0070089000f80090000100500088089000a6
:102d2c00010050009808900001005000a808900085
:102d3c0001005000b808900001005000c808900035
:102d4c00810550000002220090bf9f000003230069
:102d5c00a0bf9f00081090000028a30018003a00a4
:102d6c000b00e000160034008b0478000905780095
:102d7c00e28f5400020036002a00200002003700c7
:102d8c000900e0000b00340058009000c8019000ce
:102d9c000a017800ee8057000300010050049800ef
:102dac000000e0009600320068089000000045002a
:102dbc00600c98008a8454004240a900ebff3c0050
:102dcc00780190000200e0000b00340058009000e5
:102ddc00c80190008c00780003000100500498009a
:102dec000000e0008600320068089000f8009000b7
:102dfc0001004000600c9800880c90000900e00075
:102e0c001500340009057800e28f540002003600ea
:102e1c002a002000020037000900e0000b003400fb
:102e2c0058009000c80190000a017800ec8057000f
:102e3c0003000100500498000000e0007000320014
:102e4c006808900000004500600c98008a845400cb
:102e5c004240a900ebff3c00180990000200e00082
:102e6c000b003400e800900058009000c80190005e
:102e7c0003000100500498000000e00060003200e4
:102e8c00680890009808900001004000600c9800c1
:102e9c00a80c90000900e00015003400090578002a
:102eac00e28f5400020036002a0020000200370096
:102ebc000900e0000b00340058009000c80190009d
:102ecc000a017800ec8057000300010050049800c0
:102edc000000e0004a003200680890000000450045
:102eec00600c98008a8454004240a900ebff3c001f
:102efc00380990000200e0000d003400e80090005a
:102f0c00180890008080400058009000c801900084
:102f1c0003000100500498000000e000380032006b
:102f2c0068089000b808900001004000600c980000
:102f3c00c80c90000900e000150034000905780069
:102f4c00e28f5400020036002a00200002003700f5
:102f5c000900e0000b00340058009000c8019000fc
:102f6c000a017800ec80570003000100500498001f
:102f7c000000e000220032006808900000004500cc
:102f8c00600c98008a8454004240a900ebff3c007e
:102f9c00081090000028a3001b0032000b00e0007a
:102fac00190034008b04780009057800e28f540076
:102fbc00020036002a002000020037000900e00061
:102fcc000b00340058009000c80190000a017800f2
:102fdc00ee80570003000100500498000000e00050
:102fec00070032006808900000004500600c980053
:102ffc008a8454004240a90003003400eaff3700e1
:10300c000080eb00010037000000eb004f06780059
:10301c004f05be004f04be000080fa000000060001
:10302c00881f7800081423001804e00004003a00fc
:10303c00e08a21000a01070020c0b300004c780090
:10304c004f04780000000600889fbe000004780042
:10305c009afd07008004780000042000180060002e
:10306c000200320028009000571d07000000eb0002
:10307c0020049800384090000004e0000500350062
:10308c000000fb00370107000000e00001003200e7
:10309c008084eb00181090000000e0000800320063
:1030ac00390107000000e000010032008084eb00d1
:1030bc0018109000441d07000000eb00101498003d
:1030cc000008200018006000100032000000eb0027
:1030dc0021072300910f1400070032000000e800c4
:1030ec008180e800e80f5000faff3a0008007800f1
:1030fc00351d070013003700000040002107230096
:10310c00010040000008eb00f8ff3700000c7800cd
:10311c0000c0eb0030449800600220000800400022
:10312c00200498004004980050049800400c98002b
:10313c0060049800500c98007004980076004400cd
:10314c00000c9800090078004f04be000000060037
:10315c00881f780008082300180078000000e000a1
:10316c0001003200b8ff07000884e90000072300c3
:10317c00800f5400f8ff3a004f047800000006005e
:10318c00ef02b000889fbe008a9fbe008c9fbe00dd
:10319c008e1f780000067800b0102300c0b79f0087
:1031ac0080c5b30080cf500008003200a20f23006e
:1031bc00c2b79f007740400080cf500003003a0018
:1031cc0083002000b3b79f000a00370080c7b3000c
:1031dc0080cf500005003200a4002000b4b79f003f
:1031ec0080c5b30080cf500002003a0000012000df
:1031fc00b0b79f003c04be002c05be0040c6b30017
:10320c0080cf5000030032006540400080cf50005a
:10321c000b003a00e00f5400e08f5c00e00f5d0003
:10322c00e08f5d0006003d006000b8006011b80042
:10323c0008045000898458000a0559008b855900f0
:10324c00e00f5400e08f5c00e00f5d00e08f5d004c
:10325c0004003a005c0890008d0120000000e000a2
:10326c000c003200bfb0970001027800cfa2de0044
:10327c0005037800860378000800be000a01be0032
:10328c00a10107004fb2970064407800d0df9f0087
:10329c007d0120003fb0970000027800cfa2de0035
:1032ac0005037800860378000800be000a01be0002
:1032bc008e010700009ebe000296be000d00e900c4
:1032cc0061fc2f008f804000008740001e003700fb
:1032dc003fb1970002047800cfc4de0009057800e6
:1032ec008a0578000802be000a03be007fa897007a
:1032fc008fb097001fb19700afb197008601070000
:10330c00d0b79f00e1b79f00f2b79f0083bf9f002b
:10331c008d06e9000802be000a03be00a3000700e8
:10332c007faa970000005200cfb097006157780039
:10333c005fb09700efb097007fb197008fb99700ff
:10334c00009ebe000296be003c00be002c01be00da
:10335c00f0af9f0081b79f0092b79f00a3b79f006b
:10336c00e00f5000e08f5800e00f5900e08f59003b
:10337c00020034000d00e000d5ff3c00bfb0970008
:10338c00e88f500010003a000c1090000038a30099
:10339c000d003200f78f560006003e0062fc2f0035
:1033ac000f0141008d00410000c3b300914f10008c
:1033bc00050032008d06e90000c3b30063fc2f004a
:1033cc008f81410080f17e0078811600120e9800ea
:1033dc006c00900063fc2f008f8141008d804100b8
:1033ec0058fc07001c0990005c089000800f5100ed
:1033fc0006003d0002005000000e98000c109000da
:10340c000040a100001698000f0037000000e000fb
:10341c000d003d000c10900074006000f00f500087
:10342c0009003a007c089000fc009000010050005c
:10343c008c08900001005000020050004240a9008e
:10344c0001003400000e98004f0778004f06be00b4
:10345c004f05be004f04be00ef02b1000000060095
:10346c0000017800000020000000e000080032009d
:10347c00000080000000e000050032000000e900c0
:10348c0000008800000040000100800002b07800bd
:10349c00000006000a00fa0080017800e20f5000dc
:1034ac0025003e00c0468000e10f500008003200ad
:1034bc00802320000000e0000500320004232000df
:1034cc0025232000462320008001780004003700cb
:1034dc0004222000252220004622200083222000e6
:1034ec00144090000004e000030035008009eb005c
:1034fc0000002800140a7000154090000028a3005a
:10350c0001003a0015a0a0008001eb000700370075
:10351c00154090000008a300fdff320063c0780046
:10352c000000fb00000b78008301e800828f510043
:10353c00f7ff3a000800370030002000b0bf9f00b2
:10354c00c3bf9f00d1bf9f00e2bf9f006a8057009e
:10355c0000c0da006fb99700020078000080fa0012
:10356c00000006000a00fa0011002000b1bf9f0005
:10357c00c0bf9f006a80570000c0da004fb89700a8
:10358c000080fa00000006000a00fa00510020003a
:10359c00b1bf9f00c0bf9f006a80570000c0da0017
:1035ac005fb897000080fa0000000600889fbe00fc
:1035bc008a9fbe008c1f78000205be000004be006e
:1035cc000006eb00e00f5000e08f5800e00f5900b0
:1035dc00e08f590007003d006000b8006011b80092
:1035ec0008045000898458000a0559008b8559003d
:1035fc001c002000e00f5200e08f5a00e00f5b002f
:10360c00e08f5b0002003d000f0007000c00a200e1
:10361c000800be000a01be00120007000203be0033
:10362c000002be000c00e0000100320006000700a2
:10363c000400be000601be004f0678004f05be0018
:10364c004f04be00000006006000b8006011b80016
:10365c0004025000858258000603590087835900e4
:10366c0000000600889fbe008a9fbe008c9fbe0093
:10367c000404b8000506b8008904460060854e00b5
:10368c000606b8000a054600e0854e000706b8009d
:10369c008b054600040eb800890446000a854e00ce
:1036ac00e0854d00050eb8000a0546008b854e00de
:1036bc00060eb8008b0546000416b8000a05460035
:1036cc008b854e000516b8008b054600041eb8000d
:1036dc008b0546000800be000a01be004f06be0066
:1036ec004f05be004f04be0000000600020ab900e0
:1036fc00001bb9000200b8008100420081004300a9
:10370c0000000600881f7800000478005001be00fd
:10371c004000be00040040008580480006014900be
:10372c0087814900009cbe000294be000400e100a9
:10373c000588e1000690e1000798e10002003100e5
:10374c00680044001008e8004f04780000000600f0
:10375c00f4874700889fbe008a9fbe008c9fbe00e6
:10376c008e1f78000205be000004be00d4b79f0077
:10377c00e5b79f00f6b79f0087bf9f000000eb00e6
:10378c00c0b79f00b0b79f00a0b79f0090b79f0035
:10379c0080b79f000d042000bfb097004fb097007a
:1037ac00000140000000e0000f003d004f08de006b
:1037bc0000007100c0b79f009e00070001003d0093
:1037cc0012002000a100070001003d0012002000a3
:1037dc00a6000700b1000700b60007000f0040006c
:1037ec00c8ff0700220037004f08de0000067100fa
:1037fc00ccb79f008f00070001003d001200200095
:10380c009200070001003d00120020009700070005
:10381c00a20007000fb297009fb297002fb397003a
:10382c00bfb39700a90007000000520081805a0026
:10383c0002015b0083815b0080b79f0091b79f0002
:10384c00a2b79f00b3b79f000007eb009f000700d3
:10385c000020e10001a8e10002b0e10003b8e100a2
:10386c00010031001e0020000e005600c0b79f0062
:10387c004fb297000400e000070035001000200054
:10388c00010020006011b8000804700089847000e9
:10389c000a0571008b8571008d06e900beff3a00a8
:1038ac000400e00003003d00820007000f00400010
:1038bc0094ff07004fa897000000e00004003a00b6
:1038cc000fb497009fb497002fb59700bfb5970022
:1038dc00940007004f0778004f06be004f05be004e
:1038ec004f04be004f01b10000000600881f780095
:1038fc0018002000881f780095ff07008f87e900cb
:10390c004f04780000000600801feb0090ff0700ba
:10391c008f87e90000000600889fbe008a9fbe00ca
:10392c008c1f78006e00070007003d007300070035
:10393c00e00f5b00e08f5b0007003d0032000700ea
:10394c000006eb00040037003400070002003d00c5
:10395c002a0007001c00200072000700e3ff07008c
:10396c000203be000002be000c00e00001003200a9
:10397c00220007000400be000601be004f067800be
:10398c004f05be004f04be0000000600889fbe001d
:10399c008a9fbe008c1f78005100070005003d0077
:1039ac0056000700e00f5b00e08f5b0006003d0057
:1039bc00040037001900070003003d006000b80048
:1039cc006011b8001000070056000700ceff07007a
:1039dc000203be000002be000c00e0000100320039
:1039ec00060007000400be000601be004f0678006a
:1039fc004f05be004f04be00000006006000b8007a
:103a0c006011b80000003700040250008582580095
:103a1c000603590087835900000006000006eb00de
:103a2c00e00f5200e08f5a00e00f5b00e08f5b006c
:103a3c00000006000180400090b79f000001eb00e1
:103a4c008fb097000100e00000000600020070003b
:103a5c0090b79f000180400080b79f000001eb00f1
:103a6c00ffa897000100e0000000060002007000b3
:103a7c0080b79f00018040006faa9700cf20de0026
:103a8c0001007000f0af9f00040242002500070007
:103a9c004f18de000002720000000600e4af9f0029
:103aac000804440089844c000a054d008b854d00a8
:103abc00000006003fb29700cfb297005fb39700ab
:103acc00efb3970000fe2f00000006003fb09700f8
:103adc00cfb097005fb19700efb1970000000600e0
:103aec000205be000004be00e00f5000e08f58003d
:103afc00e00f5900e08f5900000006006000b8008c
:103b0c006011b80008045000898458000a05590057
:103b1c008b8559001c002000e00f5200e08f5a00ea
:103b2c00000006000800be000a01be0000000600ee
:103b3c004211880000118800111188000000060055
:103b4c0022c2bf00610060000000060032c2bf004c
:103b5c00610060000000060020c2bf0066406000eb
:103b6c00e64f500002003a003011800000000600c1
:103b7c0030118000f00fb200000006000000fa00c7
:103b8c000080eb00601b8800601b800060198800bf
:103b9c0060198000501988008220a800aec0bf00b8
:103bac007040b300aee0b7008680a9009680a800f4
:103bbc00420120000140200000002800dcff07002b
:103bcc0020602e000cf80700100007000080fa009f
:103bdc00000006000000fa007f010700f403070054
:103bec00e9040700d5090700d10a07000080fa0094
:103bfc00000006000000fa001d0b07000080fa0010
:103c0c000000060001000700000006000200fa0098
:103c1c000080eb00601b8800601b8000601988002e
:103c2c0060198000501988008220a800aec0bf0027
:103c3c007040b300aee0b7008680a9009680a80063
:103c4c00420120000140200000002800b8ff0700be
:103c5c00c0462e00e8f70700a046800080007800e0
:103c6c000000e800a0468800811f7800a0482e00c4
:103c7c00801f7800faf70700e4875700d5ff07008c
:103c8c00e20c0700f0bf9f007fb89700801f780000
:103c9c00d0492e00801f7800f1f70700e487570009
:103cac00ffff37004c010700c1030700b6040700f3
:103cbc00a20907009e0a070000000600c0120700b8
:103ccc0000000600000020009001880000c02000c9
:103cdc00f1ff2f000108bb000188bb000000fe00b3
:103cec00004006000c00fa00c0bf9f00d2bf9f002e
:103cfc00e3bf9f000000eb00a0bf9f00ea805700cd
:103d0c004fb89700ec140700a0bf9f002fb8970086
:103d1c000000e000030032002fb99700f2bf9f00b3
:103d2c000d0037003fb897000000e000080032009b
:103d3c003fb89700600090005fb99700efb997000b
:103d4c000288be008001eb00f3bf9f000200370029
:103d5c0010102000f0bf9f007fb897000080fa0081
:103d6c00000006000a00fa00d0bf9f000000eb0024
:103d7c00b0bf9f00e88057005fb89700ce140700d3
:103d8c00b0bf9f003fb897000000e0000400320075
:103d9c006011b800e2bf9f00f3bf9f000c0037001a
:103dac004fb897000000e000060032004fb89700b3
:103dbc00600090001001be00e2bf9f00f3bf9f00a7
:103dcc00030037006000b800e0bf9f00f1bf9f0008
:103ddc006fb89700ffb897000080fa00000006004b
:103dec000800fa00e0bf9f000000eb00c0bf9f007e
:103dfc00e68057006fb89700af140700c0bf9f0054
:103e0c004fb897000000e000030032004fb8970055
:103e1c00f0bf9f00130037005fb897000000e00070
:103e2c000e003200860f07005fb89700e00090008c
:103e3c00808c2000fe1507005fb897006000900092
:103e4c008000780010c0b30080489800840f0700f1
:103e5c000000eb00f0bf9f000200370010102000a4
:103e6c00f0bf9f007fb897000080fa0000000600aa
:103e7c000a00fa00e0bf9f000000eb00c0bf9f00eb
:103e8c00e68057006fb897008b140700c0bf9f00e7
:103e9c004fb897000000e000030032004fb89700c5
:103eac00f0bf9f00240037005fb897000000e000cf
:103ebc001f003200620f07000000eb00b0bf9f0034
:103ecc000e003700bfb89700808c200088150700c3
:103edc00800078005fb8970060009000808f5000e1
:103eec0003003a00bfb89700808c2000131607001f
:103efc003fb897000000e800b0bf9f00bfb8970024
:103f0c0040468000808f5000eeff39005fb897006c
:103f1c0060009000800078000040eb008048980022
:103f2c004f0f07000000eb00f0bf9f0002003700ae
:103f3c0010102000f0bf9f007fb897000080fa009f
:103f4c00000006000800fa00e0bf9f000000eb0034
:103f5c00c0bf9f00e68057006fb89700561407004b
:103f6c00c0bf9f004fb897000000e0000300320074
:103f7c004fb89700f0bf9f000e0037005fb8970056
:103f8c000000e000090032005fb89700600090006c
:103f9c00000178006000b800200198003101980001
:103fac000000eb00f0bf9f00020037001010200053
:103fbc00f0bf9f007fb897000080fa000000060059
:103fcc000800fa00e0bf9f000000eb00c0bf9f009c
:103fdc00e68057006fb8970037140700c0bf9f00ea
:103fec004fb897000000e000030032004fb8970074
:103ffc00f0bf9f000b0037005fb897000000e00097
:10400c00060032005fb897006000900000489000f6
:10401c000080fb00f0bf9f00020037000000eb00a7
:10402c00f0bf9f007fb897000080fa0000000600e8
:10403c000400fa00f0bf9f00e0002000cc1807003d
:10404c00e0bf9f006fb897000000e0000e00320048
:10405c007fb89700efb89700610098006fb9970090
:10406c0000242400f10020000089be006fb99700e5
:10407c006000b8002001980031019800efb897005b
:10408c000040eb00804898000080fa000000060019
:10409c000200fa00f0bf9f007fb89700600090000c
:1040ac00491907000080fa00000006000800fa0019
:1040bc00e0bf9f000000eb00c0bf9f00e6805700f0
:1040cc006fb89700fc130700c0bf9f004fb8970054
:1040dc000000e000030032004fb89700f0bf9f00d3
:1040ec00150037005fb897000000e00010003200a8
:1040fc005fb8970060009000004890000004e0005a
:10410c0003003a0010202000f0bf9f000a00370087
:10411c00814680005fb89700600090006a00400004
:10412c00431507000000eb00f0bf9f0002003700b2
:10413c0010102000f0bf9f007fb897000080fa009d
:10414c00000006000a00fa00c0bf9f00d1bf9f000c
:10415c004fb89700f0bf9f00ffb89700e28f500058
:10416c000f0032007fb89700e40f500008003200b7
:10417c00ffb897000100e000010032000e0037008c
:10418c00dfb8970060692e00800878000d003700ba
:10419c00dfb89700a0682e0080087800090037006f
:1041ac00c0052200b0bf9f005fb89700ea8057009f
:1041bc00010878000300370020102000e0bf9f00aa
:1041cc00020037008000eb00e1bf9f006fb8970042
:1041dc000080fa00000006000400fa006000b8003d
:1041ec00e0bf9f00f1bf9f0010002000e0bf9f00c8
:1041fc00800a2200f0bf9f006fb89700ffb89700ad
:10420c00051207000080fa00000006000400fa0006
:10421c000000eb00f0bf9f0027003700ffb89700ad
:10422c00808c2000b2140700e0bf9f006fb897008d
:10423c00b00090002000900061004000e080480039
:10424c006fb9970020019800310198006fb8970062
:10425c0020019000b00190006fb897001000be00d4
:10426c00800f5100818f590010003900ffb8970062
:10427c007fb897000000e900f0bf9f00808c200001
:10428c002e150700efb897000040eb00804898000f
:10429c006fb997006000b8002001980031019800b8
:1042ac008000eb006fb89700ac0d07007fb897004b
:1042bc000000e800f0bf9f00ffb897004046800068
:1042cc00808f5000d5ff39000080fa0000000600f6
:1042dc000200fa00f0bf9f00590e0700a00020005a
:1042ec0023180700800078007fb8970061009800c1
:1042fc007fb89700600090000000e00005003200dd
:10430c007fb89700600090008000780010002000bb
:10431c0080087800520e07000080fa0000000600aa
:10432c000200fa00f0bf9f007fb897006000900079
:10433c00a51807000080fa00000006000800fa002b
:10434c00e0bf9f00e68057006fb897005a13070034
:10435c00c0bf9f004fb897000000e0000300320080
:10436c004fb89700f0bf9f000e0037005fb8970062
:10437c000000e00009003200310e07005fb8970022
:10438c006000900010007800c0bf9f00340e070042
:10439c004fb89700f0bf9f000200370010102000ac
:1043ac00f0bf9f007fb897000080fa000000060065
:1043bc000a00fa00d0bf9f00e1bf9f00e8805700c1
:1043cc005fb897003c130700b0bf9f003fb8970041
:1043dc000000e00003003200bfb89700f1bf9f005f
:1043ec000e0037004fb897000000e00009003200c3
:1043fc00130e07004fb8970060009000efb89700bd
:10440c0001087800160e07000000eb00f0bf9f00bb
:10441c000200370011102000f1bf9f007fb89700f9
:10442c000080fa00000006000800fa00e0bf9f00c0
:10443c00e68057006fb897001f130700c0bf9f009e
:10444c004fb897000000e000030032004fb897000f
:10445c00f0bf9f001d0037005fb897000000e00020
:10446c0018003200f60d07005fb89700600090004e
:10447c00900090005fb897006000900010007800ea
:10448c00808f500006003100814680005fb8970095
:10449c00600090000080e8006514070005003700fc
:1044ac00814680005fb89700600090006600400075
:1044bc005f140700ea0d07000000eb00f0bf9f003f
:1044cc000200370010102000f0bf9f007fb897004b
:1044dc000080fa00000006000a00fa00e0bf9f000e
:1044ec00e68057006fb89700f3120700c0bf9f001b
:1044fc004fb897000000e000030032004fb897005f
:10450c00f0bf9f00230037005fb897000000e00069
:10451c001e003200ca0d07000000eb00b0bf9f0068
:10452c0010003700bfb897005fb89700600090008c
:10453c000080e800ee1307008000780080468000c1
:10454c00808f500004003a00c50d070010002000b9
:10455c00f0bf9f000f0037003fb897000000e80045
:10456c00b0bf9f00bfb897005fb897006000900085
:10457c0010009000808f5000eaff3900b80d070042
:10458c000000eb00f0bf9f00020037000000eb00c2
:10459c00f0bf9f007fb897000080fa000000060073
:1045ac000e00fa00e0bf9f00e68057006fb897003e
:1045bc00c1120700c0bf9f004fb897000000e00079
:1045cc00030032004fb89700f0bf9f005200370035
:1045dc005fb897000000e0004d0032000000eb00d7
:1045ec00a0bf9f00960d07000000eb00b0bf9f001e
:1045fc0014003700bfb897005fb8970060009000b8
:10460c000080e800ba130700800078008046800024
:10461c00808f500008003a00bfb897005fb8970031
:10462c00600090000080e800441407001000200097
:10463c00a0bf9f00090037003fb897000000e800ba
:10464c00b0bf9f00bfb897005fb8970060009000a4
:10465c0010009000808f5000e6ff39002fb89700b3
:10466c000000e00004003a007d0d07000000eb00a4
:10467c00f0bf9f00280037005fb8970060009000e3
:10468c00900090005fb897006000900010007800d8
:10469c00808f5000190031005fb8970060009000c7
:1046ac00300090000000e000140032005fb897006a
:1046bc0060009000660040008000eb008c13070047
:1046cc0090bf9f005fb89700600090000080e800ea
:1046dc009fb89700d61307005fb897006000900052
:1046ec009fb897009d0c07005fb897006000900082
:1046fc00660040008000eb0010140700920d0700cc
:10470c00570d07000000eb00f0bf9f0002003700c0
:10471c0010102000f0bf9f007fb897000080fa00b7
:10472c00000006000800fa00e0bf9f006fb8970079
:10473c0069ff07000000e000030032001020200099
:10474c00f0bf9f0012003700e68057006fb897004b
:10475c0059120700c0bf9f004fb897000000e0003f
:10476c00030032004fb89700f0bf9f0008003700dd
:10477c005fb897000000e000030032000000eb007f
:10478c00f0bf9f000200370010102000f0bf9f0008
:10479c007fb897000080fa00000006000a00fa00bb
:1047ac00c0bf9f00d1bf9f004fb89700f0bf9f00c4
:1047bc00ffb89700e28f50000f0032007fb89700cf
:1047cc00e50f500008003200ffb897000100e00030
:1047dc00010032000e003700dfb89700a0672e00f2
:1047ec00800878000d003700dfb8970000672e00b6
:1047fc00800878000900370080392200b0bf9f0084
:10480c005fb89700ea805700010878000300370072
:10481c0020102000e0bf9f00020037008000eb005a
:10482c00e1bf9f006fb897000080fa0000000600ff
:10483c000200fa00f0bf9f0010002000cc16070009
:10484c00800078007fb89700610098000080fa0023
:10485c00000006000200fa00f0bf9f007fb897002e
:10486c0060009000581707000080fa000000060056
:10487c000800fa00e0bf9f00e68057006fb8970071
:10488c000d120700c0bf9f004fb897000000e0005a
:10489c00030032004fb89700f0bf9f0013003700a1
:1048ac005fb897000000e0000e003200e40c070037
:1048bc005fb89700600090008000780010c0b300d3
:1048cc00804878005fb89700600090008000eb0093
:1048dc00220c0700e20c07000000eb00f0bf9f0069
:1048ec000200370010102000f0bf9f007fb8970027
:1048fc000080fa00000006000800fa00e0bf9f00ec
:10490c00e68057006fb89700eb110700c0bf9f00ff
:10491c004fb897000000e000030032004fb897003a
:10492c00f0bf9f00180037005fb897000000e00050
:10493c0013003200c20c07005fb8970060009000b3
:10494c00104078000004e00009003a005fb89700be
:10495c0060009000800078000040eb0080487800f8
:10496c005fb89700600090008000eb00fb0b070025
:10497c00bb0c07000000eb00f0bf9f0002003700eb
:10498c0010102000f0bf9f007fb897000080fa0045
:10499c00000006000800fa00e0bf9f00e680570008
:1049ac006fb89700c4110700c0bf9f004fb89700a5
:1049bc000000e000030032004fb89700f0bf9f00ea
:1049cc000f0037005fb897000000e0000a003200cb
:1049dc009b0c07005fb89700600090008000780087
:1049ec000040eb00804878009d0c07000000eb00b5
:1049fc00f0bf9f000200370010102000f0bf9f0096
:104a0c007fb897000080fa00000006000800fa004a
:104a1c00e0bf9f00e68057006fb89700a611070013
:104a2c00c0bf9f004fb897000000e00003003200a9
:104a3c004fb89700f0bf9f00130037005fb8970086
:104a4c000000e0000e0032007d0c07005fb89700fc
:104a5c0060009000104078000004e0000400320078
:104a6c007f0c070010202000f0bf9f0006003700cd
:104a7c007b0c07000000eb00f0bf9f00020037002a
:104a8c0010102000f0bf9f007fb897000080fa0044
:104a9c00000006000800fa00e0bf9f00e680570007
:104aac006fb8970084110700c0bf9f004fb89700e4
:104abc000000e000030032004fb89700f0bf9f00e9
:104acc00130037005fb897000000e0000e003200c2
:104adc005b0c07005fb897006000900010407800f6
:104aec000004e000040032005d0c07001000200000
:104afc00f0bf9f0006003700590c07000000eb00c8
:104b0c00f0bf9f000200370010102000f0bf9f0084
:104b1c007fb897000080fa00000006000a00fa0037
:104b2c00c0bf9f00d1bf9f004fb89700f0bf9f0040
:104b3c00ffb89700e28f50000f0032007fb897004b
:104b4c00e60f500008003200ffb897000100e000ab
:104b5c00010032000e003700dfb8970060682e00ad
:104b6c00800878000d003700dfb89700e0672e0052
:104b7c008008780009003700c0502200b0bf9f00a9
:104b8c005fb89700ea8057000108780003003700ef
:104b9c0020102000e0bf9f00020037008000eb00d7
:104bac00e1bf9f006fb897000080fa00000006007c
:104bbc000800fa0020002000c0bf9f003000200039
:104bcc00e0bf9f00403d2200d0bf9f004059220013
:104bdc00f0bf9f004fb89700dfb897008e0f07000b
:104bec006fb89700ffb897008b0f07000080fa0092
:104bfc00000006000400fa00f0bf9f0040002000f7
:104c0c00db150700e0bf9f006fb897000000e000c5
:104c1c00030032007fb89700efb89700610098004e
:104c2c000080fa00000006000200fa00f0bf9f00ae
:104c3c007fb8970060009000631607000080fa00b0
:104c4c00000006000a00fa00d0bf9f00e1bf9f00e1
:104c5c00e88057005fb8970017110700b0bf9f009e
:104c6c003fb897000000e000030032003fb8970007
:104c7c00f0bf9f00160037004fb897000000e0000f
:104c8c00110032004fb89700600090000000e00067
:104c9c000d003200ea0b07004fb89700600090003f
:104cac00efb89700621207004fb8970060009000b1
:104cbc008000eb00290b0700e90b07000000eb005c
:104ccc00f0bf9f000200370010102000f0bf9f00c3
:104cdc007fb897000080fa00000006000a00fa0076
:104cec00d0bf9f00e1bf9f00e88057005fb89700de
:104cfc00f1100700b0bf9f003fb897000000e00024
:104d0c00030032003fb89700f0bf9f00210037002e
:104d1c004fb897000000e0001c0032004fb897001d
:104d2c00600090000000e00018003200c40b070087
:104d3c004fb8970060009000100078000000e00071
:104d4c0007003a00efb897000000eb0080087800ed
:104d5c00c30b070060002000f0bf9f000d00370060
:104d6c004fb89700600090008000eb00e011070046
:104d7c00800078006fb8970001087800b80b070026
:104d8c000000eb00f0bf9f00020037001010200065
:104d9c00f0bf9f007fb897000080fa00000006006b
:104dac000a00fa00d0bf9f00e1bf9f00e8805700c7
:104dbc005fb89700c0100700b0bf9f003fb89700c6
:104dcc000000e000030032003fb89700f0bf9f00e6
:104ddc00210037004fb897000000e0001c003200a3
:104dec004fb89700600090000000e00018003200ff
:104dfc00930b07004fb897006000900010007800ec
:104e0c000000e00007003a00efb897000000eb004c
:104e1c0080087800920b070060002000f0bf9f0014
:104e2c000d0037004fb89700600090008000eb0039
:104e3c0042120700800078006fb8970001087800d4
:104e4c00870b07000000eb00f0bf9f00020037004b
:104e5c0010102000f0bf9f007fb897000080fa0070
:104e6c00000006000800fa00e0bf9f00e680570033
:104e7c006fb8970090100700c0bf9f004fb8970005
:104e8c000000e000030032004fb89700f0bf9f0015
:104e9c00170037005fb897000000e00012003200e6
:104eac005fb89700600090000000e0000e00320038
:104ebc00630b07005fb8970060009000100078004b
:104ecc000000e00004003200650b070010202000f9
:104edc00f0bf9f0006003700610b07000000eb00dd
:104eec00f0bf9f000200370010102000f0bf9f00a1
:104efc007fb897000080fa00000006000800fa0056
:104f0c00c0bf9f00d1bf9f004fb89700f0bf9f005c
:104f1c007fb89700e20f50000f0032007fb8970067
:104f2c00e70f5000080032007fb897000000e00047
:104f3c00010032000c003700dfb89700206a2e0009
:104f4c00800878000b003700dfb89700c0692e008e
:104f5c008008780007003700dfb89700a0692e00a2
:104f6c00800878000300370020102000e0bf9f006d
:104f7c00020037000000eb00e0bf9f006fb8970005
:104f8c000080fa00000006000400fa004000200037
:104f9c00e0bf9f0040782200f0bf9f006fb89700e1
:104fac00ffb897009c0e07000080fa000000060076
:104fbc000200fa00f0bf9f007fb89700200090001d
:104fcc00800078000100a0007fb8970021009800b5
:104fdc000080fa00000006000200fa00f0bf9f00fb
:104fec000080fa00000006001a00fa00b0bf9f0013
:104ffc00c1bf9f00d2bf9f00e3bf9f00f08057004e
:10500c003fb897002c100700f0b79f007fb09700b7
:10501c000000e000030032007fb09700f0bf9f005b
:10502c00180137000fb897000000e00013013200a0
:10503c00030b070030468000ee8057006fb99700d5
:10504c008d0e0700f0b79f007fb097000000e000c6
:10505c0004003200020b0700ffb09700f1bf9f0065
:10506c0008013700400c2e00e3f20700600220001c
:10507c00bf140700e0b79f006fb097000000e0007e
:10508c0008003a001fb89700d80f0700f40a070071
:10509c00d00e2e00d8f2070020002000f0bf9f0099
:1050ac00f8003700efb0970010002000a00898001f
:1050bc000fb8970060009000800078006fb09700e8
:1050cc00010878001fb89700ec805700fa0f070012
:1050dc00f0b79f007fb097000000e0000a0032009c
:1050ec001fb89700c10f07006fb097003615070067
:1050fc00db0a0700c0102e00bff20700ffb09700bc
:10510c00f1bf9f00df0037002fb89700efb097007a
:10511c0061009800afb897002fb89700200090005e
:10512c000000a000a00098001fb89700af0f070068
:10513c00002020008e140700c0b79f004fb09700ce
:10514c000000e00006003a00c50a070090132e008c
:10515c00a9f2070020002000f0bf9f00c900370013
:10516c00c0152e00a4f207000fb897006000900045
:10517c00cfb09700281607000000e0004c003a0062
:10518c00d0172e009cf207004fb0970015160700a1
:10519c00800078004fb89700808f50003f00360099
:1051ac00cfb0970041c893000081fb0051c8930019
:1051bc000080fb004800dd00020070000002780057
:1051cc0061c893000081fb0071c893000080fb0054
:1051dc004800dd0002007000800278000400be0070
:1051ec000001eb008001eb000fba97006402900005
:1051fc00040a900005002000060020000700200093
:10520c00eaf807006fb2970020029800310298006c
:10521c004202980053029800cfb0970001d093003f
:10522c000081fb0011d093000080fb004800dd00e2
:10523c00020070000002780021d093000081fb0076
:10524c0031d093000080fb004800dd0002007000ac
:10525c00800278000400be000001eb008001eb002e
:10526c000fba970064029000040a90000500200019
:10527c000600200007002000ccf807006fb2970052
:10528c006002980071029800020a9800130a9800b4
:10529c004fb09700cc1407001f0037004fb0970099
:1052ac00c914070081002000f1bf9f007500370072
:1052bc004fb09700c41407006fb297006000b8009d
:1052cc006011b80020029800310298004202980048
:1052dc00530298000fb897006000900040099000ae
:1052ec006fb09700ec0040000fb897006000900082
:1052fc001000780002000100f0b79f007fb097000b
:10530c000000e00004003200550a07007fb097004f
:10531c00f0bf9f005b0037005fb897000000e00013
:10532c0009003200dfb8970060192e0054f2070014
:10533c000000e00004003a00490a07008000eb007e
:10534c00f1bf9f004f0037000000eb00d0b79f006b
:10535c0042003700dfb09700c089200064100700be
:10536c00b0b79f003fb097000000e000380032005b
:10537c005fb897000000e000050032003fb09700d6
:10538c00dfb897003ef207000000e0000300320097
:10539c005fb897000000e0002d003a00a0192e0025
:1053ac0015f207003fb09700e00090006fb0970037
:1053bc00010001000000e0001e003200001b2e0066
:1053cc000df207003fb09700f00090006fb097000f
:1053dc0001000100f0b79f007fb097000000e000d3
:1053ec00040032001e0a0700ffb09700f1bf9f00b7
:1053fc00240037000fb89700600090008000780000
:10540c0010002000e00898000fb897006000900092
:10541c00bfb0970071089800efb097001000200003
:10542c00a00898000e0a07000000eb00f0bf9f00d8
:10543c00140037005fb897000000e0000400320051
:10544c000000eb00d0bf9f000000eb00d0b79f0026
:10545c005fb097000000e800d0b79f00dfb0970066
:10546c00e0448000808f5000baff3900fc0907002f
:10547c00e1302000f1bf9f00020037001010200027
:10548c00f0bf9f007fb897000080fa000000060074
:10549c000a00fa00d0bf9f00e1bf9f00e8805700d0
:1054ac005fb89700040f0700b0bf9f003fb897008c
:1054bc000000e000030032003fb89700f0bf9f00ef
:1054cc001f0037004fb897000000e0001a003200b0
:1054dc00db0907004fb8970060009000600890004f
:1054ec000000e000110032003fb897000000e0001f
:1054fc000a003a004fb897006000900080007800d6
:10550c000000eb00e00898004fb897006000900096
:10551c00800078000000eb00f0089800d00907002c
:10552c003fb89700f0bf9f000500370010302000f7
:10553c00f0bf9f000200370010102000f0bf9f004a
:10554c007fb897000080fa00000006000800fa00ff
:10555c00e0bf9f00e68057006fb89700d60e07009b
:10556c00c0bf9f004fb897000000e000030032005e
:10557c004fb89700f0bf9f00140037005fb897003a
:10558c000000e0000f003200ad0907005fb8970083
:10559c0060009000600890000000e0000300320002
:1055ac0010002000c0bf9f00020037000000eb007d
:1055bc00c0bf9f00aa0907004fb89700f0bf9f001b
:1055cc00020037000000eb00f0bf9f007fb897008f
:1055dc000080fa00000006000400fa00e0bf9f0003
:1055ec00f1bf9f000000eb000080fa0000000600f5
:1055fc000800fa00c0bf9f00d1bf9f00e2bf9f0010
:10560c00f3bf9f000000eb000080fa0000000600d2
:10561c000c00fa00c0bf9f00d1bf9f00e2bf9f00eb
:10562c00501c2e0074f10700ea8057004fb8970009
:10563c00a10e0700a0bf9f002fb897000000e0004c
:10564c00030032002fb89700f0bf9f001300370003
:10565c003fb897000000e0000e0032007809070008
:10566c003fb8970060009000130020006fb99700be
:10567c00dfb897006022b8006033b800c80107009b
:10568c00a0bf9f00760907002fb89700f0bf9f00be
:10569c000200370010102000f0bf9f007fb8970069
:1056ac000080fa00000006000a00fa00d0bf9f003c
:1056bc00e1bf9f00e88057005fb897007e0e07009f
:1056cc00b0bf9f003fb897000000e000030032001d
:1056dc003fb89700f0bf9f002c0037004fb89700e1
:1056ec000000e00027003200550907004fb8970072
:1056fc0060009000400090000000e0001d003200af
:10570c004fb8970060009000400990004fb8970088
:10571c006000900010007800efb8970002000100c4
:10572c00b0bf9f006fb897003002be002003be00d0
:10573c004fb89700600090009010900020119000de
:10574c00b0119000001090000000520081805a00af
:10575c0002015b0083815b006fba9700009abe0068
:10576c000292be003e0907000000eb00f0bf9f0054
:10577c00060037003a09070000312000f0bf9f00f7
:10578c000200370010102000f0bf9f007fb8970078
:10579c000080fa00000006000c00fa00c0bf9f0059
:1057ac00d1bf9f00e2bf9f00ea8057004fb897001f
:1057bc00410e0700a0bf9f002fb897000000e0002b
:1057cc00030032002fb89700f0bf9f001300370082
:1057dc003fb897000000e0000e00320018090700e7
:1057ec003fb8970060009000130020006fb997003d
:1057fc00dfb897006022b8006033b800d70107000b
:10580c00a0bf9f00160907002fb89700f0bf9f009c
:10581c000200370010102000f0bf9f007fb89700e7
:10582c000080fa00000006001e00fa00889fbe00ef
:10583c008a9fbe00c0b79f00d4b79f00e5b79f00fa
:10584c00f6b79f0087bf9f0091bf9f00a0fd2f0060
:10585c000f004000e40040004fb09700160e070008
:10586c00e0af9f006fa897000000e000030032003b
:10587c00efa99700a3bf9f00900037007fa8970067
:10588c000000e0008b003200ed0807007fa89700b5
:10589c0060009000d0af9f005fa897004000900080
:1058ac000000e00004003a00ed0807000031200081
:1058bc00a0bf9f00810037009fb99700b3bf9f0026
:1058cc003fb89700e10f500011003200bfb99700ac
:1058dc00e18f5100040039003fb89700e20f5000ef
:1058ec001e0032006f0037005fb09700efb09700da
:1058fc007fb197008fb997005faa970000129800ac
:10590c00111298002212980033129800650037008b
:10591c005fa8970000129000901290002013900046
:10592c00b01390005fb09700efb097007fb1970075
:10593c008fb997000400400085804800060149009b
:10594c00878149005faa97000012980011129800f5
:10595c002212980033129800520037005fa897006b
:10596c00400990005fa8970010007800a3fd2f005d
:10597c008f814100e680410002000100e0af9f00f2
:10598c006fa897000000e00004003200b408070084
:10599c006fa89700a0bf9f00480037005fb2970028
:1059ac00efb297007fb397008fbb97000fb09700b3
:1059bc009fb097002fb19700bfb197000020e10076
:1059cc0001a8e10002b0e10003b8e1001b003900be
:1059dc005fa8970000149000901490002015900080
:1059ec00b01590000fb297009fb297002fb397009d
:1059fc00bfb397005fb09700efb097007fb19700ef
:105a0c008fb997000000520081805a0002015b00a0
:105a1c0083815b0008004000898048000a0149002e
:105a2c008b8149005faa9700001298001112980010
:105a3c0022129800331298001a0037005fa89700c2
:105a4c00001490009014900020159000b015900058
:105a5c005fb29700efb297007fb397008fbb9700b0
:105a6c000fb097009fb097002fb19700bfb1970070
:105a7c000000520081805a0002015b0083815b00b0
:105a8c000000540081805c0002015d0083815d0098
:105a9c005faa970000129800111298002212980029
:105aac00331298006e0807008001eb00a3bf9f0023
:105abc000200370010102000a0bf9f002fb89700e5
:105acc004f05be004f04be000080fa000000060027
:105adc000800fa00e0bf9f00e68057006fb89700ff
:105aec00750d0700c0bf9f004fb897000000e00085
:105afc00030032004fb89700f0bf9f001200370030
:105b0c005fb897000000e0000d0032004c08070061
:105b1c005fb8970060009000d00890005fb89700c5
:105b2c00600090001000780001000100c0bf9f00d1
:105b3c004b0807004fb89700f0bf9f0002003700da
:105b4c0010102000f0bf9f007fb897000080fa0073
:105b5c00000006000800fa00c0bf9f00d1bf9f00e4
:105b6c004fb89700f0bf9f007fb89700e90f500027
:105b7c000b0032007fb89700ea0f50000c00320087
:105b8c007fb897000000e000010032000c003700e5
:105b9c00dfb89700001f2e00800878000b0037003c
:105bac00dfb89700601e2e008008780007003700d1
:105bbc00dfb89700c01d2e00800878000300370066
:105bcc0020102000e0bf9f00020037000000eb0017
:105bdc00e0bf9f006fb897000080fa00000006003d
:105bec001a00fa00f0b79f00708057000108780087
:105bfc00120098002300980034009800450098008b
:105c0c00560098006700980080022000d811070009
:105c1c00c0b79f004fb097000000e00003003a00af
:105c2c0020002000f0bf9f00330037004fb09700da
:105c3c00e40040007080570006000900b01878009e
:105c4c00e100b100e000b1004fb0970072014000dc
:105c5c00fa805700708050008000780002007800b5
:105c6c001101be000288be0064004000e4804000c8
:105c7c001101be000288be0064004000e4804000b8
:105c8c0011087800ee070700cfb09700808920003c
:105c9c00670e0700f207070000468000f4805700eb
:105cac007fb19700740b0700b0b79f006fb09700df
:105cbc00f6805700000d07005fb09700cfb197003a
:105ccc00630098006fb09700c80c07002245800055
:105cdc004fb09700020878004fb097009000780002
:105cec002fa89700010878000200e80020458800e2
:105cfc000000eb00f0bf9f007fb897000080fa0017
:105d0c00000006000a00fa00d0bf9f00e1bf9f0010
:105d1c00cb0707000000eb00c0bf9f001600370048
:105d2c00cfb8970080892000f10d0700b0bf9f000d
:105d3c003fb897000000e0000c0032003fb897001d
:105d4c00900078005fb89700808f500007003a00f1
:105d5c006fb89700bfb8970001087800c00707001c
:105d6c000000eb00f0bf9f000a0037004fb897000f
:105d7c000000e800c0bf9f00cfb89700c04480006f
:105d8c00808f5000e6ff3900b50707003100200076
:105d9c00f1bf9f007fb897000080fa00000006005a
:105dac001e00fa00a0b79f00b4b79f00c5b79f00b4
:105dbc00d6b79f00e7b79f00f1b79f0082bf9f0047
:105dcc0093bf9f002fb097000000e00003003a0043
:105ddc0070002000f0bf9f005d003700401f2e00b8
:105dec0085ef07002fb09700200090000000e00026
:105dfc00430032002fb09700100890000000e00024
:105e0c003c0032002fb0970010089000e0bf9f00bc
:105e1c001fb897000000e0000a0032002fb0970076
:105e2c00001290009012900020139000b01390007c
:105e3c00a4bf9f00b5bf9f00c6bf9f00d7bf9f00e8
:105e4c00080037003fb09700cfb097005fb19700c4
:105e5c00efb19700a0bf9f00b1bf9f00c2bf9f00d2
:105e6c00d3bf9f002fb09700100078000fb9970098
:105e7c00ffb097002fba9700bfba97004fbb97009f
:105e8c00dfbb9700efb997000300010090b79f00ac
:105e9c001fb297000400e0002b003a001fb89700d7
:105eac000000e000280032002fb097000012900094
:105ebc009012900020139000b01390000fb8970030
:105ecc00010020000200200003002000040040001c
:105edc008580480006014900878149002fb2970050
:105eec000012980011129800221298003312980098
:105efc00150037005000200090b79f0012003700ab
:105f0c002fb09700300090000000e000030032003a
:105f1c005030200090b79f000b0037002fb0970037
:105f2c00500090000000e0000300320070302000b0
:105f3c0090b79f000400370030212e002eef070091
:105f4c008030200090b79f009fb29700f5bf9f0054
:105f5c007fb897000080fa00000006001e00fa00cf
:105f6c00a0b79f00b4b79f00c5b79f00d6b79f00de
:105f7c00e7b79f00f1b79f0082bf9f0093bf9f00c0
:105f8c002fb097000000e00003003a0070002000e2
:105f9c00f0bf9f00590037002fb0970030009000e1
:105fac000000e000430032002fb097001008900072
:105fbc000000e0003c0032002fb097002008900059
:105fcc00e0bf9f001fb897000000e0000a003200fd
:105fdc002fb09700001290009012900020139000a8
:105fec00b0139000a4bf9f00b5bf9f00c6bf9f0019
:105ffc00d7bf9f00080037003fb09700cfb0970085
:10600c005fb19700efb19700a0bf9f00b1bf9f0099
:10601c00c2bf9f00d3bf9f002fb097001000780025
:10602c000fb99700ffb097002fba9700bfba97002f
:10603c004fbb9700dfbb9700efb99700030001003f
:10604c0090b79f001fb297000400e00029003a00af
:10605c001fb897000000e000260032002fb0970018
:10606c00001290009012900020139000b01390003a
:10607c000fb8970001002000020020000300200050
:10608c0004004000858048000601490087814900d2
:10609c002fb297000012980011129800221298004b
:1060ac0033129800130037005000200090b79f0067
:1060bc00100037002fb09700200090000000e00087
:1060cc00030032004030200090b79f0009003700d9
:1060dc002fb09700500090000000e0000300320049
:1060ec007030200090b79f000200370080302000f5
:1060fc0090b79f009fb29700f5bf9f007fb89700a5
:10610c000080fa00000006001000fa0080bf9f001b
:10611c0094bf9f00a5bf9f00b6bf9f00c7bf9f0045
:10612c00d1bf9f00e2bf9f000fb897000000e000b6
:10613c00040032000fb89700100078000000e00057
:10614c0003003a0070002000f0bf9f0014003700dd
:10615c000fb8970020029000b0029000400390000e
:10616c00d00390001fb89700afb897003fb99700c5
:10617c00cfb997000402400085824800060349000d
:10618c00878349000fb89700100078008001eb005e
:10619c006fb99700dfb8970070ff0700f0bf9f0042
:1061ac007fb897000080fa00000006001000fa008b
:1061bc0080bf9f0094bf9f00a5bf9f00b6bf9f00ec
:1061cc00c7bf9f00d1bf9f00e2bf9f0020242e00bd
:1061dc0089ee07000fb89700b000900040019000c6
:1061ec00d001900020009000801f7800f0252e0038
:1061fc00801f78009aee0700e48757000fb89700cd
:10620c000000e000040032000fb897001000780086
:10621c000000e00003003a0070002000f0bf9f0077
:10622c00140037000fb8970020029000b0029000c5
:10623c0040039000d00390001fb89700afb89700b0
:10624c003fb99700cfb997000402400085824800ff
:10625c0006034900878349000fb8970010007800a7
:10626c008001eb006fb99700dfb89700ccfe0700f8
:10627c00f0bf9f007fb897000080fa000000060076
:10628c001000fa006e835700000b78001103980081
:10629c002203980033039800440398005503980098
:1062ac00200220003210070080bf9f000fb897001b
:1062bc000000e00003003a0022002000f2bf9f0023
:1062cc001b0037000fb997006e80570080007800d4
:1062dc00020078001101be000288be00640040007c
:1062ec00e48040001101be000288be006400400042
:1062fc00e48040001101be000288be000fb8970078
:10630c00ec004000f08157007c8051000a0009002d
:10631c00b01878006101b1006001b1008fb897002e
:10632c00c0892000c20c07000000eb00f0bf9f00ea
:10633c007fb897000080fa00000006000400fa0005
:10634c006000b800e0bf9f00f1bf9f005e0c07002b
:10635c000046880000468000e0bf9f0000db220062
:10636c00f0bf9f006fb89700ffb89700aa0907000d
:10637c0079130700b51507000080fa00000006002d
:10638c001800fa0080bf9f0094bf9f00a5bf9f001c
:10639c00b6bf9f00c7bf9f00d1bf9f00e2bf9f0049
:1063ac00614680000fb89700810f500031003a0011
:1063bc000000eb00f0b79f005fb89700e0b79f00bc
:1063cc0026003700b14680007fb09700810f500047
:1063dc0004003d007fb097000000e800f0b79f007c
:1063ec000300370060302000f0bf9f0058003700da
:1063fc00d3f507000004e000f2ff32000000eb00d0
:10640c00f0b79f0020c2bf0066406000e64f50000e
:10641c0008003a0030118000800078006fb09700bf
:10642c00010878006fb097000080e800e0b79f008b
:10643c000700370030118000804078005fb897006b
:10644c00014878005fb897000000e800d0bf9f00bb
:10645c006fb897000000e900e0bf9f006fb897008d
:10646c000000e000e2ff3a000000eb00f0bf9f00ec
:10647c0037003700714680000fb89700810f50002d
:10648c0031003a000000eb00d0b79f005fb89700d6
:10649c00c0b79f0026003700b14680005fb0970060
:1064ac00810f500004003d005fb097000000e80031
:1064bc00d0b79f000300370060302000f0bf9f0072
:1064cc0023003700a1f507000004e000f2ff3200c2
:1064dc000000eb00d0b79f0030c2bf0066406000e8
:1064ec00e64f500008003a00b011800080007800a0
:1064fc004fb09700010878004fb097000080e8007b
:10650c00c0b79f0007003700b011800080407800b2
:10651c005fb89700014878005fb897000000e8006a
:10652c00d0bf9f006fb897000000e900e0bf9f004c
:10653c006fb897000000e000e2ff3a000000eb00ab
:10654c00f0bf9f000200370050002000f0bf9f00fa
:10655c007fb897000080fa00000006001400fa00d3
:10656c0080bf9f0094bf9f00a5bf9f00b6bf9f0038
:10657c00c7bf9f00d1bf9f00e2bf9f006146800054
:10658c000fb89700810f50002c003a005fb89700ad
:10659c00f0b79f0020c2bf0066406000e64f50007d
:1065ac0020003a000d00370023c2bf00624060009b
:1065bc000004e000fcff3a007fb097001000780068
:1065cc00201188007fb097000080e800f0b79f0092
:1065dc006fb897000000e900e0bf9f006fb897000c
:1065ec000000e000f0ff3a001100370023c2bf00aa
:1065fc00624060000004e000fcff3a005fb89700c6
:10660c00104078000080fb00201188005fb89700d4
:10661c000000e800d0bf9f006fb897000000e900b1
:10662c00e0bf9f006fb897000000e000efff3a005a
:10663c000000eb00f0bf9f00320037007146800075
:10664c000fb89700810f50002c003a005fb89700ec
:10665c00e0b79f0030c2bf0066406000e64f5000bc
:10666c0020003a000d00370033c2bf0062406000ca
:10667c000004e000fcff3a006fb0970010007800b7
:10668c00a01188006fb097000080e800e0b79f0071
:10669c006fb897000000e900e0bf9f006fb897004b
:1066ac000000e000f0ff3a001100370033c2bf00d9
:1066bc00624060000004e000fcff3a005fb8970005
:1066cc00104078000080fb00a01188005fb8970094
:1066dc000000e800d0bf9f006fb897000000e900f1
:1066ec00e0bf9f006fb897000000e000efff3a009a
:1066fc000000eb00f0bf9f000200370050002000ac
:10670c00f0bf9f007fb897000080fa0000000600e1
:10671c000800fa00c0bf9f00d1bf9f00e2bf9f00de
:10672c00f3bf9f000000eb000080fa0000000600a1
:10673c001800fa0080622e00f8805700060009004d
:10674c00b0187800e100b100e000b1006a80570099
:10675c00000178006000b8000089be0064014100af
:10676c006000b8000089be00640141000000eb002d
:10677c00000978000000eb00f0b79f00100020002b
:10678c00c0b79f000000eb00e0b79f001000200096
:10679c00d0b79f000000eb0080bf9f00ea8057003d
:1067ac00601c230080087800ea805700402b2300ef
:1067bc0090009800ea805700e0382300a000980071
:1067cc00c08c2000801f78006c8057001001be0028
:1067dc00829fbe00640040001001be00829fbe007c
:1067ec006400400090017800831f7800efa89700a8
:1067fc007fa997008fb197001fb29700afb2970097
:10680c003fb39700cfb3970060632e00f4fc0700f2
:10681c00ec875700e08c2000801f78006c805700bc
:10682c001001be00829fbe00640040001001be003b
:10683c00829fbe006400400090017800831f7800a6
:10684c00efa897007fa997008fb197001fb2970010
:10685c00afb297003fb39700cfb3970020642e00e0
:10686c00dffc0700ec8757000080fa0000000600f0
:10687c000600fa00e48057000001eb000000eb007a
:10688c007d080700d0bf9f005fb897000000e000b4
:10689c0014003a000f81e9006fb897003100200016
:1068ac004a080700d0bf9f005fb897000000e000c7
:1068bc00030032006fb89700cc09070009003700bd
:1068cc007fb89700b00190006fb897000001eb0003
:1068dc00414e230003000100d0bf9f006fb897000a
:1068ec00c20907000080fa00000006000800fa0048
:1068fc00d0bf9f00e1bf9f000000eb00c0bf9f0016
:10690c001b0037004fb897000000e800c0bf9f0085
:10691c004fb89700800078006fb897000080400057
:10692c00104078000004e0000e0032004fb89700d1
:10693c00800078006fb8970000804000104078000d
:10694c00ed4f5000070032004fb8970080007800e0
:10695c006fb897000080400010407800ea4f50005c
:10696c0003003a0010002000f0bf9f001000370019
:10697c004fb89700800078005fb897000080400007
:10698c00104078000081fb004fb897008000780021
:10699c006fb8970000804000104078000000fb00aa
:1069ac00800f5100d7ff32000000eb00f0bf9f00ba
:1069bc007fb897000080fa00000006002200fa0061
:1069cc00d0bf9f007a80570001272e0010000900cd
:1069dc00315878001001b1001101b1007a805700d4
:1069ec00a0b79f000000370055f407000004e0003a
:1069fc00fdff320058f4070090b79f001fb09700be
:106a0c00804078002fb09700014878002fb0970095
:106a1c00104078008040eb00e1ff9f00ea4f5000ef
:106a2c000200320010c0b300e0ff9f002fb09700af
:106a3c000000e800a0b79f00eff897000104e00009
:106a4c000a0032007a805700f00040002fb0970007
:106a5c00808f5000e4ff3e0010282e0066ec0700eb
:106a6c007a805700a0b79f00dfff37007a8057006d
:106a7c00a0b79f0041292e002fb097009bff070065
:106a8c000004e00005003a0091292e002fb0970079
:106a9c0096ff07000004e00003003200d0292e000e
:106aac0055ec07008a00370011302e002fb09700ec
:106abc008eff07000004e00060003200d0302e0092
:106acc004dec07005e0407000000eb0080b79f0050
:106adc00540037008fb0970000852000840a07000f
:106aec00f0af9f00e88057007fa89700520a07007c
:106afc000000e00048003a004fb8970050009000aa
:106b0c000000e000080032004fb8970050009000e1
:106b1c00801f780020322e00801f780050ec070078
:106b2c00e48757000200370080322e0032ec070059
:106b3c007fa8970050009000000178007fa8970074
:106b4c0030009000800178007fa897001000900022
:106b5c00800078007fa8970010007800821f7800d2
:106b6c00831f7800811f7800801f7800a0332e00cf
:106b7c00801f78003aec0700ea8757007fa897003f
:106b8c0070009000e0bf9f006fb89700e20f5000bc
:106b9c0014003200efb89700e28f500007003e005f
:106bac006fb897000000e00017003200efb89700b4
:106bbc00e18f50000e003200150037006fb89700bf
:106bcc00e30f500004003200efb89700e48f500040
:106bdc000a0032000e00370090382e0006ec070039
:106bec000b00370010392e0003ec070008003700ab
:106bfc0080392e0000ec070005003700003a2e000b
:106c0c00fdeb070002003700a03a2e00faeb07005c
:106c1c00203b2e00f8eb07000fb097000000e800b7
:106c2c0080b79f00814280000fb09700808f50008a
:106c3c00a8ff3e000a04070025003700713b2e0018
:106c4c002fb0970029ff07000004e0000900320074
:106c5c00fb030700000020009001880000c020000a
:106c6c00f1ff2f000108bb000188bb000000fe00f3
:106c7c0017003700c13b2e002fb097001bff0700f9
:106c8c000004e000020032000000fe00100037009b
:106c9c00213c2e002fb0970014ff07000004e000e9
:106cac0002003200e603070009003700913c2e0079
:106cbc002fb097000dff07000004e0000200320027
:106ccc00e70307000200370010282e00caeb07006c
:106cdc007a805700000178006000b8000089be007f
:106cec00640141006000b8000089be0064014100ed
:106cfc006000b8000089be00640141006000b8006b
:106d0c000089be0038ff37000600fa00e0bf9f0084
:106d1c00f1bf9f000000eb00d0bf9f00c0dd23003f
:106d2c00800078006fb89700010878006fb8970062
:106d3c000080e800e0bf9f00efb897000000eb0078
:106d4c00800878006fb897000080e800e0bf9f00d3
:106d5c00efb897000000eb00800878006fb8970040
:106d6c000080e800e0bf9f007fb8970080007800ab
:106d7c006fb89700010878006fb897000080e800a2
:106d8c00e0bf9f000000eb00d0bf9f000c0037005d
:106d9c005fb8970021e92d0000004000e0807800ea
:106dac006fb89700010878006fb897000080e80072
:106dbc00e0bf9f005fb897000000e800d0bf9f00c5
:106dcc005fb89700ef0f5000f1ff360021028000f2
:106ddc006fb89700010878006fb897000080e80042
:106dec00e0bf9f0034c0bf008080fb006fb89700ed
:106dfc00010878006fb897000080e800e0bf9f00a2
:106e0c00efb897000000eb00800878006fb897008f
:106e1c000080e800e0bf9f006fb897000080fa0088
:106e2c00000006000400fa0085030700804680007d
:106e3c00210020007100980070002000e0bf9f002e
:106e4c006fb897006600b9008080e80000862000cb
:106e5c0000804000100078000000e0004900320083
:106e6c006fb997006610b90080007800008620008a
:106e7c0000804000100078008001e8006610b90026
:106e8c008000780000862000008040000308780015
:106e9c006fb897006600b90080007800008620006b
:106eac0000804000100178006fb897006600b900b0
:106ebc008080e800008620000080400010007800f0
:106ecc00800f5100070039006fb897006600b900b9
:106edc008000780000862000808040000000eb00dd
:106eec00800878006fb897006600b90080007800c1
:106efc000086200000804000100178006fb89700d9
:106f0c006600b9008080e800008620000080400008
:106f1c0082007800760907006600400090468800e1
:106f2c006fb897006600b9008000780000862000da
:106f3c0000804000100178006fb897006600b9001f
:106f4c008080e800008620000080400082007800ed
:106f5c0067090700804688008146800030002000c9
:106f6c00f0009800804680008f80e900320907000d
:106f7c00ffb8970020eb2d00db0807003803070053
:106f8c00040037006fb897000000e900e0bf9f00d5
:106f9c00abff37000080fa000000060005e1a900f5
:106fac000421a90004c1a9004110200091407800df
:106fbc00f0ccb30000c0600001c2b300014070000f
:106fcc0004e1b7000000eb0000088800007122000b
:106fdc0010088800510a200091407800f0c8b300d6
:106fec0000c060000044a000a5e0b7008460a900c8
:106ffc009460a80005e1a8000000060000ec2d003c
:10700c00fdea07000140fe00fcff37000e00fa000d
:10701c000000eb0090bf9f000000eb00a0bf9f00a2
:10702c0070ec2d00f4ea07006000b800d0bf9f00a0
:10703c00e1bf9f000000eb00d0bf9f0040912300f8
:10704c00e0bf9f005fb89700efb89700720607008b
:10705c0090bf9f001fb897000000e00003003200b3
:10706c001fb89700f0bf9f0069003700ec805700f5
:10707c0032ee2d000000eb007f06070090bf9f0052
:10708c001fb897000000e000030032001fb8970003
:10709c00f0bf9f005e0037006a8157002fb8970041
:1070ac00310020004906070090bf9f001fb89700d1
:1070bc000000e000030032001fb89700f0bf9f00f3
:1070cc00530037003fb89700b00190004180230077
:1070dc002fb897000001eb00030001002fb89700b8
:1070ec00e8805700f4070700cfb8970020eb2d007d
:1070fc003b08070090bf9f001fb897000000e000fe
:10710c00030032001fb89700f0bf9f00400037000b
:10711c002fb89700b5070700ec805700e2ee2d0062
:10712c000000eb005406070090bf9f001fb89700ab
:10713c000000e000030032001fb89700f0bf9f0072
:10714c00330037006a8157002fb8970031002000b8
:10715c001e06070090bf9f001fb897000000e000bc
:10716c00030032001fb89700f0bf9f0028003700c3
:10717c003fb89700b001900061e525002fb897004b
:10718c000001eb00030001002fb8970097070700e0
:10719c0098f20700c0ef2d0097ea07008000eb0083
:1071ac0000852000d2080700660040009046880049
:1071bc007aff070010c0b3005ee8b70019ff0700a4
:1071cc0090468000900778004f007800a04288001d
:1071dc003400f9004400f9003200f9003600f900df
:1071ec004f0778004f06be004f05be004f04be008f
:1071fc004f03be004f02be004f01be004f00be0049
:10720c004200f9000000060010002000f0bf9f00b3
:10721c007fb897000080fa00000006000800fa0012
:10722c00c0bf9f00d1bf9f004fb89700f0bf9f0019
:10723c007fb897000000e000040032007fb8970090
:10724c00e30f50000500320008003700dfb897004c
:10725c0060f22d008008780007003700dfb8970037
:10726c0060f12d008008780003003700201020000a
:10727c00e0bf9f00020037000000eb00e0bf9f0062
:10728c006fb897000080fa00000006000600fa00b4
:10729c00f0bf9f000000eb00e0bf9f0060012000ea
:1072ac00330c0700d0bf9f00650207005fb8970042
:1072bc000000e00003003a0020002000e0bf9f0027
