:020000040000fa
:0418000000000000e4
:020000040000fa
:08000000060c040000000000e2
:020000040000fa
:10180c000f68240080ff2700000188000000000002
:10181c00050007000c000700342202000000000045
:10182c000040da000000fe004440a90000fa21004c
:10183c000000e0000300320010002000a00188002e
:10184c004440a80000000600c0b22800010020009f
:10185c001600370062004000e080480091018800cb
:10186c009001ba0062004000e080480091018800bd
:10187c009002ba0062004000e08048000002eb00d9
:10188c006028e10005003a008301e90007003300fd
:10189c00038009000059eb00040037006128e100c7
:1018ac00010032000082eb00050007009101880066
:1018bc001001ba000200e000e6ff3a00000005004b
:1018cc00910188008002780062004000e0804800ae
:1018dc003559ba008301e900080032002559ba00d5
:1018ec008301e900050032000400e000f4ff32003f
:1018fc0015d9ba008301e900f1ff3a000000060097
:10190c007626040000000000c2260400000000003f
:10191c009224040000000000d22404000000000007
:10192c0010250400000000005825040000000000f1
:10193c00c225040000000000002604000000000086
:10194c003826040000000000682604000000000097
:10195c00b229040000000000262b04000000000047
:10196c00ee29040000000000ae2b04000000000073
:10197c00be27040000000000f8270400000000004f
:10198c0034280400000000008c2804000000000033
:10199c00f02804000000000088270400000000006c
:1019ac00b027040000000000582a040000000000ca
:1019bc009c2a040000000000ea2a04000000000039
:1019cc006a2b040000000000382a0400000000000c
:1019dc004a2a040000000000a42d040000000000ae
:1019ec00582d040000000000482c040000000000ea
:1019fc00942c040000000000f62c040000000000f1
:101a0c00202c0400000000003a2c04000000000010
:101a1c00d0330400000000002e3104000000000050
:101a2c007a31040000000000f231040000000000d4
:101a3c003a320400000000008e3304000000000065
:101a4c001a2e0400000000006e300400000000009c
:101a5c00cc30040000000000123104000000000033
:101a6c001e31040000000000fe2d040000000000e8
:101a7c00122e040000000000e637040000000000f5
:101a8c00d438040000000000ae390400000000004f
:101a9c00f2490400000000002a4504000000000088
:101aac0014440400000000000624040000000000a0
:101abc00f64504000000000026460400000000006b
:101acc006a4604000000000090460400000000007c
:101adc00024704000000000034470400000000002e
:101aec007c47040000000000c64704000000000012
:101afc006245040000000000ea45040000000000fc
:101b0c001c4f040000000000624f040000000000a5
:101b1c00da4e0400000000009c4c040000000000a1
:101b2c00424d040000000000524e04000000000072
:101b3c008e4e0400000000007a4c040000000000ef
:101b4c008e4c040000000000d45b04000000000078
:101b5c000459040000000000a85904000000000013
:101b6c00e059040000000000845a0400000000004a
:101b7c009e5b0400000000003a60040000000000be
:101b8c00ea5c040000000000a45d040000000000fa
:101b9c00105e040000000000bc5e040000000000a9
:101bac00e25f040000000000165c0400000000006e
:101bbc009460040000000000e661040000000000d6
:101bcc0030630400000000004063040000000000cb
:101bdc005e630400000000003c6f04000000000085
:101bec00be720400000000009473040000000000aa
:101bfc00a073040000000000ac730400000000009f
:101c0c00b873040000000000c4730400000000005e
:101c1c00ce73040000000000d87304000000000024
:101c2c00e473040000000000fa73040000000000dc
:101c3c00be790400000000000a7a040000000000d5
:101c4c00567a040000000000667a040000000000d0
:101c5c00a47a0400000000005c0e040000000000e8
:101c6c001c0f040000000000bc1104000000000068
:101c7c000000040000000000a1a82000d201070011
:101c8c000000e00006003500a1a82000a000200004
:101c9c00130207008000eb000000e00001003d0093
:101cac008080eb000100780000000600889fbe00d9
:101cbc008004780001007800020478008901780023
:101ccc0011002000ca000700880f500001003200ec
:101cdc008004eb00090078004f04be0000000600f1
:101cec000000fa004fb99700e8815700a1a8200026
:101cfc00c0e52000200207000080fa00000006006a
:101d0c00040037000204e0000a0032000000e80082
:101d1c008100e80010417800914f5100f9ff32002a
:101d2c000081eb0010407800914f50000400390006
:101d3c00020037000001eb00010037001200200008
:101d4c000200780000000600881f78008a9fbe0001
:101d5c000185b9000a007800071607000004780016
:101d6c000000e000030032000a0178008000eb0064
:101d7c0004000700080078004f05be004f047800ef
:101d8c0000000600800178000200370081597800bd
:101d9c000201e9000200e000fcff3a00000006002e
:101dac0080007800010037000000e8001004e0001b
:101dbc00fdff3a0001005000000006008001780091
:101dcc000001780031407800005978000004e000f0
:101ddc00fcff3a000300780000000600889fbe005c
:101dec0081047800114478000804e00009003a00ee
:101dfc000c0037008001780009017800d24078008f
:101e0c000104e00007003200d3cf1000fbff3200ca
:101e1c000000e8008800fb00900207000000e000d2
:101e2c00f4ff3a004f04be0000000600881f780043
:101e3c000204780014000700080040004f047800ea
:101e4c00000006000000fa00881f780000047800eb
:101e5c003fb99700ea81570080007800c0f120005c
:101e6c00c5010700800078000000e000020035008a
:101e7c000040eb0000f47800010078004f0478007b
:101e8c000080fa0000000600800178000200370094
:101e9c00b15978000201e9000200e000fcff3a00b1
:101eac000000060002027800809fbe0011000900ad
:101ebc008200d800000178004f00be0002a2b900d9
:101ecc008480500011009800020878000000060081
:101edc00010278008000eb0069023700889fbe0089
:101eec008a9fbe008c9fbe00010678008304780098
:101efc000289b90082067800800578000200e000b3
:101f0c0002003a0082007800340037000000240000
:101f1c00190060002f003200020578000400370021
:101f2c00b15d7800f10498000a05e9002300320045
:101f3c00f90090006002200009004000808f5000e2
:101f4c00f7ff3900390890000000e0000300320070
:101f5c00d00498000000eb00b00c9800c900900071
:101f6c0059009000808f500004003900090078005f
:101f7c00ac0207000000e00011003400c900900022
:101f8c005900900001045000880f550001003100e9
:101f9c000a047800080178000b007800baff0700eb
:101fac008885450008055500490090000000440054
:101fbc00c00498000a00e000e2ff3a000005eb00c4
:101fcc000a805600110009000c80d8008000fd002a
:101fdc000200370002057800daff370001007800b4
:101fec004f06be004f05be004f04be0000000600a9
:101ffc00889fbe008a9fbe008c9fbe008e1f7800fb
:10200c008106780083047800000678000288b90005
:10201c00000778000000e00002003a0000017800a0
:10202c00420037000d00e00040003200000578004f
:10203c00c900900069009000808f500004003900a6
:10204c0009007800c40207000000e00029003500f8
:10205c00004020001900600003003a000a047800d8
:10206c00800578000b0037000a017800a1002000e1
:10207c000c007800fb020700800578000000e000ef
:10208c0002003a000a047800020037000c005000ed
:10209c000004e800c90190006900900003005000a2
:1020ac00880f500002003100000478008005eb001e
:1020bc00080178008c0078000300780072ff07009c
:1020cc000806460008055500490090000000440031
:1020dc00c00498000b00e0000400320009007800f6
:1020ec001c0007000000e00002003a000a00e000bb
:1020fc00cfff3a000080200019006000020032007f
:10210c00090078001300070000c0200019006000cf
:10211c000200320049009000e00498000a005700c9
:10212c00110009000d80d800000178000200780031
:10213c004f0778004f06be004f05be004f04be008f
:10214c00000006008000eb00d6020700cf80de0006
:10215c0000000600889fbe00000478000000e0002c
:10216c000e003a00800478008980440020a52000ed
:10217c00610078000000e00004003200f5ff070069
:10218c000000e00001003d000084eb008904e80041
:10219c00e78f540029003c00f3ff370000002200b9
:1021ac001800600024003200a804900008003700da
:1021bc0009015000384090000000fb0089007800b5
:1021cc007d0607000000e00013003400808444000a
:1021dc0048009000808f5400f5ff390028009000d3
:1021ec00400498001801780000c020000000610035
:1021fc0002003200a800900001003700b8009000e7
:10220c0000002400000061000a0032006104980004
:10221c000004eb00090037002800900040049800ef
:10222c0060049800500c98001890a0000084eb00fb
:10223c0002003700510c9800000478000800780068
:10224c004f04be0000000600c01b2100dc0237005a
:10225c00dc4be20003003a00fbff070020c0b30098
:10226c00dcebb70000000600889fbe00000478007d
:10227c00b8ff0700800478000004200018006000fc
:10228c0002003200280090004e1507000000eb0001
:10229c0020049800384090000004e0000500350050
:1022ac000000fb007d0607000000e000010032008a
:1022bc008084eb00181090000000e0000800320051
:1022cc00810607000000e000010032008084eb0072
:1022dc00181090003b1507000000eb00101498003c
:1022ec0000082000180060000f0032008000eb0096
:1022fc000181400023a5200062807900880f5000e6
:10230c00060032008100e800e78f5000f8ff36002d
:10231c00080078002b15070011003700030041005e
:10232c000008eb00faff3700000c780000c0eb004f
:10233c0030449800600220000800400020049800ff
:10234c004004980050049800400c980060049800d9
:10235c00500c98007004980076004400000c980013
:10236c00090078004f04be0000000600881f7800aa
:10237c00780020008800440020a52000610078002f
:10238c000000e00001003200b7ff07000804e9007c
:10239c00f8ff3b004f04780000000600889fbe0049
:1023ac008004780001047800920207000001780094
:1023bc0080c1eb008800780009007800ac020700af
:1023cc004f04be0000000600889fbe008a9fbe001e
:1023dc0000057800810478002d003700c9009000ba
:1023ec0069009000808f50000400390009007800cb
:1023fc00d90107000000e000350035000040200046
:10240c001900600009003200a10020000a007800c9
:10241c00f2020700800578000000e00003003200a3
:10242c000a0050000004e800040037000a0078009d
:10243c005bfe0700000478008005eb00c9019000ea
:10244c006900900003005000880f5000020031001a
:10245c00000478008005eb00080178008a00780001
:10246c000300780088fe070008054500490090002d
:10247c0000004400c00498000b00e000040032008f
:10248c000900780033ff07000000e00010003a005c
:10249c001a04e000d1ff3a0000802000190060000f
:1024ac0004003200090078002aff07000000e00059
:1024bc0007003a0000c0200019006000050032003f
:1024cc0049009000e00498000000eb000100370088
:1024dc000080eb004f05be004f04be00000006005c
:1024ec00889fbe008a1f7800800478000104780061
:1024fc0000457800c100900068009000808f50006b
:10250c000400390008007800930107000000e00087
:10251c0015003500480090000958780040049800d8
:10252c001800780000b8a30004003a0000a8a3002b
:10253c0006003200ea4f550004003a00080078000b
:10254c0004ff07000000e00007003a0000c0200074
:10255c0018006000020032004800900060049800ef
:10256c000a80fb00010037000080eb004f0578006b
:10257c004f04be00000006006200fa00889fbe00f7
:10258c008a9fbe000004be0002057800830078001c
:10259c0060f92f000f0040009b02070088979f00f6
:1025ac0099979f000000eb00a09f9f009a45780030
:1025bc000b80fb000000ea00cf04de0050c2b30029
:1025cc0080cf55000200320009047800010037006a
:1025dc000904e9000800e0000b0034001f9097008c
:1025ec00080178008a0078008f91970003000100a1
:1025fc0090979f000000e000930032002f98970006
:10260c0000004400a09f9f000905450050c2b30084
:10261c0080cf5500040032000b04e000e3ff3a00c9
:10262c002f989700890037000000eb00809f9f00d7
:10263c00f0979f00e0979f00d0979f00c0979f0056
:10264c00b0979f00c09f9f000900370080b7200003
:10265c000080500000004000c1b62000e0807800ef
:10266c004f98970001007000c09f9f000a05e8007a
:10267c001a4478008800fb0080b720007700070020
:10268c00800078000000e000f0ff3a00a0c2b30028
:10269c00804f54000e003a00bf8897000180e9007b
:1026ac00b08f9f0010007800b09f9f000000e000ea
:1026bc0005003d000000ea00b09f9f004f98970076
:1026cc000020a000c09f9f000a05e8001000370002
:1026dc00b19f9f0009003700bf989700f0ff2700bb
:1026ec00808f5000040032006a08b90000004100dd
:1026fc0003004000b09f9f000a05e8001a01fb0090
:10270c0003fd2f0003004100e90f5000f2ff3600db
:10271c00e0c2b3009a4f1000040032000080eb00be
:10272c00909f9f008a0478001c0037008a04e80000
:10273c00a0c2b300994f100007003a00bf88970061
:10274c000180e900b08f9f0010007800909f9f00df
:10275c008a84e800110037000000eb00909f9f0076
:10276c00090037009f989700f0ff2700808f5000da
:10277c00040032006a08b900000041000300400068
:10278c00909f9f008904e8001901fb0003fd2f00b6
:10279c0003004100e90f5000f2ff360019447800a5
:1027ac008800fb0080ea23002c0007000000e000fa
:1027bc0002003a0000447800010037008904e80068
:1027cc00a87f9f0080c6b300804f540004003a00dd
:1027dc00994f14000a003a0066405000060037007a
:1027ec00c0c6b300804f540005003a00994f140046
:1027fc0003003a0065404000a07f9f008904e80078
:10280c000905e800cbfb2f008f8545001901fb0063
:10281c0060f92f000f0040000084e8008b01780065
:10282c008000780008007800fc0107000000e00040
:10283c0005003a008b007800080078003b03070085
:10284c000000e00059ff3d000080eb004f05be008a
:10285c004f04be000080fa000000060004003700a0
:10286c000204e00001003a00000005000000e8004e
:10287c0010417800814f5100f9ff3a00000006002a
:10288c00889fbe008a9fbe008c9fbe008e1f780062
:10289c0000047800810678000205be00040678006a
:1028ac0090007800638060003600320008007800e9
:1028bc0028fe07000000e00032003a000d00e000a6
:1028cc00030032003d014500ad814d000205be0004
:1028dc00e10f56001b003a000000210018006000b8
:1028ec00470032006202200008014100f80090000d
:1028fc0008007800e600070000077800380990000f
:10290c000200e00001003a0058019000c80090005d
:10291c0008007800de000700800478004809900069
:10292c00c800900008007800d90007008900470013
:10293c0000804000cf80de000005550081855d00e1
:10294c002f003700e20f5600050032000c00e000ab
:10295c0009003a00e10f4500e08f4d0009003200fc
:10296c00384090000000fb008c0078000a01be008b
:10297c00e10407000005be00e10f4500e08f4d00ab
:10298c0004003a0030022000805e88000080eb00da
:10299c001f00370000002300180060000c003200fc
:1029ac00a80190004304980053049800430c98002d
:1029bc0063049800530c980060022000080040004b
:1029cc007004980076004400000c98000008eb009e
:1029dc000d00e00006003200648046001001be00cd
:1029ec00620c9800730c9800200090000014980062
:1029fc00f0ef2c00180c60000000eb000400370016
:102a0c00e00f5500e08f5d00d5ff3a00e1ff370085
:102a1c004f0778004f06be004f05be004f04be00a6
:102a2c0000000600889fbe0000047800c0009000e3
:102a3c005000900012002000808f5000430039009d
:102a4c00980078000001eb000188a3003f003a00d9
:102a5c0010002a0000806000e10f500006003200d8
:102a6c00002020000100e0000100350000202400bf
:102a7c00008c70002600370000c020000080600031
:102a8c0014003a00a80490006002200008004000e6
:102a9c00808f54000f003a0000202000b61207006f
:102aac0080007800200498000000e00004003a0048
:102abc00290498000900e80030049800050037004c
:102acc001860a0000020b00030049800410c980061
:102adc00510c980028009000400498005004980075
:102aec0060049800800078003801900000015100cb
:102afc00384090000000fb008f04070000017800b4
:102b0c000000e00004003d0000202400180c7000c0
:102b1c000081eb000d0037000000e00005003a00da
:102b2c009800780001c0a10000102400008c7000f7
:102b3c000600370000002500180c700058009000ab
:102b4c0000004100500498001200200002007800a0
:102b5c004f04be0000000600889fbe0000047800f1
:102b6c00c0019000600090008000eb00808f51004d
:102b7c00390039001801780020002900000061009c
:102b8c00e20f500007003200002020000200e0009d
:102b9c000100350000202400000c71008080eb0047
:102bac002d0037000100260001006100810f50004c
:102bbc0008003a0038009000808f51000500390061
:102bcc000800780063fd07008080eb000000e00047
:102bdc0021003a0000c020001800600017003a00e5
:102bec00a80490006002200008004000808f540070
:102bfc0012003a00002020005f12070080007800cd
:102c0c00200498000000e00005003a002904980018
:102c1c00490498000900e8003004980006003700c9
:102c2c001860a000400498000020b0003004980008
:102c3c00410c9800510c980085fd0700280090006d
:102c4c0050049800380090006004980000002600a2
:102c5c00180c70008000eb00010078004f04be00df
:102c6c00000006000600370090cf100002003a006a
:102c7c0000017800040037000000e8000201e900c0
:102c8c000200e000f8ff3a000200780000000600a5
:102c9c000000eb00828f5000010031000100510058
:102cac0000000600889fbe008a9fbe008c9fbe005d
:102cbc008004780081067800304090000000fb0012
:102ccc00110020006011b8000b0407000005be00c5
:102cdc00990078006380600003003200e10f45002a
:102cec00e08f4d0005003a0030022000805e880025
:102cfc000085eb008085eb002c00370001d8a30089
:102d0c000800320049019000a900900009007800e9
:102d1c00dfff0700cf80de000a0540008b854800ee
:102d2c001900370001c8a30017003200620220000e
:102d3c0009014100f900900009007800d4ff070058
:102d4c0000067800390990000200e00001003a000a
:102d5c00590190004904900088007800090078001f
:102d6c00cbff070000064600490990008800780058
:102d7c0009007800c6ff070000004600cf80de0087
:102d8c000005550081855d000d00e0000700320054
:102d9c008a9ebe0069099000f9099000828ebe00df
:102dac0089149000a90698006055b8000a00be006e
:102dbc004f06be004f05be004f04be0000000600cb
:102dcc0000017800000020000000e0000800320044
:102ddc00000080000000e000050032000000e90067
:102dec0000008800000040000100800002b0780064
:102dfc0000000600889fbe008a1f78000004eb00cc
:102e0c00880444002aa52000e9007d000100e000b0
:102e1c000a003a0080022000d711070080007800d9
:102e2c000000e0000e00320080347d00000820001d
:102e3c0080087800a8409800090037001100e000d5
:102e4c0003003a00f0f72f008008780004003700e8
:102e5c000804e800e70f5400e9ff36008000eb009f
:102e6c00010078004f0578004f04be0000000600fa
:102e7c00889fbe008a1f7800000578000102780048
:102e8c00020478000200e00050003200000820002c
:102e9c00920260002240900021b220001300090031
:102eac00311978008202b1002041980060022000a4
:102ebc000200400020019800400198005001980049
:102ecc004009980060019800500998007001980022
:102edc007600410000099800944078001200200010
:102eec0020c7b30080cf500009003200a20120009f
:102efc006540400080cf5000050032006201200088
:102f0c007640500080cf5000010032000001eb00f1
:102f1c0002807200000c7800e30460000f003a009d
:102f2c0008007800d0fc070009047800270037005f
:102f3c00180078000058a3000f003a000050a000c1
:102f4c00000c780005003700980078006380600062
:102f5c00e30f500008003200638c7000d4407800fe
:102f6c0020c6b30080cf5000f1ff3200b0c2b300d6
:102f7c0080cf5000f4ff32000a00e0000b0032005a
:102f8c0004017800980078000a00780037020700e6
:102f9c00304498000004e0000b003d00080078006d
:102fac00b1fc07000004eb00080037000304e0004c
:102fbc0004003d0008007800abfc07000a04780010
:102fcc000200370033449800a1fc07000800780089
:102fdc004f0578004f04be00000006008001eb0096
:102fec0010417800814f510001003a0080017800b7
:102ffc000204e000020032000000e800f8ff370095
:10300c0003007800000006000200fa00f1bf9f00e8
:10301c00010878000080fa0000000600889fbe00be
:10302c008a1f78000004780001027800824478003e
:10303c0003057800e0c6b300804f5100d300320086
:10304c0015003c006b405000804f510024003200b2
:10305c000a003c0070405000804f510010013200bb
:10306c0065404000804f51007400320050c2b300e4
:10307c00804f510021013a001d01370040c6b300ba
:10308c00804f51001b00320065404000804f5100c2
:10309c001a013a001700370030c7b300804f5100b7
:1030ac00ff00320007003c0064405000804f51008c
:1030bc00620032000040e800804f51000f013a00de
:1030cc00e800370050c7b300804f51005b0032005e
:1030dc0063404000804f510008013a005700370010
:1030ec009180e900010a78007800900091717800d5
:1030fc0008013700a8609000c0c6b30080cf500014
:10310c000a003a009400780064805000000a7800ad
:10311c001000be004f89de00cf91de000002be0021
:10312c0002037800820378001300370010c7b30045
:10313c0080cf500003003200a0c6b30080cf5000f7
:10314c0006003a009400780068805000000a78006d
:10315c003002be002003be00070037001480e900d7
:10316c00000a78001000780000027800cfa2de0080
:10317c000503780086037800049cbe000694be000c
:10318c00a860900080c6b30080cf50000e003200c3
:10319c0020c6b30080cf500005003a000400fb00ad
:1031ac00cf80de0001017800820178000a00370030
:1031bc0040c7b30080cf500003003200664040008f
:1031cc0080cf500006003a0004007800cf80de006b
:1031dc000101780082017800009cbe000294be00c0
:1031ec003800be002801be00e00f5000e08f5800f0
:1031fc00e00f5900e08f590003003d00780090006b
:10320c00d1c2b3000a003700081090000018a300c8
:10321c000300320078009000b1c2b3000400370004
:10322c000008a300540032007800900001c2b300e3
:10323c00017578000000e8004e003700a86090008f
:10324c00c0c6b30080cf500007003a00940078004d
:10325c0064805000000a78001002be000003eb00ee
:10326c00860378001300370010c7b30080cf5000de
:10327c0003003200a0c6b30080cf500006003a0015
:10328c009400780068805000000a78003002be007c
:10329c002003be00070037001480e900000a780004
:1032ac0010007800000278000500200006002000c5
:1032bc0007002000049cbe000694be00a86090008d
:1032cc0080c6b30080cf50000e00320020c6b30081
:1032dc0080cf500005003a000480fb000100200064
:1032ec0002002000030020000a00370040c7b30092
:1032fc0080cf5000030032006640400080cf500069
:10330c0006003a00040078000100200002002000b2
:10331c0003002000009cbe000294be000810900028
:10332c000038a300140032003800be002801be0093
:10333c00e00f5000e08f5800e00f5900e08f59006b
:10334c000d00320080c7b30080cf54000300320060
:10335c0080c5b30080cf540007003a00780090007d
:10336c0001c3b300017578008000e80009f578000e
:10337c000080e80070049800780090000000450080
:10338c00600498008940780042003700a8609000e3
:10339c00c0c6b30080cf5000250032000a003c00ac
:1033ac006440500080cf50002800320000c0e8007c
:1033bc0080cf5000140032006840500080cf500085
:1033cc0022003a000a00370040c7b30080cf5000fb
:1033dc001e0032006640400080cf50001b003200bf
:1033ec006940500080cf500018003a0006003700aa
:1033fc001480e900000a780010007800485c900006
:10340c0008487800450037001480e900000a78006d
:10341c001002780068089000cf80de00010178006f
:10342c0082017800009abe000292be003b00370079
:10343c001480e900000a78001001780068089000f8
:10344c00cf80de000089be00340037001480e90014
:10345c00000a780010007800680c900008087800ca
:10346c002e0037001180e9008008780010007800e9
:10347c00cf80de000101780082017800009cbe0044
:10348c000294be0078009000000045006004980093
:10349c0081c7b300080078000e0107001f00370039
:1034ac001480e900000a780010007800600498008d
:1034bc00580990000200e00002003d0038fa0700b5
:1034cc00090037008000eb00e6fd07008000780063
:1034dc000000e00003003200680090000080500003
:1034ec000100370058089000100c98000b003700b2
:1034fc007800900002757800060037007800900084
:10350c00800045000904e00001003a0059c2b300f4
:10351c00894878000000e800700498000000eb0077
:10352c004f0578004f04be00000006000400fa00ae
:10353c00889fbe008a9fbe008c1f78000004780014
:10354c000106780070089000f8009000010050000f
:10355c00880890000100500098089000010050006d
:10356c00a808900001005000b8089000010050001d
:10357c00c8089000810550000002220090bf9f00f7
:10358c0000032300a0bf9f00081090000028a30098
:10359c0018003a000b00e000160034008b04780091
:1035ac0009057800e28f5400020036002a00200042
:1035bc00020037000900e0000b00340058009000b6
:1035cc00c80190000a017800ee805700030001004a
:1035dc00500498000000e00096003200680890004b
:1035ec0000004500600c98008a8454004240a900f9
:1035fc00ebff3c00780190000200e0000b0034006f
:10360c0058009000c80190008c0078000300010065
:10361c00500498000000e00086003200680890001a
:10362c00f800900001004000600c9800880c90009d
:10363c000900e0001500340009057800e28f540001
:10364c00020036002a002000020037000900e000ca
:10365c000b00340058009000c80190000a0178005b
:10366c00ec80570003000100500498000000e000bb
:10367c00700032006808900000004500600c980053
:10368c008a8454004240a900ebff3c0018099000ca
:10369c000200e0000b003400e8009000580090009d
:1036ac00c801900003000100500498000000e000e5
:1036bc0060003200680890009808900001004000fb
:1036cc00600c9800a80c90000900e0001500340074
:1036dc0009057800e28f5400020036002a00200011
:1036ec00020037000900e0000b0034005800900085
:1036fc00c80190000a017800ec805700030001001b
:10370c00500498000000e0004a0032006808900065
:10371c0000004500600c98008a8454004240a900c7
:10372c00ebff3c00380990000200e0000d00340073
:10373c00e80090001808900080804000580090002d
:10374c00c801900003000100500498000000e00044
:10375c003800320068089000b80890000100400062
:10376c00600c9800c80c90000900e00015003400b3
:10377c0009057800e28f5400020036002a00200070
:10378c00020037000900e0000b00340058009000e4
:10379c00c80190000a017800ec805700030001007a
:1037ac00500498000000e0002200320068089000ed
:1037bc0000004500600c98008a8454004240a90027
:1037cc00ebff3c00081090000028a3001b00320007
:1037dc000b00e000190034008b0478000905780018
:1037ec00e28f5400020036002a002000020037004d
:1037fc000900e0000b00340058009000c801900054
:10380c000a017800ee805700030001005004980074
:10381c000000e0000700320068089000000045003e
:10382c00600c98008a8454004240a90003003400c4
:10383c00eaff37000080eb00010037000000eb00ce
:10384c004f0678004f05be004f04be000080fa0002
:10385c0000000600705e80000000e00001003200f5
:10386c000000010000bd200000000600800178006f
:10387c0001017800638060000000400061bb200003
:10388c00e08078000228a300010032000130a00083
:10389c000238a300010032000190a0000248a300ee
:1038ac00010032000180a0000258a3000300320086
:1038bc0000002800808070000100370001e0a000ab
:1038cc0002182000030078005b0107000000fb00d9
:1038dc0000000600ef02b000889fbe008a9fbe0069
:1038ec008c9fbe008e1f780080067800000120009f
:1038fc00b0b79f00b2b52000c2b79f0080c5b3001f
:10390c0080cf50000e00320083002000b3b79f0020
:10391c00a4b42000c4b79f007740400080cf500073
:10392c000700320000012000b0b79f0080c7b30031
:10393c0080cf500002003200a2002000b2b79f00de
:10394c003d04be002d05be0040c6b30080cf500024
:10395c00030032006540400080cf50000b003a005d
:10396c00e00f5400e08f5c00e00f5d00e08f5d0025
:10397c0006003d006000b8006011b800080450005b
:10398c00898458000a0559008b855900e00f5400b2
:10399c00e08f5c00e00f5d00e08f5d0004003a00fa
:1039ac005d0890008e0120000000e0000c00320049
:1039bc00bfb1970003027800cfa2de0005037800a8
:1039cc00860378000800be000a01be001902070039
:1039dc004fb2970064407800d0df9f007e0120003a
:1039ec003fb0970000027800cfa2de0005037800fc
:1039fc00860378000800be000a01be00060207001c
:103a0c0023003700bfb0970001047800cfc4de005c
:103a1c00090578008a0578000802be000a03be007a
:103a2c007fa897008fb097001fb19700afb1970098
:103a3c0004020700d0b79f00e1b79f00f2b79f00c8
:103a4c0083bf9f000e07e90062fc2f000f014100ad
:103a5c000e0641000802be000a03be005fb09700cc
:103a6c00efb097007fb197008fb997000501070061
:103a7c007faa970000005200cfb09700614e7800eb
:103a8c005fb09700efb097007fb197008fb99700a8
:103a9c00809ebe008296be003d00be002d01be0081
:103aac00f0af9f0081b79f0092b79f00a3b79f0014
:103abc00e00f5000e08f5800e00f5900e08f5900e4
:103acc00020034000e00e000ceff3c00bfb09700b7
:103adc00e88f500010003a000d1090000038a30041
:103aec000d003200f70f570006003e0062fc2f005d
:103afc000f0141008e00410000c3b300914f100034
:103b0c00050032000e07e90000c3b30063fc2f0070
:103b1c008f81410080717f0078011700920e980010
:103b2c006d00900063fc2f008f8141008e8041005e
:103b3c00d5f807001d0990005d089000800f51001a
:103b4c0006003d0002005000800e98000d10900001
:103b5c000040a100801698000f0037000000e00024
:103b6c000d003d000d10900074006000f00f50002f
:103b7c0009003a007d089000fd0090000100500003
:103b8c008d08900001005000020050004240a90036
:103b9c0001003400800e98004f0778004f06be00dd
:103bac004f05be004f04be00ef02b100000006003e
:103bbc0000c0da00000006000a00fa00800178005c
:103bcc0081027800e20f500027003e00f05e80007a
:103bdc00e10f500008003200802320000000e000bc
:103bec00050032000323200024232000462320005c
:103bfc0080007800040037000322200024222000db
:103c0c004622200081222000134090000004e00096
:103c1c00040035008008eb00134090000070a000f9
:103c2c0090419800144090000028a30003003a0033
:103c3c00144090000020a0001042980082007800f0
:103c4c0006003700144090000008a300fdff32006e
:103c5c003500fb00000b78008100e9000100e0005a
:103c6c00f8ff3a00080037006a8057003100200046
:103c7c00b1bf9f00c3bf9f00d5bf9f00e2bf9f0095
:103c8c00cbff07006fb99700020078000080fa00a4
:103c9c000000060000c0da00000006000a00fa006e
:103cac0011002000b1bf9f00c0bf9f006a80570069
:103cbc00f8ff07004fb897000080fa0000000600dc
:103ccc0000c0da00000006000a00fa00800078004c
:103cdc006a80570052002000b2bf9f00c1bf9f00f6
:103cec00f7ff07005fb897000080fa00000006009d
:103cfc0000c0da00000006000a00fa00800278001a
:103d0c006a80570044002000b4bf9f00c5bf9f00cd
:103d1c00d2bf9f00e3bf9f00f1bf9f00f4ff0700dd
:103d2c005fb89700efb897000080fa00000006001b
:103d3c0000c0da00000006000a00fa0080017800da
:103d4c0081027800020378000000e0002e003a00a7
:103d5c0090528000204090000004e0002a003a00bd
:103d6c00f05e8000e10f500008003200802320003c
:103d7c000000e00005003200032320002423200073
:103d8c006723200080007800040037000322200005
:103d9c002422200067222000812220001340900062
:103dac000004e000040035008008eb001340900094
:103dbc000070a00090419800060178000c003700bc
:103dcc008100e9009441780061c0610002003a0072
:103ddc000100e000faff3a009440780061c06000f6
:103dec000700320017007800805a78000201e900c1
:103dfc000200e00002003200010a2000f1ff37004f
:103e0c0002005300080037006a8057002100200090
:103e1c00b1bf9f00c3bf9f00d5bf9f00e6bf9f00ef
:103e2c00c3ff07006fb897000080fa00000006007f
:103e3c0000c0da00000006000a00fa0080017800d9
:103e4c006a8057000002eb00b4bf9f00c3bf9f0005
:103e5c00d1bf9f00e2bf9f008080eb00f1bf9f00ad
:103e6c00f3ff0700ffb89700e18f400002003a0013
:103e7c0050022000805e8800010078000080fa006b
:103e8c0000000600889fbe008a9fbe008c1f780031
:103e9c000205be000004be000006eb00e00f50005f
:103eac00e08f5800e00f5900e08f590007003d00eb
:103ebc006000b8006011b8000804500089845800f4
:103ecc000a0559008b8559001c002000e00f520098
:103edc00e08f5a00e00f5b00e08f5b0002003d00ba
:103eec000f0007000c00a2000800be000a01be0073
:103efc00250007000203be000002be000c00e0001b
:103f0c0001003200060007000400be000601be00de
:103f1c004f0678004f05be004f04be00000006009f
:103f2c006000b8006011b80004025000858258008f
:103f3c000603590087835900000006006022b80070
:103f4c00060220000000d0008180d2000482d20042
:103f5c008582d2000000a0000202520083825a0027
:103f6c00030031000202420083824a000000a100db
:103f7c000603e900f3ff3a0000000600efff07001c
:103f8c000400be0000000600889fbe008a9fbe0091
:103f9c008c9fbe000404b8000506b80089044600d6
:103fac0060854e000606b8000a054600e0854e0006
:103fbc000706b8008b054600040eb80089044600bd
:103fcc000a854e00e0854d00050eb8000a05460036
:103fdc008b854e00060eb8008b0546000416b80003
:103fec000a0546008b854e000516b8008b05460069
:103ffc00041eb8008b0546000800be000a01be0076
:10400c004f06be004f05be004f04be000000060068
:10401c00881f7800000478005001be004000be00ec
:10402c000400400085804800060149008781490052
:10403c00009cbe000294be000400e1000588e10073
:10404c000690e1000798e10002003100680044008e
:10405c001008e8004f047800000006001000fa0079
:10406c00889fbe008a9fbe003004be002005be00a3
:10407c00c8b79f00d9b79f00eab79f00fbb79f0056
:10408c000404540085845c0006055d0087855d0092
:10409c0088bf9f0099bf9f00aabf9f00bbbf9f0016
:1040ac000898be000a98be008000eb004fb4970041
:1040bc00dfb497006fb59700ffb597000440e1009f
:1040cc0005c8e10006d0e10007d8e100010031008d
:1040dc0011002000108810004f05be004f04be00d8
:1040ec000080fa00000006001200fa00889fbe0053
:1040fc008a9fbe008c1f78000205be000004be0023
:10410c00f4b79f0085bf9f0096bf9f00a7bf9f007d
:10411c000000eb00e0b79f00d0b79f00c0b79f0036
:10412c00b0b79f00a0b79f0000067800dfb09700e3
:10413c006fb09700000140000000e0000a003d0055
:10414c008c00070001003d001200200092000700c7
:10415c0001003d0012002000970007007c805700f2
:10416c00abff0700090037008200070001003d008b
:10417c00120020008800070001003d001200200002
:10418c008d0007007c805700b4ff07006fb29700ca
:10419c000400e000070035001000200001002000a2
:1041ac006011b80008047000898470000a05710061
:1041bc008b8571000c06e800f0032000800f560080
:1041cc00daff34000400e00006003d007fb29700e7
:1041dc008fba97001fbb9700afbb97007c8057002e
:1041ec008bff07006fa897000000e00004003a0066
:1041fc002fb49700bfb497004fb59700dfb5970069
:10420c00890007004f0678004f05be004f04be0022
:10421c000080fa0000000600881f780018002000bb
:10422c00881f7800b0ff07008f87e9004f047800e3
:10423c0000000600801feb00abff07008f87e90032
:10424c0000000600889fbe008a9fbe008c1f78006d
:10425c006e00070005003d002f00070007003d0021
:10426c003d0007000006eb00040037003f0007008c
:10427c0002003d00300007001c0020006a0007000f
:10428c00e5ff07000203be000002be000c00e000c8
:10429c0001003200280007000400be000601be0029
:1042ac004f0678004f05be004f04be00000006000c
:1042bc00889fbe008a9fbe008c1f780053000700a9
:1042cc0003003d001400070006003d000400370009
:1042dc002600070003003d006000b8006011b80024
:1042ec001d00070050000700d2ff07000203be00ac
:1042fc000002be000c00e000010032000e000700be
:10430c000400be000601be004f0678004f05be003b
:10431c004f04be00000006006000b8006011b80039
:10432c0008045000898458000a0559008b855900ef
:10433c001c002000030037006000b8006011b800ba
:10434c0005003700e00f5200e08f5a00e00f5b00d1
:10435c00e08f5b00000006000402500085825800cc
:10436c000603590087835900000006000006eb0085
:10437c00f4ff37004f08de0000007100c0b79f004b
:10438c0001804000b0b79f000001eb00afb0970078
:10439c000100e0000000060002007000b0b79f00b2
:1043ac0001804000a0b79f000001eb009fb0970078
:1043bc000100e0000000060002007000a0b79f00a2
:1043cc00018040000fb29700cf20de00010070008a
:1043dc0090b79f0004024200130007004f18de0044
:1043ec000002720084b79f000804440089844c00ca
:1043fc000a054d008b854d005fb29700efb2970018
:10440c007fb397008fbb9700000006000205be002b
:10441c000004be00e00f5000e08f5800e00f590080
:10442c00e08f5900000006000800be000a01be0023
:10443c00000006004211880000118800111188004c
:10444c000000060022c2bf006100600000000600f0
:10445c0032c2bf0061006000000006000000fa00dc
:10446c00f70007000080fa00000006000000fa00c8
:10447c0066020700db040700d3050700bf0a07002c
:10448c00bb0b0700a12007003a2607003f2c0700b2
:10449c000080fa00000006000000fa000080fa001c
:1044ac00000006001000fa0000202000320c07006b
:1044bc00000f78001e00e00003003a00e0ea2a003a
:1044cc00edf5070061003700e4004700f0ec2a002e
:1044dc00110e0700100798001e0090000000e0006d
:1044ec005a003a006c0147002e009000a1002000f9
:1044fc00430d0700100798001e0090000000e0001c
:10450c0052003a00e6004700b0ed2a00020e070008
:10451c00100798001e0090000000e0000700320019
:10452c001e009000801f780070ee2a00801f78001b
:10453c00ebf50700e4875700440037006a01470099
:10454c003e009000910020002d0d070010079800f0
:10455c001e0090000000e000070032001e009000da
:10456c00801f780090f02a00801f7800dcf507008f
:10457c00e4875700350037005e0090001002780089
:10458c003e009000d3f22a0052f32a008000eb0088
:10459c0004000100100798001e0090000000e000cd
:1045ac00070032001e009000801f780090f32a0054
:1045bc00801f7800caf50700e487570023003700f6
:1045cc003e009000970e0700e800470060f52a00b7
:1045dc00d10d0700100798001e0090000000e000ad
:1045ec00070032001e009000801f780090f62a0011
:1045fc00801f7800baf50700e487570013003700d6
:10460c006e0147004e009000a1002000fc0c07003a
:10461c00100798001e0090000000e0000700320018
:10462c001e009000801f7800b0f82a00801f7800d0
:10463c00abf50700e4875700040037004e009000ec
:10464c00780e07002e009000760e07000080fa000e
:10465c00000006001800fa0000202000c60b07001e
:10466c0020079800ea004700f0ec2a00aa0d07008a
:10467c00300798003e0090000000e0005e003a0019
:10468c006e0147005e009000a1002000dc0c0700ca
:10469c00300798003e0090000000e00056003a0001
:1046ac00e8004700b0ed2a009b0d0700300798008a
:1046bc003e009000801f7800f0fa2a00801f7800de
:1046cc0087f50700e48757006c0147004e00900007
:1046dc00a1002000ca0c070030079800be00900013
:1046ec00811f7800d0fc2a00801f78007cf5070021
:1046fc00e48757006e009000100190004e0090006f
:10470c00f000470002000100300798003e009000c6
:10471c000000e000070032003e009000801f78008f
:10472c00d0fe2a00801f78006df50700e487570043
:10473c000a0037000e0890009e0890002e09900089
:10474c00be099000809fbe00829fbe0020012b00fe
:10475c00801f780062f50700ea8757006000b800f8
:10476c00008fbe001b003700c0032b0042f5070072
:10477c006e009000900178004e0090000220200006
:10478c00ae0090000300010030079800be009000be
:10479c00811f780010052b00801f780050f5070052
:1047ac00e48757007e009000a00190005e0090000e
:1047bc0002202000ae0090000300010000072b0037
:1047cc002df5070010002000010020001e0f4000f6
:1047dc005e9748004000200001002000be0f100032
:1047ec00ae8f1800e0ff34005e0090000d0e070045
:1047fc004e0090000b0e07000080fa00000006002f
:10480c000000fa00a0092b001bf5070025ff07008c
:10481c00592b0700800e2b0017f50700e05c800079
:10482c00801f7800e0132b00801f78002cf5070008
:10483c00e4875700ffff3700010007000000060067
:10484c000200fa000080eb00601b8800601b8000f7
:10485c006019880060198000501988008220a80017
:10486c00aec0bf007040b300aee0b7008680a900b8
:10487c009680a80042012000014020000000280082
:10488c00ecfe070080152b00fbf40700905e800007
:10489c00800078000000e800905e8800811f78009e
:1048ac0050172b00801f78000df50700e487570088
:1048bc00eefe0700dd0f0700f0bf9f007fb89700ea
:1048cc00801f780080182b00801f780004f50700eb
:1048dc00e4875700ffff37004c010700c1030700b6
:1048ec00b9040700a5090700a10a0700000006008b
:1048fc00be15070000000600000020009001880093
:10490c0000c02000f1ff2f000108bb000188bb0094
:10491c000000fe00004006000c00fa00c0bf9f0023
:10492c00d2bf9f00e3bf9f000000eb00a0bf9f0021
:10493c00ea8057004fb89700ed0d0700a0bf9f000d
:10494c002fb897000000e000030032002fb9970049
:10495c00f2bf9f000d0037003fb897000000e00049
:10496c00080032003fb89700600090005fb99700d4
:10497c00efb997000288be008001eb00f3bf9f00e7
:10498c000200370010102000f0bf9f007fb8970086
:10499c000080fa00000006000a00fa00d0bf9f0059
:1049ac000000eb00b0bf9f00e88057005fb8970095
:1049bc00cf0d0700b0bf9f003fb897000000e0008c
:1049cc00040032006011b800e2bf9f00f3bf9f00eb
:1049dc000c0037004fb897000000e00006003200d2
:1049ec004fb89700600090001001be00e2bf9f001e
:1049fc00f3bf9f00030037006000b800e0bf9f00ca
:104a0c00f1bf9f006fb89700ffb897000080fa00c5
:104a1c00000006000800fa00e0bf9f000000eb0059
:104a2c00c0bf9f00e68057006fb89700b00d07001d
:104a3c00c0bf9f004fb897000000e0000300320099
:104a4c004fb89700f0bf9f00130037005fb8970076
:104a5c000000e0000e003200841207005fb89700df
:104a6c00e0009000e0bb2000fd1507005fb8970048
:104a7c00600090008000780010c0b300804898005f
:104a8c00821207000000eb00f0bf9f00020037000d
:104a9c0010102000f0bf9f007fb897000080fa0034
:104aac00000006000a00fa00e0bf9f000000eb00c7
:104abc00c0bf9f00e68057006fb897008c0d0700b1
:104acc00c0bf9f004fb897000000e0000300320009
:104adc004fb89700f0bf9f00240037005fb89700d5
:104aec000000e0001f003200601207000000eb0025
:104afc00b0bf9f000e003700bfb89700e0bb20008e
:104b0c0087150700800078005fb897006000900060
:104b1c00808f500003003a00bfb89700e0bb200024
:104b2c00121607003fb897000000e800b0bf9f00c6
:104b3c00bfb89700f05d8000808f5000eeff390009
:104b4c005fb8970060009000800078000040eb0098
:104b5c00804898004d1207000000eb00f0bf9f004a
:104b6c000200370010102000f0bf9f007fb89700a4
:104b7c000080fa00000006000800fa00e0bf9f0069
:104b8c000000eb00c0bf9f00e68057006fb8970095
:104b9c00570d0700c0bf9f004fb897000000e00002
:104bac00030032004fb89700f0bf9f000e00370093
:104bbc005fb897000000e000090032005fb8970072
:104bcc0060009000000178006000b800200198009f
:104bdc00310198000000eb00f0bf9f00020037008d
:104bec0010102000f0bf9f007fb897000080fa00e3
:104bfc00000006000800fa00e0bf9f000000eb0078
:104c0c00c0bf9f00e68057006fb89700380d0700b3
:104c1c00c0bf9f004fb897000000e00003003200b7
:104c2c004fb89700f0bf9f000b0037005fb897009c
:104c3c000000e000060032005fb8970060009000b2
:104c4c00004890000080fb00f0bf9f00020037007e
:104c5c000000eb00f0bf9f007fb897000080fa00c7
:104c6c00000006000400fa00f0bf9f00e0002000e6
:104c7c00410a0700e0bf9f006fb897000000e000fa
:104c8c000e0032007fb89700efb8970061009800d3
:104c9c006fb9970000242400f10020000089be00a9
:104cac006fb997006000b80020019800310198009e
:104cbc00efb897000040eb00804898000080fa00a5
:104ccc00000006000200fa00f0bf9f007fb89700ba
:104cdc0060009000bb0a07000080fa00000006008c
:104cec000800fa00e0bf9f000000eb00c0bf9f006f
:104cfc00e68057006fb89700fd0c0700c0bf9f00ff
:104d0c004fb897000000e000030032004fb8970046
:104d1c00f0bf9f00150037005fb897000000e0005f
:104d2c00100032005fb897006000900000489000bf
:104d3c000004e00003003a0010202000f0bf9f00a8
:104d4c000a003700315e80005fb897006000900069
:104d5c006a004000421507000000eb00f0bf9f0006
:104d6c000200370010102000f0bf9f007fb89700a2
:104d7c000080fa00000006000a00fa00c0bf9f0085
:104d8c00d1bf9f004fb89700f0bf9f00ffb89700ae
:104d9c00e28f50000f0032007fb89700e40f5000f4
:104dac0008003200ffb897000100e000010032005b
:104dbc000e003700dfb89700c01d2b00800878006c
:104dcc000d003700dfb89700001d2b00800878001d
:104ddc000900370060672200b0bf9f005fb89700e2
:104dec00ea805700010878000300370020102000eb
:104dfc00e0bf9f00020037008000eb00e1bf9f0086
:104e0c006fb897000080fa00000006000400fa005a
:104e1c006000b800e0bf9f00f1bf9f0010002000b1
:104e2c00e0bf9f00206c2200f0bf9f006fb897007e
:104e3c00ffb89700050b07000080fa000000060081
:104e4c000400fa000000eb00f0bf9f0027003700c1
:104e5c00ffb89700e0bb2000b1140700e0bf9f0033
:104e6c006fb89700b00090002000900061004000e7
:104e7c00e08048006fb9970020019800310198003c
:104e8c006fb8970020019000b00190006fb89700a8
:104e9c001000be00800f5100818f590010003900a6
:104eac00ffb897007fb897000000e900f0bf9f00a3
:104ebc00e0bb20002d150700efb897000040eb0079
:104ecc00804898006fb997006000b80020019800e6
:104edc00310198008000eb006fb89700aa10070012
:104eec007fb897000000e800f0bf9f00ffb8970064
:104efc00f05d8000808f5000d5ff39000080fa00f3
:104f0c00000006000200fa00f0bf9f0057110700d6
:104f1c00a000200098090700800078007fb8970057
:104f2c00610098007fb89700600090000000e000de
:104f3c00050032007fb89700600090008000780078
:104f4c001000200080087800501107000080fa0043
:104f5c00000006000200fa00f0bf9f007fb8970027
:104f6c0060009000170a07000080fa00000006009d
:104f7c000800fa00e0bf9f00e68057006fb897006a
:104f8c005b0c0700c0bf9f004fb897000000e0000b
:104f9c00030032004fb89700f0bf9f000e0037009f
:104fac005fb897000000e000090032002f110700e5
:104fbc005fb897006000900010007800c0bf9f00a1
:104fcc00321107004fb89700f0bf9f000200370066
:104fdc0010102000f0bf9f007fb897000080fa00ef
:104fec00000006000a00fa00d0bf9f00e1bf9f003e
:104ffc00e88057005fb897003d0c0700b0bf9f00da
:10500c003fb897000000e00003003200bfb89700e3
:10501c00f1bf9f000e0037004fb897000000e00072
:10502c0009003200111107004fb897006000900082
:10503c00efb8970001087800141107000000eb008e
:10504c00f0bf9f000200370011102000f1bf9f003d
:10505c007fb897000080fa00000006000800fa00f4
:10506c00e0bf9f00e68057006fb89700200c070048
:10507c00c0bf9f004fb897000000e0000300320053
:10508c004fb89700f0bf9f001d0037005fb8970026
:10509c000000e00018003200f41007005fb8970021
:1050ac0060009000900090005fb897006000900046
:1050bc0010007800808f500006003100315e8000b7
:1050cc005fb89700600090000080e800641407004f
:1050dc0005003700315e80005fb8970060009000db
:1050ec00660040005e140700e81007000000eb00ab
:1050fc00f0bf9f000200370010102000f0bf9f008f
:10510c007fb897000080fa00000006000a00fa0041
:10511c00e0bf9f00e68057006fb89700f40b0700c4
:10512c00c0bf9f004fb897000000e00003003200a2
:10513c004fb89700f0bf9f00230037005fb897006f
:10514c000000e0001e003200c81007000000eb0059
:10515c00b0bf9f0010003700bfb897005fb8970032
:10516c00600090000080e800ed13070080007800dc
:10517c00305e8000808f500004003a00c31007009e
:10518c0010002000f0bf9f000f0037003fb89700c1
:10519c000000e800b0bf9f00bfb897005fb8970051
:1051ac006000900010009000808f5000eaff3900e2
:1051bc00b61007000000eb00f0bf9f0002003700a4
:1051cc000000eb00f0bf9f007fb897000080fa0052
:1051dc00000006000e00fa00e0bf9f00e6805700ba
:1051ec006fb89700c20b0700c0bf9f004fb8970065
:1051fc000000e000030032004fb89700f0bf9f00a2
:10520c00520037005fb897000000e0004d003200fc
:10521c000000eb00a0bf9f00941007000000eb0003
:10522c00b0bf9f0014003700bfb897005fb897005d
:10523c00600090000080e800b9130700800078003f
:10524c00305e8000808f500008003a00bfb8970095
:10525c005fb89700600090000080e80043140700de
:10526c0010002000a0bf9f00090037003fb8970036
:10527c000000e800b0bf9f00bfb897005fb8970070
:10528c006000900010009000808f5000e6ff390005
:10529c002fb897000000e00004003a007b100700d4
:1052ac000000eb00f0bf9f00280037005fb89700ac
:1052bc0060009000900090005fb897006000900034
:1052cc0010007800808f5000190031005fb89700f3
:1052dc0060009000300090000000e00014003200ec
:1052ec005fb8970060009000660040008000eb0003
:1052fc008b13070090bf9f005fb897006000900071
:10530c000080e8009fb89700d51307005fb897009e
:10531c00600090009fb897009b0f07005fb8970044
:10532c0060009000660040008000eb000f14070046
:10533c0090100700551007000000eb00f0bf9f0015
:10534c000200370010102000f0bf9f007fb89700bc
:10535c000080fa00000006000800fa00e0bf9f0081
:10536c006fb8970069ff07000000e00003003200ef
:10537c0010202000f0bf9f0012003700e68057007d
:10538c006fb897005a0b0700c0bf9f004fb897002b
:10539c000000e000030032004fb89700f0bf9f0000
:1053ac00080037005fb897000000e00003003200ef
:1053bc000000eb00f0bf9f0002003700101020002f
:1053cc00f0bf9f007fb897000080fa000000060035
:1053dc000a00fa00c0bf9f00d1bf9f004fb89700d2
:1053ec00f0bf9f00ffb89700e28f50000f00320013
:1053fc007fb89700e50f500008003200ffb8970007
:10540c000100e000010032000e003700dfb8970009
:10541c00a01e2b00800878000d003700dfb8970025
:10542c00001e2b008008780009003700209b22000a
:10543c00b0bf9f005fb89700ea8057000108780062
:10544c000300370020102000e0bf9f00020037004f
:10545c008000eb00e1bf9f006fb897000080fa005e
:10546c00000006000200fa00f0bf9f0010002000b0
:10547c0041080700800078007fb897006100980011
:10548c000080fa00000006000200fa00f0bf9f0046
:10549c007fb8970060009000ca0807000080fa00ef
:1054ac00000006000800fa00e0bf9f00e6805700ed
:1054bc006fb897000e0b0700c0bf9f004fb8970046
:1054cc000000e000030032004fb89700f0bf9f00cf
:1054dc00130037005fb897000000e0000e003200a8
:1054ec00e20f07005fb89700600090008000780022
:1054fc0010c0b300804878005fb89700600090003f
:10550c008000eb00200f0700e00f07000000eb000d
:10551c00f0bf9f000200370010102000f0bf9f006a
:10552c007fb897000080fa00000006000800fa001f
:10553c00e0bf9f00e68057006fb89700ec0a0700a9
:10554c00c0bf9f004fb897000000e000030032007e
:10555c004fb89700f0bf9f00180037005fb8970056
:10556c000000e00013003200c00f07005fb8970086
:10557c0060009000104078000004e00009003a0040
:10558c005fb8970060009000800078000040eb004e
:10559c00804878005fb89700600090008000eb00b6
:1055ac00f90e0700b90f07000000eb00f0bf9f00d9
:1055bc000200370010102000f0bf9f007fb897004a
:1055cc000080fa00000006000800fa00e0bf9f000f
:1055dc00e68057006fb89700c50a0700c0bf9f0050
:1055ec004fb897000000e000030032004fb897005e
:1055fc00f0bf9f000f0037005fb897000000e0007d
:10560c000a003200990f07005fb897006000900005
:10561c00800078000040eb00804878009b0f07006a
:10562c000000eb00f0bf9f000200370010102000bc
:10563c00f0bf9f007fb897000080fa0000000600c2
:10564c000800fa00e0bf9f00e68057006fb8970093
:10565c00a70a0700c0bf9f004fb897000000e000ea
:10566c00030032004fb89700f0bf9f0013003700c3
:10567c005fb897000000e0000e0032007b0f0700bf
:10568c005fb8970060009000104078000004e000c4
:10569c00040032007d0f070010202000f0bf9f0097
:1056ac0006003700790f07000000eb00f0bf9f00e9
:1056bc000200370010102000f0bf9f007fb8970049
:1056cc000080fa00000006000800fa00e0bf9f000e
:1056dc00e68057006fb89700850a0700c0bf9f008f
:1056ec004fb897000000e000030032004fb897005d
:1056fc00f0bf9f00130037005fb897000000e00078
:10570c000e003200590f07005fb897006000900040
:10571c00104078000004e000040032005b0f07002a
:10572c0010002000f0bf9f0006003700570f070045
:10573c000000eb00f0bf9f000200370010102000ab
:10574c00f0bf9f007fb897000080fa0000000600b1
:10575c000a00fa00c0bf9f00d1bf9f004fb897004e
:10576c00f0bf9f00ffb89700e28f50000f0032008f
:10577c007fb89700e60f500008003200ffb8970082
:10578c000100e000010032000e003700dfb8970086
:10579c00601f2b00800878000d003700dfb89700e1
:1057ac00e01e2b00800878000900370060b2220050
:1057bc00b0bf9f005fb89700ea80570001087800df
:1057cc000300370020102000e0bf9f0002003700cc
:1057dc008000eb00e1bf9f006fb897000080fa00db
:1057ec00000006000800fa0020002000c0bf9f0047
:1057fc00e48057003000200080087800e09e2200f2
:10580c00d0bf9f00e4805700e0ba220090009800bf
:10581c004fb89700dfb897008c080700e48057005a
:10582c001100780091009000880807000080fa00b1
:10583c00000006000400fa00f0bf9f0040002000aa
:10584c004d070700e0bf9f006fb897000000e00015
:10585c00030032007fb89700efb897006100980002
:10586c000080fa00000006000200fa00f0bf9f0062
:10587c007fb8970060009000d20707000080fa0004
:10588c00000006000a00fa00d0bf9f00e1bf9f0095
:10589c00e88057005fb89700150a0700b0bf9f005b
:1058ac003fb897000000e000030032003fb89700bb
:1058bc00f0bf9f00160037004fb897000000e000c3
:1058cc00110032004fb89700600090000000e0001b
:1058dc000d003200e50e07004fb8970060009000f5
:1058ec00efb897005e1207004fb897006000900069
:1058fc008000eb00240e0700e40e07000000eb0014
:10590c00f0bf9f000200370010102000f0bf9f0076
:10591c007fb897000080fa00000006000a00fa0029
:10592c00d0bf9f00e1bf9f00e88057005fb8970091
:10593c00ef090700b0bf9f003fb897000000e000e0
:10594c00030032003fb89700f0bf9f0021003700e2
:10595c004fb897000000e0001c0032004fb89700d1
:10596c00600090000000e00018003200bf0e07003d
:10597c004fb8970060009000100078000000e00025
:10598c0007003a00efb897000000eb0080087800a1
:10599c00be0e070060002000f0bf9f000d00370016
:1059ac004fb89700600090008000eb00dc110700fe
:1059bc00800078006fb8970001087800b30e0700dc
:1059cc000000eb00f0bf9f00020037001010200019
:1059dc00f0bf9f007fb897000080fa00000006001f
:1059ec000a00fa00d0bf9f00e1bf9f00e88057007b
:1059fc005fb89700be090700b0bf9f003fb8970083
:105a0c000000e000030032003fb89700f0bf9f0099
:105a1c00210037004fb897000000e0001c00320056
:105a2c004fb89700600090000000e00018003200b2
:105a3c008e0e07004fb897006000900010007800a1
:105a4c000000e00007003a00efb897000000eb0000
:105a5c00800878008d0e070060002000f0bf9f00ca
:105a6c000d0037004fb89700600090008000eb00ed
:105a7c003e120700800078006fb89700010878008c
:105a8c00820e07000000eb00f0bf9f000200370001
:105a9c0010102000f0bf9f007fb897000080fa0024
:105aac00000006000800fa00e0bf9f00e6805700e7
:105abc006fb897008e090700c0bf9f004fb89700c2
:105acc000000e000030032004fb89700f0bf9f00c9
:105adc00170037005fb897000000e000120032009a
:105aec005fb89700600090000000e0000e003200ec
:105afc005e0e07005fb89700600090001000780001
:105b0c000000e00004003200600e070010202000ae
:105b1c00f0bf9f00060037005c0e07000000eb0092
:105b2c00f0bf9f000200370010102000f0bf9f0054
:105b3c007fb897000080fa00000006000800fa0009
:105b4c00c0bf9f00d1bf9f004fb89700f0bf9f0010
:105b5c007fb89700e20f50000f0032007fb897001b
:105b6c00e70f5000080032007fb897000000e000fb
:105b7c00010032000c003700dfb8970020202b000a
:105b8c00800878000b003700dfb89700c01f2b008f
:105b9c008008780007003700dfb89700a01f2b00a3
:105bac00800878000300370020102000e0bf9f0021
:105bbc00020037000000eb00e0bf9f006fb89700b9
:105bcc000080fa00000006000400fa0040002000eb
:105bdc00e0bf9f0040da2200f0bf9f006fb8970033
:105bec00ffb89700990707000080fa000000060034
:105bfc000200fa00f0bf9f007fb8970020009000d1
:105c0c00800078000100a0007fb897002100980068
:105c1c000080fa00000006000200fa00f0bf9f00ae
:105c2c000080fa00000006001a00fa00b0bf9f00c6
:105c3c00c1bf9f00d2bf9f00e3bf9f00f080570001
:105c4c003fb897002a090700f0b79f007fb0970074
:105c5c000000e000030032007fb09700f0bf9f000f
:105c6c00180137000fb897000000e0001301320054
:105c7c00fe0d0700a05d8000ee8057006fb9970005
:105c8c008b070700f0b79f007fb097000000e00083
:105c9c0004003200fd0d0700ffb09700f1bf9f001c
:105cac000801370060202b00f3ef0700e001200013
:105cbc0031060700e0b79f006fb097000000e000ce
:105ccc0008003a001fb89700d6080700ef0d070030
:105cdc00f0222b00e8ef070020002000f0bf9f000f
:105cec00f8003700efb0970010002000a0089800d3
:105cfc000fb8970060009000800078006fb097009c
:105d0c00010878001fb89700ec805700f8080700ce
:105d1c00f0b79f007fb097000000e0000a0032004f
:105d2c001fb89700bf0807006fb09700a5060700c3
:105d3c00d60d0700e0242b00cfef0700ffb0970033
:105d4c00f1bf9f00df0037002fb89700efb097002e
:105d5c0061009800afb897002fb897002000900012
:105d6c000000a000a00098001fb89700ad08070025
:105d7c000020200000060700c0b79f004fb097001e
:105d8c000000e00006003a00c00d0700b0272b0011
:105d9c00b9ef070020002000f0bf9f00c9003700ba
:105dac00e0292b00b4ef07000fb8970060009000bb
:105dbc00cfb09700bb1407000000e0004c003a0085
:105dcc00f02b2b00acef07004fb09700a814070086
:105ddc00800078004fb89700808f50003f0036004d
:105dec00cfb0970041c893000081fb0051c89300cd
:105dfc000080fb004800dd0002007000000278000b
:105e0c0061c893000081fb0071c893000080fb0007
:105e1c004800dd0002007000800278000400be0023
:105e2c000001eb008001eb000fba970064029000b8
:105e3c00040a900005002000060020000700200046
:105e4c0010f807006fb297002002980031029800fa
:105e5c004202980053029800cfb0970001d09300f3
:105e6c000081fb0011d093000080fb004800dd0096
:105e7c00020070000002780021d093000081fb002a
:105e8c0031d093000080fb004800dd000200700060
:105e9c00800278000400be000001eb008001eb00e2
:105eac000fba970064029000040a900005002000cd
:105ebc000600200007002000f2f707006fb29700e1
:105ecc006002980071029800020a9800130a980068
:105edc004fb097003b0607001f0037004fb09700ec
:105eec003806070081002000f1bf9f0075003700c5
:105efc004fb09700330607006fb297006000b800f0
:105f0c006011b800200298003102980042029800fb
:105f1c00530298000fb89700600090004009900061
:105f2c006fb09700ec0040000fb897006000900035
:105f3c001000780002000100f0b79f007fb09700be
:105f4c000000e00004003200500d07007fb0970005
:105f5c00f0bf9f005b0037005fb897000000e000c7
:105f6c0009003200dfb89700802d2b0064ef07008a
:105f7c000000e00004003a00440d07008000eb0034
:105f8c00f1bf9f004f0037000000eb00d0b79f001f
:105f9c0042003700dfb0970020b8200060100700e7
:105fac00b0b79f003fb097000000e000380032000f
:105fbc005fb897000000e000050032003fb097008a
:105fcc00dfb897004eef07000000e000030032003e
:105fdc005fb897000000e0002d003a00c02d2b00a8
:105fec0025ef07003fb09700e00090006fb09700de
:105ffc00010001000000e0001e003200202f2b00e9
:10600c001def07003fb09700f00090006fb09700b5
:10601c0001000100f0b79f007fb097000000e00086
:10602c0004003200190d0700ffb09700f1bf9f006c
:10603c00240037000fb897006000900080007800b3
:10604c0010002000e00898000fb897006000900046
:10605c00bfb0970071089800efb0970010002000b7
:10606c00a0089800090d07000000eb00f0bf9f008e
:10607c00140037005fb897000000e0000400320005
:10608c000000eb00d0bf9f000000eb00d0b79f00da
:10609c005fb097000000e800d0b79f00dfb097001a
:1060ac00105c8000808f5000baff3900f70c07009d
:1060bc00e1302000f1bf9f000200370010102000db
:1060cc00f0bf9f007fb897000080fa000000060028
:1060dc000a00fa00d0bf9f00e1bf9f00e880570084
:1060ec005fb8970002080700b0bf9f003fb8970049
:1060fc000000e000030032003fb89700f0bf9f00a3
:10610c001f0037004fb897000000e0001a00320063
:10611c00d60c07004fb89700600090006008900004
:10612c000000e000110032003fb897000000e000d2
:10613c000a003a004fb89700600090008000780089
:10614c000000eb00e00898004fb89700600090004a
:10615c00800078000000eb00f0089800cb0c0700e2
:10616c003fb89700f0bf9f000500370010302000ab
:10617c00f0bf9f000200370010102000f0bf9f00fe
:10618c007fb897000080fa00000006000800fa00b3
:10619c00e0bf9f00e68057006fb89700d407070058
:1061ac00c0bf9f004fb897000000e0000300320012
:1061bc004fb89700f0bf9f00140037005fb89700ee
:1061cc000000e0000f003200a80c07005fb8970039
:1061dc0060009000600890000000e00003003200b6
:1061ec0010002000c0bf9f00020037000000eb0031
:1061fc00c0bf9f00a50c07004fb89700f0bf9f00d1
:10620c00020037000000eb00f0bf9f007fb8970042
:10621c000080fa00000006000400fa00e0bf9f00b6
:10622c00f1bf9f000000eb000080fa0000000600a8
:10623c000800fa00c0bf9f00d1bf9f00e2bf9f00c3
:10624c00f3bf9f000000eb000080fa000000060086
:10625c000c00fa00c0bf9f00d1bf9f00e2bf9f009f
:10626c0070302b0084ee0700ea8057004fb897007f
:10627c009f070700a0bf9f002fb897000000e00009
:10628c00030032002fb89700f0bf9f0013003700b7
:10629c003fb897000000e0000e003200730c0700be
:1062ac003fb8970060009000130020006fb9970072
:1062bc00dfb897006022b8006033b800c80107004f
:1062cc00a0bf9f00710c07002fb89700f0bf9f0074
:1062dc000200370010102000f0bf9f007fb897001d
:1062ec000080fa00000006000a00fa00d0bf9f00f0
:1062fc00e1bf9f00e88057005fb897007c0707005c
:10630c00b0bf9f003fb897000000e00003003200d0
:10631c003fb89700f0bf9f002c0037004fb8970094
:10632c000000e00027003200500c07004fb8970027
:10633c0060009000400090000000e0001d00320062
:10634c004fb8970060009000400990004fb897003c
:10635c006000900010007800efb897000200010078
:10636c00b0bf9f006fb897003002be002003be0084
:10637c004fb8970060009000901090002011900092
:10638c00b0119000001090000000520081805a0063
:10639c0002015b0083815b006fba9700009abe001c
:1063ac000292be00390c07000000eb00f0bf9f000a
:1063bc0006003700350c070000312000f0bf9f00ad
:1063cc000200370010102000f0bf9f007fb897002c
:1063dc000080fa00000006000c00fa00c0bf9f000d
:1063ec00d1bf9f00e2bf9f00ea8057004fb89700d3
:1063fc003f070700a0bf9f002fb897000000e000e8
:10640c00030032002fb89700f0bf9f001300370035
:10641c003fb897000000e0000e003200130c07009c
:10642c003fb8970060009000130020006fb99700f0
:10643c00dfb897006022b8006033b800d7010700be
:10644c00a0bf9f00110c07002fb89700f0bf9f0052
:10645c000200370010102000f0bf9f007fb897009b
:10646c000080fa00000006001e00fa00889fbe00a3
:10647c008a9fbe00c0b79f00d4b79f00e5b79f00ae
:10648c00f6b79f0087bf9f0091bf9f00a0fd2f0014
:10649c000f004000e40040004fb0970014070700c5
:1064ac00e0af9f006fa897000000e00003003200ef
:1064bc00efa99700a3bf9f00900037007fa897001b
:1064cc000000e0008b003200e80b07007fa897006b
:1064dc0060009000d0af9f005fa897004000900034
:1064ec000000e00004003a00e80b07000031200037
:1064fc00a0bf9f00810037009fb99700b3bf9f00da
:10650c003fb89700e10f500011003200bfb997005f
:10651c00e18f5100040039003fb89700e20f5000a2
:10652c001e0032006f0037005fb09700efb097008d
:10653c007fb197008fb997005faa9700001298005f
:10654c00111298002212980033129800650037003f
:10655c005fa89700001290009012900020139000fa
:10656c00b01390005fb09700efb097007fb1970029
:10657c008fb997000400400085804800060149004f
:10658c00878149005faa97000012980011129800a9
:10659c002212980033129800520037005fa897001f
:1065ac00400990005fa8970010007800a3fd2f0011
:1065bc008f814100e680410002000100e0af9f00a6
:1065cc006fa897000000e00004003200af0b07003a
:1065dc006fa89700a0bf9f00480037005fb29700dc
:1065ec00efb297007fb397008fbb97000fb0970067
:1065fc009fb097002fb19700bfb197000020e1002a
:10660c0001a8e10002b0e10003b8e1001b00390071
:10661c005fa8970000149000901490002015900033
:10662c00b01590000fb297009fb297002fb3970050
:10663c00bfb397005fb09700efb097007fb19700a2
:10664c008fb997000000520081805a0002015b0054
:10665c0083815b0008004000898048000a014900e2
:10666c008b8149005faa97000012980011129800c4
:10667c0022129800331298001a0037005fa8970076
:10668c00001490009014900020159000b01590000c
:10669c005fb29700efb297007fb397008fbb970064
:1066ac000fb097009fb097002fb19700bfb1970024
:1066bc000000520081805a0002015b0083815b0064
:1066cc000000540081805c0002015d0083815d004c
:1066dc005faa9700001298001112980022129800dd
:1066ec0033129800690b07008001eb00a3bf9f00d9
:1066fc000200370010102000a0bf9f002fb8970099
:10670c004f05be004f04be000080fa0000000600da
:10671c000800fa00e0bf9f00e68057006fb89700b2
:10672c0073060700c0bf9f004fb897000000e00041
:10673c00030032004fb89700f0bf9f0012003700e3
:10674c005fb897000000e0000d003200470b070017
:10675c005fb8970060009000d00890005fb8970079
:10676c00600090001000780001000100c0bf9f0085
:10677c00460b07004fb89700f0bf9f000200370090
:10678c0010102000f0bf9f007fb897000080fa0027
:10679c00000006000800fa00c0bf9f00d1bf9f0098
:1067ac004fb89700f0bf9f007fb89700e90f5000db
:1067bc000b0032007fb89700ea0f50000c0032003b
:1067cc007fb897000000e000010032000c00370099
:1067dc00dfb8970020332b00800878000b003700bf
:1067ec00dfb8970080322b00800878000700370054
:1067fc00dfb89700e0312b008008780003003700e9
:10680c0020102000e0bf9f00020037000000eb00ca
:10681c00e0bf9f006fb897000080fa0000000600f0
:10682c001a00fa00f0b79f0070805700010878003a
:10683c00120098002300980034009800450098003e
:10684c005600980067009800000320004a030700d8
:10685c00c0b79f004fb097000000e00003003a0063
:10686c0020002000f0bf9f00330037004fb097008e
:10687c00e40040007080570006000900b018780052
:10688c00e100b100e000b1004fb097007201400090
:10689c00fa80570070805000800078000200780069
:1068ac001101be000288be0064004000e48040007c
:1068bc001101be000288be0064004000e48040006c
:1068cc0011087800e90a0700cfb09700e0b7200064
:1068dc00630e0700ed0a0700705d8000f48057001e
:1068ec007fb1970072040700b0b79f006fb097009c
:1068fc00f6805700fe0507005fb09700cfb19700f8
:10690c00630098006fb09700c6050700525c8000ca
:10691c004fb09700020878004fb0970090007800b5
:10692c002fa89700010878000200e800505c88004e
:10693c000000eb00f0bf9f007fb897000080fa00ca
:10694c00000006000a00fa00d0bf9f00e1bf9f00c4
:10695c00c60a07000000eb00c0bf9f0016003700fe
:10696c00cfb89700e0b72000ed0d0700b0bf9f0037
:10697c003fb897000000e0000c0032003fb89700d1
:10698c00900078005fb89700808f500007003a00a5
:10699c006fb89700bfb8970001087800bb0a0700d2
:1069ac000000eb00f0bf9f000a0037004fb89700c3
:1069bc000000e800c0bf9f00cfb89700f05b8000dc
:1069cc00808f5000e6ff3900b00a0700310020002c
:1069dc00f1bf9f007fb897000080fa00000006000e
:1069ec001e00fa00a0b79f00b4b79f00c5b79f0068
:1069fc00d6b79f00e7b79f00f1b79f0082bf9f00fb
:106a0c0093bf9f002fb097000000e00003003a00f6
:106a1c0070002000f0bf9f005d00370060332b003a
:106a2c0095ec07002fb09700200090000000e000cc
:106a3c00430032002fb09700100890000000e000d7
:106a4c003c0032002fb0970010089000e0bf9f0070
:106a5c001fb897000000e0000a0032002fb097002a
:106a6c00001290009012900020139000b013900030
:106a7c00a4bf9f00b5bf9f00c6bf9f00d7bf9f009c
:106a8c00080037003fb09700cfb097005fb1970078
:106a9c00efb19700a0bf9f00b1bf9f00c2bf9f0086
:106aac00d3bf9f002fb09700100078000fb997004c
:106abc00ffb097002fba9700bfba97004fbb970053
:106acc00dfbb9700efb997000300010090b79f0060
:106adc001fb297000400e0002b003a001fb897008b
:106aec000000e000280032002fb097000012900048
:106afc009012900020139000b01390000fb89700e4
:106b0c0001002000020020000300200004004000cf
:106b1c008580480006014900878149002fb2970003
:106b2c00001298001112980022129800331298004b
:106b3c00150037005000200090b79f00120037005e
:106b4c002fb09700300090000000e00003003200ee
:106b5c005030200090b79f000b0037002fb09700eb
:106b6c00500090000000e000030032007030200064
:106b7c0090b79f000400370050352b003eec070007
:106b8c008030200090b79f009fb29700f5bf9f0008
:106b9c007fb897000080fa00000006001e00fa0083
:106bac00a0b79f00b4b79f00c5b79f00d6b79f0092
:106bbc00e7b79f00f1b79f0082bf9f0093bf9f0074
:106bcc002fb097000000e00003003a007000200096
:106bdc00f0bf9f00590037002fb097003000900095
:106bec000000e000430032002fb097001008900026
:106bfc000000e0003c0032002fb09700200890000d
:106c0c00e0bf9f001fb897000000e0000a003200b0
:106c1c002fb097000012900090129000201390005b
:106c2c00b0139000a4bf9f00b5bf9f00c6bf9f00cc
:106c3c00d7bf9f00080037003fb09700cfb0970038
:106c4c005fb19700efb19700a0bf9f00b1bf9f004d
:106c5c00c2bf9f00d3bf9f002fb0970010007800d9
:106c6c000fb99700ffb097002fba9700bfba9700e3
:106c7c004fbb9700dfbb9700efb9970003000100f3
:106c8c0090b79f001fb297000400e00029003a0063
:106c9c001fb897000000e000260032002fb09700cc
:106cac00001290009012900020139000b0139000ee
:106cbc000fb8970001002000020020000300200004
:106ccc000400400085804800060149008781490086
:106cdc002fb29700001298001112980022129800ff
:106cec0033129800130037005000200090b79f001b
:106cfc00100037002fb09700200090000000e0003b
:106d0c00030032004030200090b79f00090037008c
:106d1c002fb09700500090000000e00003003200fc
:106d2c007030200090b79f000200370080302000a8
:106d3c0090b79f009fb29700f5bf9f007fb8970058
:106d4c000080fa00000006001000fa0080bf9f00cf
:106d5c0094bf9f00a5bf9f00b6bf9f00c7bf9f00f9
:106d6c00d1bf9f00e2bf9f000fb897000000e0006a
:106d7c00040032000fb89700100078000000e0000b
:106d8c0003003a0070002000f0bf9f001400370091
:106d9c000fb8970020029000b002900040039000c2
:106dac00d00390001fb89700afb897003fb9970079
:106dbc00cfb99700040240008582480006034900c1
:106dcc00878349000fb89700100078008001eb0012
:106ddc006fb99700dfb8970070ff0700f0bf9f00f6
:106dec007fb897000080fa00000006001000fa003f
:106dfc0080bf9f0094bf9f00a5bf9f00b6bf9f00a0
:106e0c00c7bf9f00d1bf9f00e2bf9f0040382b003f
:106e1c0099eb07000fb89700b0009000400190006c
:106e2c00d001900020009000801f7800103a2b00b9
:106e3c00801f7800aaeb0700e48757000fb8970073
:106e4c000000e000040032000fb89700100078003a
:106e5c000000e00003003a0070002000f0bf9f002b
:106e6c00140037000fb8970020029000b002900079
:106e7c0040039000d00390001fb89700afb8970064
:106e8c003fb99700cfb997000402400085824800b3
:106e9c0006034900878349000fb89700100078005b
:106eac008001eb006fb99700dfb89700ccfe0700ac
:106ebc00f0bf9f007fb897000080fa00000006002a
:106ecc001000fa006e835700000b78001103980035
:106edc00220398003303980044039800550398004c
:106eec0020022000a401070080bf9f000fb897006c
:106efc000000e00003003a0022002000f2bf9f00d7
:106f0c001b0037000fb997006e8057008000780087
:106f1c00020078001101be000288be00640040002f
:106f2c00e48040001101be000288be0064004000f5
:106f3c00e48040001101be000288be000fb897002b
:106f4c00ec004000f08157007c8051000a000900e1
:106f5c00b01878006101b1006001b1008fb89700e2
:106f6c0020b82000be0c07000000eb00f0bf9f0013
:106f7c007fb897000080fa00000006000400fa00b9
:106f8c006000b800e0bf9f00f1bf9f005c050700e8
:106f9c00705d8800705d8000e0bf9f00003d2300a5
:106fac00f0bf9f006fb89700ffb89700a7020700cb
:106fbc000c120700481407000080fa0000000600bd
:106fcc001800fa0080bf9f0094bf9f00a5bf9f00d0
:106fdc00b6bf9f00c7bf9f00d1bf9f00e2bf9f00fd
:106fec00115e80000fb89700810f500031003a00fd
:106ffc000000eb00f0b79f005fb89700e0b79f0070
:10700c0026003700a15e80007fb09700810f5000f2
:10701c0004003d007fb097000000e800f0b79f002f
:10702c000300370060302000f0bf9f00580037008d
:10703c0004f507000004e000f2ff32000000eb0052
:10704c00f0b79f0020c2bf0066406000e64f5000c2
:10705c0008003a0030118000800078006fb0970073
:10706c00010878006fb097000080e800e0b79f003f
:10707c000700370030118000804078005fb897001f
:10708c00014878005fb897000000e800d0bf9f006f
:10709c006fb897000000e900e0bf9f006fb8970041
:1070ac000000e000e2ff3a000000eb00f0bf9f00a0
:1070bc0037003700215e80000fb89700810f500019
:1070cc0031003a000000eb00d0b79f005fb897008a
:1070dc00c0b79f0026003700a15e80005fb097000c
:1070ec00810f500004003d005fb097000000e800e5
:1070fc00d0b79f000300370060302000f0bf9f0026
:10710c0023003700d2f407000004e000f2ff320045
:10711c000000eb00d0b79f0030c2bf00664060009b
:10712c00e64f500008003a00b01180008000780053
:10713c004fb09700010878004fb097000080e8002e
:10714c00c0b79f0007003700b01180008040780066
:10715c005fb89700014878005fb897000000e8001e
:10716c00d0bf9f006fb897000000e900e0bf9f0000
:10717c006fb897000000e000e2ff3a000000eb005f
:10718c00f0bf9f000200370050002000f0bf9f00ae
:10719c007fb897000080fa00000006001400fa0087
:1071ac0080bf9f0094bf9f00a5bf9f00b6bf9f00ec
:1071bc00c7bf9f00d1bf9f00e2bf9f00115e800040
:1071cc000fb89700810f50002c003a005fb8970061
:1071dc00f0b79f0020c2bf0066406000e64f500031
:1071ec0020003a000d00370023c2bf00624060004f
:1071fc000004e000fcff3a007fb09700100078001c
:10720c00201188007fb097000080e800f0b79f0045
:10721c006fb897000000e900e0bf9f006fb89700bf
:10722c000000e000f0ff3a001100370023c2bf005d
:10723c00624060000004e000fcff3a005fb8970079
:10724c00104078000080fb00201188005fb8970088
:10725c000000e800d0bf9f006fb897000000e90065
:10726c00e0bf9f006fb897000000e000efff3a000e
:10727c000000eb00f0bf9f0032003700215e800061
:10728c000fb89700810f50002c003a005fb89700a0
:10729c00e0b79f0030c2bf0066406000e64f500070
:1072ac0020003a000d00370033c2bf00624060007e
:1072bc000004e000fcff3a006fb09700100078006b
